{
	"data": {
		"bytecode": {
			"linkReferences": {},
			"object": "6102c0604052600a61018081815260086101a081905260066101c081905260046101e081905260026102008190526102208690526102409390935261026091909152610280526102a052610056916001919061089d565b506032601b556096601c556064601d819055601e5560c8601f556014602055600160218190556402540be40060225560235560196024556025805460ff19169055610e106026556103e8602d55620f4240602e5562069780602f553480156100bc575f80fd5b5060408051808201825260038082526213955560ea1b60208084019190915283518085018552918252621b9d5d60ea1b908201525f80546001600160a01b031916339081178255935173d99d1c33f9fc3444f8101754abc46c52416550d19473e96aaf0080157c2b5008ff0ddc5466b0c4f0d35e94939260069273777e2217a6e4438a6204e8e43b7648970e6417f99273de2eccedb514c8c71aebbfb4507dd84f60a02f1992736a92c5512b72f228627075764ba233537403c8ea928291907f8be0079c531659141344cd1fd0a4f28419497f9722a3daafe3b4186f6b6457e0908290a3506001600160a01b0387166101fc5760405162461bcd60e51b815260206004820152601b60248201527f7573647420616464726573732063616e6e6f74206265207a65726f000000000060448201526064015b60405180910390fd5b6001600160a01b0382166102525760405162461bcd60e51b815260206004820152601a60248201527f46756e64416464726573732063616e6e6f74206265207a65726f00000000000060448201526064016101f3565b6001600160a01b0381166102a85760405162461bcd60e51b815260206004820152601960248201527f446576416464726573732063616e6e6f74206265207a65726f0000000000000060448201526064016101f3565b6001600160a01b0383166102fe5760405162461bcd60e51b815260206004820152601d60248201527f52656365697665416464726573732063616e6e6f74206265207a65726f00000060448201526064016101f3565b603361030a8782610999565b5060346103178682610999565b5060ff841660c0526001600160a01b038816610100819052305f908152600c6020908152604080832084845282528083205f199055805163c45a015560e01b815290518c949263c45a015592600480820193918290030181865afa158015610381573d5f803e3d5ffd5b505050506040513d601f19601f820116820180604052508101906103a59190610a53565b6001600160a01b038a811661014081905260405163095ea7b360e01b815291851660048301525f19602483015291925063095ea7b3906044016020604051808303815f875af11580156103fa573d5f803e3d5ffd5b505050506040513d601f19601f8201168201806040525081019061041e9190610a80565b50610140516040516364e329cb60e11b81523060048201526001600160a01b0391821660248201525f9183169063c9c65396906044016020604051808303815f875af1158015610470573d5f803e3d5ffd5b505050506040513d601f19601f820116820180604052508101906104949190610a53565b6001600160a01b0381165f818152601360205260408120805460ff19166001179055610120919091529091506104cb88600a610b98565b90505f6104dc826301406f40610ba6565b90505f6104ec83621e8480610ba6565b90505f83610501621e84806301406f40610bbd565b61050b9190610ba6565b60e08490526001600160a01b038b165f818152600b60205260408082208690555192935090915f80516020615e6c8339815191529061054d9086815260200190565b60405180910390a3601a80546001600160a01b0319166001600160a01b038b81169190911790915588811660a0528a16608052610140516040513090610592906108e0565b6001600160a01b03928316815291166020820152604001604051809103905ff0801580156105c2573d5f803e3d5ffd5b506001600160a01b03166101608190525f818152600b60209081526040808320859055518481528392915f80516020615e6c833981519152910160405180910390a36001600160a01b038b81165f908152600f602090815260408083208054600160ff1991821681179092558f86168552828520805482168317905530808652838620805483168417905533865283862080548316841790557ff4803e074bd026baaf6ed2e288c9515f68c72fb7216eebdd7cae1718a53ec37580548316841790557f99629f56119585bf27511b6b7d295dffb54757453fcc3dabcf51d92028301f10805483168417905587871680875284872080548416851790557fd2ac945fcc0096878c763e37d6929b78378c1a2defabde8ba7ee5ed1d6e7a5b280548416851790557fc73b1d6eda13a615b81c31830292dbbbf5fbb07f472982e223002bd83d5c3dc4805484168517905560119095527f4ad3b33220dddc71b994a52d72c06b10862965f7d926534c05c00fb7e819e7b780548316841790557f97847ee99463795296047093514439c3127772df3715e628aa85601cf854171680548316841790558552828520805482168317905592845281842080548416821790558a851684528184208054841682179055938c168352909120805490911690911790556107ad8a6107d0565b50506801a055690d9db80000602d5550610be49c50505050505050505050505050565b6001600160a01b0381165f90815260186020526040812054900361089a57603254158061082c5750806001600160a01b031660325f8154811061081557610815610bd0565b5f918252602090912001546001600160a01b031614155b1561089a57803b801561083d575050565b50603280546001600160a01b0383165f818152601860205260408120839055600183018455929092527f11df491316f14931039edfd4f8964c9a443b862f02d4c7611d18c2bc4e6ff6970180546001600160a01b03191690911790555b50565b82600a81019282156108d0579160200282015b828111156108d0578251829060ff169055916020019190600101906108b0565b506108dc9291506108ed565b5090565b6103c380615aa983390190565b5b808211156108dc575f81556001016108ee565b634e487b7160e01b5f52604160045260245ffd5b600181811c9082168061092957607f821691505b60208210810361094757634e487b7160e01b5f52602260045260245ffd5b50919050565b601f82111561099457805f5260205f20601f840160051c810160208510156109725750805b601f840160051c820191505b81811015610991575f815560010161097e565b50505b505050565b81516001600160401b038111156109b2576109b2610901565b6109c6816109c08454610915565b8461094d565b6020601f8211600181146109f8575f83156109e15750848201515b5f19600385901b1c1916600184901b178455610991565b5f84815260208120601f198516915b82811015610a275787850151825560209485019460019092019101610a07565b5084821015610a4457868401515f19600387901b60f8161c191681555b50505050600190811b01905550565b5f60208284031215610a63575f80fd5b81516001600160a01b0381168114610a79575f80fd5b9392505050565b5f60208284031215610a90575f80fd5b81518015158114610a79575f80fd5b634e487b7160e01b5f52601160045260245ffd5b6001815b6001841115610aee57808504811115610ad257610ad2610a9f565b6001841615610ae057908102905b60019390931c928002610ab7565b935093915050565b5f82610b0457506001610b92565b81610b1057505f610b92565b8160018114610b265760028114610b3057610b4c565b6001915050610b92565b60ff841115610b4157610b41610a9f565b50506001821b610b92565b5060208310610133831016604e8410600b8410161715610b6f575081810a610b92565b610b7b5f198484610ab3565b805f1904821115610b8e57610b8e610a9f565b0290505b92915050565b5f610a7960ff841683610af6565b8082028115828204841417610b9257610b92610a9f565b81810381811115610b9257610b92610a9f565b634e487b7160e01b5f52603260045260245ffd5b60805160a05160c05160e05161010051610120516101405161016051614d7c610d2d5f395f8181610aae0152818161409701526145d301525f8181610cef01528181611bcf015281816127740152818161343d01526140cb01525f81816107ed01528181611216015281816112cb015281816114cf015281816115ee0152818161174b01528181611b36015281816126e3015281816128db01528181612b6401528181612d1e015281816133a7015281816134ad0152818161369a0152818161373001528181613850015281816139c501528181613b6d0152613d8301525f8181610636015281816136d601526141ce01525f61058401525f818161073201528181611c290152612a8401525f818161078c01526143e301525f8181611016015281816115c601528181611659015281816116a6015281816122940152612e520152614d7c5ff3fe6080604052600436106104b3575f3560e01c80638718b24f1161026d578063ce0192f91161014a578063e82bef29116100be578063f059078c11610083578063f059078c14610f7f578063f0fa55a914610f93578063f2fde38b14610fb2578063f54da1e214610fd1578063fb0ecfa414610fe6578063fffe42e914611005575f80fd5b8063e82bef2914610ed3578063e84fb12d14610ef2578063e918dfde14610f07578063e9fad39614610f35578063ef34db6914610f54575f80fd5b8063dd62ed3e1161010f578063dd62ed3e14610dfc578063de5c02c214610e40578063df076bbe14610e5f578063e06bd4a514610e7e578063e2ba13f114610e93578063e7cc6c2314610ea8575f80fd5b8063ce0192f914610d5c578063d1bea17c14610d71578063d83d414314610d9f578063da39d16a14610dbe578063dc8046e414610ddd575f80fd5b8063a8424861116101e1578063b74e452b116101a6578063b74e452b14610ca0578063b8cacc2f14610cb4578063bc756d4b14610cc9578063be3601f814610cde578063beb8314c14610d11578063cd8d263d14610d3d575f80fd5b8063a842486114610beb578063a9059cbb14610c0a578063aad9e9e214610c29578063adc0df8f14610c48578063b2887bec14610c81575f80fd5b806395d89b411161023257806395d89b4114610b3857806397dad33914610b4c5780639bb8534414610b6b5780639cce37c614610b80578063a4c82a0014610bb7578063a5696d8914610bcc575f80fd5b80638718b24f14610a9d57806388d5974114610ad05780638da5cb5b14610ae6578063902d55a514610b02578063917ceeb514610b19575f80fd5b80634ece7c061161039b5780636ac9a8701161030f578063730c1888116102d4578063730c188814610a0d57806374d002f114610a2c57806379353c0814610a405780637a70873a14610a555780637ff9b59614610a6a57806385dc300414610a7e575f80fd5b80636ac9a8701461097c5780636c5808011461099b5780636ebcf607146109af57806370a08231146109da578063715018a6146109f9575f80fd5b80635c25c30e116103605780635c25c30e146108a45780635ef01957146108c357806361b746f2146108d857806362015852146108ed5780636386c1c71461090257806369ffd40214610964575f80fd5b80634ece7c061461080f57806351b0d1021461083a57806353b7aa1d1461084f578063553193ca146108645780635b23115514610879575f80fd5b806323b872dd116104325780632f783b4f116103f75780632f783b4f14610700578063313ce5671461071f57806337791bfc1461075c5780633ad10ef61461077b5780633c11100d146107ae5780634188bf5a146107dc575f80fd5b806323b872dd14610670578063297ac6de1461068f5780632b01fc94146106a45780632c3e486c146106d25780632e82f1a0146106e7575f80fd5b806318160ddd1161047857806318160ddd14610576578063199ffc72146105a85780631b85fecd146105bd5780631b967ad4146105f1578063206c17bb14610625575f80fd5b8063027edfd3146104be57806306fdde03146104e6578063095ea7b314610507578063141ae566146105365780631698755f14610557575f80fd5b366104ba57005b5f80fd5b3480156104c9575f80fd5b506104d3602a5481565b6040519081526020015b60405180910390f35b3480156104f1575f80fd5b506104fa611038565b6040516104dd91906146b6565b348015610512575f80fd5b50610526610521366004614706565b6110c8565b60405190151581526020016104dd565b348015610541575f80fd5b5061055561055036600461473b565b6110de565b005b348015610562575f80fd5b50610555610571366004614706565b61113a565b348015610581575f80fd5b507f00000000000000000000000000000000000000000000000000000000000000006104d3565b3480156105b3575f80fd5b506104d360245481565b3480156105c8575f80fd5b506105dc6105d7366004614770565b611211565b604080519283526020830191909152016104dd565b3480156105fc575f80fd5b506104d361060b366004614770565b6001600160a01b03165f9081526014602052604090205490565b348015610630575f80fd5b506106587f000000000000000000000000000000000000000000000000000000000000000081565b6040516001600160a01b0390911681526020016104dd565b34801561067b575f80fd5b5061052661068a366004614789565b611378565b34801561069a575f80fd5b506104d3601d5481565b3480156106af575f80fd5b506105266106be366004614770565b60196020525f908152604090205460ff1681565b3480156106dd575f80fd5b506104d360265481565b3480156106f2575f80fd5b506025546105269060ff1681565b34801561070b575f80fd5b5061055561071a36600461487a565b611411565b34801561072a575f80fd5b5060405160ff7f00000000000000000000000000000000000000000000000000000000000000001681526020016104dd565b348015610767575f80fd5b50603054610658906001600160a01b031681565b348015610786575f80fd5b506106587f000000000000000000000000000000000000000000000000000000000000000081565b3480156107b9575f80fd5b506105266107c8366004614770565b60136020525f908152604090205460ff1681565b3480156107e7575f80fd5b506106587f000000000000000000000000000000000000000000000000000000000000000081565b34801561081a575f80fd5b506104d3610829366004614770565b600e6020525f908152604090205481565b348015610845575f80fd5b506104d3602c5481565b34801561085a575f80fd5b506104d3601e5481565b34801561086f575f80fd5b506104d360285481565b348015610884575f80fd5b506104d3610893366004614770565b60166020525f908152604090205481565b3480156108af575f80fd5b506106586108be366004614706565b6116da565b3480156108ce575f80fd5b506104d3601f5481565b3480156108e3575f80fd5b506104d3602b5481565b3480156108f8575f80fd5b506104d3601b5481565b34801561090d575f80fd5b5061092161091c366004614770565b61170e565b60408051978852602088019690965293151594860194909452606085019190915260808401526001600160a01b0390911660a083015260c082015260e0016104dd565b34801561096f575f80fd5b506104d36402540be40081565b348015610987575f80fd5b506105556109963660046148ac565b611809565b3480156109a6575f80fd5b50610555611905565b3480156109ba575f80fd5b506104d36109c9366004614770565b600b6020525f908152604090205481565b3480156109e5575f80fd5b506104d36109f4366004614770565b611958565b348015610a04575f80fd5b50610555611980565b348015610a18575f80fd5b50610555610a273660046148cc565b6119f1565b348015610a37575f80fd5b506032546104d3565b348015610a4b575f80fd5b506104d3602d5481565b348015610a60575f80fd5b506104d3602f5481565b348015610a75575f80fd5b506104d3611b32565b348015610a89575f80fd5b50610555610a98366004614770565b611c63565b348015610aa8575f80fd5b506106587f000000000000000000000000000000000000000000000000000000000000000081565b348015610adb575f80fd5b506104d3621e848081565b348015610af1575f80fd5b505f546001600160a01b0316610658565b348015610b0d575f80fd5b506104d36301406f4081565b348015610b24575f80fd5b50610555610b33366004614902565b611d24565b348015610b43575f80fd5b506104fa611dd3565b348015610b57575f80fd5b50610555610b66366004614902565b611de2565b348015610b76575f80fd5b506104d360295481565b348015610b8b575f80fd5b50610526610b9a366004614770565b6001600160a01b03165f908152600f602052604090205460ff1690565b348015610bc2575f80fd5b506104d360275481565b348015610bd7575f80fd5b50610555610be6366004614706565b611e10565b348015610bf6575f80fd5b50610555610c0536600461473b565b611e98565b348015610c15575f80fd5b50610526610c24366004614706565b611f20565b348015610c34575f80fd5b50610555610c43366004614902565b611f36565b348015610c53575f80fd5b50610526610c62366004614919565b601560209081525f928352604080842090915290825290205460ff1681565b348015610c8c575f80fd5b50610555610c9b36600461494a565b611fda565b348015610cab575f80fd5b506104d361205d565b348015610cbf575f80fd5b506104d360215481565b348015610cd4575f80fd5b506104d360315481565b348015610ce9575f80fd5b506106587f000000000000000000000000000000000000000000000000000000000000000081565b348015610d1c575f80fd5b50610d30610d2b366004614706565b612070565b6040516104dd919061498e565b348015610d48575f80fd5b50610555610d57366004614902565b612121565b348015610d67575f80fd5b506104d3601c5481565b348015610d7c575f80fd5b50610526610d8b366004614770565b60116020525f908152604090205460ff1681565b348015610daa575f80fd5b50610555610db936600461473b565b6121a3565b348015610dc9575f80fd5b50610555610dd836600461473b565b6121f6565b348015610de8575f80fd5b50610526610df7366004614770565b612288565b348015610e07575f80fd5b506104d3610e16366004614919565b6001600160a01b039182165f908152600c6020908152604080832093909416825291909152205490565b348015610e4b575f80fd5b50610658610e5a366004614902565b6122fc565b348015610e6a575f80fd5b50610555610e79366004614902565b612324565b348015610e89575f80fd5b506104d360225481565b348015610e9e575f80fd5b506104d360205481565b348015610eb3575f80fd5b506104d3610ec2366004614770565b600d6020525f908152604090205481565b348015610ede575f80fd5b50601a54610658906001600160a01b031681565b348015610efd575f80fd5b506104d3602e5481565b348015610f12575f80fd5b50610526610f21366004614770565b60126020525f908152604090205460ff1681565b348015610f40575f80fd5b50610555610f4f366004614902565b612352565b348015610f5f575f80fd5b506104d3610f6e366004614770565b60186020525f908152604090205481565b348015610f8a575f80fd5b506104d3612441565b348015610f9e575f80fd5b50610555610fad366004614902565b612455565b348015610fbd575f80fd5b50610555610fcc366004614770565b6124d4565b348015610fdc575f80fd5b506104d360235481565b348015610ff1575f80fd5b506105556110003660046148ac565b612591565b348015611010575f80fd5b506106587f000000000000000000000000000000000000000000000000000000000000000081565b606060338054611047906149bf565b80601f0160208091040260200160405190810160405280929190818152602001828054611073906149bf565b80156110be5780601f10611095576101008083540402835291602001916110be565b820191905f5260205f20905b8154815290600101906020018083116110a157829003601f168201915b5050505050905090565b5f6110d433848461267c565b5060015b92915050565b5f546001600160a01b031633146111105760405162461bcd60e51b8152600401611107906149f1565b60405180910390fd5b6001600160a01b03919091165f908152601960205260409020805460ff1916911515919091179055565b335f818152600f602052604090205460ff16806111645750601a546001600160a01b038281169116145b8061117b57505f546001600160a01b038281169116145b6111975760405162461bcd60e51b815260040161110790614a0d565b601a5460405163a9059cbb60e01b81526001600160a01b039182166004820152602481018490529084169063a9059cbb906044016020604051808303815f875af11580156111e7573d5f803e3d5ffd5b505050506040513d601f19601f8201168201806040525081019061120b9190614a29565b50505050565b5f805f7f000000000000000000000000000000000000000000000000000000000000000090505f816001600160a01b03166318160ddd6040518163ffffffff1660e01b8152600401602060405180830381865afa158015611274573d5f803e3d5ffd5b505050506040513d601f19601f820116820180604052508101906112989190614a44565b90505f806112a46126dd565b6040516370a0823160e01b81526001600160a01b038a811660048301529294509092505f917f000000000000000000000000000000000000000000000000000000000000000016906370a0823190602401602060405180830381865afa158015611310573d5f803e3d5ffd5b505050506040513d601f19601f820116820180604052508101906113349190614a44565b90508315611367576113508461134a84846127bd565b906127c8565b96506113608461134a85846127bd565b955061136e565b5f96505f95505b5050505050915091565b5f806113858585856127d3565b6001600160a01b0386165f908152600c602090815260408083203384529091529020549091505f1914611404576001600160a01b0385165f908152600c602090815260408083203384529091529020546113e0908290614a6f565b6001600160a01b0386165f908152600c602090815260408083203384529091529020555b60019150505b9392505050565b5f546001600160a01b0316331461143a5760405162461bcd60e51b8152600401611107906149f1565b5f8151116114825760405162461bcd60e51b8152602060048201526015602482015274139bc81859191c995cdcd95cc81c1c9bdd9a591959605a1b6044820152606401611107565b5f5b81518110156115ae575f8282815181106114a0576114a0614a82565b60209081029190910101516040516370a0823160e01b81526001600160a01b0380831660048301529192505f917f000000000000000000000000000000000000000000000000000000000000000016906370a0823190602401602060405180830381865afa158015611514573d5f803e3d5ffd5b505050506040513d601f19601f820116820180604052508101906115389190614a44565b905061154382613118565b6001600160a01b0382165f9081526017602052604090208190556115656131e4565b6001600160a01b0383165f9081526016602052604090205561158682613212565b6001600160a01b039092165f9081526010602052604090206002019190915550600101611484565b506040516370a0823160e01b81526001600160a01b037f0000000000000000000000000000000000000000000000000000000000000000811660048301527f000000000000000000000000000000000000000000000000000000000000000016906370a0823190602401602060405180830381865afa158015611633573d5f803e3d5ffd5b505050506040513d601f19601f820116820180604052508101906116579190614a44565b7f00000000000000000000000000000000000000000000000000000000000000006001600160a01b0381165f9081526017602052604090209190915561169c90613212565b6001600160a01b037f0000000000000000000000000000000000000000000000000000000000000000165f9081526010602052604090206002015550565b6014602052815f5260405f2081815481106116f3575f80fd5b5f918252602090912001546001600160a01b03169150829050565b6001600160a01b038181165f818152601760205260408082205490516370a0823160e01b81526004810193909352929091829182918291829182917f000000000000000000000000000000000000000000000000000000000000000016906370a0823190602401602060405180830381865afa158015611790573d5f803e3d5ffd5b505050506040513d601f19601f820116820180604052508101906117b49190614a44565b6001600160a01b039889165f908152601960209081526040808320546010835281842080546016909452919093205460038201546002909201549b9d949c60ff9094169b929a50985090911695509350915050565b5f546001600160a01b031633146118325760405162461bcd60e51b8152600401611107906149f1565b600a821015801561184557506103e88211155b6118915760405162461bcd60e51b815260206004820152601960248201527f496e76616c69642064657374726f7946656520616d6f756e74000000000000006044820152606401611107565b600a81101580156118a457506103e88111155b6118fa5760405162461bcd60e51b815260206004820152602160248201527f496e76616c69642073656c6c52657365727665506f6f6c46656520616d6f756e6044820152601d60fa1b6064820152608401611107565b601d91909155601e55565b5f546001600160a01b0316331461192e5760405162461bcd60e51b8152600401611107906149f1565b6028541561194e5760405162461bcd60e51b815260040161110790614a96565b4360285542602a55565b5f80611978836001600160a01b03165f908152600b602052604081205491565b509392505050565b5f546001600160a01b031633146119a95760405162461bcd60e51b8152600401611107906149f1565b5f80546040516001600160a01b03909116907f8be0079c531659141344cd1fd0a4f28419497f9722a3daafe3b4186f6b6457e0908390a35f80546001600160a01b0319169055565b5f546001600160a01b03163314611a1a5760405162461bcd60e51b8152600401611107906149f1565b335f908152600f602052604090205460ff1615611b2d57610258831015611a9f5760405162461bcd60e51b815260206004820152603360248201527f63616e6e6f7420736574206275796261636b206d6f7265206f6674656e207468604482015272616e206576657279203130206d696e7574657360681b6064820152608401611107565b6103e88211158015611aaf575060015b611b145760405162461bcd60e51b815260206004820152603060248201527f4d75737420736574206175746f204c50206275726e2070657263656e7420626560448201526f747765656e20302520616e642031302560801b6064820152608401611107565b602683905560248290556025805460ff19168215151790555b505050565b5f807f000000000000000000000000000000000000000000000000000000000000000090505f80826001600160a01b0316630902f1ac6040518163ffffffff1660e01b8152600401606060405180830381865afa158015611b95573d5f803e3d5ffd5b505050506040513d601f19601f82011682018060405250810190611bb99190614ac7565b506001600160701b0391821693501690505f80307f00000000000000000000000000000000000000000000000000000000000000006001600160a01b03161015611c07575082905081611c0d565b50819050825b805f03611c1f575f9550505050505090565b611c598183611c4f7f0000000000000000000000000000000000000000000000000000000000000000600a614beb565b61134a9190614bf9565b9550505050505090565b5f546001600160a01b03163314611c8c5760405162461bcd60e51b8152600401611107906149f1565b6001600160a01b038116611ce25760405162461bcd60e51b815260206004820152601a60248201527f46756e64416464726573732063616e6e6f74206265207a65726f0000000000006044820152606401611107565b601a80546001600160a01b0319166001600160a01b0383169081179091555f908152600f60205260409020805460ff19166001179055611d2181613118565b50565b335f818152600f602052604090205460ff1680611d4e5750601a546001600160a01b038281169116145b80611d6557505f546001600160a01b038281169116145b611d815760405162461bcd60e51b815260040161110790614a0d565b62030d408210158015611d975750624c4b408211155b611dcd5760405162461bcd60e51b815260206004820152600760248201526632302d3530307760c81b6044820152606401611107565b50602e55565b606060348054611047906149bf565b5f546001600160a01b03163314611e0b5760405162461bcd60e51b8152600401611107906149f1565b602d55565b5f546001600160a01b03163314611e395760405162461bcd60e51b8152600401611107906149f1565b335f908152600f602052604090205460ff168015611e745750601a546001600160a01b0316331480611e7457505f546001600160a01b031633145b15611e94576001600160a01b0382165f9081526017602052604090208190555b5050565b335f818152600f602052604090205460ff1680611ec25750601a546001600160a01b038281169116145b80611ed957505f546001600160a01b038281169116145b611ef55760405162461bcd60e51b815260040161110790614a0d565b506001600160a01b03919091165f908152601360205260409020805460ff1916911515919091179055565b5f611f2c3384846127d3565b5060019392505050565b335f818152600f602052604090205460ff1680611f605750601a546001600160a01b038281169116145b80611f7757505f546001600160a01b038281169116145b611f935760405162461bcd60e51b815260040161110790614a0d565b6001821015611fd45760405162461bcd60e51b815260206004820152600d60248201526c4772656174657220746865203160981b6044820152606401611107565b50602055565b5f546001600160a01b031633146120035760405162461bcd60e51b8152600401611107906149f1565b5f5b8251811015611b2d5781600f5f85848151811061202457612024614a82565b6020908102919091018101516001600160a01b031682528101919091526040015f20805460ff1916911515919091179055600101612005565b5f61206b42620151806127c8565b905090565b612078614697565b612080614697565b835f5b600a811015612117576001600160a01b038083165f90815260106020908152604080832060030154909316808352600d909152919020546120c5836001614c10565b811061210c575f6120f0606461134a600187600a81106120e7576120e7614a82565b01548b906127bd565b9050808685600a811061210557612105614a82565b6020020152505b509150600101612083565b5090949350505050565b5f546001600160a01b0316331461214a5760405162461bcd60e51b8152600401611107906149f1565b600a811015801561215d57506103e88111155b61219e5760405162461bcd60e51b8152602060048201526012602482015271125b9d985b1a590811995948185b5bdd5b9d60721b6044820152606401611107565b601f55565b5f546001600160a01b031633146121cc5760405162461bcd60e51b8152600401611107906149f1565b6001600160a01b03919091165f908152600f60205260409020805460ff1916911515919091179055565b5f546001600160a01b0316331461221f5760405162461bcd60e51b8152600401611107906149f1565b335f908152600f602052604090205460ff16801561225a5750601a546001600160a01b031633148061225a57505f546001600160a01b031633145b15611e94576001600160a01b0382165f908152601160205260409020805482151560ff199091161790555050565b5f816001600160a01b037f00000000000000000000000000000000000000000000000000000000000000008116908216036122c65750600192915050565b6001600160a01b038082165f908152601060205260409020600301541680156122f3575060019392505050565b505f9392505050565b6032818154811061230b575f80fd5b5f918252602090912001546001600160a01b0316905081565b5f546001600160a01b0316331461234d5760405162461bcd60e51b8152600401611107906149f1565b602f55565b335f818152600f602052604090205460ff168061237c5750601a546001600160a01b038281169116145b8061239357505f546001600160a01b038281169116145b6123af5760405162461bcd60e51b815260040161110790614a0d565b601a546040515f916001600160a01b03169084908381818185875af1925050503d805f81146123f9576040519150601f19603f3d011682016040523d82523d5f602084013e6123fe565b606091505b5050905080611b2d5760405162461bcd60e51b815260206004820152600f60248201526e151c985b9cd9995c8819985a5b1959608a1b6044820152606401611107565b612452621e84806301406f40614a6f565b81565b5f546001600160a01b0316331461247e5760405162461bcd60e51b8152600401611107906149f1565b60058111156124cf5760405162461bcd60e51b815260206004820152601f60248201527f56616c75652073686f756c64206265206265747765656e203020616e642035006044820152606401611107565b602355565b5f546001600160a01b031633146124fd5760405162461bcd60e51b8152600401611107906149f1565b6001600160a01b0381166125385760405162461bcd60e51b815260206004820152600260248201526106e360f41b6044820152606401611107565b5f80546040516001600160a01b03808516939216917f8be0079c531659141344cd1fd0a4f28419497f9722a3daafe3b4186f6b6457e091a35f80546001600160a01b0319166001600160a01b0392909216919091179055565b5f546001600160a01b031633146125ba5760405162461bcd60e51b8152600401611107906149f1565b600a82101580156125cd57506103e88211155b6126195760405162461bcd60e51b815260206004820152601860248201527f496e76616c69642062757944657646656520616d6f756e7400000000000000006044820152606401611107565b600a811015801561262c57506103e88111155b6126715760405162461bcd60e51b8152602060048201526016602482015275125b9d985b1a5908199d5b9911995948185b5bdd5b9d60521b6044820152606401611107565b601b91909155601c55565b6001600160a01b038381165f818152600c602090815260408083209487168084529482529182902085905590518481527f8c5be1e5ebec7d5bd14f71427d1e84f3dd0314c0f7b2291e5b200ac8c7c3b92591015b60405180910390a3505050565b5f805f807f00000000000000000000000000000000000000000000000000000000000000006001600160a01b0316630902f1ac6040518163ffffffff1660e01b8152600401606060405180830381865afa15801561273d573d5f803e3d5ffd5b505050506040513d601f19601f820116820180604052508101906127619190614ac7565b506001600160701b0391821693501690507f0000000000000000000000000000000000000000000000000000000000000000306001600160a01b03821610156127af578293508194506127b6565b8193508294505b5050509091565b5f61140a8284614bf9565b5f61140a8284614c37565b6001600160a01b0383165f908152600f602052604081205460ff1615801561281357506001600160a01b0383165f908152600f602052604090205460ff16155b801561282857506001600160a01b0384163014155b801561284c57506001600160a01b0384165f9081526013602052604090205460ff16155b801561287057506001600160a01b0383165f9081526013602052604090205460ff16155b156128d6576402540be4008211156128d65760405162461bcd60e51b8152602060048201526024808201527f5472616e73666572206c696d6974206f66203130303030204e555420657863656044820152631959195960e21b6064820152608401611107565b6030547f0000000000000000000000000000000000000000000000000000000000000000906001600160a01b03168015612a36576040516370a0823160e01b81526001600160a01b0382811660048301525f91908416906370a0823190602401602060405180830381865afa158015612951573d5f803e3d5ffd5b505050506040513d601f19601f820116820180604052508101906129759190614a44565b905080156129e7576001600160a01b0382165f90815260176020526040902054808211156129c7576129a683613118565b6129ae6131e4565b6001600160a01b0384165f908152601660205260409020555b506001600160a01b0382165f908152601760205260409020819055612a00565b6001600160a01b0382165f908152601660205260408120555b612a0982613212565b6001600160a01b0383165f9081526010602052604090206002015550603080546001600160a01b03191690555b6001600160a01b0386165f908152600f602052604090205460ff16158015612a7657506001600160a01b0385165f908152600f602052604090205460ff16155b15612af3575f80612aa860047f0000000000000000000000000000000000000000000000000000000000000000614c4a565b612ab390600a614beb565b6001600160a01b0389165f908152600b602052604090205490915081811115612ae357612ae08282614a6f565b92505b82871115612aef578296505b5050505b6001600160a01b0386165f90815260136020526040812054819060ff1680612b3257506001600160a01b0387165f9081526013602052604090205460ff165b15612df3576029545f03612c0b576001600160a01b0388165f908152600f602052604090205460ff168015612b9857507f00000000000000000000000000000000000000000000000000000000000000006001600160a01b0316876001600160a01b0316145b8015612c015750866001600160a01b03166318160ddd6040518163ffffffff1660e01b8152600401602060405180830381865afa158015612bdb573d5f803e3d5ffd5b505050506040513d601f19601f82011682018060405250810190612bff9190614a44565b155b15612c0b57436029555b60355460ff16158015612c5657506001600160a01b0387165f9081526013602052604090205460ff1680612c5657506001600160a01b0388165f9081526013602052604090205460ff165b8015612c64575060255460ff165b8015612c7f5750602654602754612c7b9190614c10565b4210155b8015612ca357506001600160a01b0388165f908152600f602052604090205460ff16155b15612cd3576001600160a01b0387165f9081526013602052604090205460ff1615612cd357612cd18761327d565b505b6001600160a01b0388165f908152600f602052604090205460ff16158015612d1357506001600160a01b0387165f908152600f602052604090205460ff16155b15612dee57600191507f00000000000000000000000000000000000000000000000000000000000000006001600160a01b0316886001600160a01b031603612d6057612d5d6133a3565b90505b6028545f03612dc2576029545f10612d9f5760405162461bcd60e51b8152602060048201526002602482015261085560f21b6044820152606401611107565b6001600160a01b0388165f908152601260205260409020805460ff191660011790555b602854612dd0906003614c10565b431015612dee57612de288888861353a565b8594505050505061140a565b612f60565b6001600160a01b038088165f9081526010602052604090206003015416158015612e1c57505f86115b8015612e3a5750866001600160a01b0316886001600160a01b031614155b8015612e865750612e4a88612288565b80612e8657507f00000000000000000000000000000000000000000000000000000000000000006001600160a01b0316886001600160a01b0316145b15612ebb576001600160a01b038088165f908152601560209081526040808320938c16835292905220805460ff191660011790555b6001600160a01b038089165f9081526010602052604090206003015416158015612ee55750856064145b8015612f035750866001600160a01b0316886001600160a01b031614155b15612f60576001600160a01b038089165f908152601560209081526040808320938b168352929052205460ff168015612f5157506001600160a01b0388165f90815260146020526040902054155b15612f6057612f6088886135b7565b6001600160a01b03881630146130a057836001600160a01b0316876001600160a01b0316148015612f9957506001600160a01b03881615155b8015612fb057506001600160a01b03881661dead14155b1561300857603054612fca906001600160a01b0316613212565b603080546001600160a01b039081165f9081526010602052604090206002019290925580546001600160a01b031916918a1691909117905560318690555b836001600160a01b0316886001600160a01b031614801561303157506001600160a01b03871615155b801561304857506001600160a01b03871661dead14155b156130a057603054613062906001600160a01b0316613212565b603080546001600160a01b039081165f9081526010602052604090206002019290925580546001600160a01b03191691891691909117905560318690555b6130aa8888613697565b156130ba57612de288888861353a565b6130c788888885856137ae565b6001600160a01b038088165f908152601060209081526040808320600b8352818420548155938c168352600f90915290205460ff1661310b5761310b602e54613b5d565b5094979650505050505050565b6001600160a01b0381165f908152601860205260408120549003611d215760325415806131745750806001600160a01b031660325f8154811061315d5761315d614a82565b5f918252602090912001546001600160a01b031614155b15611d2157803b8015613185575050565b50603280546001600160a01b0383165f818152601860205260408120839055600183018455929092527f11df491316f14931039edfd4f8964c9a443b862f02d4c7611d18c2bc4e6ff6970180546001600160a01b031916909117905550565b5f806131f36201518042614c63565b6131fd9042614a6f565b905061320c8162015180614c10565b91505090565b5f8061321d83611211565b5090506001600160a01b0383161580159061323a5750602d548110155b15613259575f6132516103e861134a8460086127bd565b949350505050565b50506001600160a01b03165f90815260166020526040812081905590565b50919050565b426027556040516370a0823160e01b81526001600160a01b03821660048201525f90819030906370a0823190602401602060405180830381865afa1580156132c7573d5f803e3d5ffd5b505050506040513d601f19601f820116820180604052508101906132eb9190614a44565b90505f61330961271061134a602454856127bd90919063ffffffff16565b9050801561331e5761331e8461dead83613f82565b5f849050806001600160a01b031663fff6cae96040518163ffffffff1660e01b81526004015f604051808303815f87803b15801561335a575f80fd5b505af115801561336c573d5f803e3d5ffd5b50506040517f454c91ae84fcc766ddda0dcb289f26b3d0176efeacf4061fc219fa6ca8c3048d92505f9150a1506001949350505050565b5f807f000000000000000000000000000000000000000000000000000000000000000090505f80826001600160a01b0316630902f1ac6040518163ffffffff1660e01b8152600401606060405180830381865afa158015613406573d5f803e3d5ffd5b505050506040513d601f19601f8201168201806040525081019061342a9190614ac7565b506001600160701b0391821693501690507f00000000000000000000000000000000000000000000000000000000000000005f306001600160a01b03831610156134845761347d8464e8d4a510006127c8565b9050613496565b6134938364e8d4a510006127c8565b90505b6040516370a0823160e01b81526001600160a01b037f0000000000000000000000000000000000000000000000000000000000000000811660048301525f9161352c9164e8d4a5100091908616906370a0823190602401602060405180830381865afa158015613508573d5f803e3d5ffd5b505050506040513d601f19601f8201168201806040525081019061134a9190614a44565b909110159695505050505050565b6001600160a01b0383165f908152600b602052604090205461355d908290614a6f565b6001600160a01b0384165f908152600b6020526040812091909155613588606461134a8460636127bd565b601a549091506135a39085906001600160a01b031683614027565b61120b84846135b28486614a6f565b614027565b6001600160a01b038116158015906135e15750816001600160a01b0316816001600160a01b031614155b801561360757506001600160a01b038281165f9081526010602052604090206003015416155b15611e9457803b801561361957505050565b6001600160a01b038084165f81815260106020908152604080832060030180549588166001600160a01b0319968716811790915580845260148352818420805460018181018355918652848620018054909716909517909555938252600d905291822080549192909161368d908490614c10565b9091555050505050565b5f7f00000000000000000000000000000000000000000000000000000000000000006001600160a01b0316826001600160a01b031614801561370a57507f00000000000000000000000000000000000000000000000000000000000000006001600160a01b0316836001600160a01b0316145b156137a6576040516370a0823160e01b81526001600160a01b0383811660048301525f917f0000000000000000000000000000000000000000000000000000000000000000909116906370a0823190602401602060405180830381865afa158015613777573d5f803e3d5ffd5b505050506040513d601f19601f8201168201806040525081019061379b9190614a44565b151591506110d89050565b505f92915050565b6001600160a01b0385165f908152600b60205260409020546137d08482614a6f565b6001600160a01b0387165f908152600b60209081526040808320849055601090915281208281559192508415613b44575f8080861561382b5761382461271061134a601f548c6127bd90919063ffffffff16565b9050613ab6565b6001600160a01b038a165f9081526013602052604090205460ff1615801561388457507f00000000000000000000000000000000000000000000000000000000000000006001600160a01b03168b6001600160a01b0316145b156139a0576028545f036138aa5760405162461bcd60e51b815260040161110790614a96565b5f6138c4620f424061134a6138bd611b32565b8d906127bd565b905069043c33c19375648000008111156139205760405162461bcd60e51b815260206004820181905260248201527f596f752063616e206f6e6c7920627579206d61782032302c30303020757364746044820152606401611107565b6001600160a01b038b165f908152600e602052604090205461394490607890614c10565b4210156139635760405162461bcd60e51b815260040161110790614c76565b6001600160a01b038b165f908152600e60205260409020429055601b54601c54613998916127109161134a916138bd91614c10565b925050613ab6565b6001600160a01b038b165f9081526013602052604090205460ff161580156139f957507f00000000000000000000000000000000000000000000000000000000000000006001600160a01b03168a6001600160a01b0316145b15613ab6576028545f03613a1f5760405162461bcd60e51b815260040161110790614a96565b6001600160a01b038a165f908152600e6020526040902054613a4390607890614c10565b421015613a625760405162461bcd60e51b815260040161110790614c76565b6001600160a01b038a165f908152600e60205260409020429055601e5460019350613a96906127109061134a908c906127bd565b9150613ab361271061134a601d548c6127bd90919063ffffffff16565b90505b8115613ad357613ac68285614c10565b9350613ad38b3084614027565b8015613af257613ae38185614c10565b9350613af28b61dead83614027565b828015613b02575060355460ff16155b15613b4057305f908152600b602052604081205490613b27606461134a8660e66127bd565b905081811115613b345750805b613b3d8161404a565b50505b5050505b613b5388886135b2848a614a6f565b5050505050505050565b42602c541115613b6a5750565b5f7f000000000000000000000000000000000000000000000000000000000000000090505f816001600160a01b03166318160ddd6040518163ffffffff1660e01b8152600401602060405180830381865afa158015613bcb573d5f803e3d5ffd5b505050506040513d601f19601f82011682018060405250810190613bef9190614a44565b9050805f03613bfd57505050565b6032545f908190818080805a90505f80613c156126dd565b915091505b8b86108015613c2a575086602b54105b15613f5657602054602b54613c3f9190614c63565b158015613c5d5750602b54602054602154613c5a9190614bf9565b11155b15613c7b5760218054905f613c7183614cbe565b9190505550613f56565b6032602b5481548110613c9057613c90614a82565b5f918252602082200154602b80546001600160a01b039092169b509091613cb683614cbe565b90915550506001600160a01b0389165f9081526019602052604090205460ff1680613cf857506001600160a01b0389165f9081526011602052604090205460ff165b613c1a57602f546001600160a01b038a165f90815260166020526040902054613d219190614c10565b4210613c1a576001600160a01b0389165f9081526016602052604090205415613c1a576001600160a01b0389165f9081526010602052604090206002015415613f1e576040516370a0823160e01b81526001600160a01b038a811660048301527f000000000000000000000000000000000000000000000000000000000000000016906370a0823190602401602060405180830381865afa158015613dc8573d5f803e3d5ffd5b505050506040513d601f19601f82011682018060405250810190613dec9190614a44565b6001600160a01b038a165f908152601760205260409020549094508414613e6457613e1689613212565b6001600160a01b038a165f908152601060209081526040808320600201939093556017905220849055613e476131e4565b6001600160a01b038a165f90815260166020526040902055613c1a565b6001600160a01b0389165f90815260106020526040812060020154613e8f90839061134a90866127bd565b9050613e9c600282614bf9565b6001600160a01b038b165f90815260166020526040902054909150613ec2904290614477565b9550613ece81876127bd565b98508815613f185762015180613ee26131e4565b613eec9190614a6f565b6001600160a01b038b165f90815260166020526040902055613f0e8a8a614489565b613f188a8a6145d1565b50613f37565b6001600160a01b0389165f908152601660205260408120555b5a613f429084614a6f565b613f4c9087614c10565b95505a9250613c1a565b86602b5410613f745760016021555f602b55613f706131e4565b602c555b505050505050505050505050565b6001600160a01b0383165f908152600b6020526040902054613fa5908290614a6f565b6001600160a01b038085165f908152600b60205260408082209390935590841681522054613fd4908290614c10565b6001600160a01b038084165f818152600b602052604090819020939093559151908516907fddf252ad1be2c89b69c2b068fc378daa952ba7f163c4a11628f55a4df523b3ef906126d09085815260200190565b6001600160a01b0382165f908152600b6020526040902054613fd4908290614c10565b6035805460ff19166001179055801580614065575060225481115b61446a57601c54601b54601e545f8161407e8486614c10565b6140889190614c10565b6040516370a0823160e01b81527f00000000000000000000000000000000000000000000000000000000000000006001600160a01b0381811660048401529293507f00000000000000000000000000000000000000000000000000000000000000009283925f918416906370a0823190602401602060405180830381865afa158015614116573d5f803e3d5ffd5b505050506040513d601f19601f8201168201806040525081019061413a9190614a44565b6040805160028082526060820183529293505f92909160208301908036833701905050905030815f8151811061417257614172614a82565b60200260200101906001600160a01b031690816001600160a01b03168152505084816001815181106141a6576141a6614a82565b6001600160a01b039283166020918202929092010152602354604051635c11d79560e01b81527f000000000000000000000000000000000000000000000000000000000000000090921691635c11d7959161420c918e9190869089904290600401614cd6565b5f604051808303815f87803b158015614223575f80fd5b505af1158015614235573d5f803e3d5ffd5b50506040516370a0823160e01b81526001600160a01b038681166004830152859350871691506370a0823190602401602060405180830381865afa15801561427f573d5f803e3d5ffd5b505050506040513d601f19601f820116820180604052508101906142a39190614a44565b6142ad9190614a6f565b91505f6142be8761134a858d6127bd565b90505f6142cf8861134a868d6127bd565b6040516323b872dd60e01b81526001600160a01b03878116600483015230602483015260448201879052919250908716906323b872dd906064016020604051808303815f875af1158015614325573d5f803e3d5ffd5b505050506040513d601f19601f820116820180604052508101906143499190614a29565b5081156143c657601a5460405163a9059cbb60e01b81526001600160a01b039182166004820152602481018490529087169063a9059cbb906044016020604051808303815f875af11580156143a0573d5f803e3d5ffd5b505050506040513d601f19601f820116820180604052508101906143c49190614a29565b505b801561445e5760405163a9059cbb60e01b81526001600160a01b037f0000000000000000000000000000000000000000000000000000000000000000811660048301526024820183905287169063a9059cbb906044016020604051808303815f875af1158015614438573d5f803e3d5ffd5b505050506040513d601f19601f8201168201806040525081019061445c9190614a29565b505b50505050505050505050505b506035805460ff19169055565b5f61140a6201518061134a8486614a6f565b5f6144948383612070565b9050825f5b600a8110156145ca575f8382600a81106144b5576144b5614a82565b602002015111156145c2576001600160a01b038083165f90815260106020526040812060030154909116905b82811015614521576001600160a01b03821615614519576001600160a01b039182165f90815260106020526040902060030154909116905b6001016144e1565b506001600160a01b0381165f9081526019602052604090205460ff168061455f57506001600160a01b0381165f9081526011602052604090205460ff165b1561456a57506145c2565b6001600160a01b0381161580159061459b57506001600160a01b0381165f9081526010602052604090206002015415155b156145c0576145c0818584600a81106145b6576145b6614a82565b60200201516145d1565b505b600101614499565b5050505050565b7f00000000000000000000000000000000000000000000000000000000000000006001600160a01b0381165f908152600b6020526040902054614615908390614a6f565b6001600160a01b038083165f908152600b60205260408082209390935590851681522054614644908390614c10565b6001600160a01b038085165f818152600b602052604090819020939093559151908316907fddf252ad1be2c89b69c2b068fc378daa952ba7f163c4a11628f55a4df523b3ef906126d09086815260200190565b604051806101400160405280600a906020820280368337509192915050565b602081525f82518060208401528060208501604085015e5f604082850101526040601f19601f83011684010191505092915050565b80356001600160a01b0381168114614701575f80fd5b919050565b5f8060408385031215614717575f80fd5b614720836146eb565b946020939093013593505050565b8015158114611d21575f80fd5b5f806040838503121561474c575f80fd5b614755836146eb565b915060208301356147658161472e565b809150509250929050565b5f60208284031215614780575f80fd5b61140a826146eb565b5f805f6060848603121561479b575f80fd5b6147a4846146eb565b92506147b2602085016146eb565b929592945050506040919091013590565b634e487b7160e01b5f52604160045260245ffd5b5f82601f8301126147e6575f80fd5b813567ffffffffffffffff811115614800576148006147c3565b8060051b604051601f19603f830116810181811067ffffffffffffffff8211171561482d5761482d6147c3565b60405291825260208185018101929081018684111561484a575f80fd5b6020860192505b8383101561487057614862836146eb565b815260209283019201614851565b5095945050505050565b5f6020828403121561488a575f80fd5b813567ffffffffffffffff8111156148a0575f80fd5b613251848285016147d7565b5f80604083850312156148bd575f80fd5b50508035926020909101359150565b5f805f606084860312156148de575f80fd5b833592506020840135915060408401356148f78161472e565b809150509250925092565b5f60208284031215614912575f80fd5b5035919050565b5f806040838503121561492a575f80fd5b614933836146eb565b9150614941602084016146eb565b90509250929050565b5f806040838503121561495b575f80fd5b823567ffffffffffffffff811115614971575f80fd5b61497d858286016147d7565b92505060208301356147658161472e565b610140810181835f5b600a8110156149b6578151835260209283019290910190600101614997565b50505092915050565b600181811c908216806149d357607f821691505b60208210810361327757634e487b7160e01b5f52602260045260245ffd5b602080825260029082015261216f60f01b604082015260600190565b6020808252600290820152616e7760f01b604082015260600190565b5f60208284031215614a39575f80fd5b815161140a8161472e565b5f60208284031215614a54575f80fd5b5051919050565b634e487b7160e01b5f52601160045260245ffd5b818103818111156110d8576110d8614a5b565b634e487b7160e01b5f52603260045260245ffd5b6020808252600190820152601560fa1b604082015260600190565b80516001600160701b0381168114614701575f80fd5b5f805f60608486031215614ad9575f80fd5b614ae284614ab1565b9250614af060208501614ab1565b9150604084015163ffffffff811681146148f7575f80fd5b6001815b6001841115614b4357808504811115614b2757614b27614a5b565b6001841615614b3557908102905b60019390931c928002614b0c565b935093915050565b5f82614b59575060016110d8565b81614b6557505f6110d8565b8160018114614b7b5760028114614b8557614ba1565b60019150506110d8565b60ff841115614b9657614b96614a5b565b50506001821b6110d8565b5060208310610133831016604e8410600b8410161715614bc4575081810a6110d8565b614bd05f198484614b08565b805f1904821115614be357614be3614a5b565b029392505050565b5f61140a60ff841683614b4b565b80820281158282048414176110d8576110d8614a5b565b808201808211156110d8576110d8614a5b565b634e487b7160e01b5f52601260045260245ffd5b5f82614c4557614c45614c23565b500490565b60ff82811682821603908111156110d8576110d8614a5b565b5f82614c7157614c71614c23565b500690565b60208082526028908201527f4d75737420776169742032206d696e75746573206265747765656e207472616e60408201526773616374696f6e7360c01b606082015260800190565b5f60018201614ccf57614ccf614a5b565b5060010190565b5f60a0820187835286602084015260a0604084015280865180835260c0850191506020880192505f5b81811015614d265783516001600160a01b0316835260209384019390920191600101614cff565b50506001600160a01b03959095166060840152505060800152939250505056fea26469706673582212207b3fd3d1d6786a7a3f9140b5f1418e3ad989c37a7f0ada15873ed67cdcfb89d864736f6c634300081a003360a060405234801561000f575f80fd5b506040516103c33803806103c383398101604081905261002e91610138565b33608081905260405163095ea7b360e01b815260048101919091525f1960248201526001600160a01b0383169063095ea7b3906044016020604051808303815f875af1158015610080573d5f803e3d5ffd5b505050506040513d601f19601f820116820180604052508101906100a49190610169565b5060405163095ea7b360e01b81526001600160a01b0382811660048301525f19602483015283169063095ea7b3906044016020604051808303815f875af11580156100f1573d5f803e3d5ffd5b505050506040513d601f19601f820116820180604052508101906101159190610169565b50505061018f565b80516001600160a01b0381168114610133575f80fd5b919050565b5f8060408385031215610149575f80fd5b6101528361011d565b91506101606020840161011d565b90509250929050565b5f60208284031215610179575f80fd5b81518015158114610188575f80fd5b9392505050565b6080516102176101ac5f395f818160520152609b01526102175ff3fe608060405234801561000f575f80fd5b5060043610610034575f3560e01c8063125bfb6614610038578063b2bdfa7b1461004d575b5f80fd5b61004b610046366004610182565b610090565b005b6100747f000000000000000000000000000000000000000000000000000000000000000081565b6040516001600160a01b03909116815260200160405180910390f35b336001600160a01b037f000000000000000000000000000000000000000000000000000000000000000016146100f15760405162461bcd60e51b8152602060048201526002602482015261216f60f01b604482015260640160405180910390fd5b60405163a9059cbb60e01b81526001600160a01b0383811660048301526024820183905284169063a9059cbb906044016020604051808303815f875af115801561013d573d5f803e3d5ffd5b505050506040513d601f19601f8201168201806040525081019061016191906101bb565b50505050565b80356001600160a01b038116811461017d575f80fd5b919050565b5f805f60608486031215610194575f80fd5b61019d84610167565b92506101ab60208501610167565b9150604084013590509250925092565b5f602082840312156101cb575f80fd5b815180151581146101da575f80fd5b939250505056fea2646970667358221220cbaba210e56b2f0938180ac639fffe270497fbed751c33f1bc35c8278a38840f64736f6c634300081a0033ddf252ad1be2c89b69c2b068fc378daa952ba7f163c4a11628f55a4df523b3ef",
			"opcodes": "PUSH2 0x2C0 PUSH1 0x40 MSTORE PUSH1 0xA PUSH2 0x180 DUP2 DUP2 MSTORE PUSH1 0x8 PUSH2 0x1A0 DUP2 SWAP1 MSTORE PUSH1 0x6 PUSH2 0x1C0 DUP2 SWAP1 MSTORE PUSH1 0x4 PUSH2 0x1E0 DUP2 SWAP1 MSTORE PUSH1 0x2 PUSH2 0x200 DUP2 SWAP1 MSTORE PUSH2 0x220 DUP7 SWAP1 MSTORE PUSH2 0x240 SWAP4 SWAP1 SWAP4 MSTORE PUSH2 0x260 SWAP2 SWAP1 SWAP2 MSTORE PUSH2 0x280 MSTORE PUSH2 0x2A0 MSTORE PUSH2 0x56 SWAP2 PUSH1 0x1 SWAP2 SWAP1 PUSH2 0x89D JUMP JUMPDEST POP PUSH1 0x32 PUSH1 0x1B SSTORE PUSH1 0x96 PUSH1 0x1C SSTORE PUSH1 0x64 PUSH1 0x1D DUP2 SWAP1 SSTORE PUSH1 0x1E SSTORE PUSH1 0xC8 PUSH1 0x1F SSTORE PUSH1 0x14 PUSH1 0x20 SSTORE PUSH1 0x1 PUSH1 0x21 DUP2 SWAP1 SSTORE PUSH5 0x2540BE400 PUSH1 0x22 SSTORE PUSH1 0x23 SSTORE PUSH1 0x19 PUSH1 0x24 SSTORE PUSH1 0x25 DUP1 SLOAD PUSH1 0xFF NOT AND SWAP1 SSTORE PUSH2 0xE10 PUSH1 0x26 SSTORE PUSH2 0x3E8 PUSH1 0x2D SSTORE PUSH3 0xF4240 PUSH1 0x2E SSTORE PUSH3 0x69780 PUSH1 0x2F SSTORE CALLVALUE DUP1 ISZERO PUSH2 0xBC JUMPI PUSH0 DUP1 REVERT JUMPDEST POP PUSH1 0x40 DUP1 MLOAD DUP1 DUP3 ADD DUP3 MSTORE PUSH1 0x3 DUP1 DUP3 MSTORE PUSH3 0x139555 PUSH1 0xEA SHL PUSH1 0x20 DUP1 DUP5 ADD SWAP2 SWAP1 SWAP2 MSTORE DUP4 MLOAD DUP1 DUP6 ADD DUP6 MSTORE SWAP2 DUP3 MSTORE PUSH3 0x1B9D5D PUSH1 0xEA SHL SWAP1 DUP3 ADD MSTORE PUSH0 DUP1 SLOAD PUSH1 0x1 PUSH1 0x1 PUSH1 0xA0 SHL SUB NOT AND CALLER SWAP1 DUP2 OR DUP3 SSTORE SWAP4 MLOAD PUSH20 0xD99D1C33F9FC3444F8101754ABC46C52416550D1 SWAP5 PUSH20 0xE96AAF0080157C2B5008FF0DDC5466B0C4F0D35E SWAP5 SWAP4 SWAP3 PUSH1 0x6 SWAP3 PUSH20 0x777E2217A6E4438A6204E8E43B7648970E6417F9 SWAP3 PUSH20 0xDE2ECCEDB514C8C71AEBBFB4507DD84F60A02F19 SWAP3 PUSH20 0x6A92C5512B72F228627075764BA233537403C8EA SWAP3 DUP3 SWAP2 SWAP1 PUSH32 0x8BE0079C531659141344CD1FD0A4F28419497F9722A3DAAFE3B4186F6B6457E0 SWAP1 DUP3 SWAP1 LOG3 POP PUSH1 0x1 PUSH1 0x1 PUSH1 0xA0 SHL SUB DUP8 AND PUSH2 0x1FC JUMPI PUSH1 0x40 MLOAD PUSH3 0x461BCD PUSH1 0xE5 SHL DUP2 MSTORE PUSH1 0x20 PUSH1 0x4 DUP3 ADD MSTORE PUSH1 0x1B PUSH1 0x24 DUP3 ADD MSTORE PUSH32 0x7573647420616464726573732063616E6E6F74206265207A65726F0000000000 PUSH1 0x44 DUP3 ADD MSTORE PUSH1 0x64 ADD JUMPDEST PUSH1 0x40 MLOAD DUP1 SWAP2 SUB SWAP1 REVERT JUMPDEST PUSH1 0x1 PUSH1 0x1 PUSH1 0xA0 SHL SUB DUP3 AND PUSH2 0x252 JUMPI PUSH1 0x40 MLOAD PUSH3 0x461BCD PUSH1 0xE5 SHL DUP2 MSTORE PUSH1 0x20 PUSH1 0x4 DUP3 ADD MSTORE PUSH1 0x1A PUSH1 0x24 DUP3 ADD MSTORE PUSH32 0x46756E64416464726573732063616E6E6F74206265207A65726F000000000000 PUSH1 0x44 DUP3 ADD MSTORE PUSH1 0x64 ADD PUSH2 0x1F3 JUMP JUMPDEST PUSH1 0x1 PUSH1 0x1 PUSH1 0xA0 SHL SUB DUP2 AND PUSH2 0x2A8 JUMPI PUSH1 0x40 MLOAD PUSH3 0x461BCD PUSH1 0xE5 SHL DUP2 MSTORE PUSH1 0x20 PUSH1 0x4 DUP3 ADD MSTORE PUSH1 0x19 PUSH1 0x24 DUP3 ADD MSTORE PUSH32 0x446576416464726573732063616E6E6F74206265207A65726F00000000000000 PUSH1 0x44 DUP3 ADD MSTORE PUSH1 0x64 ADD PUSH2 0x1F3 JUMP JUMPDEST PUSH1 0x1 PUSH1 0x1 PUSH1 0xA0 SHL SUB DUP4 AND PUSH2 0x2FE JUMPI PUSH1 0x40 MLOAD PUSH3 0x461BCD PUSH1 0xE5 SHL DUP2 MSTORE PUSH1 0x20 PUSH1 0x4 DUP3 ADD MSTORE PUSH1 0x1D PUSH1 0x24 DUP3 ADD MSTORE PUSH32 0x52656365697665416464726573732063616E6E6F74206265207A65726F000000 PUSH1 0x44 DUP3 ADD MSTORE PUSH1 0x64 ADD PUSH2 0x1F3 JUMP JUMPDEST PUSH1 0x33 PUSH2 0x30A DUP8 DUP3 PUSH2 0x999 JUMP JUMPDEST POP PUSH1 0x34 PUSH2 0x317 DUP7 DUP3 PUSH2 0x999 JUMP JUMPDEST POP PUSH1 0xFF DUP5 AND PUSH1 0xC0 MSTORE PUSH1 0x1 PUSH1 0x1 PUSH1 0xA0 SHL SUB DUP9 AND PUSH2 0x100 DUP2 SWAP1 MSTORE ADDRESS PUSH0 SWAP1 DUP2 MSTORE PUSH1 0xC PUSH1 0x20 SWAP1 DUP2 MSTORE PUSH1 0x40 DUP1 DUP4 KECCAK256 DUP5 DUP5 MSTORE DUP3 MSTORE DUP1 DUP4 KECCAK256 PUSH0 NOT SWAP1 SSTORE DUP1 MLOAD PUSH4 0xC45A0155 PUSH1 0xE0 SHL DUP2 MSTORE SWAP1 MLOAD DUP13 SWAP5 SWAP3 PUSH4 0xC45A0155 SWAP3 PUSH1 0x4 DUP1 DUP3 ADD SWAP4 SWAP2 DUP3 SWAP1 SUB ADD DUP2 DUP7 GAS STATICCALL ISZERO DUP1 ISZERO PUSH2 0x381 JUMPI RETURNDATASIZE PUSH0 DUP1 RETURNDATACOPY RETURNDATASIZE PUSH0 REVERT JUMPDEST POP POP POP POP PUSH1 0x40 MLOAD RETURNDATASIZE PUSH1 0x1F NOT PUSH1 0x1F DUP3 ADD AND DUP3 ADD DUP1 PUSH1 0x40 MSTORE POP DUP2 ADD SWAP1 PUSH2 0x3A5 SWAP2 SWAP1 PUSH2 0xA53 JUMP JUMPDEST PUSH1 0x1 PUSH1 0x1 PUSH1 0xA0 SHL SUB DUP11 DUP2 AND PUSH2 0x140 DUP2 SWAP1 MSTORE PUSH1 0x40 MLOAD PUSH4 0x95EA7B3 PUSH1 0xE0 SHL DUP2 MSTORE SWAP2 DUP6 AND PUSH1 0x4 DUP4 ADD MSTORE PUSH0 NOT PUSH1 0x24 DUP4 ADD MSTORE SWAP2 SWAP3 POP PUSH4 0x95EA7B3 SWAP1 PUSH1 0x44 ADD PUSH1 0x20 PUSH1 0x40 MLOAD DUP1 DUP4 SUB DUP2 PUSH0 DUP8 GAS CALL ISZERO DUP1 ISZERO PUSH2 0x3FA JUMPI RETURNDATASIZE PUSH0 DUP1 RETURNDATACOPY RETURNDATASIZE PUSH0 REVERT JUMPDEST POP POP POP POP PUSH1 0x40 MLOAD RETURNDATASIZE PUSH1 0x1F NOT PUSH1 0x1F DUP3 ADD AND DUP3 ADD DUP1 PUSH1 0x40 MSTORE POP DUP2 ADD SWAP1 PUSH2 0x41E SWAP2 SWAP1 PUSH2 0xA80 JUMP JUMPDEST POP PUSH2 0x140 MLOAD PUSH1 0x40 MLOAD PUSH4 0x64E329CB PUSH1 0xE1 SHL DUP2 MSTORE ADDRESS PUSH1 0x4 DUP3 ADD MSTORE PUSH1 0x1 PUSH1 0x1 PUSH1 0xA0 SHL SUB SWAP2 DUP3 AND PUSH1 0x24 DUP3 ADD MSTORE PUSH0 SWAP2 DUP4 AND SWAP1 PUSH4 0xC9C65396 SWAP1 PUSH1 0x44 ADD PUSH1 0x20 PUSH1 0x40 MLOAD DUP1 DUP4 SUB DUP2 PUSH0 DUP8 GAS CALL ISZERO DUP1 ISZERO PUSH2 0x470 JUMPI RETURNDATASIZE PUSH0 DUP1 RETURNDATACOPY RETURNDATASIZE PUSH0 REVERT JUMPDEST POP POP POP POP PUSH1 0x40 MLOAD RETURNDATASIZE PUSH1 0x1F NOT PUSH1 0x1F DUP3 ADD AND DUP3 ADD DUP1 PUSH1 0x40 MSTORE POP DUP2 ADD SWAP1 PUSH2 0x494 SWAP2 SWAP1 PUSH2 0xA53 JUMP JUMPDEST PUSH1 0x1 PUSH1 0x1 PUSH1 0xA0 SHL SUB DUP2 AND PUSH0 DUP2 DUP2 MSTORE PUSH1 0x13 PUSH1 0x20 MSTORE PUSH1 0x40 DUP2 KECCAK256 DUP1 SLOAD PUSH1 0xFF NOT AND PUSH1 0x1 OR SWAP1 SSTORE PUSH2 0x120 SWAP2 SWAP1 SWAP2 MSTORE SWAP1 SWAP2 POP PUSH2 0x4CB DUP9 PUSH1 0xA PUSH2 0xB98 JUMP JUMPDEST SWAP1 POP PUSH0 PUSH2 0x4DC DUP3 PUSH4 0x1406F40 PUSH2 0xBA6 JUMP JUMPDEST SWAP1 POP PUSH0 PUSH2 0x4EC DUP4 PUSH3 0x1E8480 PUSH2 0xBA6 JUMP JUMPDEST SWAP1 POP PUSH0 DUP4 PUSH2 0x501 PUSH3 0x1E8480 PUSH4 0x1406F40 PUSH2 0xBBD JUMP JUMPDEST PUSH2 0x50B SWAP2 SWAP1 PUSH2 0xBA6 JUMP JUMPDEST PUSH1 0xE0 DUP5 SWAP1 MSTORE PUSH1 0x1 PUSH1 0x1 PUSH1 0xA0 SHL SUB DUP12 AND PUSH0 DUP2 DUP2 MSTORE PUSH1 0xB PUSH1 0x20 MSTORE PUSH1 0x40 DUP1 DUP3 KECCAK256 DUP7 SWAP1 SSTORE MLOAD SWAP3 SWAP4 POP SWAP1 SWAP2 PUSH0 DUP1 MLOAD PUSH1 0x20 PUSH2 0x5E6C DUP4 CODECOPY DUP2 MLOAD SWAP2 MSTORE SWAP1 PUSH2 0x54D SWAP1 DUP7 DUP2 MSTORE PUSH1 0x20 ADD SWAP1 JUMP JUMPDEST PUSH1 0x40 MLOAD DUP1 SWAP2 SUB SWAP1 LOG3 PUSH1 0x1A DUP1 SLOAD PUSH1 0x1 PUSH1 0x1 PUSH1 0xA0 SHL SUB NOT AND PUSH1 0x1 PUSH1 0x1 PUSH1 0xA0 SHL SUB DUP12 DUP2 AND SWAP2 SWAP1 SWAP2 OR SWAP1 SWAP2 SSTORE DUP9 DUP2 AND PUSH1 0xA0 MSTORE DUP11 AND PUSH1 0x80 MSTORE PUSH2 0x140 MLOAD PUSH1 0x40 MLOAD ADDRESS SWAP1 PUSH2 0x592 SWAP1 PUSH2 0x8E0 JUMP JUMPDEST PUSH1 0x1 PUSH1 0x1 PUSH1 0xA0 SHL SUB SWAP3 DUP4 AND DUP2 MSTORE SWAP2 AND PUSH1 0x20 DUP3 ADD MSTORE PUSH1 0x40 ADD PUSH1 0x40 MLOAD DUP1 SWAP2 SUB SWAP1 PUSH0 CREATE DUP1 ISZERO DUP1 ISZERO PUSH2 0x5C2 JUMPI RETURNDATASIZE PUSH0 DUP1 RETURNDATACOPY RETURNDATASIZE PUSH0 REVERT JUMPDEST POP PUSH1 0x1 PUSH1 0x1 PUSH1 0xA0 SHL SUB AND PUSH2 0x160 DUP2 SWAP1 MSTORE PUSH0 DUP2 DUP2 MSTORE PUSH1 0xB PUSH1 0x20 SWAP1 DUP2 MSTORE PUSH1 0x40 DUP1 DUP4 KECCAK256 DUP6 SWAP1 SSTORE MLOAD DUP5 DUP2 MSTORE DUP4 SWAP3 SWAP2 PUSH0 DUP1 MLOAD PUSH1 0x20 PUSH2 0x5E6C DUP4 CODECOPY DUP2 MLOAD SWAP2 MSTORE SWAP2 ADD PUSH1 0x40 MLOAD DUP1 SWAP2 SUB SWAP1 LOG3 PUSH1 0x1 PUSH1 0x1 PUSH1 0xA0 SHL SUB DUP12 DUP2 AND PUSH0 SWAP1 DUP2 MSTORE PUSH1 0xF PUSH1 0x20 SWAP1 DUP2 MSTORE PUSH1 0x40 DUP1 DUP4 KECCAK256 DUP1 SLOAD PUSH1 0x1 PUSH1 0xFF NOT SWAP2 DUP3 AND DUP2 OR SWAP1 SWAP3 SSTORE DUP16 DUP7 AND DUP6 MSTORE DUP3 DUP6 KECCAK256 DUP1 SLOAD DUP3 AND DUP4 OR SWAP1 SSTORE ADDRESS DUP1 DUP7 MSTORE DUP4 DUP7 KECCAK256 DUP1 SLOAD DUP4 AND DUP5 OR SWAP1 SSTORE CALLER DUP7 MSTORE DUP4 DUP7 KECCAK256 DUP1 SLOAD DUP4 AND DUP5 OR SWAP1 SSTORE PUSH32 0xF4803E074BD026BAAF6ED2E288C9515F68C72FB7216EEBDD7CAE1718A53EC375 DUP1 SLOAD DUP4 AND DUP5 OR SWAP1 SSTORE PUSH32 0x99629F56119585BF27511B6B7D295DFFB54757453FCC3DABCF51D92028301F10 DUP1 SLOAD DUP4 AND DUP5 OR SWAP1 SSTORE DUP8 DUP8 AND DUP1 DUP8 MSTORE DUP5 DUP8 KECCAK256 DUP1 SLOAD DUP5 AND DUP6 OR SWAP1 SSTORE PUSH32 0xD2AC945FCC0096878C763E37D6929B78378C1A2DEFABDE8BA7EE5ED1D6E7A5B2 DUP1 SLOAD DUP5 AND DUP6 OR SWAP1 SSTORE PUSH32 0xC73B1D6EDA13A615B81C31830292DBBBF5FBB07F472982E223002BD83D5C3DC4 DUP1 SLOAD DUP5 AND DUP6 OR SWAP1 SSTORE PUSH1 0x11 SWAP1 SWAP6 MSTORE PUSH32 0x4AD3B33220DDDC71B994A52D72C06B10862965F7D926534C05C00FB7E819E7B7 DUP1 SLOAD DUP4 AND DUP5 OR SWAP1 SSTORE PUSH32 0x97847EE99463795296047093514439C3127772DF3715E628AA85601CF8541716 DUP1 SLOAD DUP4 AND DUP5 OR SWAP1 SSTORE DUP6 MSTORE DUP3 DUP6 KECCAK256 DUP1 SLOAD DUP3 AND DUP4 OR SWAP1 SSTORE SWAP3 DUP5 MSTORE DUP2 DUP5 KECCAK256 DUP1 SLOAD DUP5 AND DUP3 OR SWAP1 SSTORE DUP11 DUP6 AND DUP5 MSTORE DUP2 DUP5 KECCAK256 DUP1 SLOAD DUP5 AND DUP3 OR SWAP1 SSTORE SWAP4 DUP13 AND DUP4 MSTORE SWAP1 SWAP2 KECCAK256 DUP1 SLOAD SWAP1 SWAP2 AND SWAP1 SWAP2 OR SWAP1 SSTORE PUSH2 0x7AD DUP11 PUSH2 0x7D0 JUMP JUMPDEST POP POP PUSH9 0x1A055690D9DB80000 PUSH1 0x2D SSTORE POP PUSH2 0xBE4 SWAP13 POP POP POP POP POP POP POP POP POP POP POP POP POP JUMP JUMPDEST PUSH1 0x1 PUSH1 0x1 PUSH1 0xA0 SHL SUB DUP2 AND PUSH0 SWAP1 DUP2 MSTORE PUSH1 0x18 PUSH1 0x20 MSTORE PUSH1 0x40 DUP2 KECCAK256 SLOAD SWAP1 SUB PUSH2 0x89A JUMPI PUSH1 0x32 SLOAD ISZERO DUP1 PUSH2 0x82C JUMPI POP DUP1 PUSH1 0x1 PUSH1 0x1 PUSH1 0xA0 SHL SUB AND PUSH1 0x32 PUSH0 DUP2 SLOAD DUP2 LT PUSH2 0x815 JUMPI PUSH2 0x815 PUSH2 0xBD0 JUMP JUMPDEST PUSH0 SWAP2 DUP3 MSTORE PUSH1 0x20 SWAP1 SWAP2 KECCAK256 ADD SLOAD PUSH1 0x1 PUSH1 0x1 PUSH1 0xA0 SHL SUB AND EQ ISZERO JUMPDEST ISZERO PUSH2 0x89A JUMPI DUP1 EXTCODESIZE DUP1 ISZERO PUSH2 0x83D JUMPI POP POP JUMP JUMPDEST POP PUSH1 0x32 DUP1 SLOAD PUSH1 0x1 PUSH1 0x1 PUSH1 0xA0 SHL SUB DUP4 AND PUSH0 DUP2 DUP2 MSTORE PUSH1 0x18 PUSH1 0x20 MSTORE PUSH1 0x40 DUP2 KECCAK256 DUP4 SWAP1 SSTORE PUSH1 0x1 DUP4 ADD DUP5 SSTORE SWAP3 SWAP1 SWAP3 MSTORE PUSH32 0x11DF491316F14931039EDFD4F8964C9A443B862F02D4C7611D18C2BC4E6FF697 ADD DUP1 SLOAD PUSH1 0x1 PUSH1 0x1 PUSH1 0xA0 SHL SUB NOT AND SWAP1 SWAP2 OR SWAP1 SSTORE JUMPDEST POP JUMP JUMPDEST DUP3 PUSH1 0xA DUP2 ADD SWAP3 DUP3 ISZERO PUSH2 0x8D0 JUMPI SWAP2 PUSH1 0x20 MUL DUP3 ADD JUMPDEST DUP3 DUP2 GT ISZERO PUSH2 0x8D0 JUMPI DUP3 MLOAD DUP3 SWAP1 PUSH1 0xFF AND SWAP1 SSTORE SWAP2 PUSH1 0x20 ADD SWAP2 SWAP1 PUSH1 0x1 ADD SWAP1 PUSH2 0x8B0 JUMP JUMPDEST POP PUSH2 0x8DC SWAP3 SWAP2 POP PUSH2 0x8ED JUMP JUMPDEST POP SWAP1 JUMP JUMPDEST PUSH2 0x3C3 DUP1 PUSH2 0x5AA9 DUP4 CODECOPY ADD SWAP1 JUMP JUMPDEST JUMPDEST DUP1 DUP3 GT ISZERO PUSH2 0x8DC JUMPI PUSH0 DUP2 SSTORE PUSH1 0x1 ADD PUSH2 0x8EE JUMP JUMPDEST PUSH4 0x4E487B71 PUSH1 0xE0 SHL PUSH0 MSTORE PUSH1 0x41 PUSH1 0x4 MSTORE PUSH1 0x24 PUSH0 REVERT JUMPDEST PUSH1 0x1 DUP2 DUP2 SHR SWAP1 DUP3 AND DUP1 PUSH2 0x929 JUMPI PUSH1 0x7F DUP3 AND SWAP2 POP JUMPDEST PUSH1 0x20 DUP3 LT DUP2 SUB PUSH2 0x947 JUMPI PUSH4 0x4E487B71 PUSH1 0xE0 SHL PUSH0 MSTORE PUSH1 0x22 PUSH1 0x4 MSTORE PUSH1 0x24 PUSH0 REVERT JUMPDEST POP SWAP2 SWAP1 POP JUMP JUMPDEST PUSH1 0x1F DUP3 GT ISZERO PUSH2 0x994 JUMPI DUP1 PUSH0 MSTORE PUSH1 0x20 PUSH0 KECCAK256 PUSH1 0x1F DUP5 ADD PUSH1 0x5 SHR DUP2 ADD PUSH1 0x20 DUP6 LT ISZERO PUSH2 0x972 JUMPI POP DUP1 JUMPDEST PUSH1 0x1F DUP5 ADD PUSH1 0x5 SHR DUP3 ADD SWAP2 POP JUMPDEST DUP2 DUP2 LT ISZERO PUSH2 0x991 JUMPI PUSH0 DUP2 SSTORE PUSH1 0x1 ADD PUSH2 0x97E JUMP JUMPDEST POP POP JUMPDEST POP POP POP JUMP JUMPDEST DUP2 MLOAD PUSH1 0x1 PUSH1 0x1 PUSH1 0x40 SHL SUB DUP2 GT ISZERO PUSH2 0x9B2 JUMPI PUSH2 0x9B2 PUSH2 0x901 JUMP JUMPDEST PUSH2 0x9C6 DUP2 PUSH2 0x9C0 DUP5 SLOAD PUSH2 0x915 JUMP JUMPDEST DUP5 PUSH2 0x94D JUMP JUMPDEST PUSH1 0x20 PUSH1 0x1F DUP3 GT PUSH1 0x1 DUP2 EQ PUSH2 0x9F8 JUMPI PUSH0 DUP4 ISZERO PUSH2 0x9E1 JUMPI POP DUP5 DUP3 ADD MLOAD JUMPDEST PUSH0 NOT PUSH1 0x3 DUP6 SWAP1 SHL SHR NOT AND PUSH1 0x1 DUP5 SWAP1 SHL OR DUP5 SSTORE PUSH2 0x991 JUMP JUMPDEST PUSH0 DUP5 DUP2 MSTORE PUSH1 0x20 DUP2 KECCAK256 PUSH1 0x1F NOT DUP6 AND SWAP2 JUMPDEST DUP3 DUP2 LT ISZERO PUSH2 0xA27 JUMPI DUP8 DUP6 ADD MLOAD DUP3 SSTORE PUSH1 0x20 SWAP5 DUP6 ADD SWAP5 PUSH1 0x1 SWAP1 SWAP3 ADD SWAP2 ADD PUSH2 0xA07 JUMP JUMPDEST POP DUP5 DUP3 LT ISZERO PUSH2 0xA44 JUMPI DUP7 DUP5 ADD MLOAD PUSH0 NOT PUSH1 0x3 DUP8 SWAP1 SHL PUSH1 0xF8 AND SHR NOT AND DUP2 SSTORE JUMPDEST POP POP POP POP PUSH1 0x1 SWAP1 DUP2 SHL ADD SWAP1 SSTORE POP JUMP JUMPDEST PUSH0 PUSH1 0x20 DUP3 DUP5 SUB SLT ISZERO PUSH2 0xA63 JUMPI PUSH0 DUP1 REVERT JUMPDEST DUP2 MLOAD PUSH1 0x1 PUSH1 0x1 PUSH1 0xA0 SHL SUB DUP2 AND DUP2 EQ PUSH2 0xA79 JUMPI PUSH0 DUP1 REVERT JUMPDEST SWAP4 SWAP3 POP POP POP JUMP JUMPDEST PUSH0 PUSH1 0x20 DUP3 DUP5 SUB SLT ISZERO PUSH2 0xA90 JUMPI PUSH0 DUP1 REVERT JUMPDEST DUP2 MLOAD DUP1 ISZERO ISZERO DUP2 EQ PUSH2 0xA79 JUMPI PUSH0 DUP1 REVERT JUMPDEST PUSH4 0x4E487B71 PUSH1 0xE0 SHL PUSH0 MSTORE PUSH1 0x11 PUSH1 0x4 MSTORE PUSH1 0x24 PUSH0 REVERT JUMPDEST PUSH1 0x1 DUP2 JUMPDEST PUSH1 0x1 DUP5 GT ISZERO PUSH2 0xAEE JUMPI DUP1 DUP6 DIV DUP2 GT ISZERO PUSH2 0xAD2 JUMPI PUSH2 0xAD2 PUSH2 0xA9F JUMP JUMPDEST PUSH1 0x1 DUP5 AND ISZERO PUSH2 0xAE0 JUMPI SWAP1 DUP2 MUL SWAP1 JUMPDEST PUSH1 0x1 SWAP4 SWAP1 SWAP4 SHR SWAP3 DUP1 MUL PUSH2 0xAB7 JUMP JUMPDEST SWAP4 POP SWAP4 SWAP2 POP POP JUMP JUMPDEST PUSH0 DUP3 PUSH2 0xB04 JUMPI POP PUSH1 0x1 PUSH2 0xB92 JUMP JUMPDEST DUP2 PUSH2 0xB10 JUMPI POP PUSH0 PUSH2 0xB92 JUMP JUMPDEST DUP2 PUSH1 0x1 DUP2 EQ PUSH2 0xB26 JUMPI PUSH1 0x2 DUP2 EQ PUSH2 0xB30 JUMPI PUSH2 0xB4C JUMP JUMPDEST PUSH1 0x1 SWAP2 POP POP PUSH2 0xB92 JUMP JUMPDEST PUSH1 0xFF DUP5 GT ISZERO PUSH2 0xB41 JUMPI PUSH2 0xB41 PUSH2 0xA9F JUMP JUMPDEST POP POP PUSH1 0x1 DUP3 SHL PUSH2 0xB92 JUMP JUMPDEST POP PUSH1 0x20 DUP4 LT PUSH2 0x133 DUP4 LT AND PUSH1 0x4E DUP5 LT PUSH1 0xB DUP5 LT AND OR ISZERO PUSH2 0xB6F JUMPI POP DUP2 DUP2 EXP PUSH2 0xB92 JUMP JUMPDEST PUSH2 0xB7B PUSH0 NOT DUP5 DUP5 PUSH2 0xAB3 JUMP JUMPDEST DUP1 PUSH0 NOT DIV DUP3 GT ISZERO PUSH2 0xB8E JUMPI PUSH2 0xB8E PUSH2 0xA9F JUMP JUMPDEST MUL SWAP1 POP JUMPDEST SWAP3 SWAP2 POP POP JUMP JUMPDEST PUSH0 PUSH2 0xA79 PUSH1 0xFF DUP5 AND DUP4 PUSH2 0xAF6 JUMP JUMPDEST DUP1 DUP3 MUL DUP2 ISZERO DUP3 DUP3 DIV DUP5 EQ OR PUSH2 0xB92 JUMPI PUSH2 0xB92 PUSH2 0xA9F JUMP JUMPDEST DUP2 DUP2 SUB DUP2 DUP2 GT ISZERO PUSH2 0xB92 JUMPI PUSH2 0xB92 PUSH2 0xA9F JUMP JUMPDEST PUSH4 0x4E487B71 PUSH1 0xE0 SHL PUSH0 MSTORE PUSH1 0x32 PUSH1 0x4 MSTORE PUSH1 0x24 PUSH0 REVERT JUMPDEST PUSH1 0x80 MLOAD PUSH1 0xA0 MLOAD PUSH1 0xC0 MLOAD PUSH1 0xE0 MLOAD PUSH2 0x100 MLOAD PUSH2 0x120 MLOAD PUSH2 0x140 MLOAD PUSH2 0x160 MLOAD PUSH2 0x4D7C PUSH2 0xD2D PUSH0 CODECOPY PUSH0 DUP2 DUP2 PUSH2 0xAAE ADD MSTORE DUP2 DUP2 PUSH2 0x4097 ADD MSTORE PUSH2 0x45D3 ADD MSTORE PUSH0 DUP2 DUP2 PUSH2 0xCEF ADD MSTORE DUP2 DUP2 PUSH2 0x1BCF ADD MSTORE DUP2 DUP2 PUSH2 0x2774 ADD MSTORE DUP2 DUP2 PUSH2 0x343D ADD MSTORE PUSH2 0x40CB ADD MSTORE PUSH0 DUP2 DUP2 PUSH2 0x7ED ADD MSTORE DUP2 DUP2 PUSH2 0x1216 ADD MSTORE DUP2 DUP2 PUSH2 0x12CB ADD MSTORE DUP2 DUP2 PUSH2 0x14CF ADD MSTORE DUP2 DUP2 PUSH2 0x15EE ADD MSTORE DUP2 DUP2 PUSH2 0x174B ADD MSTORE DUP2 DUP2 PUSH2 0x1B36 ADD MSTORE DUP2 DUP2 PUSH2 0x26E3 ADD MSTORE DUP2 DUP2 PUSH2 0x28DB ADD MSTORE DUP2 DUP2 PUSH2 0x2B64 ADD MSTORE DUP2 DUP2 PUSH2 0x2D1E ADD MSTORE DUP2 DUP2 PUSH2 0x33A7 ADD MSTORE DUP2 DUP2 PUSH2 0x34AD ADD MSTORE DUP2 DUP2 PUSH2 0x369A ADD MSTORE DUP2 DUP2 PUSH2 0x3730 ADD MSTORE DUP2 DUP2 PUSH2 0x3850 ADD MSTORE DUP2 DUP2 PUSH2 0x39C5 ADD MSTORE DUP2 DUP2 PUSH2 0x3B6D ADD MSTORE PUSH2 0x3D83 ADD MSTORE PUSH0 DUP2 DUP2 PUSH2 0x636 ADD MSTORE DUP2 DUP2 PUSH2 0x36D6 ADD MSTORE PUSH2 0x41CE ADD MSTORE PUSH0 PUSH2 0x584 ADD MSTORE PUSH0 DUP2 DUP2 PUSH2 0x732 ADD MSTORE DUP2 DUP2 PUSH2 0x1C29 ADD MSTORE PUSH2 0x2A84 ADD MSTORE PUSH0 DUP2 DUP2 PUSH2 0x78C ADD MSTORE PUSH2 0x43E3 ADD MSTORE PUSH0 DUP2 DUP2 PUSH2 0x1016 ADD MSTORE DUP2 DUP2 PUSH2 0x15C6 ADD MSTORE DUP2 DUP2 PUSH2 0x1659 ADD MSTORE DUP2 DUP2 PUSH2 0x16A6 ADD MSTORE DUP2 DUP2 PUSH2 0x2294 ADD MSTORE PUSH2 0x2E52 ADD MSTORE PUSH2 0x4D7C PUSH0 RETURN INVALID PUSH1 0x80 PUSH1 0x40 MSTORE PUSH1 0x4 CALLDATASIZE LT PUSH2 0x4B3 JUMPI PUSH0 CALLDATALOAD PUSH1 0xE0 SHR DUP1 PUSH4 0x8718B24F GT PUSH2 0x26D JUMPI DUP1 PUSH4 0xCE0192F9 GT PUSH2 0x14A JUMPI DUP1 PUSH4 0xE82BEF29 GT PUSH2 0xBE JUMPI DUP1 PUSH4 0xF059078C GT PUSH2 0x83 JUMPI DUP1 PUSH4 0xF059078C EQ PUSH2 0xF7F JUMPI DUP1 PUSH4 0xF0FA55A9 EQ PUSH2 0xF93 JUMPI DUP1 PUSH4 0xF2FDE38B EQ PUSH2 0xFB2 JUMPI DUP1 PUSH4 0xF54DA1E2 EQ PUSH2 0xFD1 JUMPI DUP1 PUSH4 0xFB0ECFA4 EQ PUSH2 0xFE6 JUMPI DUP1 PUSH4 0xFFFE42E9 EQ PUSH2 0x1005 JUMPI PUSH0 DUP1 REVERT JUMPDEST DUP1 PUSH4 0xE82BEF29 EQ PUSH2 0xED3 JUMPI DUP1 PUSH4 0xE84FB12D EQ PUSH2 0xEF2 JUMPI DUP1 PUSH4 0xE918DFDE EQ PUSH2 0xF07 JUMPI DUP1 PUSH4 0xE9FAD396 EQ PUSH2 0xF35 JUMPI DUP1 PUSH4 0xEF34DB69 EQ PUSH2 0xF54 JUMPI PUSH0 DUP1 REVERT JUMPDEST DUP1 PUSH4 0xDD62ED3E GT PUSH2 0x10F JUMPI DUP1 PUSH4 0xDD62ED3E EQ PUSH2 0xDFC JUMPI DUP1 PUSH4 0xDE5C02C2 EQ PUSH2 0xE40 JUMPI DUP1 PUSH4 0xDF076BBE EQ PUSH2 0xE5F JUMPI DUP1 PUSH4 0xE06BD4A5 EQ PUSH2 0xE7E JUMPI DUP1 PUSH4 0xE2BA13F1 EQ PUSH2 0xE93 JUMPI DUP1 PUSH4 0xE7CC6C23 EQ PUSH2 0xEA8 JUMPI PUSH0 DUP1 REVERT JUMPDEST DUP1 PUSH4 0xCE0192F9 EQ PUSH2 0xD5C JUMPI DUP1 PUSH4 0xD1BEA17C EQ PUSH2 0xD71 JUMPI DUP1 PUSH4 0xD83D4143 EQ PUSH2 0xD9F JUMPI DUP1 PUSH4 0xDA39D16A EQ PUSH2 0xDBE JUMPI DUP1 PUSH4 0xDC8046E4 EQ PUSH2 0xDDD JUMPI PUSH0 DUP1 REVERT JUMPDEST DUP1 PUSH4 0xA8424861 GT PUSH2 0x1E1 JUMPI DUP1 PUSH4 0xB74E452B GT PUSH2 0x1A6 JUMPI DUP1 PUSH4 0xB74E452B EQ PUSH2 0xCA0 JUMPI DUP1 PUSH4 0xB8CACC2F EQ PUSH2 0xCB4 JUMPI DUP1 PUSH4 0xBC756D4B EQ PUSH2 0xCC9 JUMPI DUP1 PUSH4 0xBE3601F8 EQ PUSH2 0xCDE JUMPI DUP1 PUSH4 0xBEB8314C EQ PUSH2 0xD11 JUMPI DUP1 PUSH4 0xCD8D263D EQ PUSH2 0xD3D JUMPI PUSH0 DUP1 REVERT JUMPDEST DUP1 PUSH4 0xA8424861 EQ PUSH2 0xBEB JUMPI DUP1 PUSH4 0xA9059CBB EQ PUSH2 0xC0A JUMPI DUP1 PUSH4 0xAAD9E9E2 EQ PUSH2 0xC29 JUMPI DUP1 PUSH4 0xADC0DF8F EQ PUSH2 0xC48 JUMPI DUP1 PUSH4 0xB2887BEC EQ PUSH2 0xC81 JUMPI PUSH0 DUP1 REVERT JUMPDEST DUP1 PUSH4 0x95D89B41 GT PUSH2 0x232 JUMPI DUP1 PUSH4 0x95D89B41 EQ PUSH2 0xB38 JUMPI DUP1 PUSH4 0x97DAD339 EQ PUSH2 0xB4C JUMPI DUP1 PUSH4 0x9BB85344 EQ PUSH2 0xB6B JUMPI DUP1 PUSH4 0x9CCE37C6 EQ PUSH2 0xB80 JUMPI DUP1 PUSH4 0xA4C82A00 EQ PUSH2 0xBB7 JUMPI DUP1 PUSH4 0xA5696D89 EQ PUSH2 0xBCC JUMPI PUSH0 DUP1 REVERT JUMPDEST DUP1 PUSH4 0x8718B24F EQ PUSH2 0xA9D JUMPI DUP1 PUSH4 0x88D59741 EQ PUSH2 0xAD0 JUMPI DUP1 PUSH4 0x8DA5CB5B EQ PUSH2 0xAE6 JUMPI DUP1 PUSH4 0x902D55A5 EQ PUSH2 0xB02 JUMPI DUP1 PUSH4 0x917CEEB5 EQ PUSH2 0xB19 JUMPI PUSH0 DUP1 REVERT JUMPDEST DUP1 PUSH4 0x4ECE7C06 GT PUSH2 0x39B JUMPI DUP1 PUSH4 0x6AC9A870 GT PUSH2 0x30F JUMPI DUP1 PUSH4 0x730C1888 GT PUSH2 0x2D4 JUMPI DUP1 PUSH4 0x730C1888 EQ PUSH2 0xA0D JUMPI DUP1 PUSH4 0x74D002F1 EQ PUSH2 0xA2C JUMPI DUP1 PUSH4 0x79353C08 EQ PUSH2 0xA40 JUMPI DUP1 PUSH4 0x7A70873A EQ PUSH2 0xA55 JUMPI DUP1 PUSH4 0x7FF9B596 EQ PUSH2 0xA6A JUMPI DUP1 PUSH4 0x85DC3004 EQ PUSH2 0xA7E JUMPI PUSH0 DUP1 REVERT JUMPDEST DUP1 PUSH4 0x6AC9A870 EQ PUSH2 0x97C JUMPI DUP1 PUSH4 0x6C580801 EQ PUSH2 0x99B JUMPI DUP1 PUSH4 0x6EBCF607 EQ PUSH2 0x9AF JUMPI DUP1 PUSH4 0x70A08231 EQ PUSH2 0x9DA JUMPI DUP1 PUSH4 0x715018A6 EQ PUSH2 0x9F9 JUMPI PUSH0 DUP1 REVERT JUMPDEST DUP1 PUSH4 0x5C25C30E GT PUSH2 0x360 JUMPI DUP1 PUSH4 0x5C25C30E EQ PUSH2 0x8A4 JUMPI DUP1 PUSH4 0x5EF01957 EQ PUSH2 0x8C3 JUMPI DUP1 PUSH4 0x61B746F2 EQ PUSH2 0x8D8 JUMPI DUP1 PUSH4 0x62015852 EQ PUSH2 0x8ED JUMPI DUP1 PUSH4 0x6386C1C7 EQ PUSH2 0x902 JUMPI DUP1 PUSH4 0x69FFD402 EQ PUSH2 0x964 JUMPI PUSH0 DUP1 REVERT JUMPDEST DUP1 PUSH4 0x4ECE7C06 EQ PUSH2 0x80F JUMPI DUP1 PUSH4 0x51B0D102 EQ PUSH2 0x83A JUMPI DUP1 PUSH4 0x53B7AA1D EQ PUSH2 0x84F JUMPI DUP1 PUSH4 0x553193CA EQ PUSH2 0x864 JUMPI DUP1 PUSH4 0x5B231155 EQ PUSH2 0x879 JUMPI PUSH0 DUP1 REVERT JUMPDEST DUP1 PUSH4 0x23B872DD GT PUSH2 0x432 JUMPI DUP1 PUSH4 0x2F783B4F GT PUSH2 0x3F7 JUMPI DUP1 PUSH4 0x2F783B4F EQ PUSH2 0x700 JUMPI DUP1 PUSH4 0x313CE567 EQ PUSH2 0x71F JUMPI DUP1 PUSH4 0x37791BFC EQ PUSH2 0x75C JUMPI DUP1 PUSH4 0x3AD10EF6 EQ PUSH2 0x77B JUMPI DUP1 PUSH4 0x3C11100D EQ PUSH2 0x7AE JUMPI DUP1 PUSH4 0x4188BF5A EQ PUSH2 0x7DC JUMPI PUSH0 DUP1 REVERT JUMPDEST DUP1 PUSH4 0x23B872DD EQ PUSH2 0x670 JUMPI DUP1 PUSH4 0x297AC6DE EQ PUSH2 0x68F JUMPI DUP1 PUSH4 0x2B01FC94 EQ PUSH2 0x6A4 JUMPI DUP1 PUSH4 0x2C3E486C EQ PUSH2 0x6D2 JUMPI DUP1 PUSH4 0x2E82F1A0 EQ PUSH2 0x6E7 JUMPI PUSH0 DUP1 REVERT JUMPDEST DUP1 PUSH4 0x18160DDD GT PUSH2 0x478 JUMPI DUP1 PUSH4 0x18160DDD EQ PUSH2 0x576 JUMPI DUP1 PUSH4 0x199FFC72 EQ PUSH2 0x5A8 JUMPI DUP1 PUSH4 0x1B85FECD EQ PUSH2 0x5BD JUMPI DUP1 PUSH4 0x1B967AD4 EQ PUSH2 0x5F1 JUMPI DUP1 PUSH4 0x206C17BB EQ PUSH2 0x625 JUMPI PUSH0 DUP1 REVERT JUMPDEST DUP1 PUSH4 0x27EDFD3 EQ PUSH2 0x4BE JUMPI DUP1 PUSH4 0x6FDDE03 EQ PUSH2 0x4E6 JUMPI DUP1 PUSH4 0x95EA7B3 EQ PUSH2 0x507 JUMPI DUP1 PUSH4 0x141AE566 EQ PUSH2 0x536 JUMPI DUP1 PUSH4 0x1698755F EQ PUSH2 0x557 JUMPI PUSH0 DUP1 REVERT JUMPDEST CALLDATASIZE PUSH2 0x4BA JUMPI STOP JUMPDEST PUSH0 DUP1 REVERT JUMPDEST CALLVALUE DUP1 ISZERO PUSH2 0x4C9 JUMPI PUSH0 DUP1 REVERT JUMPDEST POP PUSH2 0x4D3 PUSH1 0x2A SLOAD DUP2 JUMP JUMPDEST PUSH1 0x40 MLOAD SWAP1 DUP2 MSTORE PUSH1 0x20 ADD JUMPDEST PUSH1 0x40 MLOAD DUP1 SWAP2 SUB SWAP1 RETURN JUMPDEST CALLVALUE DUP1 ISZERO PUSH2 0x4F1 JUMPI PUSH0 DUP1 REVERT JUMPDEST POP PUSH2 0x4FA PUSH2 0x1038 JUMP JUMPDEST PUSH1 0x40 MLOAD PUSH2 0x4DD SWAP2 SWAP1 PUSH2 0x46B6 JUMP JUMPDEST CALLVALUE DUP1 ISZERO PUSH2 0x512 JUMPI PUSH0 DUP1 REVERT JUMPDEST POP PUSH2 0x526 PUSH2 0x521 CALLDATASIZE PUSH1 0x4 PUSH2 0x4706 JUMP JUMPDEST PUSH2 0x10C8 JUMP JUMPDEST PUSH1 0x40 MLOAD SWAP1 ISZERO ISZERO DUP2 MSTORE PUSH1 0x20 ADD PUSH2 0x4DD JUMP JUMPDEST CALLVALUE DUP1 ISZERO PUSH2 0x541 JUMPI PUSH0 DUP1 REVERT JUMPDEST POP PUSH2 0x555 PUSH2 0x550 CALLDATASIZE PUSH1 0x4 PUSH2 0x473B JUMP JUMPDEST PUSH2 0x10DE JUMP JUMPDEST STOP JUMPDEST CALLVALUE DUP1 ISZERO PUSH2 0x562 JUMPI PUSH0 DUP1 REVERT JUMPDEST POP PUSH2 0x555 PUSH2 0x571 CALLDATASIZE PUSH1 0x4 PUSH2 0x4706 JUMP JUMPDEST PUSH2 0x113A JUMP JUMPDEST CALLVALUE DUP1 ISZERO PUSH2 0x581 JUMPI PUSH0 DUP1 REVERT JUMPDEST POP PUSH32 0x0 PUSH2 0x4D3 JUMP JUMPDEST CALLVALUE DUP1 ISZERO PUSH2 0x5B3 JUMPI PUSH0 DUP1 REVERT JUMPDEST POP PUSH2 0x4D3 PUSH1 0x24 SLOAD DUP2 JUMP JUMPDEST CALLVALUE DUP1 ISZERO PUSH2 0x5C8 JUMPI PUSH0 DUP1 REVERT JUMPDEST POP PUSH2 0x5DC PUSH2 0x5D7 CALLDATASIZE PUSH1 0x4 PUSH2 0x4770 JUMP JUMPDEST PUSH2 0x1211 JUMP JUMPDEST PUSH1 0x40 DUP1 MLOAD SWAP3 DUP4 MSTORE PUSH1 0x20 DUP4 ADD SWAP2 SWAP1 SWAP2 MSTORE ADD PUSH2 0x4DD JUMP JUMPDEST CALLVALUE DUP1 ISZERO PUSH2 0x5FC JUMPI PUSH0 DUP1 REVERT JUMPDEST POP PUSH2 0x4D3 PUSH2 0x60B CALLDATASIZE PUSH1 0x4 PUSH2 0x4770 JUMP JUMPDEST PUSH1 0x1 PUSH1 0x1 PUSH1 0xA0 SHL SUB AND PUSH0 SWAP1 DUP2 MSTORE PUSH1 0x14 PUSH1 0x20 MSTORE PUSH1 0x40 SWAP1 KECCAK256 SLOAD SWAP1 JUMP JUMPDEST CALLVALUE DUP1 ISZERO PUSH2 0x630 JUMPI PUSH0 DUP1 REVERT JUMPDEST POP PUSH2 0x658 PUSH32 0x0 DUP2 JUMP JUMPDEST PUSH1 0x40 MLOAD PUSH1 0x1 PUSH1 0x1 PUSH1 0xA0 SHL SUB SWAP1 SWAP2 AND DUP2 MSTORE PUSH1 0x20 ADD PUSH2 0x4DD JUMP JUMPDEST CALLVALUE DUP1 ISZERO PUSH2 0x67B JUMPI PUSH0 DUP1 REVERT JUMPDEST POP PUSH2 0x526 PUSH2 0x68A CALLDATASIZE PUSH1 0x4 PUSH2 0x4789 JUMP JUMPDEST PUSH2 0x1378 JUMP JUMPDEST CALLVALUE DUP1 ISZERO PUSH2 0x69A JUMPI PUSH0 DUP1 REVERT JUMPDEST POP PUSH2 0x4D3 PUSH1 0x1D SLOAD DUP2 JUMP JUMPDEST CALLVALUE DUP1 ISZERO PUSH2 0x6AF JUMPI PUSH0 DUP1 REVERT JUMPDEST POP PUSH2 0x526 PUSH2 0x6BE CALLDATASIZE PUSH1 0x4 PUSH2 0x4770 JUMP JUMPDEST PUSH1 0x19 PUSH1 0x20 MSTORE PUSH0 SWAP1 DUP2 MSTORE PUSH1 0x40 SWAP1 KECCAK256 SLOAD PUSH1 0xFF AND DUP2 JUMP JUMPDEST CALLVALUE DUP1 ISZERO PUSH2 0x6DD JUMPI PUSH0 DUP1 REVERT JUMPDEST POP PUSH2 0x4D3 PUSH1 0x26 SLOAD DUP2 JUMP JUMPDEST CALLVALUE DUP1 ISZERO PUSH2 0x6F2 JUMPI PUSH0 DUP1 REVERT JUMPDEST POP PUSH1 0x25 SLOAD PUSH2 0x526 SWAP1 PUSH1 0xFF AND DUP2 JUMP JUMPDEST CALLVALUE DUP1 ISZERO PUSH2 0x70B JUMPI PUSH0 DUP1 REVERT JUMPDEST POP PUSH2 0x555 PUSH2 0x71A CALLDATASIZE PUSH1 0x4 PUSH2 0x487A JUMP JUMPDEST PUSH2 0x1411 JUMP JUMPDEST CALLVALUE DUP1 ISZERO PUSH2 0x72A JUMPI PUSH0 DUP1 REVERT JUMPDEST POP PUSH1 0x40 MLOAD PUSH1 0xFF PUSH32 0x0 AND DUP2 MSTORE PUSH1 0x20 ADD PUSH2 0x4DD JUMP JUMPDEST CALLVALUE DUP1 ISZERO PUSH2 0x767 JUMPI PUSH0 DUP1 REVERT JUMPDEST POP PUSH1 0x30 SLOAD PUSH2 0x658 SWAP1 PUSH1 0x1 PUSH1 0x1 PUSH1 0xA0 SHL SUB AND DUP2 JUMP JUMPDEST CALLVALUE DUP1 ISZERO PUSH2 0x786 JUMPI PUSH0 DUP1 REVERT JUMPDEST POP PUSH2 0x658 PUSH32 0x0 DUP2 JUMP JUMPDEST CALLVALUE DUP1 ISZERO PUSH2 0x7B9 JUMPI PUSH0 DUP1 REVERT JUMPDEST POP PUSH2 0x526 PUSH2 0x7C8 CALLDATASIZE PUSH1 0x4 PUSH2 0x4770 JUMP JUMPDEST PUSH1 0x13 PUSH1 0x20 MSTORE PUSH0 SWAP1 DUP2 MSTORE PUSH1 0x40 SWAP1 KECCAK256 SLOAD PUSH1 0xFF AND DUP2 JUMP JUMPDEST CALLVALUE DUP1 ISZERO PUSH2 0x7E7 JUMPI PUSH0 DUP1 REVERT JUMPDEST POP PUSH2 0x658 PUSH32 0x0 DUP2 JUMP JUMPDEST CALLVALUE DUP1 ISZERO PUSH2 0x81A JUMPI PUSH0 DUP1 REVERT JUMPDEST POP PUSH2 0x4D3 PUSH2 0x829 CALLDATASIZE PUSH1 0x4 PUSH2 0x4770 JUMP JUMPDEST PUSH1 0xE PUSH1 0x20 MSTORE PUSH0 SWAP1 DUP2 MSTORE PUSH1 0x40 SWAP1 KECCAK256 SLOAD DUP2 JUMP JUMPDEST CALLVALUE DUP1 ISZERO PUSH2 0x845 JUMPI PUSH0 DUP1 REVERT JUMPDEST POP PUSH2 0x4D3 PUSH1 0x2C SLOAD DUP2 JUMP JUMPDEST CALLVALUE DUP1 ISZERO PUSH2 0x85A JUMPI PUSH0 DUP1 REVERT JUMPDEST POP PUSH2 0x4D3 PUSH1 0x1E SLOAD DUP2 JUMP JUMPDEST CALLVALUE DUP1 ISZERO PUSH2 0x86F JUMPI PUSH0 DUP1 REVERT JUMPDEST POP PUSH2 0x4D3 PUSH1 0x28 SLOAD DUP2 JUMP JUMPDEST CALLVALUE DUP1 ISZERO PUSH2 0x884 JUMPI PUSH0 DUP1 REVERT JUMPDEST POP PUSH2 0x4D3 PUSH2 0x893 CALLDATASIZE PUSH1 0x4 PUSH2 0x4770 JUMP JUMPDEST PUSH1 0x16 PUSH1 0x20 MSTORE PUSH0 SWAP1 DUP2 MSTORE PUSH1 0x40 SWAP1 KECCAK256 SLOAD DUP2 JUMP JUMPDEST CALLVALUE DUP1 ISZERO PUSH2 0x8AF JUMPI PUSH0 DUP1 REVERT JUMPDEST POP PUSH2 0x658 PUSH2 0x8BE CALLDATASIZE PUSH1 0x4 PUSH2 0x4706 JUMP JUMPDEST PUSH2 0x16DA JUMP JUMPDEST CALLVALUE DUP1 ISZERO PUSH2 0x8CE JUMPI PUSH0 DUP1 REVERT JUMPDEST POP PUSH2 0x4D3 PUSH1 0x1F SLOAD DUP2 JUMP JUMPDEST CALLVALUE DUP1 ISZERO PUSH2 0x8E3 JUMPI PUSH0 DUP1 REVERT JUMPDEST POP PUSH2 0x4D3 PUSH1 0x2B SLOAD DUP2 JUMP JUMPDEST CALLVALUE DUP1 ISZERO PUSH2 0x8F8 JUMPI PUSH0 DUP1 REVERT JUMPDEST POP PUSH2 0x4D3 PUSH1 0x1B SLOAD DUP2 JUMP JUMPDEST CALLVALUE DUP1 ISZERO PUSH2 0x90D JUMPI PUSH0 DUP1 REVERT JUMPDEST POP PUSH2 0x921 PUSH2 0x91C CALLDATASIZE PUSH1 0x4 PUSH2 0x4770 JUMP JUMPDEST PUSH2 0x170E JUMP JUMPDEST PUSH1 0x40 DUP1 MLOAD SWAP8 DUP9 MSTORE PUSH1 0x20 DUP9 ADD SWAP7 SWAP1 SWAP7 MSTORE SWAP4 ISZERO ISZERO SWAP5 DUP7 ADD SWAP5 SWAP1 SWAP5 MSTORE PUSH1 0x60 DUP6 ADD SWAP2 SWAP1 SWAP2 MSTORE PUSH1 0x80 DUP5 ADD MSTORE PUSH1 0x1 PUSH1 0x1 PUSH1 0xA0 SHL SUB SWAP1 SWAP2 AND PUSH1 0xA0 DUP4 ADD MSTORE PUSH1 0xC0 DUP3 ADD MSTORE PUSH1 0xE0 ADD PUSH2 0x4DD JUMP JUMPDEST CALLVALUE DUP1 ISZERO PUSH2 0x96F JUMPI PUSH0 DUP1 REVERT JUMPDEST POP PUSH2 0x4D3 PUSH5 0x2540BE400 DUP2 JUMP JUMPDEST CALLVALUE DUP1 ISZERO PUSH2 0x987 JUMPI PUSH0 DUP1 REVERT JUMPDEST POP PUSH2 0x555 PUSH2 0x996 CALLDATASIZE PUSH1 0x4 PUSH2 0x48AC JUMP JUMPDEST PUSH2 0x1809 JUMP JUMPDEST CALLVALUE DUP1 ISZERO PUSH2 0x9A6 JUMPI PUSH0 DUP1 REVERT JUMPDEST POP PUSH2 0x555 PUSH2 0x1905 JUMP JUMPDEST CALLVALUE DUP1 ISZERO PUSH2 0x9BA JUMPI PUSH0 DUP1 REVERT JUMPDEST POP PUSH2 0x4D3 PUSH2 0x9C9 CALLDATASIZE PUSH1 0x4 PUSH2 0x4770 JUMP JUMPDEST PUSH1 0xB PUSH1 0x20 MSTORE PUSH0 SWAP1 DUP2 MSTORE PUSH1 0x40 SWAP1 KECCAK256 SLOAD DUP2 JUMP JUMPDEST CALLVALUE DUP1 ISZERO PUSH2 0x9E5 JUMPI PUSH0 DUP1 REVERT JUMPDEST POP PUSH2 0x4D3 PUSH2 0x9F4 CALLDATASIZE PUSH1 0x4 PUSH2 0x4770 JUMP JUMPDEST PUSH2 0x1958 JUMP JUMPDEST CALLVALUE DUP1 ISZERO PUSH2 0xA04 JUMPI PUSH0 DUP1 REVERT JUMPDEST POP PUSH2 0x555 PUSH2 0x1980 JUMP JUMPDEST CALLVALUE DUP1 ISZERO PUSH2 0xA18 JUMPI PUSH0 DUP1 REVERT JUMPDEST POP PUSH2 0x555 PUSH2 0xA27 CALLDATASIZE PUSH1 0x4 PUSH2 0x48CC JUMP JUMPDEST PUSH2 0x19F1 JUMP JUMPDEST CALLVALUE DUP1 ISZERO PUSH2 0xA37 JUMPI PUSH0 DUP1 REVERT JUMPDEST POP PUSH1 0x32 SLOAD PUSH2 0x4D3 JUMP JUMPDEST CALLVALUE DUP1 ISZERO PUSH2 0xA4B JUMPI PUSH0 DUP1 REVERT JUMPDEST POP PUSH2 0x4D3 PUSH1 0x2D SLOAD DUP2 JUMP JUMPDEST CALLVALUE DUP1 ISZERO PUSH2 0xA60 JUMPI PUSH0 DUP1 REVERT JUMPDEST POP PUSH2 0x4D3 PUSH1 0x2F SLOAD DUP2 JUMP JUMPDEST CALLVALUE DUP1 ISZERO PUSH2 0xA75 JUMPI PUSH0 DUP1 REVERT JUMPDEST POP PUSH2 0x4D3 PUSH2 0x1B32 JUMP JUMPDEST CALLVALUE DUP1 ISZERO PUSH2 0xA89 JUMPI PUSH0 DUP1 REVERT JUMPDEST POP PUSH2 0x555 PUSH2 0xA98 CALLDATASIZE PUSH1 0x4 PUSH2 0x4770 JUMP JUMPDEST PUSH2 0x1C63 JUMP JUMPDEST CALLVALUE DUP1 ISZERO PUSH2 0xAA8 JUMPI PUSH0 DUP1 REVERT JUMPDEST POP PUSH2 0x658 PUSH32 0x0 DUP2 JUMP JUMPDEST CALLVALUE DUP1 ISZERO PUSH2 0xADB JUMPI PUSH0 DUP1 REVERT JUMPDEST POP PUSH2 0x4D3 PUSH3 0x1E8480 DUP2 JUMP JUMPDEST CALLVALUE DUP1 ISZERO PUSH2 0xAF1 JUMPI PUSH0 DUP1 REVERT JUMPDEST POP PUSH0 SLOAD PUSH1 0x1 PUSH1 0x1 PUSH1 0xA0 SHL SUB AND PUSH2 0x658 JUMP JUMPDEST CALLVALUE DUP1 ISZERO PUSH2 0xB0D JUMPI PUSH0 DUP1 REVERT JUMPDEST POP PUSH2 0x4D3 PUSH4 0x1406F40 DUP2 JUMP JUMPDEST CALLVALUE DUP1 ISZERO PUSH2 0xB24 JUMPI PUSH0 DUP1 REVERT JUMPDEST POP PUSH2 0x555 PUSH2 0xB33 CALLDATASIZE PUSH1 0x4 PUSH2 0x4902 JUMP JUMPDEST PUSH2 0x1D24 JUMP JUMPDEST CALLVALUE DUP1 ISZERO PUSH2 0xB43 JUMPI PUSH0 DUP1 REVERT JUMPDEST POP PUSH2 0x4FA PUSH2 0x1DD3 JUMP JUMPDEST CALLVALUE DUP1 ISZERO PUSH2 0xB57 JUMPI PUSH0 DUP1 REVERT JUMPDEST POP PUSH2 0x555 PUSH2 0xB66 CALLDATASIZE PUSH1 0x4 PUSH2 0x4902 JUMP JUMPDEST PUSH2 0x1DE2 JUMP JUMPDEST CALLVALUE DUP1 ISZERO PUSH2 0xB76 JUMPI PUSH0 DUP1 REVERT JUMPDEST POP PUSH2 0x4D3 PUSH1 0x29 SLOAD DUP2 JUMP JUMPDEST CALLVALUE DUP1 ISZERO PUSH2 0xB8B JUMPI PUSH0 DUP1 REVERT JUMPDEST POP PUSH2 0x526 PUSH2 0xB9A CALLDATASIZE PUSH1 0x4 PUSH2 0x4770 JUMP JUMPDEST PUSH1 0x1 PUSH1 0x1 PUSH1 0xA0 SHL SUB AND PUSH0 SWAP1 DUP2 MSTORE PUSH1 0xF PUSH1 0x20 MSTORE PUSH1 0x40 SWAP1 KECCAK256 SLOAD PUSH1 0xFF AND SWAP1 JUMP JUMPDEST CALLVALUE DUP1 ISZERO PUSH2 0xBC2 JUMPI PUSH0 DUP1 REVERT JUMPDEST POP PUSH2 0x4D3 PUSH1 0x27 SLOAD DUP2 JUMP JUMPDEST CALLVALUE DUP1 ISZERO PUSH2 0xBD7 JUMPI PUSH0 DUP1 REVERT JUMPDEST POP PUSH2 0x555 PUSH2 0xBE6 CALLDATASIZE PUSH1 0x4 PUSH2 0x4706 JUMP JUMPDEST PUSH2 0x1E10 JUMP JUMPDEST CALLVALUE DUP1 ISZERO PUSH2 0xBF6 JUMPI PUSH0 DUP1 REVERT JUMPDEST POP PUSH2 0x555 PUSH2 0xC05 CALLDATASIZE PUSH1 0x4 PUSH2 0x473B JUMP JUMPDEST PUSH2 0x1E98 JUMP JUMPDEST CALLVALUE DUP1 ISZERO PUSH2 0xC15 JUMPI PUSH0 DUP1 REVERT JUMPDEST POP PUSH2 0x526 PUSH2 0xC24 CALLDATASIZE PUSH1 0x4 PUSH2 0x4706 JUMP JUMPDEST PUSH2 0x1F20 JUMP JUMPDEST CALLVALUE DUP1 ISZERO PUSH2 0xC34 JUMPI PUSH0 DUP1 REVERT JUMPDEST POP PUSH2 0x555 PUSH2 0xC43 CALLDATASIZE PUSH1 0x4 PUSH2 0x4902 JUMP JUMPDEST PUSH2 0x1F36 JUMP JUMPDEST CALLVALUE DUP1 ISZERO PUSH2 0xC53 JUMPI PUSH0 DUP1 REVERT JUMPDEST POP PUSH2 0x526 PUSH2 0xC62 CALLDATASIZE PUSH1 0x4 PUSH2 0x4919 JUMP JUMPDEST PUSH1 0x15 PUSH1 0x20 SWAP1 DUP2 MSTORE PUSH0 SWAP3 DUP4 MSTORE PUSH1 0x40 DUP1 DUP5 KECCAK256 SWAP1 SWAP2 MSTORE SWAP1 DUP3 MSTORE SWAP1 KECCAK256 SLOAD PUSH1 0xFF AND DUP2 JUMP JUMPDEST CALLVALUE DUP1 ISZERO PUSH2 0xC8C JUMPI PUSH0 DUP1 REVERT JUMPDEST POP PUSH2 0x555 PUSH2 0xC9B CALLDATASIZE PUSH1 0x4 PUSH2 0x494A JUMP JUMPDEST PUSH2 0x1FDA JUMP JUMPDEST CALLVALUE DUP1 ISZERO PUSH2 0xCAB JUMPI PUSH0 DUP1 REVERT JUMPDEST POP PUSH2 0x4D3 PUSH2 0x205D JUMP JUMPDEST CALLVALUE DUP1 ISZERO PUSH2 0xCBF JUMPI PUSH0 DUP1 REVERT JUMPDEST POP PUSH2 0x4D3 PUSH1 0x21 SLOAD DUP2 JUMP JUMPDEST CALLVALUE DUP1 ISZERO PUSH2 0xCD4 JUMPI PUSH0 DUP1 REVERT JUMPDEST POP PUSH2 0x4D3 PUSH1 0x31 SLOAD DUP2 JUMP JUMPDEST CALLVALUE DUP1 ISZERO PUSH2 0xCE9 JUMPI PUSH0 DUP1 REVERT JUMPDEST POP PUSH2 0x658 PUSH32 0x0 DUP2 JUMP JUMPDEST CALLVALUE DUP1 ISZERO PUSH2 0xD1C JUMPI PUSH0 DUP1 REVERT JUMPDEST POP PUSH2 0xD30 PUSH2 0xD2B CALLDATASIZE PUSH1 0x4 PUSH2 0x4706 JUMP JUMPDEST PUSH2 0x2070 JUMP JUMPDEST PUSH1 0x40 MLOAD PUSH2 0x4DD SWAP2 SWAP1 PUSH2 0x498E JUMP JUMPDEST CALLVALUE DUP1 ISZERO PUSH2 0xD48 JUMPI PUSH0 DUP1 REVERT JUMPDEST POP PUSH2 0x555 PUSH2 0xD57 CALLDATASIZE PUSH1 0x4 PUSH2 0x4902 JUMP JUMPDEST PUSH2 0x2121 JUMP JUMPDEST CALLVALUE DUP1 ISZERO PUSH2 0xD67 JUMPI PUSH0 DUP1 REVERT JUMPDEST POP PUSH2 0x4D3 PUSH1 0x1C SLOAD DUP2 JUMP JUMPDEST CALLVALUE DUP1 ISZERO PUSH2 0xD7C JUMPI PUSH0 DUP1 REVERT JUMPDEST POP PUSH2 0x526 PUSH2 0xD8B CALLDATASIZE PUSH1 0x4 PUSH2 0x4770 JUMP JUMPDEST PUSH1 0x11 PUSH1 0x20 MSTORE PUSH0 SWAP1 DUP2 MSTORE PUSH1 0x40 SWAP1 KECCAK256 SLOAD PUSH1 0xFF AND DUP2 JUMP JUMPDEST CALLVALUE DUP1 ISZERO PUSH2 0xDAA JUMPI PUSH0 DUP1 REVERT JUMPDEST POP PUSH2 0x555 PUSH2 0xDB9 CALLDATASIZE PUSH1 0x4 PUSH2 0x473B JUMP JUMPDEST PUSH2 0x21A3 JUMP JUMPDEST CALLVALUE DUP1 ISZERO PUSH2 0xDC9 JUMPI PUSH0 DUP1 REVERT JUMPDEST POP PUSH2 0x555 PUSH2 0xDD8 CALLDATASIZE PUSH1 0x4 PUSH2 0x473B JUMP JUMPDEST PUSH2 0x21F6 JUMP JUMPDEST CALLVALUE DUP1 ISZERO PUSH2 0xDE8 JUMPI PUSH0 DUP1 REVERT JUMPDEST POP PUSH2 0x526 PUSH2 0xDF7 CALLDATASIZE PUSH1 0x4 PUSH2 0x4770 JUMP JUMPDEST PUSH2 0x2288 JUMP JUMPDEST CALLVALUE DUP1 ISZERO PUSH2 0xE07 JUMPI PUSH0 DUP1 REVERT JUMPDEST POP PUSH2 0x4D3 PUSH2 0xE16 CALLDATASIZE PUSH1 0x4 PUSH2 0x4919 JUMP JUMPDEST PUSH1 0x1 PUSH1 0x1 PUSH1 0xA0 SHL SUB SWAP2 DUP3 AND PUSH0 SWAP1 DUP2 MSTORE PUSH1 0xC PUSH1 0x20 SWAP1 DUP2 MSTORE PUSH1 0x40 DUP1 DUP4 KECCAK256 SWAP4 SWAP1 SWAP5 AND DUP3 MSTORE SWAP2 SWAP1 SWAP2 MSTORE KECCAK256 SLOAD SWAP1 JUMP JUMPDEST CALLVALUE DUP1 ISZERO PUSH2 0xE4B JUMPI PUSH0 DUP1 REVERT JUMPDEST POP PUSH2 0x658 PUSH2 0xE5A CALLDATASIZE PUSH1 0x4 PUSH2 0x4902 JUMP JUMPDEST PUSH2 0x22FC JUMP JUMPDEST CALLVALUE DUP1 ISZERO PUSH2 0xE6A JUMPI PUSH0 DUP1 REVERT JUMPDEST POP PUSH2 0x555 PUSH2 0xE79 CALLDATASIZE PUSH1 0x4 PUSH2 0x4902 JUMP JUMPDEST PUSH2 0x2324 JUMP JUMPDEST CALLVALUE DUP1 ISZERO PUSH2 0xE89 JUMPI PUSH0 DUP1 REVERT JUMPDEST POP PUSH2 0x4D3 PUSH1 0x22 SLOAD DUP2 JUMP JUMPDEST CALLVALUE DUP1 ISZERO PUSH2 0xE9E JUMPI PUSH0 DUP1 REVERT JUMPDEST POP PUSH2 0x4D3 PUSH1 0x20 SLOAD DUP2 JUMP JUMPDEST CALLVALUE DUP1 ISZERO PUSH2 0xEB3 JUMPI PUSH0 DUP1 REVERT JUMPDEST POP PUSH2 0x4D3 PUSH2 0xEC2 CALLDATASIZE PUSH1 0x4 PUSH2 0x4770 JUMP JUMPDEST PUSH1 0xD PUSH1 0x20 MSTORE PUSH0 SWAP1 DUP2 MSTORE PUSH1 0x40 SWAP1 KECCAK256 SLOAD DUP2 JUMP JUMPDEST CALLVALUE DUP1 ISZERO PUSH2 0xEDE JUMPI PUSH0 DUP1 REVERT JUMPDEST POP PUSH1 0x1A SLOAD PUSH2 0x658 SWAP1 PUSH1 0x1 PUSH1 0x1 PUSH1 0xA0 SHL SUB AND DUP2 JUMP JUMPDEST CALLVALUE DUP1 ISZERO PUSH2 0xEFD JUMPI PUSH0 DUP1 REVERT JUMPDEST POP PUSH2 0x4D3 PUSH1 0x2E SLOAD DUP2 JUMP JUMPDEST CALLVALUE DUP1 ISZERO PUSH2 0xF12 JUMPI PUSH0 DUP1 REVERT JUMPDEST POP PUSH2 0x526 PUSH2 0xF21 CALLDATASIZE PUSH1 0x4 PUSH2 0x4770 JUMP JUMPDEST PUSH1 0x12 PUSH1 0x20 MSTORE PUSH0 SWAP1 DUP2 MSTORE PUSH1 0x40 SWAP1 KECCAK256 SLOAD PUSH1 0xFF AND DUP2 JUMP JUMPDEST CALLVALUE DUP1 ISZERO PUSH2 0xF40 JUMPI PUSH0 DUP1 REVERT JUMPDEST POP PUSH2 0x555 PUSH2 0xF4F CALLDATASIZE PUSH1 0x4 PUSH2 0x4902 JUMP JUMPDEST PUSH2 0x2352 JUMP JUMPDEST CALLVALUE DUP1 ISZERO PUSH2 0xF5F JUMPI PUSH0 DUP1 REVERT JUMPDEST POP PUSH2 0x4D3 PUSH2 0xF6E CALLDATASIZE PUSH1 0x4 PUSH2 0x4770 JUMP JUMPDEST PUSH1 0x18 PUSH1 0x20 MSTORE PUSH0 SWAP1 DUP2 MSTORE PUSH1 0x40 SWAP1 KECCAK256 SLOAD DUP2 JUMP JUMPDEST CALLVALUE DUP1 ISZERO PUSH2 0xF8A JUMPI PUSH0 DUP1 REVERT JUMPDEST POP PUSH2 0x4D3 PUSH2 0x2441 JUMP JUMPDEST CALLVALUE DUP1 ISZERO PUSH2 0xF9E JUMPI PUSH0 DUP1 REVERT JUMPDEST POP PUSH2 0x555 PUSH2 0xFAD CALLDATASIZE PUSH1 0x4 PUSH2 0x4902 JUMP JUMPDEST PUSH2 0x2455 JUMP JUMPDEST CALLVALUE DUP1 ISZERO PUSH2 0xFBD JUMPI PUSH0 DUP1 REVERT JUMPDEST POP PUSH2 0x555 PUSH2 0xFCC CALLDATASIZE PUSH1 0x4 PUSH2 0x4770 JUMP JUMPDEST PUSH2 0x24D4 JUMP JUMPDEST CALLVALUE DUP1 ISZERO PUSH2 0xFDC JUMPI PUSH0 DUP1 REVERT JUMPDEST POP PUSH2 0x4D3 PUSH1 0x23 SLOAD DUP2 JUMP JUMPDEST CALLVALUE DUP1 ISZERO PUSH2 0xFF1 JUMPI PUSH0 DUP1 REVERT JUMPDEST POP PUSH2 0x555 PUSH2 0x1000 CALLDATASIZE PUSH1 0x4 PUSH2 0x48AC JUMP JUMPDEST PUSH2 0x2591 JUMP JUMPDEST CALLVALUE DUP1 ISZERO PUSH2 0x1010 JUMPI PUSH0 DUP1 REVERT JUMPDEST POP PUSH2 0x658 PUSH32 0x0 DUP2 JUMP JUMPDEST PUSH1 0x60 PUSH1 0x33 DUP1 SLOAD PUSH2 0x1047 SWAP1 PUSH2 0x49BF JUMP JUMPDEST DUP1 PUSH1 0x1F ADD PUSH1 0x20 DUP1 SWAP2 DIV MUL PUSH1 0x20 ADD PUSH1 0x40 MLOAD SWAP1 DUP2 ADD PUSH1 0x40 MSTORE DUP1 SWAP3 SWAP2 SWAP1 DUP2 DUP2 MSTORE PUSH1 0x20 ADD DUP3 DUP1 SLOAD PUSH2 0x1073 SWAP1 PUSH2 0x49BF JUMP JUMPDEST DUP1 ISZERO PUSH2 0x10BE JUMPI DUP1 PUSH1 0x1F LT PUSH2 0x1095 JUMPI PUSH2 0x100 DUP1 DUP4 SLOAD DIV MUL DUP4 MSTORE SWAP2 PUSH1 0x20 ADD SWAP2 PUSH2 0x10BE JUMP JUMPDEST DUP3 ADD SWAP2 SWAP1 PUSH0 MSTORE PUSH1 0x20 PUSH0 KECCAK256 SWAP1 JUMPDEST DUP2 SLOAD DUP2 MSTORE SWAP1 PUSH1 0x1 ADD SWAP1 PUSH1 0x20 ADD DUP1 DUP4 GT PUSH2 0x10A1 JUMPI DUP3 SWAP1 SUB PUSH1 0x1F AND DUP3 ADD SWAP2 JUMPDEST POP POP POP POP POP SWAP1 POP SWAP1 JUMP JUMPDEST PUSH0 PUSH2 0x10D4 CALLER DUP5 DUP5 PUSH2 0x267C JUMP JUMPDEST POP PUSH1 0x1 JUMPDEST SWAP3 SWAP2 POP POP JUMP JUMPDEST PUSH0 SLOAD PUSH1 0x1 PUSH1 0x1 PUSH1 0xA0 SHL SUB AND CALLER EQ PUSH2 0x1110 JUMPI PUSH1 0x40 MLOAD PUSH3 0x461BCD PUSH1 0xE5 SHL DUP2 MSTORE PUSH1 0x4 ADD PUSH2 0x1107 SWAP1 PUSH2 0x49F1 JUMP JUMPDEST PUSH1 0x40 MLOAD DUP1 SWAP2 SUB SWAP1 REVERT JUMPDEST PUSH1 0x1 PUSH1 0x1 PUSH1 0xA0 SHL SUB SWAP2 SWAP1 SWAP2 AND PUSH0 SWAP1 DUP2 MSTORE PUSH1 0x19 PUSH1 0x20 MSTORE PUSH1 0x40 SWAP1 KECCAK256 DUP1 SLOAD PUSH1 0xFF NOT AND SWAP2 ISZERO ISZERO SWAP2 SWAP1 SWAP2 OR SWAP1 SSTORE JUMP JUMPDEST CALLER PUSH0 DUP2 DUP2 MSTORE PUSH1 0xF PUSH1 0x20 MSTORE PUSH1 0x40 SWAP1 KECCAK256 SLOAD PUSH1 0xFF AND DUP1 PUSH2 0x1164 JUMPI POP PUSH1 0x1A SLOAD PUSH1 0x1 PUSH1 0x1 PUSH1 0xA0 SHL SUB DUP3 DUP2 AND SWAP2 AND EQ JUMPDEST DUP1 PUSH2 0x117B JUMPI POP PUSH0 SLOAD PUSH1 0x1 PUSH1 0x1 PUSH1 0xA0 SHL SUB DUP3 DUP2 AND SWAP2 AND EQ JUMPDEST PUSH2 0x1197 JUMPI PUSH1 0x40 MLOAD PUSH3 0x461BCD PUSH1 0xE5 SHL DUP2 MSTORE PUSH1 0x4 ADD PUSH2 0x1107 SWAP1 PUSH2 0x4A0D JUMP JUMPDEST PUSH1 0x1A SLOAD PUSH1 0x40 MLOAD PUSH4 0xA9059CBB PUSH1 0xE0 SHL DUP2 MSTORE PUSH1 0x1 PUSH1 0x1 PUSH1 0xA0 SHL SUB SWAP2 DUP3 AND PUSH1 0x4 DUP3 ADD MSTORE PUSH1 0x24 DUP2 ADD DUP5 SWAP1 MSTORE SWAP1 DUP5 AND SWAP1 PUSH4 0xA9059CBB SWAP1 PUSH1 0x44 ADD PUSH1 0x20 PUSH1 0x40 MLOAD DUP1 DUP4 SUB DUP2 PUSH0 DUP8 GAS CALL ISZERO DUP1 ISZERO PUSH2 0x11E7 JUMPI RETURNDATASIZE PUSH0 DUP1 RETURNDATACOPY RETURNDATASIZE PUSH0 REVERT JUMPDEST POP POP POP POP PUSH1 0x40 MLOAD RETURNDATASIZE PUSH1 0x1F NOT PUSH1 0x1F DUP3 ADD AND DUP3 ADD DUP1 PUSH1 0x40 MSTORE POP DUP2 ADD SWAP1 PUSH2 0x120B SWAP2 SWAP1 PUSH2 0x4A29 JUMP JUMPDEST POP POP POP POP JUMP JUMPDEST PUSH0 DUP1 PUSH0 PUSH32 0x0 SWAP1 POP PUSH0 DUP2 PUSH1 0x1 PUSH1 0x1 PUSH1 0xA0 SHL SUB AND PUSH4 0x18160DDD PUSH1 0x40 MLOAD DUP2 PUSH4 0xFFFFFFFF AND PUSH1 0xE0 SHL DUP2 MSTORE PUSH1 0x4 ADD PUSH1 0x20 PUSH1 0x40 MLOAD DUP1 DUP4 SUB DUP2 DUP7 GAS STATICCALL ISZERO DUP1 ISZERO PUSH2 0x1274 JUMPI RETURNDATASIZE PUSH0 DUP1 RETURNDATACOPY RETURNDATASIZE PUSH0 REVERT JUMPDEST POP POP POP POP PUSH1 0x40 MLOAD RETURNDATASIZE PUSH1 0x1F NOT PUSH1 0x1F DUP3 ADD AND DUP3 ADD DUP1 PUSH1 0x40 MSTORE POP DUP2 ADD SWAP1 PUSH2 0x1298 SWAP2 SWAP1 PUSH2 0x4A44 JUMP JUMPDEST SWAP1 POP PUSH0 DUP1 PUSH2 0x12A4 PUSH2 0x26DD JUMP JUMPDEST PUSH1 0x40 MLOAD PUSH4 0x70A08231 PUSH1 0xE0 SHL DUP2 MSTORE PUSH1 0x1 PUSH1 0x1 PUSH1 0xA0 SHL SUB DUP11 DUP2 AND PUSH1 0x4 DUP4 ADD MSTORE SWAP3 SWAP5 POP SWAP1 SWAP3 POP PUSH0 SWAP2 PUSH32 0x0 AND SWAP1 PUSH4 0x70A08231 SWAP1 PUSH1 0x24 ADD PUSH1 0x20 PUSH1 0x40 MLOAD DUP1 DUP4 SUB DUP2 DUP7 GAS STATICCALL ISZERO DUP1 ISZERO PUSH2 0x1310 JUMPI RETURNDATASIZE PUSH0 DUP1 RETURNDATACOPY RETURNDATASIZE PUSH0 REVERT JUMPDEST POP POP POP POP PUSH1 0x40 MLOAD RETURNDATASIZE PUSH1 0x1F NOT PUSH1 0x1F DUP3 ADD AND DUP3 ADD DUP1 PUSH1 0x40 MSTORE POP DUP2 ADD SWAP1 PUSH2 0x1334 SWAP2 SWAP1 PUSH2 0x4A44 JUMP JUMPDEST SWAP1 POP DUP4 ISZERO PUSH2 0x1367 JUMPI PUSH2 0x1350 DUP5 PUSH2 0x134A DUP5 DUP5 PUSH2 0x27BD JUMP JUMPDEST SWAP1 PUSH2 0x27C8 JUMP JUMPDEST SWAP7 POP PUSH2 0x1360 DUP5 PUSH2 0x134A DUP6 DUP5 PUSH2 0x27BD JUMP JUMPDEST SWAP6 POP PUSH2 0x136E JUMP JUMPDEST PUSH0 SWAP7 POP PUSH0 SWAP6 POP JUMPDEST POP POP POP POP POP SWAP2 POP SWAP2 JUMP JUMPDEST PUSH0 DUP1 PUSH2 0x1385 DUP6 DUP6 DUP6 PUSH2 0x27D3 JUMP JUMPDEST PUSH1 0x1 PUSH1 0x1 PUSH1 0xA0 SHL SUB DUP7 AND PUSH0 SWAP1 DUP2 MSTORE PUSH1 0xC PUSH1 0x20 SWAP1 DUP2 MSTORE PUSH1 0x40 DUP1 DUP4 KECCAK256 CALLER DUP5 MSTORE SWAP1 SWAP2 MSTORE SWAP1 KECCAK256 SLOAD SWAP1 SWAP2 POP PUSH0 NOT EQ PUSH2 0x1404 JUMPI PUSH1 0x1 PUSH1 0x1 PUSH1 0xA0 SHL SUB DUP6 AND PUSH0 SWAP1 DUP2 MSTORE PUSH1 0xC PUSH1 0x20 SWAP1 DUP2 MSTORE PUSH1 0x40 DUP1 DUP4 KECCAK256 CALLER DUP5 MSTORE SWAP1 SWAP2 MSTORE SWAP1 KECCAK256 SLOAD PUSH2 0x13E0 SWAP1 DUP3 SWAP1 PUSH2 0x4A6F JUMP JUMPDEST PUSH1 0x1 PUSH1 0x1 PUSH1 0xA0 SHL SUB DUP7 AND PUSH0 SWAP1 DUP2 MSTORE PUSH1 0xC PUSH1 0x20 SWAP1 DUP2 MSTORE PUSH1 0x40 DUP1 DUP4 KECCAK256 CALLER DUP5 MSTORE SWAP1 SWAP2 MSTORE SWAP1 KECCAK256 SSTORE JUMPDEST PUSH1 0x1 SWAP2 POP POP JUMPDEST SWAP4 SWAP3 POP POP POP JUMP JUMPDEST PUSH0 SLOAD PUSH1 0x1 PUSH1 0x1 PUSH1 0xA0 SHL SUB AND CALLER EQ PUSH2 0x143A JUMPI PUSH1 0x40 MLOAD PUSH3 0x461BCD PUSH1 0xE5 SHL DUP2 MSTORE PUSH1 0x4 ADD PUSH2 0x1107 SWAP1 PUSH2 0x49F1 JUMP JUMPDEST PUSH0 DUP2 MLOAD GT PUSH2 0x1482 JUMPI PUSH1 0x40 MLOAD PUSH3 0x461BCD PUSH1 0xE5 SHL DUP2 MSTORE PUSH1 0x20 PUSH1 0x4 DUP3 ADD MSTORE PUSH1 0x15 PUSH1 0x24 DUP3 ADD MSTORE PUSH21 0x139BC81859191C995CDCD95CC81C1C9BDD9A591959 PUSH1 0x5A SHL PUSH1 0x44 DUP3 ADD MSTORE PUSH1 0x64 ADD PUSH2 0x1107 JUMP JUMPDEST PUSH0 JUMPDEST DUP2 MLOAD DUP2 LT ISZERO PUSH2 0x15AE JUMPI PUSH0 DUP3 DUP3 DUP2 MLOAD DUP2 LT PUSH2 0x14A0 JUMPI PUSH2 0x14A0 PUSH2 0x4A82 JUMP JUMPDEST PUSH1 0x20 SWAP1 DUP2 MUL SWAP2 SWAP1 SWAP2 ADD ADD MLOAD PUSH1 0x40 MLOAD PUSH4 0x70A08231 PUSH1 0xE0 SHL DUP2 MSTORE PUSH1 0x1 PUSH1 0x1 PUSH1 0xA0 SHL SUB DUP1 DUP4 AND PUSH1 0x4 DUP4 ADD MSTORE SWAP2 SWAP3 POP PUSH0 SWAP2 PUSH32 0x0 AND SWAP1 PUSH4 0x70A08231 SWAP1 PUSH1 0x24 ADD PUSH1 0x20 PUSH1 0x40 MLOAD DUP1 DUP4 SUB DUP2 DUP7 GAS STATICCALL ISZERO DUP1 ISZERO PUSH2 0x1514 JUMPI RETURNDATASIZE PUSH0 DUP1 RETURNDATACOPY RETURNDATASIZE PUSH0 REVERT JUMPDEST POP POP POP POP PUSH1 0x40 MLOAD RETURNDATASIZE PUSH1 0x1F NOT PUSH1 0x1F DUP3 ADD AND DUP3 ADD DUP1 PUSH1 0x40 MSTORE POP DUP2 ADD SWAP1 PUSH2 0x1538 SWAP2 SWAP1 PUSH2 0x4A44 JUMP JUMPDEST SWAP1 POP PUSH2 0x1543 DUP3 PUSH2 0x3118 JUMP JUMPDEST PUSH1 0x1 PUSH1 0x1 PUSH1 0xA0 SHL SUB DUP3 AND PUSH0 SWAP1 DUP2 MSTORE PUSH1 0x17 PUSH1 0x20 MSTORE PUSH1 0x40 SWAP1 KECCAK256 DUP2 SWAP1 SSTORE PUSH2 0x1565 PUSH2 0x31E4 JUMP JUMPDEST PUSH1 0x1 PUSH1 0x1 PUSH1 0xA0 SHL SUB DUP4 AND PUSH0 SWAP1 DUP2 MSTORE PUSH1 0x16 PUSH1 0x20 MSTORE PUSH1 0x40 SWAP1 KECCAK256 SSTORE PUSH2 0x1586 DUP3 PUSH2 0x3212 JUMP JUMPDEST PUSH1 0x1 PUSH1 0x1 PUSH1 0xA0 SHL SUB SWAP1 SWAP3 AND PUSH0 SWAP1 DUP2 MSTORE PUSH1 0x10 PUSH1 0x20 MSTORE PUSH1 0x40 SWAP1 KECCAK256 PUSH1 0x2 ADD SWAP2 SWAP1 SWAP2 SSTORE POP PUSH1 0x1 ADD PUSH2 0x1484 JUMP JUMPDEST POP PUSH1 0x40 MLOAD PUSH4 0x70A08231 PUSH1 0xE0 SHL DUP2 MSTORE PUSH1 0x1 PUSH1 0x1 PUSH1 0xA0 SHL SUB PUSH32 0x0 DUP2 AND PUSH1 0x4 DUP4 ADD MSTORE PUSH32 0x0 AND SWAP1 PUSH4 0x70A08231 SWAP1 PUSH1 0x24 ADD PUSH1 0x20 PUSH1 0x40 MLOAD DUP1 DUP4 SUB DUP2 DUP7 GAS STATICCALL ISZERO DUP1 ISZERO PUSH2 0x1633 JUMPI RETURNDATASIZE PUSH0 DUP1 RETURNDATACOPY RETURNDATASIZE PUSH0 REVERT JUMPDEST POP POP POP POP PUSH1 0x40 MLOAD RETURNDATASIZE PUSH1 0x1F NOT PUSH1 0x1F DUP3 ADD AND DUP3 ADD DUP1 PUSH1 0x40 MSTORE POP DUP2 ADD SWAP1 PUSH2 0x1657 SWAP2 SWAP1 PUSH2 0x4A44 JUMP JUMPDEST PUSH32 0x0 PUSH1 0x1 PUSH1 0x1 PUSH1 0xA0 SHL SUB DUP2 AND PUSH0 SWAP1 DUP2 MSTORE PUSH1 0x17 PUSH1 0x20 MSTORE PUSH1 0x40 SWAP1 KECCAK256 SWAP2 SWAP1 SWAP2 SSTORE PUSH2 0x169C SWAP1 PUSH2 0x3212 JUMP JUMPDEST PUSH1 0x1 PUSH1 0x1 PUSH1 0xA0 SHL SUB PUSH32 0x0 AND PUSH0 SWAP1 DUP2 MSTORE PUSH1 0x10 PUSH1 0x20 MSTORE PUSH1 0x40 SWAP1 KECCAK256 PUSH1 0x2 ADD SSTORE POP JUMP JUMPDEST PUSH1 0x14 PUSH1 0x20 MSTORE DUP2 PUSH0 MSTORE PUSH1 0x40 PUSH0 KECCAK256 DUP2 DUP2 SLOAD DUP2 LT PUSH2 0x16F3 JUMPI PUSH0 DUP1 REVERT JUMPDEST PUSH0 SWAP2 DUP3 MSTORE PUSH1 0x20 SWAP1 SWAP2 KECCAK256 ADD SLOAD PUSH1 0x1 PUSH1 0x1 PUSH1 0xA0 SHL SUB AND SWAP2 POP DUP3 SWAP1 POP JUMP JUMPDEST PUSH1 0x1 PUSH1 0x1 PUSH1 0xA0 SHL SUB DUP2 DUP2 AND PUSH0 DUP2 DUP2 MSTORE PUSH1 0x17 PUSH1 0x20 MSTORE PUSH1 0x40 DUP1 DUP3 KECCAK256 SLOAD SWAP1 MLOAD PUSH4 0x70A08231 PUSH1 0xE0 SHL DUP2 MSTORE PUSH1 0x4 DUP2 ADD SWAP4 SWAP1 SWAP4 MSTORE SWAP3 SWAP1 SWAP2 DUP3 SWAP2 DUP3 SWAP2 DUP3 SWAP2 DUP3 SWAP2 DUP3 SWAP2 PUSH32 0x0 AND SWAP1 PUSH4 0x70A08231 SWAP1 PUSH1 0x24 ADD PUSH1 0x20 PUSH1 0x40 MLOAD DUP1 DUP4 SUB DUP2 DUP7 GAS STATICCALL ISZERO DUP1 ISZERO PUSH2 0x1790 JUMPI RETURNDATASIZE PUSH0 DUP1 RETURNDATACOPY RETURNDATASIZE PUSH0 REVERT JUMPDEST POP POP POP POP PUSH1 0x40 MLOAD RETURNDATASIZE PUSH1 0x1F NOT PUSH1 0x1F DUP3 ADD AND DUP3 ADD DUP1 PUSH1 0x40 MSTORE POP DUP2 ADD SWAP1 PUSH2 0x17B4 SWAP2 SWAP1 PUSH2 0x4A44 JUMP JUMPDEST PUSH1 0x1 PUSH1 0x1 PUSH1 0xA0 SHL SUB SWAP9 DUP10 AND PUSH0 SWAP1 DUP2 MSTORE PUSH1 0x19 PUSH1 0x20 SWAP1 DUP2 MSTORE PUSH1 0x40 DUP1 DUP4 KECCAK256 SLOAD PUSH1 0x10 DUP4 MSTORE DUP2 DUP5 KECCAK256 DUP1 SLOAD PUSH1 0x16 SWAP1 SWAP5 MSTORE SWAP2 SWAP1 SWAP4 KECCAK256 SLOAD PUSH1 0x3 DUP3 ADD SLOAD PUSH1 0x2 SWAP1 SWAP3 ADD SLOAD SWAP12 SWAP14 SWAP5 SWAP13 PUSH1 0xFF SWAP1 SWAP5 AND SWAP12 SWAP3 SWAP11 POP SWAP9 POP SWAP1 SWAP2 AND SWAP6 POP SWAP4 POP SWAP2 POP POP JUMP JUMPDEST PUSH0 SLOAD PUSH1 0x1 PUSH1 0x1 PUSH1 0xA0 SHL SUB AND CALLER EQ PUSH2 0x1832 JUMPI PUSH1 0x40 MLOAD PUSH3 0x461BCD PUSH1 0xE5 SHL DUP2 MSTORE PUSH1 0x4 ADD PUSH2 0x1107 SWAP1 PUSH2 0x49F1 JUMP JUMPDEST PUSH1 0xA DUP3 LT ISZERO DUP1 ISZERO PUSH2 0x1845 JUMPI POP PUSH2 0x3E8 DUP3 GT ISZERO JUMPDEST PUSH2 0x1891 JUMPI PUSH1 0x40 MLOAD PUSH3 0x461BCD PUSH1 0xE5 SHL DUP2 MSTORE PUSH1 0x20 PUSH1 0x4 DUP3 ADD MSTORE PUSH1 0x19 PUSH1 0x24 DUP3 ADD MSTORE PUSH32 0x496E76616C69642064657374726F7946656520616D6F756E7400000000000000 PUSH1 0x44 DUP3 ADD MSTORE PUSH1 0x64 ADD PUSH2 0x1107 JUMP JUMPDEST PUSH1 0xA DUP2 LT ISZERO DUP1 ISZERO PUSH2 0x18A4 JUMPI POP PUSH2 0x3E8 DUP2 GT ISZERO JUMPDEST PUSH2 0x18FA JUMPI PUSH1 0x40 MLOAD PUSH3 0x461BCD PUSH1 0xE5 SHL DUP2 MSTORE PUSH1 0x20 PUSH1 0x4 DUP3 ADD MSTORE PUSH1 0x21 PUSH1 0x24 DUP3 ADD MSTORE PUSH32 0x496E76616C69642073656C6C52657365727665506F6F6C46656520616D6F756E PUSH1 0x44 DUP3 ADD MSTORE PUSH1 0x1D PUSH1 0xFA SHL PUSH1 0x64 DUP3 ADD MSTORE PUSH1 0x84 ADD PUSH2 0x1107 JUMP JUMPDEST PUSH1 0x1D SWAP2 SWAP1 SWAP2 SSTORE PUSH1 0x1E SSTORE JUMP JUMPDEST PUSH0 SLOAD PUSH1 0x1 PUSH1 0x1 PUSH1 0xA0 SHL SUB AND CALLER EQ PUSH2 0x192E JUMPI PUSH1 0x40 MLOAD PUSH3 0x461BCD PUSH1 0xE5 SHL DUP2 MSTORE PUSH1 0x4 ADD PUSH2 0x1107 SWAP1 PUSH2 0x49F1 JUMP JUMPDEST PUSH1 0x28 SLOAD ISZERO PUSH2 0x194E JUMPI PUSH1 0x40 MLOAD PUSH3 0x461BCD PUSH1 0xE5 SHL DUP2 MSTORE PUSH1 0x4 ADD PUSH2 0x1107 SWAP1 PUSH2 0x4A96 JUMP JUMPDEST NUMBER PUSH1 0x28 SSTORE TIMESTAMP PUSH1 0x2A SSTORE JUMP JUMPDEST PUSH0 DUP1 PUSH2 0x1978 DUP4 PUSH1 0x1 PUSH1 0x1 PUSH1 0xA0 SHL SUB AND PUSH0 SWAP1 DUP2 MSTORE PUSH1 0xB PUSH1 0x20 MSTORE PUSH1 0x40 DUP2 KECCAK256 SLOAD SWAP2 JUMP JUMPDEST POP SWAP4 SWAP3 POP POP POP JUMP JUMPDEST PUSH0 SLOAD PUSH1 0x1 PUSH1 0x1 PUSH1 0xA0 SHL SUB AND CALLER EQ PUSH2 0x19A9 JUMPI PUSH1 0x40 MLOAD PUSH3 0x461BCD PUSH1 0xE5 SHL DUP2 MSTORE PUSH1 0x4 ADD PUSH2 0x1107 SWAP1 PUSH2 0x49F1 JUMP JUMPDEST PUSH0 DUP1 SLOAD PUSH1 0x40 MLOAD PUSH1 0x1 PUSH1 0x1 PUSH1 0xA0 SHL SUB SWAP1 SWAP2 AND SWAP1 PUSH32 0x8BE0079C531659141344CD1FD0A4F28419497F9722A3DAAFE3B4186F6B6457E0 SWAP1 DUP4 SWAP1 LOG3 PUSH0 DUP1 SLOAD PUSH1 0x1 PUSH1 0x1 PUSH1 0xA0 SHL SUB NOT AND SWAP1 SSTORE JUMP JUMPDEST PUSH0 SLOAD PUSH1 0x1 PUSH1 0x1 PUSH1 0xA0 SHL SUB AND CALLER EQ PUSH2 0x1A1A JUMPI PUSH1 0x40 MLOAD PUSH3 0x461BCD PUSH1 0xE5 SHL DUP2 MSTORE PUSH1 0x4 ADD PUSH2 0x1107 SWAP1 PUSH2 0x49F1 JUMP JUMPDEST CALLER PUSH0 SWAP1 DUP2 MSTORE PUSH1 0xF PUSH1 0x20 MSTORE PUSH1 0x40 SWAP1 KECCAK256 SLOAD PUSH1 0xFF AND ISZERO PUSH2 0x1B2D JUMPI PUSH2 0x258 DUP4 LT ISZERO PUSH2 0x1A9F JUMPI PUSH1 0x40 MLOAD PUSH3 0x461BCD PUSH1 0xE5 SHL DUP2 MSTORE PUSH1 0x20 PUSH1 0x4 DUP3 ADD MSTORE PUSH1 0x33 PUSH1 0x24 DUP3 ADD MSTORE PUSH32 0x63616E6E6F7420736574206275796261636B206D6F7265206F6674656E207468 PUSH1 0x44 DUP3 ADD MSTORE PUSH19 0x616E206576657279203130206D696E75746573 PUSH1 0x68 SHL PUSH1 0x64 DUP3 ADD MSTORE PUSH1 0x84 ADD PUSH2 0x1107 JUMP JUMPDEST PUSH2 0x3E8 DUP3 GT ISZERO DUP1 ISZERO PUSH2 0x1AAF JUMPI POP PUSH1 0x1 JUMPDEST PUSH2 0x1B14 JUMPI PUSH1 0x40 MLOAD PUSH3 0x461BCD PUSH1 0xE5 SHL DUP2 MSTORE PUSH1 0x20 PUSH1 0x4 DUP3 ADD MSTORE PUSH1 0x30 PUSH1 0x24 DUP3 ADD MSTORE PUSH32 0x4D75737420736574206175746F204C50206275726E2070657263656E74206265 PUSH1 0x44 DUP3 ADD MSTORE PUSH16 0x747765656E20302520616E6420313025 PUSH1 0x80 SHL PUSH1 0x64 DUP3 ADD MSTORE PUSH1 0x84 ADD PUSH2 0x1107 JUMP JUMPDEST PUSH1 0x26 DUP4 SWAP1 SSTORE PUSH1 0x24 DUP3 SWAP1 SSTORE PUSH1 0x25 DUP1 SLOAD PUSH1 0xFF NOT AND DUP3 ISZERO ISZERO OR SWAP1 SSTORE JUMPDEST POP POP POP JUMP JUMPDEST PUSH0 DUP1 PUSH32 0x0 SWAP1 POP PUSH0 DUP1 DUP3 PUSH1 0x1 PUSH1 0x1 PUSH1 0xA0 SHL SUB AND PUSH4 0x902F1AC PUSH1 0x40 MLOAD DUP2 PUSH4 0xFFFFFFFF AND PUSH1 0xE0 SHL DUP2 MSTORE PUSH1 0x4 ADD PUSH1 0x60 PUSH1 0x40 MLOAD DUP1 DUP4 SUB DUP2 DUP7 GAS STATICCALL ISZERO DUP1 ISZERO PUSH2 0x1B95 JUMPI RETURNDATASIZE PUSH0 DUP1 RETURNDATACOPY RETURNDATASIZE PUSH0 REVERT JUMPDEST POP POP POP POP PUSH1 0x40 MLOAD RETURNDATASIZE PUSH1 0x1F NOT PUSH1 0x1F DUP3 ADD AND DUP3 ADD DUP1 PUSH1 0x40 MSTORE POP DUP2 ADD SWAP1 PUSH2 0x1BB9 SWAP2 SWAP1 PUSH2 0x4AC7 JUMP JUMPDEST POP PUSH1 0x1 PUSH1 0x1 PUSH1 0x70 SHL SUB SWAP2 DUP3 AND SWAP4 POP AND SWAP1 POP PUSH0 DUP1 ADDRESS PUSH32 0x0 PUSH1 0x1 PUSH1 0x1 PUSH1 0xA0 SHL SUB AND LT ISZERO PUSH2 0x1C07 JUMPI POP DUP3 SWAP1 POP DUP2 PUSH2 0x1C0D JUMP JUMPDEST POP DUP2 SWAP1 POP DUP3 JUMPDEST DUP1 PUSH0 SUB PUSH2 0x1C1F JUMPI PUSH0 SWAP6 POP POP POP POP POP POP SWAP1 JUMP JUMPDEST PUSH2 0x1C59 DUP2 DUP4 PUSH2 0x1C4F PUSH32 0x0 PUSH1 0xA PUSH2 0x4BEB JUMP JUMPDEST PUSH2 0x134A SWAP2 SWAP1 PUSH2 0x4BF9 JUMP JUMPDEST SWAP6 POP POP POP POP POP POP SWAP1 JUMP JUMPDEST PUSH0 SLOAD PUSH1 0x1 PUSH1 0x1 PUSH1 0xA0 SHL SUB AND CALLER EQ PUSH2 0x1C8C JUMPI PUSH1 0x40 MLOAD PUSH3 0x461BCD PUSH1 0xE5 SHL DUP2 MSTORE PUSH1 0x4 ADD PUSH2 0x1107 SWAP1 PUSH2 0x49F1 JUMP JUMPDEST PUSH1 0x1 PUSH1 0x1 PUSH1 0xA0 SHL SUB DUP2 AND PUSH2 0x1CE2 JUMPI PUSH1 0x40 MLOAD PUSH3 0x461BCD PUSH1 0xE5 SHL DUP2 MSTORE PUSH1 0x20 PUSH1 0x4 DUP3 ADD MSTORE PUSH1 0x1A PUSH1 0x24 DUP3 ADD MSTORE PUSH32 0x46756E64416464726573732063616E6E6F74206265207A65726F000000000000 PUSH1 0x44 DUP3 ADD MSTORE PUSH1 0x64 ADD PUSH2 0x1107 JUMP JUMPDEST PUSH1 0x1A DUP1 SLOAD PUSH1 0x1 PUSH1 0x1 PUSH1 0xA0 SHL SUB NOT AND PUSH1 0x1 PUSH1 0x1 PUSH1 0xA0 SHL SUB DUP4 AND SWAP1 DUP2 OR SWAP1 SWAP2 SSTORE PUSH0 SWAP1 DUP2 MSTORE PUSH1 0xF PUSH1 0x20 MSTORE PUSH1 0x40 SWAP1 KECCAK256 DUP1 SLOAD PUSH1 0xFF NOT AND PUSH1 0x1 OR SWAP1 SSTORE PUSH2 0x1D21 DUP2 PUSH2 0x3118 JUMP JUMPDEST POP JUMP JUMPDEST CALLER PUSH0 DUP2 DUP2 MSTORE PUSH1 0xF PUSH1 0x20 MSTORE PUSH1 0x40 SWAP1 KECCAK256 SLOAD PUSH1 0xFF AND DUP1 PUSH2 0x1D4E JUMPI POP PUSH1 0x1A SLOAD PUSH1 0x1 PUSH1 0x1 PUSH1 0xA0 SHL SUB DUP3 DUP2 AND SWAP2 AND EQ JUMPDEST DUP1 PUSH2 0x1D65 JUMPI POP PUSH0 SLOAD PUSH1 0x1 PUSH1 0x1 PUSH1 0xA0 SHL SUB DUP3 DUP2 AND SWAP2 AND EQ JUMPDEST PUSH2 0x1D81 JUMPI PUSH1 0x40 MLOAD PUSH3 0x461BCD PUSH1 0xE5 SHL DUP2 MSTORE PUSH1 0x4 ADD PUSH2 0x1107 SWAP1 PUSH2 0x4A0D JUMP JUMPDEST PUSH3 0x30D40 DUP3 LT ISZERO DUP1 ISZERO PUSH2 0x1D97 JUMPI POP PUSH3 0x4C4B40 DUP3 GT ISZERO JUMPDEST PUSH2 0x1DCD JUMPI PUSH1 0x40 MLOAD PUSH3 0x461BCD PUSH1 0xE5 SHL DUP2 MSTORE PUSH1 0x20 PUSH1 0x4 DUP3 ADD MSTORE PUSH1 0x7 PUSH1 0x24 DUP3 ADD MSTORE PUSH7 0x32302D35303077 PUSH1 0xC8 SHL PUSH1 0x44 DUP3 ADD MSTORE PUSH1 0x64 ADD PUSH2 0x1107 JUMP JUMPDEST POP PUSH1 0x2E SSTORE JUMP JUMPDEST PUSH1 0x60 PUSH1 0x34 DUP1 SLOAD PUSH2 0x1047 SWAP1 PUSH2 0x49BF JUMP JUMPDEST PUSH0 SLOAD PUSH1 0x1 PUSH1 0x1 PUSH1 0xA0 SHL SUB AND CALLER EQ PUSH2 0x1E0B JUMPI PUSH1 0x40 MLOAD PUSH3 0x461BCD PUSH1 0xE5 SHL DUP2 MSTORE PUSH1 0x4 ADD PUSH2 0x1107 SWAP1 PUSH2 0x49F1 JUMP JUMPDEST PUSH1 0x2D SSTORE JUMP JUMPDEST PUSH0 SLOAD PUSH1 0x1 PUSH1 0x1 PUSH1 0xA0 SHL SUB AND CALLER EQ PUSH2 0x1E39 JUMPI PUSH1 0x40 MLOAD PUSH3 0x461BCD PUSH1 0xE5 SHL DUP2 MSTORE PUSH1 0x4 ADD PUSH2 0x1107 SWAP1 PUSH2 0x49F1 JUMP JUMPDEST CALLER PUSH0 SWAP1 DUP2 MSTORE PUSH1 0xF PUSH1 0x20 MSTORE PUSH1 0x40 SWAP1 KECCAK256 SLOAD PUSH1 0xFF AND DUP1 ISZERO PUSH2 0x1E74 JUMPI POP PUSH1 0x1A SLOAD PUSH1 0x1 PUSH1 0x1 PUSH1 0xA0 SHL SUB AND CALLER EQ DUP1 PUSH2 0x1E74 JUMPI POP PUSH0 SLOAD PUSH1 0x1 PUSH1 0x1 PUSH1 0xA0 SHL SUB AND CALLER EQ JUMPDEST ISZERO PUSH2 0x1E94 JUMPI PUSH1 0x1 PUSH1 0x1 PUSH1 0xA0 SHL SUB DUP3 AND PUSH0 SWAP1 DUP2 MSTORE PUSH1 0x17 PUSH1 0x20 MSTORE PUSH1 0x40 SWAP1 KECCAK256 DUP2 SWAP1 SSTORE JUMPDEST POP POP JUMP JUMPDEST CALLER PUSH0 DUP2 DUP2 MSTORE PUSH1 0xF PUSH1 0x20 MSTORE PUSH1 0x40 SWAP1 KECCAK256 SLOAD PUSH1 0xFF AND DUP1 PUSH2 0x1EC2 JUMPI POP PUSH1 0x1A SLOAD PUSH1 0x1 PUSH1 0x1 PUSH1 0xA0 SHL SUB DUP3 DUP2 AND SWAP2 AND EQ JUMPDEST DUP1 PUSH2 0x1ED9 JUMPI POP PUSH0 SLOAD PUSH1 0x1 PUSH1 0x1 PUSH1 0xA0 SHL SUB DUP3 DUP2 AND SWAP2 AND EQ JUMPDEST PUSH2 0x1EF5 JUMPI PUSH1 0x40 MLOAD PUSH3 0x461BCD PUSH1 0xE5 SHL DUP2 MSTORE PUSH1 0x4 ADD PUSH2 0x1107 SWAP1 PUSH2 0x4A0D JUMP JUMPDEST POP PUSH1 0x1 PUSH1 0x1 PUSH1 0xA0 SHL SUB SWAP2 SWAP1 SWAP2 AND PUSH0 SWAP1 DUP2 MSTORE PUSH1 0x13 PUSH1 0x20 MSTORE PUSH1 0x40 SWAP1 KECCAK256 DUP1 SLOAD PUSH1 0xFF NOT AND SWAP2 ISZERO ISZERO SWAP2 SWAP1 SWAP2 OR SWAP1 SSTORE JUMP JUMPDEST PUSH0 PUSH2 0x1F2C CALLER DUP5 DUP5 PUSH2 0x27D3 JUMP JUMPDEST POP PUSH1 0x1 SWAP4 SWAP3 POP POP POP JUMP JUMPDEST CALLER PUSH0 DUP2 DUP2 MSTORE PUSH1 0xF PUSH1 0x20 MSTORE PUSH1 0x40 SWAP1 KECCAK256 SLOAD PUSH1 0xFF AND DUP1 PUSH2 0x1F60 JUMPI POP PUSH1 0x1A SLOAD PUSH1 0x1 PUSH1 0x1 PUSH1 0xA0 SHL SUB DUP3 DUP2 AND SWAP2 AND EQ JUMPDEST DUP1 PUSH2 0x1F77 JUMPI POP PUSH0 SLOAD PUSH1 0x1 PUSH1 0x1 PUSH1 0xA0 SHL SUB DUP3 DUP2 AND SWAP2 AND EQ JUMPDEST PUSH2 0x1F93 JUMPI PUSH1 0x40 MLOAD PUSH3 0x461BCD PUSH1 0xE5 SHL DUP2 MSTORE PUSH1 0x4 ADD PUSH2 0x1107 SWAP1 PUSH2 0x4A0D JUMP JUMPDEST PUSH1 0x1 DUP3 LT ISZERO PUSH2 0x1FD4 JUMPI PUSH1 0x40 MLOAD PUSH3 0x461BCD PUSH1 0xE5 SHL DUP2 MSTORE PUSH1 0x20 PUSH1 0x4 DUP3 ADD MSTORE PUSH1 0xD PUSH1 0x24 DUP3 ADD MSTORE PUSH13 0x47726561746572207468652031 PUSH1 0x98 SHL PUSH1 0x44 DUP3 ADD MSTORE PUSH1 0x64 ADD PUSH2 0x1107 JUMP JUMPDEST POP PUSH1 0x20 SSTORE JUMP JUMPDEST PUSH0 SLOAD PUSH1 0x1 PUSH1 0x1 PUSH1 0xA0 SHL SUB AND CALLER EQ PUSH2 0x2003 JUMPI PUSH1 0x40 MLOAD PUSH3 0x461BCD PUSH1 0xE5 SHL DUP2 MSTORE PUSH1 0x4 ADD PUSH2 0x1107 SWAP1 PUSH2 0x49F1 JUMP JUMPDEST PUSH0 JUMPDEST DUP3 MLOAD DUP2 LT ISZERO PUSH2 0x1B2D JUMPI DUP2 PUSH1 0xF PUSH0 DUP6 DUP5 DUP2 MLOAD DUP2 LT PUSH2 0x2024 JUMPI PUSH2 0x2024 PUSH2 0x4A82 JUMP JUMPDEST PUSH1 0x20 SWAP1 DUP2 MUL SWAP2 SWAP1 SWAP2 ADD DUP2 ADD MLOAD PUSH1 0x1 PUSH1 0x1 PUSH1 0xA0 SHL SUB AND DUP3 MSTORE DUP2 ADD SWAP2 SWAP1 SWAP2 MSTORE PUSH1 0x40 ADD PUSH0 KECCAK256 DUP1 SLOAD PUSH1 0xFF NOT AND SWAP2 ISZERO ISZERO SWAP2 SWAP1 SWAP2 OR SWAP1 SSTORE PUSH1 0x1 ADD PUSH2 0x2005 JUMP JUMPDEST PUSH0 PUSH2 0x206B TIMESTAMP PUSH3 0x15180 PUSH2 0x27C8 JUMP JUMPDEST SWAP1 POP SWAP1 JUMP JUMPDEST PUSH2 0x2078 PUSH2 0x4697 JUMP JUMPDEST PUSH2 0x2080 PUSH2 0x4697 JUMP JUMPDEST DUP4 PUSH0 JUMPDEST PUSH1 0xA DUP2 LT ISZERO PUSH2 0x2117 JUMPI PUSH1 0x1 PUSH1 0x1 PUSH1 0xA0 SHL SUB DUP1 DUP4 AND PUSH0 SWAP1 DUP2 MSTORE PUSH1 0x10 PUSH1 0x20 SWAP1 DUP2 MSTORE PUSH1 0x40 DUP1 DUP4 KECCAK256 PUSH1 0x3 ADD SLOAD SWAP1 SWAP4 AND DUP1 DUP4 MSTORE PUSH1 0xD SWAP1 SWAP2 MSTORE SWAP2 SWAP1 KECCAK256 SLOAD PUSH2 0x20C5 DUP4 PUSH1 0x1 PUSH2 0x4C10 JUMP JUMPDEST DUP2 LT PUSH2 0x210C JUMPI PUSH0 PUSH2 0x20F0 PUSH1 0x64 PUSH2 0x134A PUSH1 0x1 DUP8 PUSH1 0xA DUP2 LT PUSH2 0x20E7 JUMPI PUSH2 0x20E7 PUSH2 0x4A82 JUMP JUMPDEST ADD SLOAD DUP12 SWAP1 PUSH2 0x27BD JUMP JUMPDEST SWAP1 POP DUP1 DUP7 DUP6 PUSH1 0xA DUP2 LT PUSH2 0x2105 JUMPI PUSH2 0x2105 PUSH2 0x4A82 JUMP JUMPDEST PUSH1 0x20 MUL ADD MSTORE POP JUMPDEST POP SWAP2 POP PUSH1 0x1 ADD PUSH2 0x2083 JUMP JUMPDEST POP SWAP1 SWAP5 SWAP4 POP POP POP POP JUMP JUMPDEST PUSH0 SLOAD PUSH1 0x1 PUSH1 0x1 PUSH1 0xA0 SHL SUB AND CALLER EQ PUSH2 0x214A JUMPI PUSH1 0x40 MLOAD PUSH3 0x461BCD PUSH1 0xE5 SHL DUP2 MSTORE PUSH1 0x4 ADD PUSH2 0x1107 SWAP1 PUSH2 0x49F1 JUMP JUMPDEST PUSH1 0xA DUP2 LT ISZERO DUP1 ISZERO PUSH2 0x215D JUMPI POP PUSH2 0x3E8 DUP2 GT ISZERO JUMPDEST PUSH2 0x219E JUMPI PUSH1 0x40 MLOAD PUSH3 0x461BCD PUSH1 0xE5 SHL DUP2 MSTORE PUSH1 0x20 PUSH1 0x4 DUP3 ADD MSTORE PUSH1 0x12 PUSH1 0x24 DUP3 ADD MSTORE PUSH18 0x125B9D985B1A590811995948185B5BDD5B9D PUSH1 0x72 SHL PUSH1 0x44 DUP3 ADD MSTORE PUSH1 0x64 ADD PUSH2 0x1107 JUMP JUMPDEST PUSH1 0x1F SSTORE JUMP JUMPDEST PUSH0 SLOAD PUSH1 0x1 PUSH1 0x1 PUSH1 0xA0 SHL SUB AND CALLER EQ PUSH2 0x21CC JUMPI PUSH1 0x40 MLOAD PUSH3 0x461BCD PUSH1 0xE5 SHL DUP2 MSTORE PUSH1 0x4 ADD PUSH2 0x1107 SWAP1 PUSH2 0x49F1 JUMP JUMPDEST PUSH1 0x1 PUSH1 0x1 PUSH1 0xA0 SHL SUB SWAP2 SWAP1 SWAP2 AND PUSH0 SWAP1 DUP2 MSTORE PUSH1 0xF PUSH1 0x20 MSTORE PUSH1 0x40 SWAP1 KECCAK256 DUP1 SLOAD PUSH1 0xFF NOT AND SWAP2 ISZERO ISZERO SWAP2 SWAP1 SWAP2 OR SWAP1 SSTORE JUMP JUMPDEST PUSH0 SLOAD PUSH1 0x1 PUSH1 0x1 PUSH1 0xA0 SHL SUB AND CALLER EQ PUSH2 0x221F JUMPI PUSH1 0x40 MLOAD PUSH3 0x461BCD PUSH1 0xE5 SHL DUP2 MSTORE PUSH1 0x4 ADD PUSH2 0x1107 SWAP1 PUSH2 0x49F1 JUMP JUMPDEST CALLER PUSH0 SWAP1 DUP2 MSTORE PUSH1 0xF PUSH1 0x20 MSTORE PUSH1 0x40 SWAP1 KECCAK256 SLOAD PUSH1 0xFF AND DUP1 ISZERO PUSH2 0x225A JUMPI POP PUSH1 0x1A SLOAD PUSH1 0x1 PUSH1 0x1 PUSH1 0xA0 SHL SUB AND CALLER EQ DUP1 PUSH2 0x225A JUMPI POP PUSH0 SLOAD PUSH1 0x1 PUSH1 0x1 PUSH1 0xA0 SHL SUB AND CALLER EQ JUMPDEST ISZERO PUSH2 0x1E94 JUMPI PUSH1 0x1 PUSH1 0x1 PUSH1 0xA0 SHL SUB DUP3 AND PUSH0 SWAP1 DUP2 MSTORE PUSH1 0x11 PUSH1 0x20 MSTORE PUSH1 0x40 SWAP1 KECCAK256 DUP1 SLOAD DUP3 ISZERO ISZERO PUSH1 0xFF NOT SWAP1 SWAP2 AND OR SWAP1 SSTORE POP POP JUMP JUMPDEST PUSH0 DUP2 PUSH1 0x1 PUSH1 0x1 PUSH1 0xA0 SHL SUB PUSH32 0x0 DUP2 AND SWAP1 DUP3 AND SUB PUSH2 0x22C6 JUMPI POP PUSH1 0x1 SWAP3 SWAP2 POP POP JUMP JUMPDEST PUSH1 0x1 PUSH1 0x1 PUSH1 0xA0 SHL SUB DUP1 DUP3 AND PUSH0 SWAP1 DUP2 MSTORE PUSH1 0x10 PUSH1 0x20 MSTORE PUSH1 0x40 SWAP1 KECCAK256 PUSH1 0x3 ADD SLOAD AND DUP1 ISZERO PUSH2 0x22F3 JUMPI POP PUSH1 0x1 SWAP4 SWAP3 POP POP POP JUMP JUMPDEST POP PUSH0 SWAP4 SWAP3 POP POP POP JUMP JUMPDEST PUSH1 0x32 DUP2 DUP2 SLOAD DUP2 LT PUSH2 0x230B JUMPI PUSH0 DUP1 REVERT JUMPDEST PUSH0 SWAP2 DUP3 MSTORE PUSH1 0x20 SWAP1 SWAP2 KECCAK256 ADD SLOAD PUSH1 0x1 PUSH1 0x1 PUSH1 0xA0 SHL SUB AND SWAP1 POP DUP2 JUMP JUMPDEST PUSH0 SLOAD PUSH1 0x1 PUSH1 0x1 PUSH1 0xA0 SHL SUB AND CALLER EQ PUSH2 0x234D JUMPI PUSH1 0x40 MLOAD PUSH3 0x461BCD PUSH1 0xE5 SHL DUP2 MSTORE PUSH1 0x4 ADD PUSH2 0x1107 SWAP1 PUSH2 0x49F1 JUMP JUMPDEST PUSH1 0x2F SSTORE JUMP JUMPDEST CALLER PUSH0 DUP2 DUP2 MSTORE PUSH1 0xF PUSH1 0x20 MSTORE PUSH1 0x40 SWAP1 KECCAK256 SLOAD PUSH1 0xFF AND DUP1 PUSH2 0x237C JUMPI POP PUSH1 0x1A SLOAD PUSH1 0x1 PUSH1 0x1 PUSH1 0xA0 SHL SUB DUP3 DUP2 AND SWAP2 AND EQ JUMPDEST DUP1 PUSH2 0x2393 JUMPI POP PUSH0 SLOAD PUSH1 0x1 PUSH1 0x1 PUSH1 0xA0 SHL SUB DUP3 DUP2 AND SWAP2 AND EQ JUMPDEST PUSH2 0x23AF JUMPI PUSH1 0x40 MLOAD PUSH3 0x461BCD PUSH1 0xE5 SHL DUP2 MSTORE PUSH1 0x4 ADD PUSH2 0x1107 SWAP1 PUSH2 0x4A0D JUMP JUMPDEST PUSH1 0x1A SLOAD PUSH1 0x40 MLOAD PUSH0 SWAP2 PUSH1 0x1 PUSH1 0x1 PUSH1 0xA0 SHL SUB AND SWAP1 DUP5 SWAP1 DUP4 DUP2 DUP2 DUP2 DUP6 DUP8 GAS CALL SWAP3 POP POP POP RETURNDATASIZE DUP1 PUSH0 DUP2 EQ PUSH2 0x23F9 JUMPI PUSH1 0x40 MLOAD SWAP2 POP PUSH1 0x1F NOT PUSH1 0x3F RETURNDATASIZE ADD AND DUP3 ADD PUSH1 0x40 MSTORE RETURNDATASIZE DUP3 MSTORE RETURNDATASIZE PUSH0 PUSH1 0x20 DUP5 ADD RETURNDATACOPY PUSH2 0x23FE JUMP JUMPDEST PUSH1 0x60 SWAP2 POP JUMPDEST POP POP SWAP1 POP DUP1 PUSH2 0x1B2D JUMPI PUSH1 0x40 MLOAD PUSH3 0x461BCD PUSH1 0xE5 SHL DUP2 MSTORE PUSH1 0x20 PUSH1 0x4 DUP3 ADD MSTORE PUSH1 0xF PUSH1 0x24 DUP3 ADD MSTORE PUSH15 0x151C985B9CD9995C8819985A5B1959 PUSH1 0x8A SHL PUSH1 0x44 DUP3 ADD MSTORE PUSH1 0x64 ADD PUSH2 0x1107 JUMP JUMPDEST PUSH2 0x2452 PUSH3 0x1E8480 PUSH4 0x1406F40 PUSH2 0x4A6F JUMP JUMPDEST DUP2 JUMP JUMPDEST PUSH0 SLOAD PUSH1 0x1 PUSH1 0x1 PUSH1 0xA0 SHL SUB AND CALLER EQ PUSH2 0x247E JUMPI PUSH1 0x40 MLOAD PUSH3 0x461BCD PUSH1 0xE5 SHL DUP2 MSTORE PUSH1 0x4 ADD PUSH2 0x1107 SWAP1 PUSH2 0x49F1 JUMP JUMPDEST PUSH1 0x5 DUP2 GT ISZERO PUSH2 0x24CF JUMPI PUSH1 0x40 MLOAD PUSH3 0x461BCD PUSH1 0xE5 SHL DUP2 MSTORE PUSH1 0x20 PUSH1 0x4 DUP3 ADD MSTORE PUSH1 0x1F PUSH1 0x24 DUP3 ADD MSTORE PUSH32 0x56616C75652073686F756C64206265206265747765656E203020616E64203500 PUSH1 0x44 DUP3 ADD MSTORE PUSH1 0x64 ADD PUSH2 0x1107 JUMP JUMPDEST PUSH1 0x23 SSTORE JUMP JUMPDEST PUSH0 SLOAD PUSH1 0x1 PUSH1 0x1 PUSH1 0xA0 SHL SUB AND CALLER EQ PUSH2 0x24FD JUMPI PUSH1 0x40 MLOAD PUSH3 0x461BCD PUSH1 0xE5 SHL DUP2 MSTORE PUSH1 0x4 ADD PUSH2 0x1107 SWAP1 PUSH2 0x49F1 JUMP JUMPDEST PUSH1 0x1 PUSH1 0x1 PUSH1 0xA0 SHL SUB DUP2 AND PUSH2 0x2538 JUMPI PUSH1 0x40 MLOAD PUSH3 0x461BCD PUSH1 0xE5 SHL DUP2 MSTORE PUSH1 0x20 PUSH1 0x4 DUP3 ADD MSTORE PUSH1 0x2 PUSH1 0x24 DUP3 ADD MSTORE PUSH2 0x6E3 PUSH1 0xF4 SHL PUSH1 0x44 DUP3 ADD MSTORE PUSH1 0x64 ADD PUSH2 0x1107 JUMP JUMPDEST PUSH0 DUP1 SLOAD PUSH1 0x40 MLOAD PUSH1 0x1 PUSH1 0x1 PUSH1 0xA0 SHL SUB DUP1 DUP6 AND SWAP4 SWAP3 AND SWAP2 PUSH32 0x8BE0079C531659141344CD1FD0A4F28419497F9722A3DAAFE3B4186F6B6457E0 SWAP2 LOG3 PUSH0 DUP1 SLOAD PUSH1 0x1 PUSH1 0x1 PUSH1 0xA0 SHL SUB NOT AND PUSH1 0x1 PUSH1 0x1 PUSH1 0xA0 SHL SUB SWAP3 SWAP1 SWAP3 AND SWAP2 SWAP1 SWAP2 OR SWAP1 SSTORE JUMP JUMPDEST PUSH0 SLOAD PUSH1 0x1 PUSH1 0x1 PUSH1 0xA0 SHL SUB AND CALLER EQ PUSH2 0x25BA JUMPI PUSH1 0x40 MLOAD PUSH3 0x461BCD PUSH1 0xE5 SHL DUP2 MSTORE PUSH1 0x4 ADD PUSH2 0x1107 SWAP1 PUSH2 0x49F1 JUMP JUMPDEST PUSH1 0xA DUP3 LT ISZERO DUP1 ISZERO PUSH2 0x25CD JUMPI POP PUSH2 0x3E8 DUP3 GT ISZERO JUMPDEST PUSH2 0x2619 JUMPI PUSH1 0x40 MLOAD PUSH3 0x461BCD PUSH1 0xE5 SHL DUP2 MSTORE PUSH1 0x20 PUSH1 0x4 DUP3 ADD MSTORE PUSH1 0x18 PUSH1 0x24 DUP3 ADD MSTORE PUSH32 0x496E76616C69642062757944657646656520616D6F756E740000000000000000 PUSH1 0x44 DUP3 ADD MSTORE PUSH1 0x64 ADD PUSH2 0x1107 JUMP JUMPDEST PUSH1 0xA DUP2 LT ISZERO DUP1 ISZERO PUSH2 0x262C JUMPI POP PUSH2 0x3E8 DUP2 GT ISZERO JUMPDEST PUSH2 0x2671 JUMPI PUSH1 0x40 MLOAD PUSH3 0x461BCD PUSH1 0xE5 SHL DUP2 MSTORE PUSH1 0x20 PUSH1 0x4 DUP3 ADD MSTORE PUSH1 0x16 PUSH1 0x24 DUP3 ADD MSTORE PUSH22 0x125B9D985B1A5908199D5B9911995948185B5BDD5B9D PUSH1 0x52 SHL PUSH1 0x44 DUP3 ADD MSTORE PUSH1 0x64 ADD PUSH2 0x1107 JUMP JUMPDEST PUSH1 0x1B SWAP2 SWAP1 SWAP2 SSTORE PUSH1 0x1C SSTORE JUMP JUMPDEST PUSH1 0x1 PUSH1 0x1 PUSH1 0xA0 SHL SUB DUP4 DUP2 AND PUSH0 DUP2 DUP2 MSTORE PUSH1 0xC PUSH1 0x20 SWAP1 DUP2 MSTORE PUSH1 0x40 DUP1 DUP4 KECCAK256 SWAP5 DUP8 AND DUP1 DUP5 MSTORE SWAP5 DUP3 MSTORE SWAP2 DUP3 SWAP1 KECCAK256 DUP6 SWAP1 SSTORE SWAP1 MLOAD DUP5 DUP2 MSTORE PUSH32 0x8C5BE1E5EBEC7D5BD14F71427D1E84F3DD0314C0F7B2291E5B200AC8C7C3B925 SWAP2 ADD JUMPDEST PUSH1 0x40 MLOAD DUP1 SWAP2 SUB SWAP1 LOG3 POP POP POP JUMP JUMPDEST PUSH0 DUP1 PUSH0 DUP1 PUSH32 0x0 PUSH1 0x1 PUSH1 0x1 PUSH1 0xA0 SHL SUB AND PUSH4 0x902F1AC PUSH1 0x40 MLOAD DUP2 PUSH4 0xFFFFFFFF AND PUSH1 0xE0 SHL DUP2 MSTORE PUSH1 0x4 ADD PUSH1 0x60 PUSH1 0x40 MLOAD DUP1 DUP4 SUB DUP2 DUP7 GAS STATICCALL ISZERO DUP1 ISZERO PUSH2 0x273D JUMPI RETURNDATASIZE PUSH0 DUP1 RETURNDATACOPY RETURNDATASIZE PUSH0 REVERT JUMPDEST POP POP POP POP PUSH1 0x40 MLOAD RETURNDATASIZE PUSH1 0x1F NOT PUSH1 0x1F DUP3 ADD AND DUP3 ADD DUP1 PUSH1 0x40 MSTORE POP DUP2 ADD SWAP1 PUSH2 0x2761 SWAP2 SWAP1 PUSH2 0x4AC7 JUMP JUMPDEST POP PUSH1 0x1 PUSH1 0x1 PUSH1 0x70 SHL SUB SWAP2 DUP3 AND SWAP4 POP AND SWAP1 POP PUSH32 0x0 ADDRESS PUSH1 0x1 PUSH1 0x1 PUSH1 0xA0 SHL SUB DUP3 AND LT ISZERO PUSH2 0x27AF JUMPI DUP3 SWAP4 POP DUP2 SWAP5 POP PUSH2 0x27B6 JUMP JUMPDEST DUP2 SWAP4 POP DUP3 SWAP5 POP JUMPDEST POP POP POP SWAP1 SWAP2 JUMP JUMPDEST PUSH0 PUSH2 0x140A DUP3 DUP5 PUSH2 0x4BF9 JUMP JUMPDEST PUSH0 PUSH2 0x140A DUP3 DUP5 PUSH2 0x4C37 JUMP JUMPDEST PUSH1 0x1 PUSH1 0x1 PUSH1 0xA0 SHL SUB DUP4 AND PUSH0 SWAP1 DUP2 MSTORE PUSH1 0xF PUSH1 0x20 MSTORE PUSH1 0x40 DUP2 KECCAK256 SLOAD PUSH1 0xFF AND ISZERO DUP1 ISZERO PUSH2 0x2813 JUMPI POP PUSH1 0x1 PUSH1 0x1 PUSH1 0xA0 SHL SUB DUP4 AND PUSH0 SWAP1 DUP2 MSTORE PUSH1 0xF PUSH1 0x20 MSTORE PUSH1 0x40 SWAP1 KECCAK256 SLOAD PUSH1 0xFF AND ISZERO JUMPDEST DUP1 ISZERO PUSH2 0x2828 JUMPI POP PUSH1 0x1 PUSH1 0x1 PUSH1 0xA0 SHL SUB DUP5 AND ADDRESS EQ ISZERO JUMPDEST DUP1 ISZERO PUSH2 0x284C JUMPI POP PUSH1 0x1 PUSH1 0x1 PUSH1 0xA0 SHL SUB DUP5 AND PUSH0 SWAP1 DUP2 MSTORE PUSH1 0x13 PUSH1 0x20 MSTORE PUSH1 0x40 SWAP1 KECCAK256 SLOAD PUSH1 0xFF AND ISZERO JUMPDEST DUP1 ISZERO PUSH2 0x2870 JUMPI POP PUSH1 0x1 PUSH1 0x1 PUSH1 0xA0 SHL SUB DUP4 AND PUSH0 SWAP1 DUP2 MSTORE PUSH1 0x13 PUSH1 0x20 MSTORE PUSH1 0x40 SWAP1 KECCAK256 SLOAD PUSH1 0xFF AND ISZERO JUMPDEST ISZERO PUSH2 0x28D6 JUMPI PUSH5 0x2540BE400 DUP3 GT ISZERO PUSH2 0x28D6 JUMPI PUSH1 0x40 MLOAD PUSH3 0x461BCD PUSH1 0xE5 SHL DUP2 MSTORE PUSH1 0x20 PUSH1 0x4 DUP3 ADD MSTORE PUSH1 0x24 DUP1 DUP3 ADD MSTORE PUSH32 0x5472616E73666572206C696D6974206F66203130303030204E55542065786365 PUSH1 0x44 DUP3 ADD MSTORE PUSH4 0x19591959 PUSH1 0xE2 SHL PUSH1 0x64 DUP3 ADD MSTORE PUSH1 0x84 ADD PUSH2 0x1107 JUMP JUMPDEST PUSH1 0x30 SLOAD PUSH32 0x0 SWAP1 PUSH1 0x1 PUSH1 0x1 PUSH1 0xA0 SHL SUB AND DUP1 ISZERO PUSH2 0x2A36 JUMPI PUSH1 0x40 MLOAD PUSH4 0x70A08231 PUSH1 0xE0 SHL DUP2 MSTORE PUSH1 0x1 PUSH1 0x1 PUSH1 0xA0 SHL SUB DUP3 DUP2 AND PUSH1 0x4 DUP4 ADD MSTORE PUSH0 SWAP2 SWAP1 DUP5 AND SWAP1 PUSH4 0x70A08231 SWAP1 PUSH1 0x24 ADD PUSH1 0x20 PUSH1 0x40 MLOAD DUP1 DUP4 SUB DUP2 DUP7 GAS STATICCALL ISZERO DUP1 ISZERO PUSH2 0x2951 JUMPI RETURNDATASIZE PUSH0 DUP1 RETURNDATACOPY RETURNDATASIZE PUSH0 REVERT JUMPDEST POP POP POP POP PUSH1 0x40 MLOAD RETURNDATASIZE PUSH1 0x1F NOT PUSH1 0x1F DUP3 ADD AND DUP3 ADD DUP1 PUSH1 0x40 MSTORE POP DUP2 ADD SWAP1 PUSH2 0x2975 SWAP2 SWAP1 PUSH2 0x4A44 JUMP JUMPDEST SWAP1 POP DUP1 ISZERO PUSH2 0x29E7 JUMPI PUSH1 0x1 PUSH1 0x1 PUSH1 0xA0 SHL SUB DUP3 AND PUSH0 SWAP1 DUP2 MSTORE PUSH1 0x17 PUSH1 0x20 MSTORE PUSH1 0x40 SWAP1 KECCAK256 SLOAD DUP1 DUP3 GT ISZERO PUSH2 0x29C7 JUMPI PUSH2 0x29A6 DUP4 PUSH2 0x3118 JUMP JUMPDEST PUSH2 0x29AE PUSH2 0x31E4 JUMP JUMPDEST PUSH1 0x1 PUSH1 0x1 PUSH1 0xA0 SHL SUB DUP5 AND PUSH0 SWAP1 DUP2 MSTORE PUSH1 0x16 PUSH1 0x20 MSTORE PUSH1 0x40 SWAP1 KECCAK256 SSTORE JUMPDEST POP PUSH1 0x1 PUSH1 0x1 PUSH1 0xA0 SHL SUB DUP3 AND PUSH0 SWAP1 DUP2 MSTORE PUSH1 0x17 PUSH1 0x20 MSTORE PUSH1 0x40 SWAP1 KECCAK256 DUP2 SWAP1 SSTORE PUSH2 0x2A00 JUMP JUMPDEST PUSH1 0x1 PUSH1 0x1 PUSH1 0xA0 SHL SUB DUP3 AND PUSH0 SWAP1 DUP2 MSTORE PUSH1 0x16 PUSH1 0x20 MSTORE PUSH1 0x40 DUP2 KECCAK256 SSTORE JUMPDEST PUSH2 0x2A09 DUP3 PUSH2 0x3212 JUMP JUMPDEST PUSH1 0x1 PUSH1 0x1 PUSH1 0xA0 SHL SUB DUP4 AND PUSH0 SWAP1 DUP2 MSTORE PUSH1 0x10 PUSH1 0x20 MSTORE PUSH1 0x40 SWAP1 KECCAK256 PUSH1 0x2 ADD SSTORE POP PUSH1 0x30 DUP1 SLOAD PUSH1 0x1 PUSH1 0x1 PUSH1 0xA0 SHL SUB NOT AND SWAP1 SSTORE JUMPDEST PUSH1 0x1 PUSH1 0x1 PUSH1 0xA0 SHL SUB DUP7 AND PUSH0 SWAP1 DUP2 MSTORE PUSH1 0xF PUSH1 0x20 MSTORE PUSH1 0x40 SWAP1 KECCAK256 SLOAD PUSH1 0xFF AND ISZERO DUP1 ISZERO PUSH2 0x2A76 JUMPI POP PUSH1 0x1 PUSH1 0x1 PUSH1 0xA0 SHL SUB DUP6 AND PUSH0 SWAP1 DUP2 MSTORE PUSH1 0xF PUSH1 0x20 MSTORE PUSH1 0x40 SWAP1 KECCAK256 SLOAD PUSH1 0xFF AND ISZERO JUMPDEST ISZERO PUSH2 0x2AF3 JUMPI PUSH0 DUP1 PUSH2 0x2AA8 PUSH1 0x4 PUSH32 0x0 PUSH2 0x4C4A JUMP JUMPDEST PUSH2 0x2AB3 SWAP1 PUSH1 0xA PUSH2 0x4BEB JUMP JUMPDEST PUSH1 0x1 PUSH1 0x1 PUSH1 0xA0 SHL SUB DUP10 AND PUSH0 SWAP1 DUP2 MSTORE PUSH1 0xB PUSH1 0x20 MSTORE PUSH1 0x40 SWAP1 KECCAK256 SLOAD SWAP1 SWAP2 POP DUP2 DUP2 GT ISZERO PUSH2 0x2AE3 JUMPI PUSH2 0x2AE0 DUP3 DUP3 PUSH2 0x4A6F JUMP JUMPDEST SWAP3 POP JUMPDEST DUP3 DUP8 GT ISZERO PUSH2 0x2AEF JUMPI DUP3 SWAP7 POP JUMPDEST POP POP POP JUMPDEST PUSH1 0x1 PUSH1 0x1 PUSH1 0xA0 SHL SUB DUP7 AND PUSH0 SWAP1 DUP2 MSTORE PUSH1 0x13 PUSH1 0x20 MSTORE PUSH1 0x40 DUP2 KECCAK256 SLOAD DUP2 SWAP1 PUSH1 0xFF AND DUP1 PUSH2 0x2B32 JUMPI POP PUSH1 0x1 PUSH1 0x1 PUSH1 0xA0 SHL SUB DUP8 AND PUSH0 SWAP1 DUP2 MSTORE PUSH1 0x13 PUSH1 0x20 MSTORE PUSH1 0x40 SWAP1 KECCAK256 SLOAD PUSH1 0xFF AND JUMPDEST ISZERO PUSH2 0x2DF3 JUMPI PUSH1 0x29 SLOAD PUSH0 SUB PUSH2 0x2C0B JUMPI PUSH1 0x1 PUSH1 0x1 PUSH1 0xA0 SHL SUB DUP9 AND PUSH0 SWAP1 DUP2 MSTORE PUSH1 0xF PUSH1 0x20 MSTORE PUSH1 0x40 SWAP1 KECCAK256 SLOAD PUSH1 0xFF AND DUP1 ISZERO PUSH2 0x2B98 JUMPI POP PUSH32 0x0 PUSH1 0x1 PUSH1 0x1 PUSH1 0xA0 SHL SUB AND DUP8 PUSH1 0x1 PUSH1 0x1 PUSH1 0xA0 SHL SUB AND EQ JUMPDEST DUP1 ISZERO PUSH2 0x2C01 JUMPI POP DUP7 PUSH1 0x1 PUSH1 0x1 PUSH1 0xA0 SHL SUB AND PUSH4 0x18160DDD PUSH1 0x40 MLOAD DUP2 PUSH4 0xFFFFFFFF AND PUSH1 0xE0 SHL DUP2 MSTORE PUSH1 0x4 ADD PUSH1 0x20 PUSH1 0x40 MLOAD DUP1 DUP4 SUB DUP2 DUP7 GAS STATICCALL ISZERO DUP1 ISZERO PUSH2 0x2BDB JUMPI RETURNDATASIZE PUSH0 DUP1 RETURNDATACOPY RETURNDATASIZE PUSH0 REVERT JUMPDEST POP POP POP POP PUSH1 0x40 MLOAD RETURNDATASIZE PUSH1 0x1F NOT PUSH1 0x1F DUP3 ADD AND DUP3 ADD DUP1 PUSH1 0x40 MSTORE POP DUP2 ADD SWAP1 PUSH2 0x2BFF SWAP2 SWAP1 PUSH2 0x4A44 JUMP JUMPDEST ISZERO JUMPDEST ISZERO PUSH2 0x2C0B JUMPI NUMBER PUSH1 0x29 SSTORE JUMPDEST PUSH1 0x35 SLOAD PUSH1 0xFF AND ISZERO DUP1 ISZERO PUSH2 0x2C56 JUMPI POP PUSH1 0x1 PUSH1 0x1 PUSH1 0xA0 SHL SUB DUP8 AND PUSH0 SWAP1 DUP2 MSTORE PUSH1 0x13 PUSH1 0x20 MSTORE PUSH1 0x40 SWAP1 KECCAK256 SLOAD PUSH1 0xFF AND DUP1 PUSH2 0x2C56 JUMPI POP PUSH1 0x1 PUSH1 0x1 PUSH1 0xA0 SHL SUB DUP9 AND PUSH0 SWAP1 DUP2 MSTORE PUSH1 0x13 PUSH1 0x20 MSTORE PUSH1 0x40 SWAP1 KECCAK256 SLOAD PUSH1 0xFF AND JUMPDEST DUP1 ISZERO PUSH2 0x2C64 JUMPI POP PUSH1 0x25 SLOAD PUSH1 0xFF AND JUMPDEST DUP1 ISZERO PUSH2 0x2C7F JUMPI POP PUSH1 0x26 SLOAD PUSH1 0x27 SLOAD PUSH2 0x2C7B SWAP2 SWAP1 PUSH2 0x4C10 JUMP JUMPDEST TIMESTAMP LT ISZERO JUMPDEST DUP1 ISZERO PUSH2 0x2CA3 JUMPI POP PUSH1 0x1 PUSH1 0x1 PUSH1 0xA0 SHL SUB DUP9 AND PUSH0 SWAP1 DUP2 MSTORE PUSH1 0xF PUSH1 0x20 MSTORE PUSH1 0x40 SWAP1 KECCAK256 SLOAD PUSH1 0xFF AND ISZERO JUMPDEST ISZERO PUSH2 0x2CD3 JUMPI PUSH1 0x1 PUSH1 0x1 PUSH1 0xA0 SHL SUB DUP8 AND PUSH0 SWAP1 DUP2 MSTORE PUSH1 0x13 PUSH1 0x20 MSTORE PUSH1 0x40 SWAP1 KECCAK256 SLOAD PUSH1 0xFF AND ISZERO PUSH2 0x2CD3 JUMPI PUSH2 0x2CD1 DUP8 PUSH2 0x327D JUMP JUMPDEST POP JUMPDEST PUSH1 0x1 PUSH1 0x1 PUSH1 0xA0 SHL SUB DUP9 AND PUSH0 SWAP1 DUP2 MSTORE PUSH1 0xF PUSH1 0x20 MSTORE PUSH1 0x40 SWAP1 KECCAK256 SLOAD PUSH1 0xFF AND ISZERO DUP1 ISZERO PUSH2 0x2D13 JUMPI POP PUSH1 0x1 PUSH1 0x1 PUSH1 0xA0 SHL SUB DUP8 AND PUSH0 SWAP1 DUP2 MSTORE PUSH1 0xF PUSH1 0x20 MSTORE PUSH1 0x40 SWAP1 KECCAK256 SLOAD PUSH1 0xFF AND ISZERO JUMPDEST ISZERO PUSH2 0x2DEE JUMPI PUSH1 0x1 SWAP2 POP PUSH32 0x0 PUSH1 0x1 PUSH1 0x1 PUSH1 0xA0 SHL SUB AND DUP9 PUSH1 0x1 PUSH1 0x1 PUSH1 0xA0 SHL SUB AND SUB PUSH2 0x2D60 JUMPI PUSH2 0x2D5D PUSH2 0x33A3 JUMP JUMPDEST SWAP1 POP JUMPDEST PUSH1 0x28 SLOAD PUSH0 SUB PUSH2 0x2DC2 JUMPI PUSH1 0x29 SLOAD PUSH0 LT PUSH2 0x2D9F JUMPI PUSH1 0x40 MLOAD PUSH3 0x461BCD PUSH1 0xE5 SHL DUP2 MSTORE PUSH1 0x20 PUSH1 0x4 DUP3 ADD MSTORE PUSH1 0x2 PUSH1 0x24 DUP3 ADD MSTORE PUSH2 0x855 PUSH1 0xF2 SHL PUSH1 0x44 DUP3 ADD MSTORE PUSH1 0x64 ADD PUSH2 0x1107 JUMP JUMPDEST PUSH1 0x1 PUSH1 0x1 PUSH1 0xA0 SHL SUB DUP9 AND PUSH0 SWAP1 DUP2 MSTORE PUSH1 0x12 PUSH1 0x20 MSTORE PUSH1 0x40 SWAP1 KECCAK256 DUP1 SLOAD PUSH1 0xFF NOT AND PUSH1 0x1 OR SWAP1 SSTORE JUMPDEST PUSH1 0x28 SLOAD PUSH2 0x2DD0 SWAP1 PUSH1 0x3 PUSH2 0x4C10 JUMP JUMPDEST NUMBER LT ISZERO PUSH2 0x2DEE JUMPI PUSH2 0x2DE2 DUP9 DUP9 DUP9 PUSH2 0x353A JUMP JUMPDEST DUP6 SWAP5 POP POP POP POP POP PUSH2 0x140A JUMP JUMPDEST PUSH2 0x2F60 JUMP JUMPDEST PUSH1 0x1 PUSH1 0x1 PUSH1 0xA0 SHL SUB DUP1 DUP9 AND PUSH0 SWAP1 DUP2 MSTORE PUSH1 0x10 PUSH1 0x20 MSTORE PUSH1 0x40 SWAP1 KECCAK256 PUSH1 0x3 ADD SLOAD AND ISZERO DUP1 ISZERO PUSH2 0x2E1C JUMPI POP PUSH0 DUP7 GT JUMPDEST DUP1 ISZERO PUSH2 0x2E3A JUMPI POP DUP7 PUSH1 0x1 PUSH1 0x1 PUSH1 0xA0 SHL SUB AND DUP9 PUSH1 0x1 PUSH1 0x1 PUSH1 0xA0 SHL SUB AND EQ ISZERO JUMPDEST DUP1 ISZERO PUSH2 0x2E86 JUMPI POP PUSH2 0x2E4A DUP9 PUSH2 0x2288 JUMP JUMPDEST DUP1 PUSH2 0x2E86 JUMPI POP PUSH32 0x0 PUSH1 0x1 PUSH1 0x1 PUSH1 0xA0 SHL SUB AND DUP9 PUSH1 0x1 PUSH1 0x1 PUSH1 0xA0 SHL SUB AND EQ JUMPDEST ISZERO PUSH2 0x2EBB JUMPI PUSH1 0x1 PUSH1 0x1 PUSH1 0xA0 SHL SUB DUP1 DUP9 AND PUSH0 SWAP1 DUP2 MSTORE PUSH1 0x15 PUSH1 0x20 SWAP1 DUP2 MSTORE PUSH1 0x40 DUP1 DUP4 KECCAK256 SWAP4 DUP13 AND DUP4 MSTORE SWAP3 SWAP1 MSTORE KECCAK256 DUP1 SLOAD PUSH1 0xFF NOT AND PUSH1 0x1 OR SWAP1 SSTORE JUMPDEST PUSH1 0x1 PUSH1 0x1 PUSH1 0xA0 SHL SUB DUP1 DUP10 AND PUSH0 SWAP1 DUP2 MSTORE PUSH1 0x10 PUSH1 0x20 MSTORE PUSH1 0x40 SWAP1 KECCAK256 PUSH1 0x3 ADD SLOAD AND ISZERO DUP1 ISZERO PUSH2 0x2EE5 JUMPI POP DUP6 PUSH1 0x64 EQ JUMPDEST DUP1 ISZERO PUSH2 0x2F03 JUMPI POP DUP7 PUSH1 0x1 PUSH1 0x1 PUSH1 0xA0 SHL SUB AND DUP9 PUSH1 0x1 PUSH1 0x1 PUSH1 0xA0 SHL SUB AND EQ ISZERO JUMPDEST ISZERO PUSH2 0x2F60 JUMPI PUSH1 0x1 PUSH1 0x1 PUSH1 0xA0 SHL SUB DUP1 DUP10 AND PUSH0 SWAP1 DUP2 MSTORE PUSH1 0x15 PUSH1 0x20 SWAP1 DUP2 MSTORE PUSH1 0x40 DUP1 DUP4 KECCAK256 SWAP4 DUP12 AND DUP4 MSTORE SWAP3 SWAP1 MSTORE KECCAK256 SLOAD PUSH1 0xFF AND DUP1 ISZERO PUSH2 0x2F51 JUMPI POP PUSH1 0x1 PUSH1 0x1 PUSH1 0xA0 SHL SUB DUP9 AND PUSH0 SWAP1 DUP2 MSTORE PUSH1 0x14 PUSH1 0x20 MSTORE PUSH1 0x40 SWAP1 KECCAK256 SLOAD ISZERO JUMPDEST ISZERO PUSH2 0x2F60 JUMPI PUSH2 0x2F60 DUP9 DUP9 PUSH2 0x35B7 JUMP JUMPDEST PUSH1 0x1 PUSH1 0x1 PUSH1 0xA0 SHL SUB DUP9 AND ADDRESS EQ PUSH2 0x30A0 JUMPI DUP4 PUSH1 0x1 PUSH1 0x1 PUSH1 0xA0 SHL SUB AND DUP8 PUSH1 0x1 PUSH1 0x1 PUSH1 0xA0 SHL SUB AND EQ DUP1 ISZERO PUSH2 0x2F99 JUMPI POP PUSH1 0x1 PUSH1 0x1 PUSH1 0xA0 SHL SUB DUP9 AND ISZERO ISZERO JUMPDEST DUP1 ISZERO PUSH2 0x2FB0 JUMPI POP PUSH1 0x1 PUSH1 0x1 PUSH1 0xA0 SHL SUB DUP9 AND PUSH2 0xDEAD EQ ISZERO JUMPDEST ISZERO PUSH2 0x3008 JUMPI PUSH1 0x30 SLOAD PUSH2 0x2FCA SWAP1 PUSH1 0x1 PUSH1 0x1 PUSH1 0xA0 SHL SUB AND PUSH2 0x3212 JUMP JUMPDEST PUSH1 0x30 DUP1 SLOAD PUSH1 0x1 PUSH1 0x1 PUSH1 0xA0 SHL SUB SWAP1 DUP2 AND PUSH0 SWAP1 DUP2 MSTORE PUSH1 0x10 PUSH1 0x20 MSTORE PUSH1 0x40 SWAP1 KECCAK256 PUSH1 0x2 ADD SWAP3 SWAP1 SWAP3 SSTORE DUP1 SLOAD PUSH1 0x1 PUSH1 0x1 PUSH1 0xA0 SHL SUB NOT AND SWAP2 DUP11 AND SWAP2 SWAP1 SWAP2 OR SWAP1 SSTORE PUSH1 0x31 DUP7 SWAP1 SSTORE JUMPDEST DUP4 PUSH1 0x1 PUSH1 0x1 PUSH1 0xA0 SHL SUB AND DUP9 PUSH1 0x1 PUSH1 0x1 PUSH1 0xA0 SHL SUB AND EQ DUP1 ISZERO PUSH2 0x3031 JUMPI POP PUSH1 0x1 PUSH1 0x1 PUSH1 0xA0 SHL SUB DUP8 AND ISZERO ISZERO JUMPDEST DUP1 ISZERO PUSH2 0x3048 JUMPI POP PUSH1 0x1 PUSH1 0x1 PUSH1 0xA0 SHL SUB DUP8 AND PUSH2 0xDEAD EQ ISZERO JUMPDEST ISZERO PUSH2 0x30A0 JUMPI PUSH1 0x30 SLOAD PUSH2 0x3062 SWAP1 PUSH1 0x1 PUSH1 0x1 PUSH1 0xA0 SHL SUB AND PUSH2 0x3212 JUMP JUMPDEST PUSH1 0x30 DUP1 SLOAD PUSH1 0x1 PUSH1 0x1 PUSH1 0xA0 SHL SUB SWAP1 DUP2 AND PUSH0 SWAP1 DUP2 MSTORE PUSH1 0x10 PUSH1 0x20 MSTORE PUSH1 0x40 SWAP1 KECCAK256 PUSH1 0x2 ADD SWAP3 SWAP1 SWAP3 SSTORE DUP1 SLOAD PUSH1 0x1 PUSH1 0x1 PUSH1 0xA0 SHL SUB NOT AND SWAP2 DUP10 AND SWAP2 SWAP1 SWAP2 OR SWAP1 SSTORE PUSH1 0x31 DUP7 SWAP1 SSTORE JUMPDEST PUSH2 0x30AA DUP9 DUP9 PUSH2 0x3697 JUMP JUMPDEST ISZERO PUSH2 0x30BA JUMPI PUSH2 0x2DE2 DUP9 DUP9 DUP9 PUSH2 0x353A JUMP JUMPDEST PUSH2 0x30C7 DUP9 DUP9 DUP9 DUP6 DUP6 PUSH2 0x37AE JUMP JUMPDEST PUSH1 0x1 PUSH1 0x1 PUSH1 0xA0 SHL SUB DUP1 DUP9 AND PUSH0 SWAP1 DUP2 MSTORE PUSH1 0x10 PUSH1 0x20 SWAP1 DUP2 MSTORE PUSH1 0x40 DUP1 DUP4 KECCAK256 PUSH1 0xB DUP4 MSTORE DUP2 DUP5 KECCAK256 SLOAD DUP2 SSTORE SWAP4 DUP13 AND DUP4 MSTORE PUSH1 0xF SWAP1 SWAP2 MSTORE SWAP1 KECCAK256 SLOAD PUSH1 0xFF AND PUSH2 0x310B JUMPI PUSH2 0x310B PUSH1 0x2E SLOAD PUSH2 0x3B5D JUMP JUMPDEST POP SWAP5 SWAP8 SWAP7 POP POP POP POP POP POP POP JUMP JUMPDEST PUSH1 0x1 PUSH1 0x1 PUSH1 0xA0 SHL SUB DUP2 AND PUSH0 SWAP1 DUP2 MSTORE PUSH1 0x18 PUSH1 0x20 MSTORE PUSH1 0x40 DUP2 KECCAK256 SLOAD SWAP1 SUB PUSH2 0x1D21 JUMPI PUSH1 0x32 SLOAD ISZERO DUP1 PUSH2 0x3174 JUMPI POP DUP1 PUSH1 0x1 PUSH1 0x1 PUSH1 0xA0 SHL SUB AND PUSH1 0x32 PUSH0 DUP2 SLOAD DUP2 LT PUSH2 0x315D JUMPI PUSH2 0x315D PUSH2 0x4A82 JUMP JUMPDEST PUSH0 SWAP2 DUP3 MSTORE PUSH1 0x20 SWAP1 SWAP2 KECCAK256 ADD SLOAD PUSH1 0x1 PUSH1 0x1 PUSH1 0xA0 SHL SUB AND EQ ISZERO JUMPDEST ISZERO PUSH2 0x1D21 JUMPI DUP1 EXTCODESIZE DUP1 ISZERO PUSH2 0x3185 JUMPI POP POP JUMP JUMPDEST POP PUSH1 0x32 DUP1 SLOAD PUSH1 0x1 PUSH1 0x1 PUSH1 0xA0 SHL SUB DUP4 AND PUSH0 DUP2 DUP2 MSTORE PUSH1 0x18 PUSH1 0x20 MSTORE PUSH1 0x40 DUP2 KECCAK256 DUP4 SWAP1 SSTORE PUSH1 0x1 DUP4 ADD DUP5 SSTORE SWAP3 SWAP1 SWAP3 MSTORE PUSH32 0x11DF491316F14931039EDFD4F8964C9A443B862F02D4C7611D18C2BC4E6FF697 ADD DUP1 SLOAD PUSH1 0x1 PUSH1 0x1 PUSH1 0xA0 SHL SUB NOT AND SWAP1 SWAP2 OR SWAP1 SSTORE POP JUMP JUMPDEST PUSH0 DUP1 PUSH2 0x31F3 PUSH3 0x15180 TIMESTAMP PUSH2 0x4C63 JUMP JUMPDEST PUSH2 0x31FD SWAP1 TIMESTAMP PUSH2 0x4A6F JUMP JUMPDEST SWAP1 POP PUSH2 0x320C DUP2 PUSH3 0x15180 PUSH2 0x4C10 JUMP JUMPDEST SWAP2 POP POP SWAP1 JUMP JUMPDEST PUSH0 DUP1 PUSH2 0x321D DUP4 PUSH2 0x1211 JUMP JUMPDEST POP SWAP1 POP PUSH1 0x1 PUSH1 0x1 PUSH1 0xA0 SHL SUB DUP4 AND ISZERO DUP1 ISZERO SWAP1 PUSH2 0x323A JUMPI POP PUSH1 0x2D SLOAD DUP2 LT ISZERO JUMPDEST ISZERO PUSH2 0x3259 JUMPI PUSH0 PUSH2 0x3251 PUSH2 0x3E8 PUSH2 0x134A DUP5 PUSH1 0x8 PUSH2 0x27BD JUMP JUMPDEST SWAP5 SWAP4 POP POP POP POP JUMP JUMPDEST POP POP PUSH1 0x1 PUSH1 0x1 PUSH1 0xA0 SHL SUB AND PUSH0 SWAP1 DUP2 MSTORE PUSH1 0x16 PUSH1 0x20 MSTORE PUSH1 0x40 DUP2 KECCAK256 DUP2 SWAP1 SSTORE SWAP1 JUMP JUMPDEST POP SWAP2 SWAP1 POP JUMP JUMPDEST TIMESTAMP PUSH1 0x27 SSTORE PUSH1 0x40 MLOAD PUSH4 0x70A08231 PUSH1 0xE0 SHL DUP2 MSTORE PUSH1 0x1 PUSH1 0x1 PUSH1 0xA0 SHL SUB DUP3 AND PUSH1 0x4 DUP3 ADD MSTORE PUSH0 SWAP1 DUP2 SWAP1 ADDRESS SWAP1 PUSH4 0x70A08231 SWAP1 PUSH1 0x24 ADD PUSH1 0x20 PUSH1 0x40 MLOAD DUP1 DUP4 SUB DUP2 DUP7 GAS STATICCALL ISZERO DUP1 ISZERO PUSH2 0x32C7 JUMPI RETURNDATASIZE PUSH0 DUP1 RETURNDATACOPY RETURNDATASIZE PUSH0 REVERT JUMPDEST POP POP POP POP PUSH1 0x40 MLOAD RETURNDATASIZE PUSH1 0x1F NOT PUSH1 0x1F DUP3 ADD AND DUP3 ADD DUP1 PUSH1 0x40 MSTORE POP DUP2 ADD SWAP1 PUSH2 0x32EB SWAP2 SWAP1 PUSH2 0x4A44 JUMP JUMPDEST SWAP1 POP PUSH0 PUSH2 0x3309 PUSH2 0x2710 PUSH2 0x134A PUSH1 0x24 SLOAD DUP6 PUSH2 0x27BD SWAP1 SWAP2 SWAP1 PUSH4 0xFFFFFFFF AND JUMP JUMPDEST SWAP1 POP DUP1 ISZERO PUSH2 0x331E JUMPI PUSH2 0x331E DUP5 PUSH2 0xDEAD DUP4 PUSH2 0x3F82 JUMP JUMPDEST PUSH0 DUP5 SWAP1 POP DUP1 PUSH1 0x1 PUSH1 0x1 PUSH1 0xA0 SHL SUB AND PUSH4 0xFFF6CAE9 PUSH1 0x40 MLOAD DUP2 PUSH4 0xFFFFFFFF AND PUSH1 0xE0 SHL DUP2 MSTORE PUSH1 0x4 ADD PUSH0 PUSH1 0x40 MLOAD DUP1 DUP4 SUB DUP2 PUSH0 DUP8 DUP1 EXTCODESIZE ISZERO DUP1 ISZERO PUSH2 0x335A JUMPI PUSH0 DUP1 REVERT JUMPDEST POP GAS CALL ISZERO DUP1 ISZERO PUSH2 0x336C JUMPI RETURNDATASIZE PUSH0 DUP1 RETURNDATACOPY RETURNDATASIZE PUSH0 REVERT JUMPDEST POP POP PUSH1 0x40 MLOAD PUSH32 0x454C91AE84FCC766DDDA0DCB289F26B3D0176EFEACF4061FC219FA6CA8C3048D SWAP3 POP PUSH0 SWAP2 POP LOG1 POP PUSH1 0x1 SWAP5 SWAP4 POP POP POP POP JUMP JUMPDEST PUSH0 DUP1 PUSH32 0x0 SWAP1 POP PUSH0 DUP1 DUP3 PUSH1 0x1 PUSH1 0x1 PUSH1 0xA0 SHL SUB AND PUSH4 0x902F1AC PUSH1 0x40 MLOAD DUP2 PUSH4 0xFFFFFFFF AND PUSH1 0xE0 SHL DUP2 MSTORE PUSH1 0x4 ADD PUSH1 0x60 PUSH1 0x40 MLOAD DUP1 DUP4 SUB DUP2 DUP7 GAS STATICCALL ISZERO DUP1 ISZERO PUSH2 0x3406 JUMPI RETURNDATASIZE PUSH0 DUP1 RETURNDATACOPY RETURNDATASIZE PUSH0 REVERT JUMPDEST POP POP POP POP PUSH1 0x40 MLOAD RETURNDATASIZE PUSH1 0x1F NOT PUSH1 0x1F DUP3 ADD AND DUP3 ADD DUP1 PUSH1 0x40 MSTORE POP DUP2 ADD SWAP1 PUSH2 0x342A SWAP2 SWAP1 PUSH2 0x4AC7 JUMP JUMPDEST POP PUSH1 0x1 PUSH1 0x1 PUSH1 0x70 SHL SUB SWAP2 DUP3 AND SWAP4 POP AND SWAP1 POP PUSH32 0x0 PUSH0 ADDRESS PUSH1 0x1 PUSH1 0x1 PUSH1 0xA0 SHL SUB DUP4 AND LT ISZERO PUSH2 0x3484 JUMPI PUSH2 0x347D DUP5 PUSH5 0xE8D4A51000 PUSH2 0x27C8 JUMP JUMPDEST SWAP1 POP PUSH2 0x3496 JUMP JUMPDEST PUSH2 0x3493 DUP4 PUSH5 0xE8D4A51000 PUSH2 0x27C8 JUMP JUMPDEST SWAP1 POP JUMPDEST PUSH1 0x40 MLOAD PUSH4 0x70A08231 PUSH1 0xE0 SHL DUP2 MSTORE PUSH1 0x1 PUSH1 0x1 PUSH1 0xA0 SHL SUB PUSH32 0x0 DUP2 AND PUSH1 0x4 DUP4 ADD MSTORE PUSH0 SWAP2 PUSH2 0x352C SWAP2 PUSH5 0xE8D4A51000 SWAP2 SWAP1 DUP7 AND SWAP1 PUSH4 0x70A08231 SWAP1 PUSH1 0x24 ADD PUSH1 0x20 PUSH1 0x40 MLOAD DUP1 DUP4 SUB DUP2 DUP7 GAS STATICCALL ISZERO DUP1 ISZERO PUSH2 0x3508 JUMPI RETURNDATASIZE PUSH0 DUP1 RETURNDATACOPY RETURNDATASIZE PUSH0 REVERT JUMPDEST POP POP POP POP PUSH1 0x40 MLOAD RETURNDATASIZE PUSH1 0x1F NOT PUSH1 0x1F DUP3 ADD AND DUP3 ADD DUP1 PUSH1 0x40 MSTORE POP DUP2 ADD SWAP1 PUSH2 0x134A SWAP2 SWAP1 PUSH2 0x4A44 JUMP JUMPDEST SWAP1 SWAP2 LT ISZERO SWAP7 SWAP6 POP POP POP POP POP POP JUMP JUMPDEST PUSH1 0x1 PUSH1 0x1 PUSH1 0xA0 SHL SUB DUP4 AND PUSH0 SWAP1 DUP2 MSTORE PUSH1 0xB PUSH1 0x20 MSTORE PUSH1 0x40 SWAP1 KECCAK256 SLOAD PUSH2 0x355D SWAP1 DUP3 SWAP1 PUSH2 0x4A6F JUMP JUMPDEST PUSH1 0x1 PUSH1 0x1 PUSH1 0xA0 SHL SUB DUP5 AND PUSH0 SWAP1 DUP2 MSTORE PUSH1 0xB PUSH1 0x20 MSTORE PUSH1 0x40 DUP2 KECCAK256 SWAP2 SWAP1 SWAP2 SSTORE PUSH2 0x3588 PUSH1 0x64 PUSH2 0x134A DUP5 PUSH1 0x63 PUSH2 0x27BD JUMP JUMPDEST PUSH1 0x1A SLOAD SWAP1 SWAP2 POP PUSH2 0x35A3 SWAP1 DUP6 SWAP1 PUSH1 0x1 PUSH1 0x1 PUSH1 0xA0 SHL SUB AND DUP4 PUSH2 0x4027 JUMP JUMPDEST PUSH2 0x120B DUP5 DUP5 PUSH2 0x35B2 DUP5 DUP7 PUSH2 0x4A6F JUMP JUMPDEST PUSH2 0x4027 JUMP JUMPDEST PUSH1 0x1 PUSH1 0x1 PUSH1 0xA0 SHL SUB DUP2 AND ISZERO DUP1 ISZERO SWAP1 PUSH2 0x35E1 JUMPI POP DUP2 PUSH1 0x1 PUSH1 0x1 PUSH1 0xA0 SHL SUB AND DUP2 PUSH1 0x1 PUSH1 0x1 PUSH1 0xA0 SHL SUB AND EQ ISZERO JUMPDEST DUP1 ISZERO PUSH2 0x3607 JUMPI POP PUSH1 0x1 PUSH1 0x1 PUSH1 0xA0 SHL SUB DUP3 DUP2 AND PUSH0 SWAP1 DUP2 MSTORE PUSH1 0x10 PUSH1 0x20 MSTORE PUSH1 0x40 SWAP1 KECCAK256 PUSH1 0x3 ADD SLOAD AND ISZERO JUMPDEST ISZERO PUSH2 0x1E94 JUMPI DUP1 EXTCODESIZE DUP1 ISZERO PUSH2 0x3619 JUMPI POP POP POP JUMP JUMPDEST PUSH1 0x1 PUSH1 0x1 PUSH1 0xA0 SHL SUB DUP1 DUP5 AND PUSH0 DUP2 DUP2 MSTORE PUSH1 0x10 PUSH1 0x20 SWAP1 DUP2 MSTORE PUSH1 0x40 DUP1 DUP4 KECCAK256 PUSH1 0x3 ADD DUP1 SLOAD SWAP6 DUP9 AND PUSH1 0x1 PUSH1 0x1 PUSH1 0xA0 SHL SUB NOT SWAP7 DUP8 AND DUP2 OR SWAP1 SWAP2 SSTORE DUP1 DUP5 MSTORE PUSH1 0x14 DUP4 MSTORE DUP2 DUP5 KECCAK256 DUP1 SLOAD PUSH1 0x1 DUP2 DUP2 ADD DUP4 SSTORE SWAP2 DUP7 MSTORE DUP5 DUP7 KECCAK256 ADD DUP1 SLOAD SWAP1 SWAP8 AND SWAP1 SWAP6 OR SWAP1 SWAP6 SSTORE SWAP4 DUP3 MSTORE PUSH1 0xD SWAP1 MSTORE SWAP2 DUP3 KECCAK256 DUP1 SLOAD SWAP2 SWAP3 SWAP1 SWAP2 PUSH2 0x368D SWAP1 DUP5 SWAP1 PUSH2 0x4C10 JUMP JUMPDEST SWAP1 SWAP2 SSTORE POP POP POP POP POP JUMP JUMPDEST PUSH0 PUSH32 0x0 PUSH1 0x1 PUSH1 0x1 PUSH1 0xA0 SHL SUB AND DUP3 PUSH1 0x1 PUSH1 0x1 PUSH1 0xA0 SHL SUB AND EQ DUP1 ISZERO PUSH2 0x370A JUMPI POP PUSH32 0x0 PUSH1 0x1 PUSH1 0x1 PUSH1 0xA0 SHL SUB AND DUP4 PUSH1 0x1 PUSH1 0x1 PUSH1 0xA0 SHL SUB AND EQ JUMPDEST ISZERO PUSH2 0x37A6 JUMPI PUSH1 0x40 MLOAD PUSH4 0x70A08231 PUSH1 0xE0 SHL DUP2 MSTORE PUSH1 0x1 PUSH1 0x1 PUSH1 0xA0 SHL SUB DUP4 DUP2 AND PUSH1 0x4 DUP4 ADD MSTORE PUSH0 SWAP2 PUSH32 0x0 SWAP1 SWAP2 AND SWAP1 PUSH4 0x70A08231 SWAP1 PUSH1 0x24 ADD PUSH1 0x20 PUSH1 0x40 MLOAD DUP1 DUP4 SUB DUP2 DUP7 GAS STATICCALL ISZERO DUP1 ISZERO PUSH2 0x3777 JUMPI RETURNDATASIZE PUSH0 DUP1 RETURNDATACOPY RETURNDATASIZE PUSH0 REVERT JUMPDEST POP POP POP POP PUSH1 0x40 MLOAD RETURNDATASIZE PUSH1 0x1F NOT PUSH1 0x1F DUP3 ADD AND DUP3 ADD DUP1 PUSH1 0x40 MSTORE POP DUP2 ADD SWAP1 PUSH2 0x379B SWAP2 SWAP1 PUSH2 0x4A44 JUMP JUMPDEST ISZERO ISZERO SWAP2 POP PUSH2 0x10D8 SWAP1 POP JUMP JUMPDEST POP PUSH0 SWAP3 SWAP2 POP POP JUMP JUMPDEST PUSH1 0x1 PUSH1 0x1 PUSH1 0xA0 SHL SUB DUP6 AND PUSH0 SWAP1 DUP2 MSTORE PUSH1 0xB PUSH1 0x20 MSTORE PUSH1 0x40 SWAP1 KECCAK256 SLOAD PUSH2 0x37D0 DUP5 DUP3 PUSH2 0x4A6F JUMP JUMPDEST PUSH1 0x1 PUSH1 0x1 PUSH1 0xA0 SHL SUB DUP8 AND PUSH0 SWAP1 DUP2 MSTORE PUSH1 0xB PUSH1 0x20 SWAP1 DUP2 MSTORE PUSH1 0x40 DUP1 DUP4 KECCAK256 DUP5 SWAP1 SSTORE PUSH1 0x10 SWAP1 SWAP2 MSTORE DUP2 KECCAK256 DUP3 DUP2 SSTORE SWAP2 SWAP3 POP DUP5 ISZERO PUSH2 0x3B44 JUMPI PUSH0 DUP1 DUP1 DUP7 ISZERO PUSH2 0x382B JUMPI PUSH2 0x3824 PUSH2 0x2710 PUSH2 0x134A PUSH1 0x1F SLOAD DUP13 PUSH2 0x27BD SWAP1 SWAP2 SWAP1 PUSH4 0xFFFFFFFF AND JUMP JUMPDEST SWAP1 POP PUSH2 0x3AB6 JUMP JUMPDEST PUSH1 0x1 PUSH1 0x1 PUSH1 0xA0 SHL SUB DUP11 AND PUSH0 SWAP1 DUP2 MSTORE PUSH1 0x13 PUSH1 0x20 MSTORE PUSH1 0x40 SWAP1 KECCAK256 SLOAD PUSH1 0xFF AND ISZERO DUP1 ISZERO PUSH2 0x3884 JUMPI POP PUSH32 0x0 PUSH1 0x1 PUSH1 0x1 PUSH1 0xA0 SHL SUB AND DUP12 PUSH1 0x1 PUSH1 0x1 PUSH1 0xA0 SHL SUB AND EQ JUMPDEST ISZERO PUSH2 0x39A0 JUMPI PUSH1 0x28 SLOAD PUSH0 SUB PUSH2 0x38AA JUMPI PUSH1 0x40 MLOAD PUSH3 0x461BCD PUSH1 0xE5 SHL DUP2 MSTORE PUSH1 0x4 ADD PUSH2 0x1107 SWAP1 PUSH2 0x4A96 JUMP JUMPDEST PUSH0 PUSH2 0x38C4 PUSH3 0xF4240 PUSH2 0x134A PUSH2 0x38BD PUSH2 0x1B32 JUMP JUMPDEST DUP14 SWAP1 PUSH2 0x27BD JUMP JUMPDEST SWAP1 POP PUSH10 0x43C33C1937564800000 DUP2 GT ISZERO PUSH2 0x3920 JUMPI PUSH1 0x40 MLOAD PUSH3 0x461BCD PUSH1 0xE5 SHL DUP2 MSTORE PUSH1 0x20 PUSH1 0x4 DUP3 ADD DUP2 SWAP1 MSTORE PUSH1 0x24 DUP3 ADD MSTORE PUSH32 0x596F752063616E206F6E6C7920627579206D61782032302C3030302075736474 PUSH1 0x44 DUP3 ADD MSTORE PUSH1 0x64 ADD PUSH2 0x1107 JUMP JUMPDEST PUSH1 0x1 PUSH1 0x1 PUSH1 0xA0 SHL SUB DUP12 AND PUSH0 SWAP1 DUP2 MSTORE PUSH1 0xE PUSH1 0x20 MSTORE PUSH1 0x40 SWAP1 KECCAK256 SLOAD PUSH2 0x3944 SWAP1 PUSH1 0x78 SWAP1 PUSH2 0x4C10 JUMP JUMPDEST TIMESTAMP LT ISZERO PUSH2 0x3963 JUMPI PUSH1 0x40 MLOAD PUSH3 0x461BCD PUSH1 0xE5 SHL DUP2 MSTORE PUSH1 0x4 ADD PUSH2 0x1107 SWAP1 PUSH2 0x4C76 JUMP JUMPDEST PUSH1 0x1 PUSH1 0x1 PUSH1 0xA0 SHL SUB DUP12 AND PUSH0 SWAP1 DUP2 MSTORE PUSH1 0xE PUSH1 0x20 MSTORE PUSH1 0x40 SWAP1 KECCAK256 TIMESTAMP SWAP1 SSTORE PUSH1 0x1B SLOAD PUSH1 0x1C SLOAD PUSH2 0x3998 SWAP2 PUSH2 0x2710 SWAP2 PUSH2 0x134A SWAP2 PUSH2 0x38BD SWAP2 PUSH2 0x4C10 JUMP JUMPDEST SWAP3 POP POP PUSH2 0x3AB6 JUMP JUMPDEST PUSH1 0x1 PUSH1 0x1 PUSH1 0xA0 SHL SUB DUP12 AND PUSH0 SWAP1 DUP2 MSTORE PUSH1 0x13 PUSH1 0x20 MSTORE PUSH1 0x40 SWAP1 KECCAK256 SLOAD PUSH1 0xFF AND ISZERO DUP1 ISZERO PUSH2 0x39F9 JUMPI POP PUSH32 0x0 PUSH1 0x1 PUSH1 0x1 PUSH1 0xA0 SHL SUB AND DUP11 PUSH1 0x1 PUSH1 0x1 PUSH1 0xA0 SHL SUB AND EQ JUMPDEST ISZERO PUSH2 0x3AB6 JUMPI PUSH1 0x28 SLOAD PUSH0 SUB PUSH2 0x3A1F JUMPI PUSH1 0x40 MLOAD PUSH3 0x461BCD PUSH1 0xE5 SHL DUP2 MSTORE PUSH1 0x4 ADD PUSH2 0x1107 SWAP1 PUSH2 0x4A96 JUMP JUMPDEST PUSH1 0x1 PUSH1 0x1 PUSH1 0xA0 SHL SUB DUP11 AND PUSH0 SWAP1 DUP2 MSTORE PUSH1 0xE PUSH1 0x20 MSTORE PUSH1 0x40 SWAP1 KECCAK256 SLOAD PUSH2 0x3A43 SWAP1 PUSH1 0x78 SWAP1 PUSH2 0x4C10 JUMP JUMPDEST TIMESTAMP LT ISZERO PUSH2 0x3A62 JUMPI PUSH1 0x40 MLOAD PUSH3 0x461BCD PUSH1 0xE5 SHL DUP2 MSTORE PUSH1 0x4 ADD PUSH2 0x1107 SWAP1 PUSH2 0x4C76 JUMP JUMPDEST PUSH1 0x1 PUSH1 0x1 PUSH1 0xA0 SHL SUB DUP11 AND PUSH0 SWAP1 DUP2 MSTORE PUSH1 0xE PUSH1 0x20 MSTORE PUSH1 0x40 SWAP1 KECCAK256 TIMESTAMP SWAP1 SSTORE PUSH1 0x1E SLOAD PUSH1 0x1 SWAP4 POP PUSH2 0x3A96 SWAP1 PUSH2 0x2710 SWAP1 PUSH2 0x134A SWAP1 DUP13 SWAP1 PUSH2 0x27BD JUMP JUMPDEST SWAP2 POP PUSH2 0x3AB3 PUSH2 0x2710 PUSH2 0x134A PUSH1 0x1D SLOAD DUP13 PUSH2 0x27BD SWAP1 SWAP2 SWAP1 PUSH4 0xFFFFFFFF AND JUMP JUMPDEST SWAP1 POP JUMPDEST DUP2 ISZERO PUSH2 0x3AD3 JUMPI PUSH2 0x3AC6 DUP3 DUP6 PUSH2 0x4C10 JUMP JUMPDEST SWAP4 POP PUSH2 0x3AD3 DUP12 ADDRESS DUP5 PUSH2 0x4027 JUMP JUMPDEST DUP1 ISZERO PUSH2 0x3AF2 JUMPI PUSH2 0x3AE3 DUP2 DUP6 PUSH2 0x4C10 JUMP JUMPDEST SWAP4 POP PUSH2 0x3AF2 DUP12 PUSH2 0xDEAD DUP4 PUSH2 0x4027 JUMP JUMPDEST DUP3 DUP1 ISZERO PUSH2 0x3B02 JUMPI POP PUSH1 0x35 SLOAD PUSH1 0xFF AND ISZERO JUMPDEST ISZERO PUSH2 0x3B40 JUMPI ADDRESS PUSH0 SWAP1 DUP2 MSTORE PUSH1 0xB PUSH1 0x20 MSTORE PUSH1 0x40 DUP2 KECCAK256 SLOAD SWAP1 PUSH2 0x3B27 PUSH1 0x64 PUSH2 0x134A DUP7 PUSH1 0xE6 PUSH2 0x27BD JUMP JUMPDEST SWAP1 POP DUP2 DUP2 GT ISZERO PUSH2 0x3B34 JUMPI POP DUP1 JUMPDEST PUSH2 0x3B3D DUP2 PUSH2 0x404A JUMP JUMPDEST POP POP JUMPDEST POP POP POP JUMPDEST PUSH2 0x3B53 DUP9 DUP9 PUSH2 0x35B2 DUP5 DUP11 PUSH2 0x4A6F JUMP JUMPDEST POP POP POP POP POP POP POP POP JUMP JUMPDEST TIMESTAMP PUSH1 0x2C SLOAD GT ISZERO PUSH2 0x3B6A JUMPI POP JUMP JUMPDEST PUSH0 PUSH32 0x0 SWAP1 POP PUSH0 DUP2 PUSH1 0x1 PUSH1 0x1 PUSH1 0xA0 SHL SUB AND PUSH4 0x18160DDD PUSH1 0x40 MLOAD DUP2 PUSH4 0xFFFFFFFF AND PUSH1 0xE0 SHL DUP2 MSTORE PUSH1 0x4 ADD PUSH1 0x20 PUSH1 0x40 MLOAD DUP1 DUP4 SUB DUP2 DUP7 GAS STATICCALL ISZERO DUP1 ISZERO PUSH2 0x3BCB JUMPI RETURNDATASIZE PUSH0 DUP1 RETURNDATACOPY RETURNDATASIZE PUSH0 REVERT JUMPDEST POP POP POP POP PUSH1 0x40 MLOAD RETURNDATASIZE PUSH1 0x1F NOT PUSH1 0x1F DUP3 ADD AND DUP3 ADD DUP1 PUSH1 0x40 MSTORE POP DUP2 ADD SWAP1 PUSH2 0x3BEF SWAP2 SWAP1 PUSH2 0x4A44 JUMP JUMPDEST SWAP1 POP DUP1 PUSH0 SUB PUSH2 0x3BFD JUMPI POP POP POP JUMP JUMPDEST PUSH1 0x32 SLOAD PUSH0 SWAP1 DUP2 SWAP1 DUP2 DUP1 DUP1 DUP1 GAS SWAP1 POP PUSH0 DUP1 PUSH2 0x3C15 PUSH2 0x26DD JUMP JUMPDEST SWAP2 POP SWAP2 POP JUMPDEST DUP12 DUP7 LT DUP1 ISZERO PUSH2 0x3C2A JUMPI POP DUP7 PUSH1 0x2B SLOAD LT JUMPDEST ISZERO PUSH2 0x3F56 JUMPI PUSH1 0x20 SLOAD PUSH1 0x2B SLOAD PUSH2 0x3C3F SWAP2 SWAP1 PUSH2 0x4C63 JUMP JUMPDEST ISZERO DUP1 ISZERO PUSH2 0x3C5D JUMPI POP PUSH1 0x2B SLOAD PUSH1 0x20 SLOAD PUSH1 0x21 SLOAD PUSH2 0x3C5A SWAP2 SWAP1 PUSH2 0x4BF9 JUMP JUMPDEST GT ISZERO JUMPDEST ISZERO PUSH2 0x3C7B JUMPI PUSH1 0x21 DUP1 SLOAD SWAP1 PUSH0 PUSH2 0x3C71 DUP4 PUSH2 0x4CBE JUMP JUMPDEST SWAP2 SWAP1 POP SSTORE POP PUSH2 0x3F56 JUMP JUMPDEST PUSH1 0x32 PUSH1 0x2B SLOAD DUP2 SLOAD DUP2 LT PUSH2 0x3C90 JUMPI PUSH2 0x3C90 PUSH2 0x4A82 JUMP JUMPDEST PUSH0 SWAP2 DUP3 MSTORE PUSH1 0x20 DUP3 KECCAK256 ADD SLOAD PUSH1 0x2B DUP1 SLOAD PUSH1 0x1 PUSH1 0x1 PUSH1 0xA0 SHL SUB SWAP1 SWAP3 AND SWAP12 POP SWAP1 SWAP2 PUSH2 0x3CB6 DUP4 PUSH2 0x4CBE JUMP JUMPDEST SWAP1 SWAP2 SSTORE POP POP PUSH1 0x1 PUSH1 0x1 PUSH1 0xA0 SHL SUB DUP10 AND PUSH0 SWAP1 DUP2 MSTORE PUSH1 0x19 PUSH1 0x20 MSTORE PUSH1 0x40 SWAP1 KECCAK256 SLOAD PUSH1 0xFF AND DUP1 PUSH2 0x3CF8 JUMPI POP PUSH1 0x1 PUSH1 0x1 PUSH1 0xA0 SHL SUB DUP10 AND PUSH0 SWAP1 DUP2 MSTORE PUSH1 0x11 PUSH1 0x20 MSTORE PUSH1 0x40 SWAP1 KECCAK256 SLOAD PUSH1 0xFF AND JUMPDEST PUSH2 0x3C1A JUMPI PUSH1 0x2F SLOAD PUSH1 0x1 PUSH1 0x1 PUSH1 0xA0 SHL SUB DUP11 AND PUSH0 SWAP1 DUP2 MSTORE PUSH1 0x16 PUSH1 0x20 MSTORE PUSH1 0x40 SWAP1 KECCAK256 SLOAD PUSH2 0x3D21 SWAP2 SWAP1 PUSH2 0x4C10 JUMP JUMPDEST TIMESTAMP LT PUSH2 0x3C1A JUMPI PUSH1 0x1 PUSH1 0x1 PUSH1 0xA0 SHL SUB DUP10 AND PUSH0 SWAP1 DUP2 MSTORE PUSH1 0x16 PUSH1 0x20 MSTORE PUSH1 0x40 SWAP1 KECCAK256 SLOAD ISZERO PUSH2 0x3C1A JUMPI PUSH1 0x1 PUSH1 0x1 PUSH1 0xA0 SHL SUB DUP10 AND PUSH0 SWAP1 DUP2 MSTORE PUSH1 0x10 PUSH1 0x20 MSTORE PUSH1 0x40 SWAP1 KECCAK256 PUSH1 0x2 ADD SLOAD ISZERO PUSH2 0x3F1E JUMPI PUSH1 0x40 MLOAD PUSH4 0x70A08231 PUSH1 0xE0 SHL DUP2 MSTORE PUSH1 0x1 PUSH1 0x1 PUSH1 0xA0 SHL SUB DUP11 DUP2 AND PUSH1 0x4 DUP4 ADD MSTORE PUSH32 0x0 AND SWAP1 PUSH4 0x70A08231 SWAP1 PUSH1 0x24 ADD PUSH1 0x20 PUSH1 0x40 MLOAD DUP1 DUP4 SUB DUP2 DUP7 GAS STATICCALL ISZERO DUP1 ISZERO PUSH2 0x3DC8 JUMPI RETURNDATASIZE PUSH0 DUP1 RETURNDATACOPY RETURNDATASIZE PUSH0 REVERT JUMPDEST POP POP POP POP PUSH1 0x40 MLOAD RETURNDATASIZE PUSH1 0x1F NOT PUSH1 0x1F DUP3 ADD AND DUP3 ADD DUP1 PUSH1 0x40 MSTORE POP DUP2 ADD SWAP1 PUSH2 0x3DEC SWAP2 SWAP1 PUSH2 0x4A44 JUMP JUMPDEST PUSH1 0x1 PUSH1 0x1 PUSH1 0xA0 SHL SUB DUP11 AND PUSH0 SWAP1 DUP2 MSTORE PUSH1 0x17 PUSH1 0x20 MSTORE PUSH1 0x40 SWAP1 KECCAK256 SLOAD SWAP1 SWAP5 POP DUP5 EQ PUSH2 0x3E64 JUMPI PUSH2 0x3E16 DUP10 PUSH2 0x3212 JUMP JUMPDEST PUSH1 0x1 PUSH1 0x1 PUSH1 0xA0 SHL SUB DUP11 AND PUSH0 SWAP1 DUP2 MSTORE PUSH1 0x10 PUSH1 0x20 SWAP1 DUP2 MSTORE PUSH1 0x40 DUP1 DUP4 KECCAK256 PUSH1 0x2 ADD SWAP4 SWAP1 SWAP4 SSTORE PUSH1 0x17 SWAP1 MSTORE KECCAK256 DUP5 SWAP1 SSTORE PUSH2 0x3E47 PUSH2 0x31E4 JUMP JUMPDEST PUSH1 0x1 PUSH1 0x1 PUSH1 0xA0 SHL SUB DUP11 AND PUSH0 SWAP1 DUP2 MSTORE PUSH1 0x16 PUSH1 0x20 MSTORE PUSH1 0x40 SWAP1 KECCAK256 SSTORE PUSH2 0x3C1A JUMP JUMPDEST PUSH1 0x1 PUSH1 0x1 PUSH1 0xA0 SHL SUB DUP10 AND PUSH0 SWAP1 DUP2 MSTORE PUSH1 0x10 PUSH1 0x20 MSTORE PUSH1 0x40 DUP2 KECCAK256 PUSH1 0x2 ADD SLOAD PUSH2 0x3E8F SWAP1 DUP4 SWAP1 PUSH2 0x134A SWAP1 DUP7 PUSH2 0x27BD JUMP JUMPDEST SWAP1 POP PUSH2 0x3E9C PUSH1 0x2 DUP3 PUSH2 0x4BF9 JUMP JUMPDEST PUSH1 0x1 PUSH1 0x1 PUSH1 0xA0 SHL SUB DUP12 AND PUSH0 SWAP1 DUP2 MSTORE PUSH1 0x16 PUSH1 0x20 MSTORE PUSH1 0x40 SWAP1 KECCAK256 SLOAD SWAP1 SWAP2 POP PUSH2 0x3EC2 SWAP1 TIMESTAMP SWAP1 PUSH2 0x4477 JUMP JUMPDEST SWAP6 POP PUSH2 0x3ECE DUP2 DUP8 PUSH2 0x27BD JUMP JUMPDEST SWAP9 POP DUP9 ISZERO PUSH2 0x3F18 JUMPI PUSH3 0x15180 PUSH2 0x3EE2 PUSH2 0x31E4 JUMP JUMPDEST PUSH2 0x3EEC SWAP2 SWAP1 PUSH2 0x4A6F JUMP JUMPDEST PUSH1 0x1 PUSH1 0x1 PUSH1 0xA0 SHL SUB DUP12 AND PUSH0 SWAP1 DUP2 MSTORE PUSH1 0x16 PUSH1 0x20 MSTORE PUSH1 0x40 SWAP1 KECCAK256 SSTORE PUSH2 0x3F0E DUP11 DUP11 PUSH2 0x4489 JUMP JUMPDEST PUSH2 0x3F18 DUP11 DUP11 PUSH2 0x45D1 JUMP JUMPDEST POP PUSH2 0x3F37 JUMP JUMPDEST PUSH1 0x1 PUSH1 0x1 PUSH1 0xA0 SHL SUB DUP10 AND PUSH0 SWAP1 DUP2 MSTORE PUSH1 0x16 PUSH1 0x20 MSTORE PUSH1 0x40 DUP2 KECCAK256 SSTORE JUMPDEST GAS PUSH2 0x3F42 SWAP1 DUP5 PUSH2 0x4A6F JUMP JUMPDEST PUSH2 0x3F4C SWAP1 DUP8 PUSH2 0x4C10 JUMP JUMPDEST SWAP6 POP GAS SWAP3 POP PUSH2 0x3C1A JUMP JUMPDEST DUP7 PUSH1 0x2B SLOAD LT PUSH2 0x3F74 JUMPI PUSH1 0x1 PUSH1 0x21 SSTORE PUSH0 PUSH1 0x2B SSTORE PUSH2 0x3F70 PUSH2 0x31E4 JUMP JUMPDEST PUSH1 0x2C SSTORE JUMPDEST POP POP POP POP POP POP POP POP POP POP POP POP JUMP JUMPDEST PUSH1 0x1 PUSH1 0x1 PUSH1 0xA0 SHL SUB DUP4 AND PUSH0 SWAP1 DUP2 MSTORE PUSH1 0xB PUSH1 0x20 MSTORE PUSH1 0x40 SWAP1 KECCAK256 SLOAD PUSH2 0x3FA5 SWAP1 DUP3 SWAP1 PUSH2 0x4A6F JUMP JUMPDEST PUSH1 0x1 PUSH1 0x1 PUSH1 0xA0 SHL SUB DUP1 DUP6 AND PUSH0 SWAP1 DUP2 MSTORE PUSH1 0xB PUSH1 0x20 MSTORE PUSH1 0x40 DUP1 DUP3 KECCAK256 SWAP4 SWAP1 SWAP4 SSTORE SWAP1 DUP5 AND DUP2 MSTORE KECCAK256 SLOAD PUSH2 0x3FD4 SWAP1 DUP3 SWAP1 PUSH2 0x4C10 JUMP JUMPDEST PUSH1 0x1 PUSH1 0x1 PUSH1 0xA0 SHL SUB DUP1 DUP5 AND PUSH0 DUP2 DUP2 MSTORE PUSH1 0xB PUSH1 0x20 MSTORE PUSH1 0x40 SWAP1 DUP2 SWAP1 KECCAK256 SWAP4 SWAP1 SWAP4 SSTORE SWAP2 MLOAD SWAP1 DUP6 AND SWAP1 PUSH32 0xDDF252AD1BE2C89B69C2B068FC378DAA952BA7F163C4A11628F55A4DF523B3EF SWAP1 PUSH2 0x26D0 SWAP1 DUP6 DUP2 MSTORE PUSH1 0x20 ADD SWAP1 JUMP JUMPDEST PUSH1 0x1 PUSH1 0x1 PUSH1 0xA0 SHL SUB DUP3 AND PUSH0 SWAP1 DUP2 MSTORE PUSH1 0xB PUSH1 0x20 MSTORE PUSH1 0x40 SWAP1 KECCAK256 SLOAD PUSH2 0x3FD4 SWAP1 DUP3 SWAP1 PUSH2 0x4C10 JUMP JUMPDEST PUSH1 0x35 DUP1 SLOAD PUSH1 0xFF NOT AND PUSH1 0x1 OR SWAP1 SSTORE DUP1 ISZERO DUP1 PUSH2 0x4065 JUMPI POP PUSH1 0x22 SLOAD DUP2 GT JUMPDEST PUSH2 0x446A JUMPI PUSH1 0x1C SLOAD PUSH1 0x1B SLOAD PUSH1 0x1E SLOAD PUSH0 DUP2 PUSH2 0x407E DUP5 DUP7 PUSH2 0x4C10 JUMP JUMPDEST PUSH2 0x4088 SWAP2 SWAP1 PUSH2 0x4C10 JUMP JUMPDEST PUSH1 0x40 MLOAD PUSH4 0x70A08231 PUSH1 0xE0 SHL DUP2 MSTORE PUSH32 0x0 PUSH1 0x1 PUSH1 0x1 PUSH1 0xA0 SHL SUB DUP2 DUP2 AND PUSH1 0x4 DUP5 ADD MSTORE SWAP3 SWAP4 POP PUSH32 0x0 SWAP3 DUP4 SWAP3 PUSH0 SWAP2 DUP5 AND SWAP1 PUSH4 0x70A08231 SWAP1 PUSH1 0x24 ADD PUSH1 0x20 PUSH1 0x40 MLOAD DUP1 DUP4 SUB DUP2 DUP7 GAS STATICCALL ISZERO DUP1 ISZERO PUSH2 0x4116 JUMPI RETURNDATASIZE PUSH0 DUP1 RETURNDATACOPY RETURNDATASIZE PUSH0 REVERT JUMPDEST POP POP POP POP PUSH1 0x40 MLOAD RETURNDATASIZE PUSH1 0x1F NOT PUSH1 0x1F DUP3 ADD AND DUP3 ADD DUP1 PUSH1 0x40 MSTORE POP DUP2 ADD SWAP1 PUSH2 0x413A SWAP2 SWAP1 PUSH2 0x4A44 JUMP JUMPDEST PUSH1 0x40 DUP1 MLOAD PUSH1 0x2 DUP1 DUP3 MSTORE PUSH1 0x60 DUP3 ADD DUP4 MSTORE SWAP3 SWAP4 POP PUSH0 SWAP3 SWAP1 SWAP2 PUSH1 0x20 DUP4 ADD SWAP1 DUP1 CALLDATASIZE DUP4 CALLDATACOPY ADD SWAP1 POP POP SWAP1 POP ADDRESS DUP2 PUSH0 DUP2 MLOAD DUP2 LT PUSH2 0x4172 JUMPI PUSH2 0x4172 PUSH2 0x4A82 JUMP JUMPDEST PUSH1 0x20 MUL PUSH1 0x20 ADD ADD SWAP1 PUSH1 0x1 PUSH1 0x1 PUSH1 0xA0 SHL SUB AND SWAP1 DUP2 PUSH1 0x1 PUSH1 0x1 PUSH1 0xA0 SHL SUB AND DUP2 MSTORE POP POP DUP5 DUP2 PUSH1 0x1 DUP2 MLOAD DUP2 LT PUSH2 0x41A6 JUMPI PUSH2 0x41A6 PUSH2 0x4A82 JUMP JUMPDEST PUSH1 0x1 PUSH1 0x1 PUSH1 0xA0 SHL SUB SWAP3 DUP4 AND PUSH1 0x20 SWAP2 DUP3 MUL SWAP3 SWAP1 SWAP3 ADD ADD MSTORE PUSH1 0x23 SLOAD PUSH1 0x40 MLOAD PUSH4 0x5C11D795 PUSH1 0xE0 SHL DUP2 MSTORE PUSH32 0x0 SWAP1 SWAP3 AND SWAP2 PUSH4 0x5C11D795 SWAP2 PUSH2 0x420C SWAP2 DUP15 SWAP2 SWAP1 DUP7 SWAP1 DUP10 SWAP1 TIMESTAMP SWAP1 PUSH1 0x4 ADD PUSH2 0x4CD6 JUMP JUMPDEST PUSH0 PUSH1 0x40 MLOAD DUP1 DUP4 SUB DUP2 PUSH0 DUP8 DUP1 EXTCODESIZE ISZERO DUP1 ISZERO PUSH2 0x4223 JUMPI PUSH0 DUP1 REVERT JUMPDEST POP GAS CALL ISZERO DUP1 ISZERO PUSH2 0x4235 JUMPI RETURNDATASIZE PUSH0 DUP1 RETURNDATACOPY RETURNDATASIZE PUSH0 REVERT JUMPDEST POP POP PUSH1 0x40 MLOAD PUSH4 0x70A08231 PUSH1 0xE0 SHL DUP2 MSTORE PUSH1 0x1 PUSH1 0x1 PUSH1 0xA0 SHL SUB DUP7 DUP2 AND PUSH1 0x4 DUP4 ADD MSTORE DUP6 SWAP4 POP DUP8 AND SWAP2 POP PUSH4 0x70A08231 SWAP1 PUSH1 0x24 ADD PUSH1 0x20 PUSH1 0x40 MLOAD DUP1 DUP4 SUB DUP2 DUP7 GAS STATICCALL ISZERO DUP1 ISZERO PUSH2 0x427F JUMPI RETURNDATASIZE PUSH0 DUP1 RETURNDATACOPY RETURNDATASIZE PUSH0 REVERT JUMPDEST POP POP POP POP PUSH1 0x40 MLOAD RETURNDATASIZE PUSH1 0x1F NOT PUSH1 0x1F DUP3 ADD AND DUP3 ADD DUP1 PUSH1 0x40 MSTORE POP DUP2 ADD SWAP1 PUSH2 0x42A3 SWAP2 SWAP1 PUSH2 0x4A44 JUMP JUMPDEST PUSH2 0x42AD SWAP2 SWAP1 PUSH2 0x4A6F JUMP JUMPDEST SWAP2 POP PUSH0 PUSH2 0x42BE DUP8 PUSH2 0x134A DUP6 DUP14 PUSH2 0x27BD JUMP JUMPDEST SWAP1 POP PUSH0 PUSH2 0x42CF DUP9 PUSH2 0x134A DUP7 DUP14 PUSH2 0x27BD JUMP JUMPDEST PUSH1 0x40 MLOAD PUSH4 0x23B872DD PUSH1 0xE0 SHL DUP2 MSTORE PUSH1 0x1 PUSH1 0x1 PUSH1 0xA0 SHL SUB DUP8 DUP2 AND PUSH1 0x4 DUP4 ADD MSTORE ADDRESS PUSH1 0x24 DUP4 ADD MSTORE PUSH1 0x44 DUP3 ADD DUP8 SWAP1 MSTORE SWAP2 SWAP3 POP SWAP1 DUP8 AND SWAP1 PUSH4 0x23B872DD SWAP1 PUSH1 0x64 ADD PUSH1 0x20 PUSH1 0x40 MLOAD DUP1 DUP4 SUB DUP2 PUSH0 DUP8 GAS CALL ISZERO DUP1 ISZERO PUSH2 0x4325 JUMPI RETURNDATASIZE PUSH0 DUP1 RETURNDATACOPY RETURNDATASIZE PUSH0 REVERT JUMPDEST POP POP POP POP PUSH1 0x40 MLOAD RETURNDATASIZE PUSH1 0x1F NOT PUSH1 0x1F DUP3 ADD AND DUP3 ADD DUP1 PUSH1 0x40 MSTORE POP DUP2 ADD SWAP1 PUSH2 0x4349 SWAP2 SWAP1 PUSH2 0x4A29 JUMP JUMPDEST POP DUP2 ISZERO PUSH2 0x43C6 JUMPI PUSH1 0x1A SLOAD PUSH1 0x40 MLOAD PUSH4 0xA9059CBB PUSH1 0xE0 SHL DUP2 MSTORE PUSH1 0x1 PUSH1 0x1 PUSH1 0xA0 SHL SUB SWAP2 DUP3 AND PUSH1 0x4 DUP3 ADD MSTORE PUSH1 0x24 DUP2 ADD DUP5 SWAP1 MSTORE SWAP1 DUP8 AND SWAP1 PUSH4 0xA9059CBB SWAP1 PUSH1 0x44 ADD PUSH1 0x20 PUSH1 0x40 MLOAD DUP1 DUP4 SUB DUP2 PUSH0 DUP8 GAS CALL ISZERO DUP1 ISZERO PUSH2 0x43A0 JUMPI RETURNDATASIZE PUSH0 DUP1 RETURNDATACOPY RETURNDATASIZE PUSH0 REVERT JUMPDEST POP POP POP POP PUSH1 0x40 MLOAD RETURNDATASIZE PUSH1 0x1F NOT PUSH1 0x1F DUP3 ADD AND DUP3 ADD DUP1 PUSH1 0x40 MSTORE POP DUP2 ADD SWAP1 PUSH2 0x43C4 SWAP2 SWAP1 PUSH2 0x4A29 JUMP JUMPDEST POP JUMPDEST DUP1 ISZERO PUSH2 0x445E JUMPI PUSH1 0x40 MLOAD PUSH4 0xA9059CBB PUSH1 0xE0 SHL DUP2 MSTORE PUSH1 0x1 PUSH1 0x1 PUSH1 0xA0 SHL SUB PUSH32 0x0 DUP2 AND PUSH1 0x4 DUP4 ADD MSTORE PUSH1 0x24 DUP3 ADD DUP4 SWAP1 MSTORE DUP8 AND SWAP1 PUSH4 0xA9059CBB SWAP1 PUSH1 0x44 ADD PUSH1 0x20 PUSH1 0x40 MLOAD DUP1 DUP4 SUB DUP2 PUSH0 DUP8 GAS CALL ISZERO DUP1 ISZERO PUSH2 0x4438 JUMPI RETURNDATASIZE PUSH0 DUP1 RETURNDATACOPY RETURNDATASIZE PUSH0 REVERT JUMPDEST POP POP POP POP PUSH1 0x40 MLOAD RETURNDATASIZE PUSH1 0x1F NOT PUSH1 0x1F DUP3 ADD AND DUP3 ADD DUP1 PUSH1 0x40 MSTORE POP DUP2 ADD SWAP1 PUSH2 0x445C SWAP2 SWAP1 PUSH2 0x4A29 JUMP JUMPDEST POP JUMPDEST POP POP POP POP POP POP POP POP POP POP POP JUMPDEST POP PUSH1 0x35 DUP1 SLOAD PUSH1 0xFF NOT AND SWAP1 SSTORE JUMP JUMPDEST PUSH0 PUSH2 0x140A PUSH3 0x15180 PUSH2 0x134A DUP5 DUP7 PUSH2 0x4A6F JUMP JUMPDEST PUSH0 PUSH2 0x4494 DUP4 DUP4 PUSH2 0x2070 JUMP JUMPDEST SWAP1 POP DUP3 PUSH0 JUMPDEST PUSH1 0xA DUP2 LT ISZERO PUSH2 0x45CA JUMPI PUSH0 DUP4 DUP3 PUSH1 0xA DUP2 LT PUSH2 0x44B5 JUMPI PUSH2 0x44B5 PUSH2 0x4A82 JUMP JUMPDEST PUSH1 0x20 MUL ADD MLOAD GT ISZERO PUSH2 0x45C2 JUMPI PUSH1 0x1 PUSH1 0x1 PUSH1 0xA0 SHL SUB DUP1 DUP4 AND PUSH0 SWAP1 DUP2 MSTORE PUSH1 0x10 PUSH1 0x20 MSTORE PUSH1 0x40 DUP2 KECCAK256 PUSH1 0x3 ADD SLOAD SWAP1 SWAP2 AND SWAP1 JUMPDEST DUP3 DUP2 LT ISZERO PUSH2 0x4521 JUMPI PUSH1 0x1 PUSH1 0x1 PUSH1 0xA0 SHL SUB DUP3 AND ISZERO PUSH2 0x4519 JUMPI PUSH1 0x1 PUSH1 0x1 PUSH1 0xA0 SHL SUB SWAP2 DUP3 AND PUSH0 SWAP1 DUP2 MSTORE PUSH1 0x10 PUSH1 0x20 MSTORE PUSH1 0x40 SWAP1 KECCAK256 PUSH1 0x3 ADD SLOAD SWAP1 SWAP2 AND SWAP1 JUMPDEST PUSH1 0x1 ADD PUSH2 0x44E1 JUMP JUMPDEST POP PUSH1 0x1 PUSH1 0x1 PUSH1 0xA0 SHL SUB DUP2 AND PUSH0 SWAP1 DUP2 MSTORE PUSH1 0x19 PUSH1 0x20 MSTORE PUSH1 0x40 SWAP1 KECCAK256 SLOAD PUSH1 0xFF AND DUP1 PUSH2 0x455F JUMPI POP PUSH1 0x1 PUSH1 0x1 PUSH1 0xA0 SHL SUB DUP2 AND PUSH0 SWAP1 DUP2 MSTORE PUSH1 0x11 PUSH1 0x20 MSTORE PUSH1 0x40 SWAP1 KECCAK256 SLOAD PUSH1 0xFF AND JUMPDEST ISZERO PUSH2 0x456A JUMPI POP PUSH2 0x45C2 JUMP JUMPDEST PUSH1 0x1 PUSH1 0x1 PUSH1 0xA0 SHL SUB DUP2 AND ISZERO DUP1 ISZERO SWAP1 PUSH2 0x459B JUMPI POP PUSH1 0x1 PUSH1 0x1 PUSH1 0xA0 SHL SUB DUP2 AND PUSH0 SWAP1 DUP2 MSTORE PUSH1 0x10 PUSH1 0x20 MSTORE PUSH1 0x40 SWAP1 KECCAK256 PUSH1 0x2 ADD SLOAD ISZERO ISZERO JUMPDEST ISZERO PUSH2 0x45C0 JUMPI PUSH2 0x45C0 DUP2 DUP6 DUP5 PUSH1 0xA DUP2 LT PUSH2 0x45B6 JUMPI PUSH2 0x45B6 PUSH2 0x4A82 JUMP JUMPDEST PUSH1 0x20 MUL ADD MLOAD PUSH2 0x45D1 JUMP JUMPDEST POP JUMPDEST PUSH1 0x1 ADD PUSH2 0x4499 JUMP JUMPDEST POP POP POP POP POP JUMP JUMPDEST PUSH32 0x0 PUSH1 0x1 PUSH1 0x1 PUSH1 0xA0 SHL SUB DUP2 AND PUSH0 SWAP1 DUP2 MSTORE PUSH1 0xB PUSH1 0x20 MSTORE PUSH1 0x40 SWAP1 KECCAK256 SLOAD PUSH2 0x4615 SWAP1 DUP4 SWAP1 PUSH2 0x4A6F JUMP JUMPDEST PUSH1 0x1 PUSH1 0x1 PUSH1 0xA0 SHL SUB DUP1 DUP4 AND PUSH0 SWAP1 DUP2 MSTORE PUSH1 0xB PUSH1 0x20 MSTORE PUSH1 0x40 DUP1 DUP3 KECCAK256 SWAP4 SWAP1 SWAP4 SSTORE SWAP1 DUP6 AND DUP2 MSTORE KECCAK256 SLOAD PUSH2 0x4644 SWAP1 DUP4 SWAP1 PUSH2 0x4C10 JUMP JUMPDEST PUSH1 0x1 PUSH1 0x1 PUSH1 0xA0 SHL SUB DUP1 DUP6 AND PUSH0 DUP2 DUP2 MSTORE PUSH1 0xB PUSH1 0x20 MSTORE PUSH1 0x40 SWAP1 DUP2 SWAP1 KECCAK256 SWAP4 SWAP1 SWAP4 SSTORE SWAP2 MLOAD SWAP1 DUP4 AND SWAP1 PUSH32 0xDDF252AD1BE2C89B69C2B068FC378DAA952BA7F163C4A11628F55A4DF523B3EF SWAP1 PUSH2 0x26D0 SWAP1 DUP7 DUP2 MSTORE PUSH1 0x20 ADD SWAP1 JUMP JUMPDEST PUSH1 0x40 MLOAD DUP1 PUSH2 0x140 ADD PUSH1 0x40 MSTORE DUP1 PUSH1 0xA SWAP1 PUSH1 0x20 DUP3 MUL DUP1 CALLDATASIZE DUP4 CALLDATACOPY POP SWAP2 SWAP3 SWAP2 POP POP JUMP JUMPDEST PUSH1 0x20 DUP2 MSTORE PUSH0 DUP3 MLOAD DUP1 PUSH1 0x20 DUP5 ADD MSTORE DUP1 PUSH1 0x20 DUP6 ADD PUSH1 0x40 DUP6 ADD MCOPY PUSH0 PUSH1 0x40 DUP3 DUP6 ADD ADD MSTORE PUSH1 0x40 PUSH1 0x1F NOT PUSH1 0x1F DUP4 ADD AND DUP5 ADD ADD SWAP2 POP POP SWAP3 SWAP2 POP POP JUMP JUMPDEST DUP1 CALLDATALOAD PUSH1 0x1 PUSH1 0x1 PUSH1 0xA0 SHL SUB DUP2 AND DUP2 EQ PUSH2 0x4701 JUMPI PUSH0 DUP1 REVERT JUMPDEST SWAP2 SWAP1 POP JUMP JUMPDEST PUSH0 DUP1 PUSH1 0x40 DUP4 DUP6 SUB SLT ISZERO PUSH2 0x4717 JUMPI PUSH0 DUP1 REVERT JUMPDEST PUSH2 0x4720 DUP4 PUSH2 0x46EB JUMP JUMPDEST SWAP5 PUSH1 0x20 SWAP4 SWAP1 SWAP4 ADD CALLDATALOAD SWAP4 POP POP POP JUMP JUMPDEST DUP1 ISZERO ISZERO DUP2 EQ PUSH2 0x1D21 JUMPI PUSH0 DUP1 REVERT JUMPDEST PUSH0 DUP1 PUSH1 0x40 DUP4 DUP6 SUB SLT ISZERO PUSH2 0x474C JUMPI PUSH0 DUP1 REVERT JUMPDEST PUSH2 0x4755 DUP4 PUSH2 0x46EB JUMP JUMPDEST SWAP2 POP PUSH1 0x20 DUP4 ADD CALLDATALOAD PUSH2 0x4765 DUP2 PUSH2 0x472E JUMP JUMPDEST DUP1 SWAP2 POP POP SWAP3 POP SWAP3 SWAP1 POP JUMP JUMPDEST PUSH0 PUSH1 0x20 DUP3 DUP5 SUB SLT ISZERO PUSH2 0x4780 JUMPI PUSH0 DUP1 REVERT JUMPDEST PUSH2 0x140A DUP3 PUSH2 0x46EB JUMP JUMPDEST PUSH0 DUP1 PUSH0 PUSH1 0x60 DUP5 DUP7 SUB SLT ISZERO PUSH2 0x479B JUMPI PUSH0 DUP1 REVERT JUMPDEST PUSH2 0x47A4 DUP5 PUSH2 0x46EB JUMP JUMPDEST SWAP3 POP PUSH2 0x47B2 PUSH1 0x20 DUP6 ADD PUSH2 0x46EB JUMP JUMPDEST SWAP3 SWAP6 SWAP3 SWAP5 POP POP POP PUSH1 0x40 SWAP2 SWAP1 SWAP2 ADD CALLDATALOAD SWAP1 JUMP JUMPDEST PUSH4 0x4E487B71 PUSH1 0xE0 SHL PUSH0 MSTORE PUSH1 0x41 PUSH1 0x4 MSTORE PUSH1 0x24 PUSH0 REVERT JUMPDEST PUSH0 DUP3 PUSH1 0x1F DUP4 ADD SLT PUSH2 0x47E6 JUMPI PUSH0 DUP1 REVERT JUMPDEST DUP2 CALLDATALOAD PUSH8 0xFFFFFFFFFFFFFFFF DUP2 GT ISZERO PUSH2 0x4800 JUMPI PUSH2 0x4800 PUSH2 0x47C3 JUMP JUMPDEST DUP1 PUSH1 0x5 SHL PUSH1 0x40 MLOAD PUSH1 0x1F NOT PUSH1 0x3F DUP4 ADD AND DUP2 ADD DUP2 DUP2 LT PUSH8 0xFFFFFFFFFFFFFFFF DUP3 GT OR ISZERO PUSH2 0x482D JUMPI PUSH2 0x482D PUSH2 0x47C3 JUMP JUMPDEST PUSH1 0x40 MSTORE SWAP2 DUP3 MSTORE PUSH1 0x20 DUP2 DUP6 ADD DUP2 ADD SWAP3 SWAP1 DUP2 ADD DUP7 DUP5 GT ISZERO PUSH2 0x484A JUMPI PUSH0 DUP1 REVERT JUMPDEST PUSH1 0x20 DUP7 ADD SWAP3 POP JUMPDEST DUP4 DUP4 LT ISZERO PUSH2 0x4870 JUMPI PUSH2 0x4862 DUP4 PUSH2 0x46EB JUMP JUMPDEST DUP2 MSTORE PUSH1 0x20 SWAP3 DUP4 ADD SWAP3 ADD PUSH2 0x4851 JUMP JUMPDEST POP SWAP6 SWAP5 POP POP POP POP POP JUMP JUMPDEST PUSH0 PUSH1 0x20 DUP3 DUP5 SUB SLT ISZERO PUSH2 0x488A JUMPI PUSH0 DUP1 REVERT JUMPDEST DUP2 CALLDATALOAD PUSH8 0xFFFFFFFFFFFFFFFF DUP2 GT ISZERO PUSH2 0x48A0 JUMPI PUSH0 DUP1 REVERT JUMPDEST PUSH2 0x3251 DUP5 DUP3 DUP6 ADD PUSH2 0x47D7 JUMP JUMPDEST PUSH0 DUP1 PUSH1 0x40 DUP4 DUP6 SUB SLT ISZERO PUSH2 0x48BD JUMPI PUSH0 DUP1 REVERT JUMPDEST POP POP DUP1 CALLDATALOAD SWAP3 PUSH1 0x20 SWAP1 SWAP2 ADD CALLDATALOAD SWAP2 POP JUMP JUMPDEST PUSH0 DUP1 PUSH0 PUSH1 0x60 DUP5 DUP7 SUB SLT ISZERO PUSH2 0x48DE JUMPI PUSH0 DUP1 REVERT JUMPDEST DUP4 CALLDATALOAD SWAP3 POP PUSH1 0x20 DUP5 ADD CALLDATALOAD SWAP2 POP PUSH1 0x40 DUP5 ADD CALLDATALOAD PUSH2 0x48F7 DUP2 PUSH2 0x472E JUMP JUMPDEST DUP1 SWAP2 POP POP SWAP3 POP SWAP3 POP SWAP3 JUMP JUMPDEST PUSH0 PUSH1 0x20 DUP3 DUP5 SUB SLT ISZERO PUSH2 0x4912 JUMPI PUSH0 DUP1 REVERT JUMPDEST POP CALLDATALOAD SWAP2 SWAP1 POP JUMP JUMPDEST PUSH0 DUP1 PUSH1 0x40 DUP4 DUP6 SUB SLT ISZERO PUSH2 0x492A JUMPI PUSH0 DUP1 REVERT JUMPDEST PUSH2 0x4933 DUP4 PUSH2 0x46EB JUMP JUMPDEST SWAP2 POP PUSH2 0x4941 PUSH1 0x20 DUP5 ADD PUSH2 0x46EB JUMP JUMPDEST SWAP1 POP SWAP3 POP SWAP3 SWAP1 POP JUMP JUMPDEST PUSH0 DUP1 PUSH1 0x40 DUP4 DUP6 SUB SLT ISZERO PUSH2 0x495B JUMPI PUSH0 DUP1 REVERT JUMPDEST DUP3 CALLDATALOAD PUSH8 0xFFFFFFFFFFFFFFFF DUP2 GT ISZERO PUSH2 0x4971 JUMPI PUSH0 DUP1 REVERT JUMPDEST PUSH2 0x497D DUP6 DUP3 DUP7 ADD PUSH2 0x47D7 JUMP JUMPDEST SWAP3 POP POP PUSH1 0x20 DUP4 ADD CALLDATALOAD PUSH2 0x4765 DUP2 PUSH2 0x472E JUMP JUMPDEST PUSH2 0x140 DUP2 ADD DUP2 DUP4 PUSH0 JUMPDEST PUSH1 0xA DUP2 LT ISZERO PUSH2 0x49B6 JUMPI DUP2 MLOAD DUP4 MSTORE PUSH1 0x20 SWAP3 DUP4 ADD SWAP3 SWAP1 SWAP2 ADD SWAP1 PUSH1 0x1 ADD PUSH2 0x4997 JUMP JUMPDEST POP POP POP SWAP3 SWAP2 POP POP JUMP JUMPDEST PUSH1 0x1 DUP2 DUP2 SHR SWAP1 DUP3 AND DUP1 PUSH2 0x49D3 JUMPI PUSH1 0x7F DUP3 AND SWAP2 POP JUMPDEST PUSH1 0x20 DUP3 LT DUP2 SUB PUSH2 0x3277 JUMPI PUSH4 0x4E487B71 PUSH1 0xE0 SHL PUSH0 MSTORE PUSH1 0x22 PUSH1 0x4 MSTORE PUSH1 0x24 PUSH0 REVERT JUMPDEST PUSH1 0x20 DUP1 DUP3 MSTORE PUSH1 0x2 SWAP1 DUP3 ADD MSTORE PUSH2 0x216F PUSH1 0xF0 SHL PUSH1 0x40 DUP3 ADD MSTORE PUSH1 0x60 ADD SWAP1 JUMP JUMPDEST PUSH1 0x20 DUP1 DUP3 MSTORE PUSH1 0x2 SWAP1 DUP3 ADD MSTORE PUSH2 0x6E77 PUSH1 0xF0 SHL PUSH1 0x40 DUP3 ADD MSTORE PUSH1 0x60 ADD SWAP1 JUMP JUMPDEST PUSH0 PUSH1 0x20 DUP3 DUP5 SUB SLT ISZERO PUSH2 0x4A39 JUMPI PUSH0 DUP1 REVERT JUMPDEST DUP2 MLOAD PUSH2 0x140A DUP2 PUSH2 0x472E JUMP JUMPDEST PUSH0 PUSH1 0x20 DUP3 DUP5 SUB SLT ISZERO PUSH2 0x4A54 JUMPI PUSH0 DUP1 REVERT JUMPDEST POP MLOAD SWAP2 SWAP1 POP JUMP JUMPDEST PUSH4 0x4E487B71 PUSH1 0xE0 SHL PUSH0 MSTORE PUSH1 0x11 PUSH1 0x4 MSTORE PUSH1 0x24 PUSH0 REVERT JUMPDEST DUP2 DUP2 SUB DUP2 DUP2 GT ISZERO PUSH2 0x10D8 JUMPI PUSH2 0x10D8 PUSH2 0x4A5B JUMP JUMPDEST PUSH4 0x4E487B71 PUSH1 0xE0 SHL PUSH0 MSTORE PUSH1 0x32 PUSH1 0x4 MSTORE PUSH1 0x24 PUSH0 REVERT JUMPDEST PUSH1 0x20 DUP1 DUP3 MSTORE PUSH1 0x1 SWAP1 DUP3 ADD MSTORE PUSH1 0x15 PUSH1 0xFA SHL PUSH1 0x40 DUP3 ADD MSTORE PUSH1 0x60 ADD SWAP1 JUMP JUMPDEST DUP1 MLOAD PUSH1 0x1 PUSH1 0x1 PUSH1 0x70 SHL SUB DUP2 AND DUP2 EQ PUSH2 0x4701 JUMPI PUSH0 DUP1 REVERT JUMPDEST PUSH0 DUP1 PUSH0 PUSH1 0x60 DUP5 DUP7 SUB SLT ISZERO PUSH2 0x4AD9 JUMPI PUSH0 DUP1 REVERT JUMPDEST PUSH2 0x4AE2 DUP5 PUSH2 0x4AB1 JUMP JUMPDEST SWAP3 POP PUSH2 0x4AF0 PUSH1 0x20 DUP6 ADD PUSH2 0x4AB1 JUMP JUMPDEST SWAP2 POP PUSH1 0x40 DUP5 ADD MLOAD PUSH4 0xFFFFFFFF DUP2 AND DUP2 EQ PUSH2 0x48F7 JUMPI PUSH0 DUP1 REVERT JUMPDEST PUSH1 0x1 DUP2 JUMPDEST PUSH1 0x1 DUP5 GT ISZERO PUSH2 0x4B43 JUMPI DUP1 DUP6 DIV DUP2 GT ISZERO PUSH2 0x4B27 JUMPI PUSH2 0x4B27 PUSH2 0x4A5B JUMP JUMPDEST PUSH1 0x1 DUP5 AND ISZERO PUSH2 0x4B35 JUMPI SWAP1 DUP2 MUL SWAP1 JUMPDEST PUSH1 0x1 SWAP4 SWAP1 SWAP4 SHR SWAP3 DUP1 MUL PUSH2 0x4B0C JUMP JUMPDEST SWAP4 POP SWAP4 SWAP2 POP POP JUMP JUMPDEST PUSH0 DUP3 PUSH2 0x4B59 JUMPI POP PUSH1 0x1 PUSH2 0x10D8 JUMP JUMPDEST DUP2 PUSH2 0x4B65 JUMPI POP PUSH0 PUSH2 0x10D8 JUMP JUMPDEST DUP2 PUSH1 0x1 DUP2 EQ PUSH2 0x4B7B JUMPI PUSH1 0x2 DUP2 EQ PUSH2 0x4B85 JUMPI PUSH2 0x4BA1 JUMP JUMPDEST PUSH1 0x1 SWAP2 POP POP PUSH2 0x10D8 JUMP JUMPDEST PUSH1 0xFF DUP5 GT ISZERO PUSH2 0x4B96 JUMPI PUSH2 0x4B96 PUSH2 0x4A5B JUMP JUMPDEST POP POP PUSH1 0x1 DUP3 SHL PUSH2 0x10D8 JUMP JUMPDEST POP PUSH1 0x20 DUP4 LT PUSH2 0x133 DUP4 LT AND PUSH1 0x4E DUP5 LT PUSH1 0xB DUP5 LT AND OR ISZERO PUSH2 0x4BC4 JUMPI POP DUP2 DUP2 EXP PUSH2 0x10D8 JUMP JUMPDEST PUSH2 0x4BD0 PUSH0 NOT DUP5 DUP5 PUSH2 0x4B08 JUMP JUMPDEST DUP1 PUSH0 NOT DIV DUP3 GT ISZERO PUSH2 0x4BE3 JUMPI PUSH2 0x4BE3 PUSH2 0x4A5B JUMP JUMPDEST MUL SWAP4 SWAP3 POP POP POP JUMP JUMPDEST PUSH0 PUSH2 0x140A PUSH1 0xFF DUP5 AND DUP4 PUSH2 0x4B4B JUMP JUMPDEST DUP1 DUP3 MUL DUP2 ISZERO DUP3 DUP3 DIV DUP5 EQ OR PUSH2 0x10D8 JUMPI PUSH2 0x10D8 PUSH2 0x4A5B JUMP JUMPDEST DUP1 DUP3 ADD DUP1 DUP3 GT ISZERO PUSH2 0x10D8 JUMPI PUSH2 0x10D8 PUSH2 0x4A5B JUMP JUMPDEST PUSH4 0x4E487B71 PUSH1 0xE0 SHL PUSH0 MSTORE PUSH1 0x12 PUSH1 0x4 MSTORE PUSH1 0x24 PUSH0 REVERT JUMPDEST PUSH0 DUP3 PUSH2 0x4C45 JUMPI PUSH2 0x4C45 PUSH2 0x4C23 JUMP JUMPDEST POP DIV SWAP1 JUMP JUMPDEST PUSH1 0xFF DUP3 DUP2 AND DUP3 DUP3 AND SUB SWAP1 DUP2 GT ISZERO PUSH2 0x10D8 JUMPI PUSH2 0x10D8 PUSH2 0x4A5B JUMP JUMPDEST PUSH0 DUP3 PUSH2 0x4C71 JUMPI PUSH2 0x4C71 PUSH2 0x4C23 JUMP JUMPDEST POP MOD SWAP1 JUMP JUMPDEST PUSH1 0x20 DUP1 DUP3 MSTORE PUSH1 0x28 SWAP1 DUP3 ADD MSTORE PUSH32 0x4D75737420776169742032206D696E75746573206265747765656E207472616E PUSH1 0x40 DUP3 ADD MSTORE PUSH8 0x73616374696F6E73 PUSH1 0xC0 SHL PUSH1 0x60 DUP3 ADD MSTORE PUSH1 0x80 ADD SWAP1 JUMP JUMPDEST PUSH0 PUSH1 0x1 DUP3 ADD PUSH2 0x4CCF JUMPI PUSH2 0x4CCF PUSH2 0x4A5B JUMP JUMPDEST POP PUSH1 0x1 ADD SWAP1 JUMP JUMPDEST PUSH0 PUSH1 0xA0 DUP3 ADD DUP8 DUP4 MSTORE DUP7 PUSH1 0x20 DUP5 ADD MSTORE PUSH1 0xA0 PUSH1 0x40 DUP5 ADD MSTORE DUP1 DUP7 MLOAD DUP1 DUP4 MSTORE PUSH1 0xC0 DUP6 ADD SWAP2 POP PUSH1 0x20 DUP9 ADD SWAP3 POP PUSH0 JUMPDEST DUP2 DUP2 LT ISZERO PUSH2 0x4D26 JUMPI DUP4 MLOAD PUSH1 0x1 PUSH1 0x1 PUSH1 0xA0 SHL SUB AND DUP4 MSTORE PUSH1 0x20 SWAP4 DUP5 ADD SWAP4 SWAP1 SWAP3 ADD SWAP2 PUSH1 0x1 ADD PUSH2 0x4CFF JUMP JUMPDEST POP POP PUSH1 0x1 PUSH1 0x1 PUSH1 0xA0 SHL SUB SWAP6 SWAP1 SWAP6 AND PUSH1 0x60 DUP5 ADD MSTORE POP POP PUSH1 0x80 ADD MSTORE SWAP4 SWAP3 POP POP POP JUMP INVALID LOG2 PUSH5 0x6970667358 0x22 SLT KECCAK256 PUSH28 0x3FD3D1D6786A7A3F9140B5F1418E3AD989C37A7F0ADA15873ED67CDC 0xFB DUP10 0xD8 PUSH5 0x736F6C6343 STOP ADDMOD BYTE STOP CALLER PUSH1 0xA0 PUSH1 0x40 MSTORE CALLVALUE DUP1 ISZERO PUSH2 0xF JUMPI PUSH0 DUP1 REVERT JUMPDEST POP PUSH1 0x40 MLOAD PUSH2 0x3C3 CODESIZE SUB DUP1 PUSH2 0x3C3 DUP4 CODECOPY DUP2 ADD PUSH1 0x40 DUP2 SWAP1 MSTORE PUSH2 0x2E SWAP2 PUSH2 0x138 JUMP JUMPDEST CALLER PUSH1 0x80 DUP2 SWAP1 MSTORE PUSH1 0x40 MLOAD PUSH4 0x95EA7B3 PUSH1 0xE0 SHL DUP2 MSTORE PUSH1 0x4 DUP2 ADD SWAP2 SWAP1 SWAP2 MSTORE PUSH0 NOT PUSH1 0x24 DUP3 ADD MSTORE PUSH1 0x1 PUSH1 0x1 PUSH1 0xA0 SHL SUB DUP4 AND SWAP1 PUSH4 0x95EA7B3 SWAP1 PUSH1 0x44 ADD PUSH1 0x20 PUSH1 0x40 MLOAD DUP1 DUP4 SUB DUP2 PUSH0 DUP8 GAS CALL ISZERO DUP1 ISZERO PUSH2 0x80 JUMPI RETURNDATASIZE PUSH0 DUP1 RETURNDATACOPY RETURNDATASIZE PUSH0 REVERT JUMPDEST POP POP POP POP PUSH1 0x40 MLOAD RETURNDATASIZE PUSH1 0x1F NOT PUSH1 0x1F DUP3 ADD AND DUP3 ADD DUP1 PUSH1 0x40 MSTORE POP DUP2 ADD SWAP1 PUSH2 0xA4 SWAP2 SWAP1 PUSH2 0x169 JUMP JUMPDEST POP PUSH1 0x40 MLOAD PUSH4 0x95EA7B3 PUSH1 0xE0 SHL DUP2 MSTORE PUSH1 0x1 PUSH1 0x1 PUSH1 0xA0 SHL SUB DUP3 DUP2 AND PUSH1 0x4 DUP4 ADD MSTORE PUSH0 NOT PUSH1 0x24 DUP4 ADD MSTORE DUP4 AND SWAP1 PUSH4 0x95EA7B3 SWAP1 PUSH1 0x44 ADD PUSH1 0x20 PUSH1 0x40 MLOAD DUP1 DUP4 SUB DUP2 PUSH0 DUP8 GAS CALL ISZERO DUP1 ISZERO PUSH2 0xF1 JUMPI RETURNDATASIZE PUSH0 DUP1 RETURNDATACOPY RETURNDATASIZE PUSH0 REVERT JUMPDEST POP POP POP POP PUSH1 0x40 MLOAD RETURNDATASIZE PUSH1 0x1F NOT PUSH1 0x1F DUP3 ADD AND DUP3 ADD DUP1 PUSH1 0x40 MSTORE POP DUP2 ADD SWAP1 PUSH2 0x115 SWAP2 SWAP1 PUSH2 0x169 JUMP JUMPDEST POP POP POP PUSH2 0x18F JUMP JUMPDEST DUP1 MLOAD PUSH1 0x1 PUSH1 0x1 PUSH1 0xA0 SHL SUB DUP2 AND DUP2 EQ PUSH2 0x133 JUMPI PUSH0 DUP1 REVERT JUMPDEST SWAP2 SWAP1 POP JUMP JUMPDEST PUSH0 DUP1 PUSH1 0x40 DUP4 DUP6 SUB SLT ISZERO PUSH2 0x149 JUMPI PUSH0 DUP1 REVERT JUMPDEST PUSH2 0x152 DUP4 PUSH2 0x11D JUMP JUMPDEST SWAP2 POP PUSH2 0x160 PUSH1 0x20 DUP5 ADD PUSH2 0x11D JUMP JUMPDEST SWAP1 POP SWAP3 POP SWAP3 SWAP1 POP JUMP JUMPDEST PUSH0 PUSH1 0x20 DUP3 DUP5 SUB SLT ISZERO PUSH2 0x179 JUMPI PUSH0 DUP1 REVERT JUMPDEST DUP2 MLOAD DUP1 ISZERO ISZERO DUP2 EQ PUSH2 0x188 JUMPI PUSH0 DUP1 REVERT JUMPDEST SWAP4 SWAP3 POP POP POP JUMP JUMPDEST PUSH1 0x80 MLOAD PUSH2 0x217 PUSH2 0x1AC PUSH0 CODECOPY PUSH0 DUP2 DUP2 PUSH1 0x52 ADD MSTORE PUSH1 0x9B ADD MSTORE PUSH2 0x217 PUSH0 RETURN INVALID PUSH1 0x80 PUSH1 0x40 MSTORE CALLVALUE DUP1 ISZERO PUSH2 0xF JUMPI PUSH0 DUP1 REVERT JUMPDEST POP PUSH1 0x4 CALLDATASIZE LT PUSH2 0x34 JUMPI PUSH0 CALLDATALOAD PUSH1 0xE0 SHR DUP1 PUSH4 0x125BFB66 EQ PUSH2 0x38 JUMPI DUP1 PUSH4 0xB2BDFA7B EQ PUSH2 0x4D JUMPI JUMPDEST PUSH0 DUP1 REVERT JUMPDEST PUSH2 0x4B PUSH2 0x46 CALLDATASIZE PUSH1 0x4 PUSH2 0x182 JUMP JUMPDEST PUSH2 0x90 JUMP JUMPDEST STOP JUMPDEST PUSH2 0x74 PUSH32 0x0 DUP2 JUMP JUMPDEST PUSH1 0x40 MLOAD PUSH1 0x1 PUSH1 0x1 PUSH1 0xA0 SHL SUB SWAP1 SWAP2 AND DUP2 MSTORE PUSH1 0x20 ADD PUSH1 0x40 MLOAD DUP1 SWAP2 SUB SWAP1 RETURN JUMPDEST CALLER PUSH1 0x1 PUSH1 0x1 PUSH1 0xA0 SHL SUB PUSH32 0x0 AND EQ PUSH2 0xF1 JUMPI PUSH1 0x40 MLOAD PUSH3 0x461BCD PUSH1 0xE5 SHL DUP2 MSTORE PUSH1 0x20 PUSH1 0x4 DUP3 ADD MSTORE PUSH1 0x2 PUSH1 0x24 DUP3 ADD MSTORE PUSH2 0x216F PUSH1 0xF0 SHL PUSH1 0x44 DUP3 ADD MSTORE PUSH1 0x64 ADD PUSH1 0x40 MLOAD DUP1 SWAP2 SUB SWAP1 REVERT JUMPDEST PUSH1 0x40 MLOAD PUSH4 0xA9059CBB PUSH1 0xE0 SHL DUP2 MSTORE PUSH1 0x1 PUSH1 0x1 PUSH1 0xA0 SHL SUB DUP4 DUP2 AND PUSH1 0x4 DUP4 ADD MSTORE PUSH1 0x24 DUP3 ADD DUP4 SWAP1 MSTORE DUP5 AND SWAP1 PUSH4 0xA9059CBB SWAP1 PUSH1 0x44 ADD PUSH1 0x20 PUSH1 0x40 MLOAD DUP1 DUP4 SUB DUP2 PUSH0 DUP8 GAS CALL ISZERO DUP1 ISZERO PUSH2 0x13D JUMPI RETURNDATASIZE PUSH0 DUP1 RETURNDATACOPY RETURNDATASIZE PUSH0 REVERT JUMPDEST POP POP POP POP PUSH1 0x40 MLOAD RETURNDATASIZE PUSH1 0x1F NOT PUSH1 0x1F DUP3 ADD AND DUP3 ADD DUP1 PUSH1 0x40 MSTORE POP DUP2 ADD SWAP1 PUSH2 0x161 SWAP2 SWAP1 PUSH2 0x1BB JUMP JUMPDEST POP POP POP POP JUMP JUMPDEST DUP1 CALLDATALOAD PUSH1 0x1 PUSH1 0x1 PUSH1 0xA0 SHL SUB DUP2 AND DUP2 EQ PUSH2 0x17D JUMPI PUSH0 DUP1 REVERT JUMPDEST SWAP2 SWAP1 POP JUMP JUMPDEST PUSH0 DUP1 PUSH0 PUSH1 0x60 DUP5 DUP7 SUB SLT ISZERO PUSH2 0x194 JUMPI PUSH0 DUP1 REVERT JUMPDEST PUSH2 0x19D DUP5 PUSH2 0x167 JUMP JUMPDEST SWAP3 POP PUSH2 0x1AB PUSH1 0x20 DUP6 ADD PUSH2 0x167 JUMP JUMPDEST SWAP2 POP PUSH1 0x40 DUP5 ADD CALLDATALOAD SWAP1 POP SWAP3 POP SWAP3 POP SWAP3 JUMP JUMPDEST PUSH0 PUSH1 0x20 DUP3 DUP5 SUB SLT ISZERO PUSH2 0x1CB JUMPI PUSH0 DUP1 REVERT JUMPDEST DUP2 MLOAD DUP1 ISZERO ISZERO DUP2 EQ PUSH2 0x1DA JUMPI PUSH0 DUP1 REVERT JUMPDEST SWAP4 SWAP3 POP POP POP JUMP INVALID LOG2 PUSH5 0x6970667358 0x22 SLT KECCAK256 0xCB 0xAB LOG2 LT 0xE5 PUSH12 0x2F0938180AC639FFFE270497 0xFB 0xED PUSH22 0x1C33F1BC35C8278A38840F64736F6C634300081A0033 0xDD CALLCODE MSTORE 0xAD SHL 0xE2 0xC8 SWAP12 PUSH10 0xC2B068FC378DAA952BA7 CALL PUSH4 0xC4A11628 CREATE2 GAS 0x4D CREATE2 0x23 0xB3 0xEF "
		},
		"gasEstimates": {
			"creation": {
				"codeDepositCost": "3967200",
				"executionCost": "infinite",
				"totalCost": "infinite"
			},
			"external": {
				"CIRCULATION()": "274",
				"MAX_TRANSFER_LIMIT()": "361",
				"RESERVED_FOR_MINING()": "333",
				"TOTAL_SUPPLY()": "318",
				"_balances(address)": "2617",
				"_binders(address,uint256)": "4847",
				"_buyDevFee()": "2417",
				"_buyFundFee()": "2351",
				"_directDownlines(address)": "2682",
				"_excludeRewards(address)": "2618",
				"_iterations()": "2372",
				"_lastLPRewardTimes(address)": "2662",
				"_lastMaybeLPAddress()": "2448",
				"_lastMaybeLPAmount()": "2394",
				"_mainPair()": "infinite",
				"_maxSwapAmount()": "2416",
				"_maybeInvitor(address,address)": "infinite",
				"_perIterate()": "2438",
				"_preLPList(address)": "2639",
				"_removeLPFee()": "2373",
				"_rewardGas()": "2372",
				"_sellDestroyFee()": "2374",
				"_sellReservePoolFee()": "2396",
				"_slippage()": "2415",
				"_startTradeTime()": "2353",
				"_swapPairList(address)": "2684",
				"_swapRouter()": "infinite",
				"_tokenDistributor()": "infinite",
				"_usdt()": "infinite",
				"allowance(address,address)": "infinite",
				"approve(address,uint256)": "24638",
				"balanceOf(address)": "2703",
				"batchSetFeeWhiteList(address[],bool)": "infinite",
				"batchSetUserInfo(address[])": "infinite",
				"calculateRewards(address,uint256)": "infinite",
				"checkWhiteList(address)": "2680",
				"claimBalance(uint256)": "infinite",
				"claimToken(address,uint256)": "infinite",
				"currentLPIndex()": "2395",
				"decimals()": "infinite",
				"devAddress()": "infinite",
				"excludeLpProvider(address)": "2641",
				"findRoot(address)": "infinite",
				"fundAddress()": "2403",
				"getBinderLength(address)": "2658",
				"getLPProviderLength()": "2369",
				"getUserInfo(address)": "infinite",
				"getUserLiquidityContribution(address)": "infinite",
				"lastLpBurnTime()": "2439",
				"lastSwapTime(address)": "2574",
				"lpBurnEnabled()": "2466",
				"lpBurnFrequency()": "2418",
				"lpHoldCondition()": "2394",
				"lpProviderIndex(address)": "2660",
				"lpProviders(uint256)": "4700",
				"lpRewardTimeDebt()": "2416",
				"name()": "infinite",
				"owner()": "2442",
				"percentForLPBurn()": "2374",
				"progressLPBlock()": "2374",
				"receiveAddress()": "infinite",
				"renounceOwnership()": "30317",
				"setAutoLPBurnSettings(uint256,uint256,bool)": "73262",
				"setBuyFee(uint256,uint256)": "46870",
				"setExcludeLPProvider(address,bool)": "26995",
				"setExcludeReward(address,bool)": "33471",
				"setFeeWhiteList(address,bool)": "26971",
				"setFundAddress(address)": "133207",
				"setLPHoldCondition(uint256)": "24551",
				"setLPRewardTimeDebt(uint256)": "24572",
				"setPerIterate(uint256)": "28961",
				"setRemoveLPFee(uint256)": "24698",
				"setRewardGas(uint256)": "29040",
				"setSellFee(uint256,uint256)": "46784",
				"setSlippage(uint256)": "24575",
				"setSwapPairList(address,bool)": "31289",
				"startAddLPBlock()": "2395",
				"startTrade()": "48702",
				"startTradeBlock()": "2418",
				"symbol()": "infinite",
				"today()": "368",
				"tokenPrice()": "infinite",
				"totalSupply()": "infinite",
				"transfer(address,uint256)": "infinite",
				"transferFrom(address,address,uint256)": "infinite",
				"transferOwnership(address)": "30505",
				"updateLPAmount(address,uint256)": "31321"
			}
		},
		"methodIdentifiers": {
			"CIRCULATION()": "88d59741",
			"MAX_TRANSFER_LIMIT()": "69ffd402",
			"RESERVED_FOR_MINING()": "f059078c",
			"TOTAL_SUPPLY()": "902d55a5",
			"_balances(address)": "6ebcf607",
			"_binders(address,uint256)": "5c25c30e",
			"_buyDevFee()": "62015852",
			"_buyFundFee()": "ce0192f9",
			"_directDownlines(address)": "e7cc6c23",
			"_excludeRewards(address)": "d1bea17c",
			"_iterations()": "b8cacc2f",
			"_lastLPRewardTimes(address)": "5b231155",
			"_lastMaybeLPAddress()": "37791bfc",
			"_lastMaybeLPAmount()": "bc756d4b",
			"_mainPair()": "4188bf5a",
			"_maxSwapAmount()": "e06bd4a5",
			"_maybeInvitor(address,address)": "adc0df8f",
			"_perIterate()": "e2ba13f1",
			"_preLPList(address)": "e918dfde",
			"_removeLPFee()": "5ef01957",
			"_rewardGas()": "e84fb12d",
			"_sellDestroyFee()": "297ac6de",
			"_sellReservePoolFee()": "53b7aa1d",
			"_slippage()": "f54da1e2",
			"_startTradeTime()": "027edfd3",
			"_swapPairList(address)": "3c11100d",
			"_swapRouter()": "206c17bb",
			"_tokenDistributor()": "8718b24f",
			"_usdt()": "be3601f8",
			"allowance(address,address)": "dd62ed3e",
			"approve(address,uint256)": "095ea7b3",
			"balanceOf(address)": "70a08231",
			"batchSetFeeWhiteList(address[],bool)": "b2887bec",
			"batchSetUserInfo(address[])": "2f783b4f",
			"calculateRewards(address,uint256)": "beb8314c",
			"checkWhiteList(address)": "9cce37c6",
			"claimBalance(uint256)": "e9fad396",
			"claimToken(address,uint256)": "1698755f",
			"currentLPIndex()": "61b746f2",
			"decimals()": "313ce567",
			"devAddress()": "3ad10ef6",
			"excludeLpProvider(address)": "2b01fc94",
			"findRoot(address)": "dc8046e4",
			"fundAddress()": "e82bef29",
			"getBinderLength(address)": "1b967ad4",
			"getLPProviderLength()": "74d002f1",
			"getUserInfo(address)": "6386c1c7",
			"getUserLiquidityContribution(address)": "1b85fecd",
			"lastLpBurnTime()": "a4c82a00",
			"lastSwapTime(address)": "4ece7c06",
			"lpBurnEnabled()": "2e82f1a0",
			"lpBurnFrequency()": "2c3e486c",
			"lpHoldCondition()": "79353c08",
			"lpProviderIndex(address)": "ef34db69",
			"lpProviders(uint256)": "de5c02c2",
			"lpRewardTimeDebt()": "7a70873a",
			"name()": "06fdde03",
			"owner()": "8da5cb5b",
			"percentForLPBurn()": "199ffc72",
			"progressLPBlock()": "51b0d102",
			"receiveAddress()": "fffe42e9",
			"renounceOwnership()": "715018a6",
			"setAutoLPBurnSettings(uint256,uint256,bool)": "730c1888",
			"setBuyFee(uint256,uint256)": "fb0ecfa4",
			"setExcludeLPProvider(address,bool)": "141ae566",
			"setExcludeReward(address,bool)": "da39d16a",
			"setFeeWhiteList(address,bool)": "d83d4143",
			"setFundAddress(address)": "85dc3004",
			"setLPHoldCondition(uint256)": "97dad339",
			"setLPRewardTimeDebt(uint256)": "df076bbe",
			"setPerIterate(uint256)": "aad9e9e2",
			"setRemoveLPFee(uint256)": "cd8d263d",
			"setRewardGas(uint256)": "917ceeb5",
			"setSellFee(uint256,uint256)": "6ac9a870",
			"setSlippage(uint256)": "f0fa55a9",
			"setSwapPairList(address,bool)": "a8424861",
			"startAddLPBlock()": "9bb85344",
			"startTrade()": "6c580801",
			"startTradeBlock()": "553193ca",
			"symbol()": "95d89b41",
			"today()": "b74e452b",
			"tokenPrice()": "7ff9b596",
			"totalSupply()": "18160ddd",
			"transfer(address,uint256)": "a9059cbb",
			"transferFrom(address,address,uint256)": "23b872dd",
			"transferOwnership(address)": "f2fde38b",
			"updateLPAmount(address,uint256)": "a5696d89"
		}
	},
	"abi": [
		{
			"inputs": [],
			"stateMutability": "nonpayable",
			"type": "constructor"
		},
		{
			"anonymous": false,
			"inputs": [
				{
					"indexed": true,
					"internalType": "address",
					"name": "owne2r",
					"type": "address"
				},
				{
					"indexed": true,
					"internalType": "address",
					"name": "spender",
					"type": "address"
				},
				{
					"indexed": false,
					"internalType": "uint256",
					"name": "value",
					"type": "uint256"
				}
			],
			"name": "Approval",
			"type": "event"
		},
		{
			"anonymous": false,
			"inputs": [],
			"name": "AutoNukeLP",
			"type": "event"
		},
		{
			"anonymous": false,
			"inputs": [
				{
					"indexed": true,
					"internalType": "address",
					"name": "previousOwner",
					"type": "address"
				},
				{
					"indexed": true,
					"internalType": "address",
					"name": "newOwner",
					"type": "address"
				}
			],
			"name": "OwnershipTransferred",
			"type": "event"
		},
		{
			"anonymous": false,
			"inputs": [
				{
					"indexed": true,
					"internalType": "address",
					"name": "from",
					"type": "address"
				},
				{
					"indexed": true,
					"internalType": "address",
					"name": "to",
					"type": "address"
				},
				{
					"indexed": false,
					"internalType": "uint256",
					"name": "value",
					"type": "uint256"
				}
			],
			"name": "Transfer",
			"type": "event"
		},
		{
			"inputs": [],
			"name": "CIRCULATION",
			"outputs": [
				{
					"internalType": "uint256",
					"name": "",
					"type": "uint256"
				}
			],
			"stateMutability": "view",
			"type": "function"
		},
		{
			"inputs": [],
			"name": "MAX_TRANSFER_LIMIT",
			"outputs": [
				{
					"internalType": "uint256",
					"name": "",
					"type": "uint256"
				}
			],
			"stateMutability": "view",
			"type": "function"
		},
		{
			"inputs": [],
			"name": "RESERVED_FOR_MINING",
			"outputs": [
				{
					"internalType": "uint256",
					"name": "",
					"type": "uint256"
				}
			],
			"stateMutability": "view",
			"type": "function"
		},
		{
			"inputs": [],
			"name": "TOTAL_SUPPLY",
			"outputs": [
				{
					"internalType": "uint256",
					"name": "",
					"type": "uint256"
				}
			],
			"stateMutability": "view",
			"type": "function"
		},
		{
			"inputs": [
				{
					"internalType": "address",
					"name": "",
					"type": "address"
				}
			],
			"name": "_balances",
			"outputs": [
				{
					"internalType": "uint256",
					"name": "",
					"type": "uint256"
				}
			],
			"stateMutability": "view",
			"type": "function"
		},
		{
			"inputs": [
				{
					"internalType": "address",
					"name": "",
					"type": "address"
				},
				{
					"internalType": "uint256",
					"name": "",
					"type": "uint256"
				}
			],
			"name": "_binders",
			"outputs": [
				{
					"internalType": "address",
					"name": "",
					"type": "address"
				}
			],
			"stateMutability": "view",
			"type": "function"
		},
		{
			"inputs": [],
			"name": "_buyDevFee",
			"outputs": [
				{
					"internalType": "uint256",
					"name": "",
					"type": "uint256"
				}
			],
			"stateMutability": "view",
			"type": "function"
		},
		{
			"inputs": [],
			"name": "_buyFundFee",
			"outputs": [
				{
					"internalType": "uint256",
					"name": "",
					"type": "uint256"
				}
			],
			"stateMutability": "view",
			"type": "function"
		},
		{
			"inputs": [
				{
					"internalType": "address",
					"name": "",
					"type": "address"
				}
			],
			"name": "_directDownlines",
			"outputs": [
				{
					"internalType": "uint256",
					"name": "",
					"type": "uint256"
				}
			],
			"stateMutability": "view",
			"type": "function"
		},
		{
			"inputs": [
				{
					"internalType": "address",
					"name": "",
					"type": "address"
				}
			],
			"name": "_excludeRewards",
			"outputs": [
				{
					"internalType": "bool",
					"name": "",
					"type": "bool"
				}
			],
			"stateMutability": "view",
			"type": "function"
		},
		{
			"inputs": [],
			"name": "_iterations",
			"outputs": [
				{
					"internalType": "uint256",
					"name": "",
					"type": "uint256"
				}
			],
			"stateMutability": "view",
			"type": "function"
		},
		{
			"inputs": [
				{
					"internalType": "address",
					"name": "",
					"type": "address"
				}
			],
			"name": "_lastLPRewardTimes",
			"outputs": [
				{
					"internalType": "uint256",
					"name": "",
					"type": "uint256"
				}
			],
			"stateMutability": "view",
			"type": "function"
		},
		{
			"inputs": [],
			"name": "_lastMaybeLPAddress",
			"outputs": [
				{
					"internalType": "address",
					"name": "",
					"type": "address"
				}
			],
			"stateMutability": "view",
			"type": "function"
		},
		{
			"inputs": [],
			"name": "_lastMaybeLPAmount",
			"outputs": [
				{
					"internalType": "uint256",
					"name": "",
					"type": "uint256"
				}
			],
			"stateMutability": "view",
			"type": "function"
		},
		{
			"inputs": [],
			"name": "_mainPair",
			"outputs": [
				{
					"internalType": "address",
					"name": "",
					"type": "address"
				}
			],
			"stateMutability": "view",
			"type": "function"
		},
		{
			"inputs": [],
			"name": "_maxSwapAmount",
			"outputs": [
				{
					"internalType": "uint256",
					"name": "",
					"type": "uint256"
				}
			],
			"stateMutability": "view",
			"type": "function"
		},
		{
			"inputs": [
				{
					"internalType": "address",
					"name": "",
					"type": "address"
				},
				{
					"internalType": "address",
					"name": "",
					"type": "address"
				}
			],
			"name": "_maybeInvitor",
			"outputs": [
				{
					"internalType": "bool",
					"name": "",
					"type": "bool"
				}
			],
			"stateMutability": "view",
			"type": "function"
		},
		{
			"inputs": [],
			"name": "_perIterate",
			"outputs": [
				{
					"internalType": "uint256",
					"name": "",
					"type": "uint256"
				}
			],
			"stateMutability": "view",
			"type": "function"
		},
		{
			"inputs": [
				{
					"internalType": "address",
					"name": "",
					"type": "address"
				}
			],
			"name": "_preLPList",
			"outputs": [
				{
					"internalType": "bool",
					"name": "",
					"type": "bool"
				}
			],
			"stateMutability": "view",
			"type": "function"
		},
		{
			"inputs": [],
			"name": "_removeLPFee",
			"outputs": [
				{
					"internalType": "uint256",
					"name": "",
					"type": "uint256"
				}
			],
			"stateMutability": "view",
			"type": "function"
		},
		{
			"inputs": [],
			"name": "_rewardGas",
			"outputs": [
				{
					"internalType": "uint256",
					"name": "",
					"type": "uint256"
				}
			],
			"stateMutability": "view",
			"type": "function"
		},
		{
			"inputs": [],
			"name": "_sellDestroyFee",
			"outputs": [
				{
					"internalType": "uint256",
					"name": "",
					"type": "uint256"
				}
			],
			"stateMutability": "view",
			"type": "function"
		},
		{
			"inputs": [],
			"name": "_sellReservePoolFee",
			"outputs": [
				{
					"internalType": "uint256",
					"name": "",
					"type": "uint256"
				}
			],
			"stateMutability": "view",
			"type": "function"
		},
		{
			"inputs": [],
			"name": "_slippage",
			"outputs": [
				{
					"internalType": "uint256",
					"name": "",
					"type": "uint256"
				}
			],
			"stateMutability": "view",
			"type": "function"
		},
		{
			"inputs": [],
			"name": "_startTradeTime",
			"outputs": [
				{
					"internalType": "uint256",
					"name": "",
					"type": "uint256"
				}
			],
			"stateMutability": "view",
			"type": "function"
		},
		{
			"inputs": [
				{
					"internalType": "address",
					"name": "",
					"type": "address"
				}
			],
			"name": "_swapPairList",
			"outputs": [
				{
					"internalType": "bool",
					"name": "",
					"type": "bool"
				}
			],
			"stateMutability": "view",
			"type": "function"
		},
		{
			"inputs": [],
			"name": "_swapRouter",
			"outputs": [
				{
					"internalType": "contract ISwapRouter",
					"name": "",
					"type": "address"
				}
			],
			"stateMutability": "view",
			"type": "function"
		},
		{
			"inputs": [],
			"name": "_tokenDistributor",
			"outputs": [
				{
					"internalType": "contract TokenDistributor",
					"name": "",
					"type": "address"
				}
			],
			"stateMutability": "view",
			"type": "function"
		},
		{
			"inputs": [],
			"name": "_usdt",
			"outputs": [
				{
					"internalType": "address",
					"name": "",
					"type": "address"
				}
			],
			"stateMutability": "view",
			"type": "function"
		},
		{
			"inputs": [
				{
					"internalType": "address",
					"name": "owner",
					"type": "address"
				},
				{
					"internalType": "address",
					"name": "spender",
					"type": "address"
				}
			],
			"name": "allowance",
			"outputs": [
				{
					"internalType": "uint256",
					"name": "",
					"type": "uint256"
				}
			],
			"stateMutability": "view",
			"type": "function"
		},
		{
			"inputs": [
				{
					"internalType": "address",
					"name": "spender",
					"type": "address"
				},
				{
					"internalType": "uint256",
					"name": "amount",
					"type": "uint256"
				}
			],
			"name": "approve",
			"outputs": [
				{
					"internalType": "bool",
					"name": "",
					"type": "bool"
				}
			],
			"stateMutability": "nonpayable",
			"type": "function"
		},
		{
			"inputs": [
				{
					"internalType": "address",
					"name": "account",
					"type": "address"
				}
			],
			"name": "balanceOf",
			"outputs": [
				{
					"internalType": "uint256",
					"name": "",
					"type": "uint256"
				}
			],
			"stateMutability": "view",
			"type": "function"
		},
		{
			"inputs": [
				{
					"internalType": "address[]",
					"name": "addr",
					"type": "address[]"
				},
				{
					"internalType": "bool",
					"name": "enable",
					"type": "bool"
				}
			],
			"name": "batchSetFeeWhiteList",
			"outputs": [],
			"stateMutability": "nonpayable",
			"type": "function"
		},
		{
			"inputs": [
				{
					"internalType": "address[]",
					"name": "addr",
					"type": "address[]"
				}
			],
			"name": "batchSetUserInfo",
			"outputs": [],
			"stateMutability": "nonpayable",
			"type": "function"
		},
		{
			"inputs": [
				{
					"internalType": "address",
					"name": "user",
					"type": "address"
				},
				{
					"internalType": "uint256",
					"name": "reward",
					"type": "uint256"
				}
			],
			"name": "calculateRewards",
			"outputs": [
				{
					"internalType": "uint256[10]",
					"name": "",
					"type": "uint256[10]"
				}
			],
			"stateMutability": "view",
			"type": "function"
		},
		{
			"inputs": [
				{
					"internalType": "address",
					"name": "account",
					"type": "address"
				}
			],
			"name": "checkWhiteList",
			"outputs": [
				{
					"internalType": "bool",
					"name": "",
					"type": "bool"
				}
			],
			"stateMutability": "view",
			"type": "function"
		},
		{
			"inputs": [
				{
					"internalType": "uint256",
					"name": "amount",
					"type": "uint256"
				}
			],
			"name": "claimBalance",
			"outputs": [],
			"stateMutability": "nonpayable",
			"type": "function"
		},
		{
			"inputs": [
				{
					"internalType": "address",
					"name": "token",
					"type": "address"
				},
				{
					"internalType": "uint256",
					"name": "amount",
					"type": "uint256"
				}
			],
			"name": "claimToken",
			"outputs": [],
			"stateMutability": "nonpayable",
			"type": "function"
		},
		{
			"inputs": [],
			"name": "currentLPIndex",
			"outputs": [
				{
					"internalType": "uint256",
					"name": "",
					"type": "uint256"
				}
			],
			"stateMutability": "view",
			"type": "function"
		},
		{
			"inputs": [],
			"name": "decimals",
			"outputs": [
				{
					"internalType": "uint8",
					"name": "",
					"type": "uint8"
				}
			],
			"stateMutability": "view",
			"type": "function"
		},
		{
			"inputs": [],
			"name": "devAddress",
			"outputs": [
				{
					"internalType": "address",
					"name": "",
					"type": "address"
				}
			],
			"stateMutability": "view",
			"type": "function"
		},
		{
			"inputs": [
				{
					"internalType": "address",
					"name": "",
					"type": "address"
				}
			],
			"name": "excludeLpProvider",
			"outputs": [
				{
					"internalType": "bool",
					"name": "",
					"type": "bool"
				}
			],
			"stateMutability": "view",
			"type": "function"
		},
		{
			"inputs": [
				{
					"internalType": "address",
					"name": "user",
					"type": "address"
				}
			],
			"name": "findRoot",
			"outputs": [
				{
					"internalType": "bool",
					"name": "",
					"type": "bool"
				}
			],
			"stateMutability": "view",
			"type": "function"
		},
		{
			"inputs": [],
			"name": "fundAddress",
			"outputs": [
				{
					"internalType": "address",
					"name": "",
					"type": "address"
				}
			],
			"stateMutability": "view",
			"type": "function"
		},
		{
			"inputs": [
				{
					"internalType": "address",
					"name": "account",
					"type": "address"
				}
			],
			"name": "getBinderLength",
			"outputs": [
				{
					"internalType": "uint256",
					"name": "",
					"type": "uint256"
				}
			],
			"stateMutability": "view",
			"type": "function"
		},
		{
			"inputs": [],
			"name": "getLPProviderLength",
			"outputs": [
				{
					"internalType": "uint256",
					"name": "",
					"type": "uint256"
				}
			],
			"stateMutability": "view",
			"type": "function"
		},
		{
			"inputs": [
				{
					"internalType": "address",
					"name": "account",
					"type": "address"
				}
			],
			"name": "getUserInfo",
			"outputs": [
				{
					"internalType": "uint256",
					"name": "lpAmount",
					"type": "uint256"
				},
				{
					"internalType": "uint256",
					"name": "lpBalance",
					"type": "uint256"
				},
				{
					"internalType": "bool",
					"name": "excludeLP",
					"type": "bool"
				},
				{
					"internalType": "uint256",
					"name": "buyAmount",
					"type": "uint256"
				},
				{
					"internalType": "uint256",
					"name": "lastRewardTime",
					"type": "uint256"
				},
				{
					"internalType": "address",
					"name": "inviter",
					"type": "address"
				},
				{
					"internalType": "uint256",
					"name": "dailyUsdtReward",
					"type": "uint256"
				}
			],
			"stateMutability": "view",
			"type": "function"
		},
		{
			"inputs": [
				{
					"internalType": "address",
					"name": "user",
					"type": "address"
				}
			],
			"name": "getUserLiquidityContribution",
			"outputs": [
				{
					"internalType": "uint256",
					"name": "userUsdtContribution",
					"type": "uint256"
				},
				{
					"internalType": "uint256",
					"name": "userNutContribution",
					"type": "uint256"
				}
			],
			"stateMutability": "view",
			"type": "function"
		},
		{
			"inputs": [],
			"name": "lastLpBurnTime",
			"outputs": [
				{
					"internalType": "uint256",
					"name": "",
					"type": "uint256"
				}
			],
			"stateMutability": "view",
			"type": "function"
		},
		{
			"inputs": [
				{
					"internalType": "address",
					"name": "",
					"type": "address"
				}
			],
			"name": "lastSwapTime",
			"outputs": [
				{
					"internalType": "uint256",
					"name": "",
					"type": "uint256"
				}
			],
			"stateMutability": "view",
			"type": "function"
		},
		{
			"inputs": [],
			"name": "lpBurnEnabled",
			"outputs": [
				{
					"internalType": "bool",
					"name": "",
					"type": "bool"
				}
			],
			"stateMutability": "view",
			"type": "function"
		},
		{
			"inputs": [],
			"name": "lpBurnFrequency",
			"outputs": [
				{
					"internalType": "uint256",
					"name": "",
					"type": "uint256"
				}
			],
			"stateMutability": "view",
			"type": "function"
		},
		{
			"inputs": [],
			"name": "lpHoldCondition",
			"outputs": [
				{
					"internalType": "uint256",
					"name": "",
					"type": "uint256"
				}
			],
			"stateMutability": "view",
			"type": "function"
		},
		{
			"inputs": [
				{
					"internalType": "address",
					"name": "",
					"type": "address"
				}
			],
			"name": "lpProviderIndex",
			"outputs": [
				{
					"internalType": "uint256",
					"name": "",
					"type": "uint256"
				}
			],
			"stateMutability": "view",
			"type": "function"
		},
		{
			"inputs": [
				{
					"internalType": "uint256",
					"name": "",
					"type": "uint256"
				}
			],
			"name": "lpProviders",
			"outputs": [
				{
					"internalType": "address",
					"name": "",
					"type": "address"
				}
			],
			"stateMutability": "view",
			"type": "function"
		},
		{
			"inputs": [],
			"name": "lpRewardTimeDebt",
			"outputs": [
				{
					"internalType": "uint256",
					"name": "",
					"type": "uint256"
				}
			],
			"stateMutability": "view",
			"type": "function"
		},
		{
			"inputs": [],
			"name": "name",
			"outputs": [
				{
					"internalType": "string",
					"name": "",
					"type": "string"
				}
			],
			"stateMutability": "view",
			"type": "function"
		},
		{
			"inputs": [],
			"name": "owner",
			"outputs": [
				{
					"internalType": "address",
					"name": "",
					"type": "address"
				}
			],
			"stateMutability": "view",
			"type": "function"
		},
		{
			"inputs": [],
			"name": "percentForLPBurn",
			"outputs": [
				{
					"internalType": "uint256",
					"name": "",
					"type": "uint256"
				}
			],
			"stateMutability": "view",
			"type": "function"
		},
		{
			"inputs": [],
			"name": "progressLPBlock",
			"outputs": [
				{
					"internalType": "uint256",
					"name": "",
					"type": "uint256"
				}
			],
			"stateMutability": "view",
			"type": "function"
		},
		{
			"inputs": [],
			"name": "receiveAddress",
			"outputs": [
				{
					"internalType": "address",
					"name": "",
					"type": "address"
				}
			],
			"stateMutability": "view",
			"type": "function"
		},
		{
			"inputs": [],
			"name": "renounceOwnership",
			"outputs": [],
			"stateMutability": "nonpayable",
			"type": "function"
		},
		{
			"inputs": [
				{
					"internalType": "uint256",
					"name": "_frequencyInSeconds",
					"type": "uint256"
				},
				{
					"internalType": "uint256",
					"name": "_percent",
					"type": "uint256"
				},
				{
					"internalType": "bool",
					"name": "_Enabled",
					"type": "bool"
				}
			],
			"name": "setAutoLPBurnSettings",
			"outputs": [],
			"stateMutability": "nonpayable",
			"type": "function"
		},
		{
			"inputs": [
				{
					"internalType": "uint256",
					"name": "buyDevFee",
					"type": "uint256"
				},
				{
					"internalType": "uint256",
					"name": "fundFee",
					"type": "uint256"
				}
			],
			"name": "setBuyFee",
			"outputs": [],
			"stateMutability": "nonpayable",
			"type": "function"
		},
		{
			"inputs": [
				{
					"internalType": "address",
					"name": "addr",
					"type": "address"
				},
				{
					"internalType": "bool",
					"name": "enable",
					"type": "bool"
				}
			],
			"name": "setExcludeLPProvider",
			"outputs": [],
			"stateMutability": "nonpayable",
			"type": "function"
		},
		{
			"inputs": [
				{
					"internalType": "address",
					"name": "account",
					"type": "address"
				},
				{
					"internalType": "bool",
					"name": "enable",
					"type": "bool"
				}
			],
			"name": "setExcludeReward",
			"outputs": [],
			"stateMutability": "nonpayable",
			"type": "function"
		},
		{
			"inputs": [
				{
					"internalType": "address",
					"name": "addr",
					"type": "address"
				},
				{
					"internalType": "bool",
					"name": "enable",
					"type": "bool"
				}
			],
			"name": "setFeeWhiteList",
			"outputs": [],
			"stateMutability": "nonpayable",
			"type": "function"
		},
		{
			"inputs": [
				{
					"internalType": "address",
					"name": "addr",
					"type": "address"
				}
			],
			"name": "setFundAddress",
			"outputs": [],
			"stateMutability": "nonpayable",
			"type": "function"
		},
		{
			"inputs": [
				{
					"internalType": "uint256",
					"name": "amount",
					"type": "uint256"
				}
			],
			"name": "setLPHoldCondition",
			"outputs": [],
			"stateMutability": "nonpayable",
			"type": "function"
		},
		{
			"inputs": [
				{
					"internalType": "uint256",
					"name": "timeDebt",
					"type": "uint256"
				}
			],
			"name": "setLPRewardTimeDebt",
			"outputs": [],
			"stateMutability": "nonpayable",
			"type": "function"
		},
		{
			"inputs": [
				{
					"internalType": "uint256",
					"name": "perIterate",
					"type": "uint256"
				}
			],
			"name": "setPerIterate",
			"outputs": [],
			"stateMutability": "nonpayable",
			"type": "function"
		},
		{
			"inputs": [
				{
					"internalType": "uint256",
					"name": "fee",
					"type": "uint256"
				}
			],
			"name": "setRemoveLPFee",
			"outputs": [],
			"stateMutability": "nonpayable",
			"type": "function"
		},
		{
			"inputs": [
				{
					"internalType": "uint256",
					"name": "rewardGas",
					"type": "uint256"
				}
			],
			"name": "setRewardGas",
			"outputs": [],
			"stateMutability": "nonpayable",
			"type": "function"
		},
		{
			"inputs": [
				{
					"internalType": "uint256",
					"name": "destroyFee",
					"type": "uint256"
				},
				{
					"internalType": "uint256",
					"name": "sellReservePoolFee",
					"type": "uint256"
				}
			],
			"name": "setSellFee",
			"outputs": [],
			"stateMutability": "nonpayable",
			"type": "function"
		},
		{
			"inputs": [
				{
					"internalType": "uint256",
					"name": "slippage",
					"type": "uint256"
				}
			],
			"name": "setSlippage",
			"outputs": [],
			"stateMutability": "nonpayable",
			"type": "function"
		},
		{
			"inputs": [
				{
					"internalType": "address",
					"name": "addr",
					"type": "address"
				},
				{
					"internalType": "bool",
					"name": "enable",
					"type": "bool"
				}
			],
			"name": "setSwapPairList",
			"outputs": [],
			"stateMutability": "nonpayable",
			"type": "function"
		},
		{
			"inputs": [],
			"name": "startAddLPBlock",
			"outputs": [
				{
					"internalType": "uint256",
					"name": "",
					"type": "uint256"
				}
			],
			"stateMutability": "view",
			"type": "function"
		},
		{
			"inputs": [],
			"name": "startTrade",
			"outputs": [],
			"stateMutability": "nonpayable",
			"type": "function"
		},
		{
			"inputs": [],
			"name": "startTradeBlock",
			"outputs": [
				{
					"internalType": "uint256",
					"name": "",
					"type": "uint256"
				}
			],
			"stateMutability": "view",
			"type": "function"
		},
		{
			"inputs": [],
			"name": "symbol",
			"outputs": [
				{
					"internalType": "string",
					"name": "",
					"type": "string"
				}
			],
			"stateMutability": "view",
			"type": "function"
		},
		{
			"inputs": [],
			"name": "today",
			"outputs": [
				{
					"internalType": "uint256",
					"name": "",
					"type": "uint256"
				}
			],
			"stateMutability": "view",
			"type": "function"
		},
		{
			"inputs": [],
			"name": "tokenPrice",
			"outputs": [
				{
					"internalType": "uint256",
					"name": "",
					"type": "uint256"
				}
			],
			"stateMutability": "view",
			"type": "function"
		},
		{
			"inputs": [],
			"name": "totalSupply",
			"outputs": [
				{
					"internalType": "uint256",
					"name": "",
					"type": "uint256"
				}
			],
			"stateMutability": "view",
			"type": "function"
		},
		{
			"inputs": [
				{
					"internalType": "address",
					"name": "recipient",
					"type": "address"
				},
				{
					"internalType": "uint256",
					"name": "amount",
					"type": "uint256"
				}
			],
			"name": "transfer",
			"outputs": [
				{
					"internalType": "bool",
					"name": "",
					"type": "bool"
				}
			],
			"stateMutability": "nonpayable",
			"type": "function"
		},
		{
			"inputs": [
				{
					"internalType": "address",
					"name": "sender",
					"type": "address"
				},
				{
					"internalType": "address",
					"name": "recipient",
					"type": "address"
				},
				{
					"internalType": "uint256",
					"name": "amount",
					"type": "uint256"
				}
			],
			"name": "transferFrom",
			"outputs": [
				{
					"internalType": "bool",
					"name": "",
					"type": "bool"
				}
			],
			"stateMutability": "nonpayable",
			"type": "function"
		},
		{
			"inputs": [
				{
					"internalType": "address",
					"name": "newOwner",
					"type": "address"
				}
			],
			"name": "transferOwnership",
			"outputs": [],
			"stateMutability": "nonpayable",
			"type": "function"
		},
		{
			"inputs": [
				{
					"internalType": "address",
					"name": "account",
					"type": "address"
				},
				{
					"internalType": "uint256",
					"name": "lpAmount",
					"type": "uint256"
				}
			],
			"name": "updateLPAmount",
			"outputs": [],
			"stateMutability": "nonpayable",
			"type": "function"
		},
		{
			"stateMutability": "payable",
			"type": "receive"
		}
	]
}