{
	"data": {
		"bytecode": {
			"linkReferences": {},
			"object": "610100604052604051806101400160405280600a60ff168152602001600860ff168152602001600660ff168152602001600460ff168152602001600260ff168152602001600a60ff168152602001600860ff168152602001600660ff168152602001600460ff168152602001600260ff16815250600190600a6100839291906110d2565b506032601d556096601e556064601f55606460205560c860215560146022555f6023556402540be4006024555f60255560196026555f60275f6101000a81548160ff021916908315150217905550610e106028556103e8602f55620f4240603055620697806031553480156100f6575f80fd5b5073d99d1c33f9fc3444f8101754abc46c52416550d173e96aaf0080157c2b5008ff0ddc5466b0c4f0d35e6040518060400160405280601381526020017f54657374696e674f6e4d61696e4e6574333732000000000000000000000000008152506040518060400160405280600781526020017f544f4d4e33373200000000000000000000000000000000000000000000000000815250600673777e2217a6e4438a6204e8e43b7648970e6417f973de2eccedb514c8c71aebbfb4507dd84f60a02f19736a92c5512b72f228627075764ba233537403c8ea5f339050805f806101000a81548173ffffffffffffffffffffffffffffffffffffffff021916908373ffffffffffffffffffffffffffffffffffffffff1602179055508073ffffffffffffffffffffffffffffffffffffffff165f73ffffffffffffffffffffffffffffffffffffffff167f8be0079c531659141344cd1fd0a4f28419497f9722a3daafe3b4186f6b6457e060405160405180910390a3505f73ffffffffffffffffffffffffffffffffffffffff168773ffffffffffffffffffffffffffffffffffffffff16036102da576040517f08c379a00000000000000000000000000000000000000000000000000000000081526004016102d190611199565b60405180910390fd5b5f73ffffffffffffffffffffffffffffffffffffffff168273ffffffffffffffffffffffffffffffffffffffff1603610348576040517f08c379a000000000000000000000000000000000000000000000000000000000815260040161033f90611201565b60405180910390fd5b5f73ffffffffffffffffffffffffffffffffffffffff168173ffffffffffffffffffffffffffffffffffffffff16036103b6576040517f08c379a00000000000000000000000000000000000000000000000000000000081526004016103ad90611269565b60405180910390fd5b5f73ffffffffffffffffffffffffffffffffffffffff168373ffffffffffffffffffffffffffffffffffffffff1603610424576040517f08c379a000000000000000000000000000000000000000000000000000000000815260040161041b906112d1565b60405180910390fd5b85603590816104339190611529565b5084603690816104439190611529565b508360375f6101000a81548160ff021916908360ff1602179055505f8890508073ffffffffffffffffffffffffffffffffffffffff1660808173ffffffffffffffffffffffffffffffffffffffff16815250505f19600c5f3073ffffffffffffffffffffffffffffffffffffffff1673ffffffffffffffffffffffffffffffffffffffff1681526020019081526020015f205f8373ffffffffffffffffffffffffffffffffffffffff1673ffffffffffffffffffffffffffffffffffffffff1681526020019081526020015f20819055505f8173ffffffffffffffffffffffffffffffffffffffff1663c45a01556040518163ffffffff1660e01b8152600401602060405180830381865afa15801561055e573d5f803e3d5ffd5b505050506040513d601f19601f820116820180604052508101906105829190611656565b90508873ffffffffffffffffffffffffffffffffffffffff1660c08173ffffffffffffffffffffffffffffffffffffffff168152505060c05173ffffffffffffffffffffffffffffffffffffffff1663095ea7b3835f196040518363ffffffff1660e01b81526004016105f692919061169f565b6020604051808303815f875af1158015610612573d5f803e3d5ffd5b505050506040513d601f19601f8201168201806040525081019061063691906116fb565b505f8173ffffffffffffffffffffffffffffffffffffffff1663c9c653963060c0516040518363ffffffff1660e01b8152600401610675929190611726565b6020604051808303815f875af1158015610691573d5f803e3d5ffd5b505050506040513d601f19601f820116820180604052508101906106b59190611656565b9050600160135f8373ffffffffffffffffffffffffffffffffffffffff1673ffffffffffffffffffffffffffffffffffffffff1681526020019081526020015f205f6101000a81548160ff0219169083151502179055508073ffffffffffffffffffffffffffffffffffffffff1660a08173ffffffffffffffffffffffffffffffffffffffff16815250505f87600a61074e91906118b5565b90505f816301406f4061076191906118ff565b90505f82621e848061077391906118ff565b90505f83621e84806301406f4061078a9190611940565b61079491906118ff565b90508260388190555081600b5f8c73ffffffffffffffffffffffffffffffffffffffff1673ffffffffffffffffffffffffffffffffffffffff1681526020019081526020015f20819055508973ffffffffffffffffffffffffffffffffffffffff165f73ffffffffffffffffffffffffffffffffffffffff167fddf252ad1be2c89b69c2b068fc378daa952ba7f163c4a11628f55a4df523b3ef8460405161083c9190611973565b60405180910390a388601b5f6101000a81548173ffffffffffffffffffffffffffffffffffffffff021916908373ffffffffffffffffffffffffffffffffffffffff16021790555087601c5f6101000a81548173ffffffffffffffffffffffffffffffffffffffff021916908373ffffffffffffffffffffffffffffffffffffffff16021790555089601a5f6101000a81548173ffffffffffffffffffffffffffffffffffffffff021916908373ffffffffffffffffffffffffffffffffffffffff16021790555060c0513060405161091490611117565b61091f929190611726565b604051809103905ff080158015610938573d5f803e3d5ffd5b5073ffffffffffffffffffffffffffffffffffffffff1660e08173ffffffffffffffffffffffffffffffffffffffff16815250505f60e051905081600b5f8373ffffffffffffffffffffffffffffffffffffffff1673ffffffffffffffffffffffffffffffffffffffff1681526020019081526020015f20819055508073ffffffffffffffffffffffffffffffffffffffff165f73ffffffffffffffffffffffffffffffffffffffff167fddf252ad1be2c89b69c2b068fc378daa952ba7f163c4a11628f55a4df523b3ef84604051610a119190611973565b60405180910390a36001600f5f8d73ffffffffffffffffffffffffffffffffffffffff1673ffffffffffffffffffffffffffffffffffffffff1681526020019081526020015f205f6101000a81548160ff0219169083151502179055506001600f5f8c73ffffffffffffffffffffffffffffffffffffffff1673ffffffffffffffffffffffffffffffffffffffff1681526020019081526020015f205f6101000a81548160ff0219169083151502179055506001600f5f3073ffffffffffffffffffffffffffffffffffffffff1673ffffffffffffffffffffffffffffffffffffffff1681526020019081526020015f205f6101000a81548160ff0219169083151502179055506001600f5f3373ffffffffffffffffffffffffffffffffffffffff1673ffffffffffffffffffffffffffffffffffffffff1681526020019081526020015f205f6101000a81548160ff0219169083151502179055506001600f5f8073ffffffffffffffffffffffffffffffffffffffff1673ffffffffffffffffffffffffffffffffffffffff1681526020019081526020015f205f6101000a81548160ff0219169083151502179055506001600f5f61dead73ffffffffffffffffffffffffffffffffffffffff1673ffffffffffffffffffffffffffffffffffffffff1681526020019081526020015f205f6101000a81548160ff0219169083151502179055506001600f5f8373ffffffffffffffffffffffffffffffffffffffff1673ffffffffffffffffffffffffffffffffffffffff1681526020019081526020015f205f6101000a81548160ff021916908315150217905550600160195f8073ffffffffffffffffffffffffffffffffffffffff1673ffffffffffffffffffffffffffffffffffffffff1681526020019081526020015f205f6101000a81548160ff021916908315150217905550600160195f61dead73ffffffffffffffffffffffffffffffffffffffff1673ffffffffffffffffffffffffffffffffffffffff1681526020019081526020015f205f6101000a81548160ff021916908315150217905550600160115f8073ffffffffffffffffffffffffffffffffffffffff1673ffffffffffffffffffffffffffffffffffffffff1681526020019081526020015f205f6101000a81548160ff021916908315150217905550600160115f61dead73ffffffffffffffffffffffffffffffffffffffff1673ffffffffffffffffffffffffffffffffffffffff1681526020019081526020015f205f6101000a81548160ff021916908315150217905550600160115f3073ffffffffffffffffffffffffffffffffffffffff1673ffffffffffffffffffffffffffffffffffffffff1681526020019081526020015f205f6101000a81548160ff021916908315150217905550600160115f8373ffffffffffffffffffffffffffffffffffffffff1673ffffffffffffffffffffffffffffffffffffffff1681526020019081526020015f205f6101000a81548160ff021916908315150217905550600160115f8873ffffffffffffffffffffffffffffffffffffffff1673ffffffffffffffffffffffffffffffffffffffff1681526020019081526020015f205f6101000a81548160ff021916908315150217905550600160115f8a73ffffffffffffffffffffffffffffffffffffffff1673ffffffffffffffffffffffffffffffffffffffff1681526020019081526020015f205f6101000a81548160ff021916908315150217905550610f298a610f4e60201b60201c565b6801a055690d9db80000602f81905550505050505050505050505050505050506119b9565b60185f8273ffffffffffffffffffffffffffffffffffffffff1673ffffffffffffffffffffffffffffffffffffffff1681526020019081526020015f20545f036110ce576034805490505f148061100c57508073ffffffffffffffffffffffffffffffffffffffff1660345f81548110610fcb57610fca61198c565b5b905f5260205f20015f9054906101000a900473ffffffffffffffffffffffffffffffffffffffff1673ffffffffffffffffffffffffffffffffffffffff1614155b156110cd575f813b90505f81111561102457506110cf565b60348054905060185f8473ffffffffffffffffffffffffffffffffffffffff1673ffffffffffffffffffffffffffffffffffffffff1681526020019081526020015f2081905550603482908060018154018082558091505060019003905f5260205f20015f9091909190916101000a81548173ffffffffffffffffffffffffffffffffffffffff021916908373ffffffffffffffffffffffffffffffffffffffff160217905550505b5b5b50565b82600a8101928215611106579160200282015b82811115611105578251829060ff169055916020019190600101906110e5565b5b5090506111139190611124565b5090565b6106b88061afb883390190565b5b8082111561113b575f815f905550600101611125565b5090565b5f82825260208201905092915050565b7f7573647420616464726573732063616e6e6f74206265207a65726f00000000005f82015250565b5f611183601b8361113f565b915061118e8261114f565b602082019050919050565b5f6020820190508181035f8301526111b081611177565b9050919050565b7f46756e64416464726573732063616e6e6f74206265207a65726f0000000000005f82015250565b5f6111eb601a8361113f565b91506111f6826111b7565b602082019050919050565b5f6020820190508181035f830152611218816111df565b9050919050565b7f446576416464726573732063616e6e6f74206265207a65726f000000000000005f82015250565b5f61125360198361113f565b915061125e8261121f565b602082019050919050565b5f6020820190508181035f83015261128081611247565b9050919050565b7f52656365697665416464726573732063616e6e6f74206265207a65726f0000005f82015250565b5f6112bb601d8361113f565b91506112c682611287565b602082019050919050565b5f6020820190508181035f8301526112e8816112af565b9050919050565b5f81519050919050565b7f4e487b71000000000000000000000000000000000000000000000000000000005f52604160045260245ffd5b7f4e487b71000000000000000000000000000000000000000000000000000000005f52602260045260245ffd5b5f600282049050600182168061136a57607f821691505b60208210810361137d5761137c611326565b5b50919050565b5f819050815f5260205f209050919050565b5f6020601f8301049050919050565b5f82821b905092915050565b5f600883026113df7fffffffffffffffffffffffffffffffffffffffffffffffffffffffffffffffff826113a4565b6113e986836113a4565b95508019841693508086168417925050509392505050565b5f819050919050565b5f819050919050565b5f61142d61142861142384611401565b61140a565b611401565b9050919050565b5f819050919050565b61144683611413565b61145a61145282611434565b8484546113b0565b825550505050565b5f90565b61146e611462565b61147981848461143d565b505050565b5b8181101561149c576114915f82611466565b60018101905061147f565b5050565b601f8211156114e1576114b281611383565b6114bb84611395565b810160208510156114ca578190505b6114de6114d685611395565b83018261147e565b50505b505050565b5f82821c905092915050565b5f6115015f19846008026114e6565b1980831691505092915050565b5f61151983836114f2565b9150826002028217905092915050565b611532826112ef565b67ffffffffffffffff81111561154b5761154a6112f9565b5b6115558254611353565b6115608282856114a0565b5f60209050601f831160018114611591575f841561157f578287015190505b611589858261150e565b8655506115f0565b601f19841661159f86611383565b5f5b828110156115c6578489015182556001820191506020850194506020810190506115a1565b868310156115e357848901516115df601f8916826114f2565b8355505b6001600288020188555050505b505050505050565b5f80fd5b5f73ffffffffffffffffffffffffffffffffffffffff82169050919050565b5f611625826115fc565b9050919050565b6116358161161b565b811461163f575f80fd5b50565b5f815190506116508161162c565b92915050565b5f6020828403121561166b5761166a6115f8565b5b5f61167884828501611642565b91505092915050565b61168a8161161b565b82525050565b61169981611401565b82525050565b5f6040820190506116b25f830185611681565b6116bf6020830184611690565b9392505050565b5f8115159050919050565b6116da816116c6565b81146116e4575f80fd5b50565b5f815190506116f5816116d1565b92915050565b5f602082840312156117105761170f6115f8565b5b5f61171d848285016116e7565b91505092915050565b5f6040820190506117395f830185611681565b6117466020830184611681565b9392505050565b7f4e487b71000000000000000000000000000000000000000000000000000000005f52601160045260245ffd5b5f8160011c9050919050565b5f808291508390505b60018511156117cf578086048111156117ab576117aa61174d565b5b60018516156117ba5780820291505b80810290506117c88561177a565b945061178f565b94509492505050565b5f826117e757600190506118a2565b816117f4575f90506118a2565b816001811461180a576002811461181457611843565b60019150506118a2565b60ff8411156118265761182561174d565b5b8360020a91508482111561183d5761183c61174d565b5b506118a2565b5060208310610133831016604e8410600b84101617156118785782820a9050838111156118735761187261174d565b5b6118a2565b6118858484846001611786565b9250905081840481111561189c5761189b61174d565b5b81810290505b9392505050565b5f60ff82169050919050565b5f6118bf82611401565b91506118ca836118a9565b92506118f77fffffffffffffffffffffffffffffffffffffffffffffffffffffffffffffffff84846117d8565b905092915050565b5f61190982611401565b915061191483611401565b925082820261192281611401565b915082820484148315176119395761193861174d565b5b5092915050565b5f61194a82611401565b915061195583611401565b925082820390508181111561196d5761196c61174d565b5b92915050565b5f6020820190506119865f830184611690565b92915050565b7f4e487b71000000000000000000000000000000000000000000000000000000005f52603260045260245ffd5b60805160a05160c05160e051619540611a785f395f8181612aca0152818161739a0152617b4f01525f8181612888015281816136df01528181614a1f0152818161614d01528181617352015261737601525f81816118c90152818161196b01528181611daf01528181611fb9015281816120ba015281816127b80152818161496c01528181614c850152818161525d0152818161553001528181616095015281816162050152616c3001525f8181611aba015261752201526195405ff3fe6080604052600436106104ef575f3560e01c806388d597411161028b578063ce0192f911610159578063e7cc6c23116100cb578063f059078c11610084578063f059078c14611453578063f0fa55a91461147d578063f2fde38b146114a5578063f54da1e2146114cd578063fb0ecfa4146114f7578063fffe42e91461151f576104f6565b8063e7cc6c2314611323578063e82bef291461135f578063e84fb12d14611389578063e918dfde146113b3578063e9fad396146113ef578063ef34db6914611417576104f6565b8063dc8046e41161011d578063dc8046e4146111f3578063dd62ed3e1461122f578063de5c02c21461126b578063df076bbe146112a7578063e06bd4a5146112cf578063e2ba13f1146112f9576104f6565b8063ce0192f914611101578063d1bea17c1461112b578063d47768de14611167578063d83d4143146111a3578063da39d16a146111cb576104f6565b8063a9059cbb116101fd578063bc756d4b116101b6578063bc756d4b14610ff9578063be3601f814611023578063beb8314c1461104d578063c343e9a814611089578063cd8d263d146110b1578063cdb6b98b146110d9576104f6565b8063a9059cbb14610edd578063aad9e9e214610f19578063adc0df8f14610f41578063b2887bec14610f7d578063b74e452b14610fa5578063b8cacc2f14610fcf576104f6565b806397dad3391161024f57806397dad33914610dd55780639bb8534414610dfd5780639cce37c614610e27578063a4c82a0014610e63578063a5696d8914610e8d578063a842486114610eb5576104f6565b806388d5974114610d055780638da5cb5b14610d2f578063902d55a514610d59578063917ceeb514610d8357806395d89b4114610dab576104f6565b806351b0d102116103c85780636c5808011161033a57806379353c08116102f357806379353c0814610c0d5780637a70873a14610c375780637ff9b59614610c6157806385dc300414610c8b5780638718b24f14610cb357806387c91f2a14610cdd576104f6565b80636c58080114610b175780636ebcf60714610b2d57806370a0823114610b69578063715018a614610ba5578063730c188814610bbb57806374d002f114610be3576104f6565b80635ef019571161038c5780635ef0195714610a0557806361b746f214610a2f5780636201585214610a595780636386c1c714610a8357806369ffd40214610ac55780636ac9a87014610aef576104f6565b806351b0d1021461090f57806353b7aa1d14610939578063553193ca146109635780635b2311551461098d5780635c25c30e146109c9576104f6565b8063297ac6de11610461578063313ce56711610425578063313ce567146107ef57806337791bfc146108195780633ad10ef6146108435780633c11100d1461086d5780634188bf5a146108a95780634ece7c06146108d3576104f6565b8063297ac6de1461070d5780632b01fc94146107375780632c3e486c146107735780632e82f1a01461079d5780632f783b4f146107c7576104f6565b806318160ddd116104b357806318160ddd146105da578063199ffc72146106045780631b85fecd1461062e5780631b967ad41461066b578063206c17bb146106a757806323b872dd146106d1576104f6565b8063027edfd3146104fa57806306fdde0314610524578063095ea7b31461054e578063141ae5661461058a5780631698755f146105b2576104f6565b366104f657005b5f80fd5b348015610505575f80fd5b5061050e611549565b60405161051b9190617d29565b60405180910390f35b34801561052f575f80fd5b5061053861154f565b6040516105459190617db2565b60405180910390f35b348015610559575f80fd5b50610574600480360381019061056f9190617e67565b6115df565b6040516105819190617ebf565b60405180910390f35b348015610595575f80fd5b506105b060048036038101906105ab9190617f02565b6115f5565b005b3480156105bd575f80fd5b506105d860048036038101906105d39190617e67565b6116da565b005b3480156105e5575f80fd5b506105ee6118b5565b6040516105fb9190617d29565b60405180910390f35b34801561060f575f80fd5b506106186118be565b6040516106259190617d29565b60405180910390f35b348015610639575f80fd5b50610654600480360381019061064f9190617f40565b6118c4565b604051610662929190617f6b565b60405180910390f35b348015610676575f80fd5b50610691600480360381019061068c9190617f40565b611a6f565b60405161069e9190617d29565b60405180910390f35b3480156106b2575f80fd5b506106bb611ab8565b6040516106c89190617fed565b60405180910390f35b3480156106dc575f80fd5b506106f760048036038101906106f29190618006565b611adc565b6040516107049190617ebf565b60405180910390f35b348015610718575f80fd5b50610721611c78565b60405161072e9190617d29565b60405180910390f35b348015610742575f80fd5b5061075d60048036038101906107589190617f40565b611c7e565b60405161076a9190617ebf565b60405180910390f35b34801561077e575f80fd5b50610787611c9b565b6040516107949190617d29565b60405180910390f35b3480156107a8575f80fd5b506107b1611ca1565b6040516107be9190617ebf565b60405180910390f35b3480156107d2575f80fd5b506107ed60048036038101906107e89190618196565b611cb3565b005b3480156107fa575f80fd5b50610803611f3b565b60405161081091906181f8565b60405180910390f35b348015610824575f80fd5b5061082d611f50565b60405161083a9190618220565b60405180910390f35b34801561084e575f80fd5b50610857611f75565b6040516108649190618220565b60405180910390f35b348015610878575f80fd5b50610893600480360381019061088e9190617f40565b611f9a565b6040516108a09190617ebf565b60405180910390f35b3480156108b4575f80fd5b506108bd611fb7565b6040516108ca9190618220565b60405180910390f35b3480156108de575f80fd5b506108f960048036038101906108f49190617f40565b611fdb565b6040516109069190617d29565b60405180910390f35b34801561091a575f80fd5b50610923611ff0565b6040516109309190617d29565b60405180910390f35b348015610944575f80fd5b5061094d611ff6565b60405161095a9190617d29565b60405180910390f35b34801561096e575f80fd5b50610977611ffc565b6040516109849190617d29565b60405180910390f35b348015610998575f80fd5b506109b360048036038101906109ae9190617f40565b612002565b6040516109c09190617d29565b60405180910390f35b3480156109d4575f80fd5b506109ef60048036038101906109ea9190617e67565b612017565b6040516109fc9190618220565b60405180910390f35b348015610a10575f80fd5b50610a1961205f565b604051610a269190617d29565b60405180910390f35b348015610a3a575f80fd5b50610a43612065565b604051610a509190617d29565b60405180910390f35b348015610a64575f80fd5b50610a6d61206b565b604051610a7a9190617d29565b60405180910390f35b348015610a8e575f80fd5b50610aa96004803603810190610aa49190617f40565b612071565b604051610abc9796959493929190618239565b60405180910390f35b348015610ad0575f80fd5b50610ad961225d565b604051610ae69190617d29565b60405180910390f35b348015610afa575f80fd5b50610b156004803603810190610b1091906182a6565b612266565b005b348015610b22575f80fd5b50610b2b6123a9565b005b348015610b38575f80fd5b50610b536004803603810190610b4e9190617f40565b61248a565b604051610b609190617d29565b60405180910390f35b348015610b74575f80fd5b50610b8f6004803603810190610b8a9190617f40565b61249f565b604051610b9c9190617d29565b60405180910390f35b348015610bb0575f80fd5b50610bb96124b6565b005b348015610bc6575f80fd5b50610be16004803603810190610bdc91906182e4565b6125fd565b005b348015610bee575f80fd5b50610bf761279c565b604051610c049190617d29565b60405180910390f35b348015610c18575f80fd5b50610c216127a8565b604051610c2e9190617d29565b60405180910390f35b348015610c42575f80fd5b50610c4b6127ae565b604051610c589190617d29565b60405180910390f35b348015610c6c575f80fd5b50610c756127b4565b604051610c829190617d29565b60405180910390f35b348015610c96575f80fd5b50610cb16004803603810190610cac9190617f40565b61292c565b005b348015610cbe575f80fd5b50610cc7612ac8565b604051610cd49190618354565b60405180910390f35b348015610ce8575f80fd5b50610d036004803603810190610cfe91906182a6565b612aec565b005b348015610d10575f80fd5b50610d19612d1e565b604051610d269190617d29565b60405180910390f35b348015610d3a575f80fd5b50610d43612d25565b604051610d509190618220565b60405180910390f35b348015610d64575f80fd5b50610d6d612d4c565b604051610d7a9190617d29565b60405180910390f35b348015610d8e575f80fd5b50610da96004803603810190610da4919061836d565b612d54565b005b348015610db6575f80fd5b50610dbf612eed565b604051610dcc9190617db2565b60405180910390f35b348015610de0575f80fd5b50610dfb6004803603810190610df6919061836d565b612f7d565b005b348015610e08575f80fd5b50610e11613014565b604051610e1e9190617d29565b60405180910390f35b348015610e32575f80fd5b50610e4d6004803603810190610e489190617f40565b61301a565b604051610e5a9190617ebf565b60405180910390f35b348015610e6e575f80fd5b50610e7761306c565b604051610e849190617d29565b60405180910390f35b348015610e98575f80fd5b50610eb36004803603810190610eae9190617e67565b613072565b005b348015610ec0575f80fd5b50610edb6004803603810190610ed69190617f02565b613242565b005b348015610ee8575f80fd5b50610f036004803603810190610efe9190617e67565b6133d4565b604051610f109190617ebf565b60405180910390f35b348015610f24575f80fd5b50610f3f6004803603810190610f3a919061836d565b6133eb565b005b348015610f4c575f80fd5b50610f676004803603810190610f629190618398565b613573565b604051610f749190617ebf565b60405180910390f35b348015610f88575f80fd5b50610fa36004803603810190610f9e91906183d6565b61359d565b005b348015610fb0575f80fd5b50610fb96136b5565b604051610fc69190617d29565b60405180910390f35b348015610fda575f80fd5b50610fe36136d1565b604051610ff09190617d29565b60405180910390f35b348015611004575f80fd5b5061100d6136d7565b60405161101a9190617d29565b60405180910390f35b34801561102e575f80fd5b506110376136dd565b6040516110449190618220565b60405180910390f35b348015611058575f80fd5b50611073600480360381019061106e9190617e67565b613701565b60405161108091906184d5565b60405180910390f35b348015611094575f80fd5b506110af60048036038101906110aa9190617e67565b613852565b005b3480156110bc575f80fd5b506110d760048036038101906110d2919061836d565b6139d2565b005b3480156110e4575f80fd5b506110ff60048036038101906110fa919061836d565b613abb565b005b34801561110c575f80fd5b50611115613bff565b6040516111229190617d29565b60405180910390f35b348015611136575f80fd5b50611151600480360381019061114c9190617f40565b613c05565b60405161115e9190617ebf565b60405180910390f35b348015611172575f80fd5b5061118d60048036038101906111889190617f40565b613c22565b60405161119a9190617d29565b60405180910390f35b3480156111ae575f80fd5b506111c960048036038101906111c49190617f02565b613cb2565b005b3480156111d6575f80fd5b506111f160048036038101906111ec9190617f02565b613d97565b005b3480156111fe575f80fd5b5061121960048036038101906112149190617f40565b613f79565b6040516112269190617ebf565b60405180910390f35b34801561123a575f80fd5b5061125560048036038101906112509190618398565b614088565b6040516112629190617d29565b60405180910390f35b348015611276575f80fd5b50611291600480360381019061128c919061836d565b61410a565b60405161129e9190618220565b60405180910390f35b3480156112b2575f80fd5b506112cd60048036038101906112c8919061836d565b614145565b005b3480156112da575f80fd5b506112e36141dc565b6040516112f09190617d29565b60405180910390f35b348015611304575f80fd5b5061130d6141e2565b60405161131a9190617d29565b60405180910390f35b34801561132e575f80fd5b5061134960048036038101906113449190617f40565b6141e8565b6040516113569190617d29565b60405180910390f35b34801561136a575f80fd5b506113736141fd565b6040516113809190618220565b60405180910390f35b348015611394575f80fd5b5061139d614222565b6040516113aa9190617d29565b60405180910390f35b3480156113be575f80fd5b506113d960048036038101906113d49190617f40565b614228565b6040516113e69190617ebf565b60405180910390f35b3480156113fa575f80fd5b506114156004803603810190611410919061836d565b614245565b005b348015611422575f80fd5b5061143d60048036038101906114389190617f40565b61444c565b60405161144a9190617d29565b60405180910390f35b34801561145e575f80fd5b50611467614461565b6040516114749190617d29565b60405180910390f35b348015611488575f80fd5b506114a3600480360381019061149e919061836d565b614477565b005b3480156114b0575f80fd5b506114cb60048036038101906114c69190617f40565b61455b565b005b3480156114d8575f80fd5b506114e1614711565b6040516114ee9190617d29565b60405180910390f35b348015611502575f80fd5b5061151d600480360381019061151891906182a6565b614717565b005b34801561152a575f80fd5b5061153361485a565b6040516115409190618220565b60405180910390f35b602c5481565b60606035805461155e9061851c565b80601f016020809104026020016040519081016040528092919081815260200182805461158a9061851c565b80156115d55780601f106115ac576101008083540402835291602001916115d5565b820191905f5260205f20905b8154815290600101906020018083116115b857829003601f168201915b5050505050905090565b5f6115eb33848461487f565b6001905092915050565b3373ffffffffffffffffffffffffffffffffffffffff165f8054906101000a900473ffffffffffffffffffffffffffffffffffffffff1673ffffffffffffffffffffffffffffffffffffffff1614611682576040517f08c379a000000000000000000000000000000000000000000000000000000000815260040161167990618596565b60405180910390fd5b8060195f8473ffffffffffffffffffffffffffffffffffffffff1673ffffffffffffffffffffffffffffffffffffffff1681526020019081526020015f205f6101000a81548160ff0219169083151502179055505050565b5f339050600f5f8273ffffffffffffffffffffffffffffffffffffffff1673ffffffffffffffffffffffffffffffffffffffff1681526020019081526020015f205f9054906101000a900460ff168061177f5750601b5f9054906101000a900473ffffffffffffffffffffffffffffffffffffffff1673ffffffffffffffffffffffffffffffffffffffff168173ffffffffffffffffffffffffffffffffffffffff16145b806117d457505f8054906101000a900473ffffffffffffffffffffffffffffffffffffffff1673ffffffffffffffffffffffffffffffffffffffff168173ffffffffffffffffffffffffffffffffffffffff16145b611813576040517f08c379a000000000000000000000000000000000000000000000000000000000815260040161180a906185fe565b60405180910390fd5b8273ffffffffffffffffffffffffffffffffffffffff1663a9059cbb601b5f9054906101000a900473ffffffffffffffffffffffffffffffffffffffff16846040518363ffffffff1660e01b815260040161186f92919061861c565b6020604051808303815f875af115801561188b573d5f803e3d5ffd5b505050506040513d601f19601f820116820180604052508101906118af9190618657565b50505050565b5f603854905090565b60265481565b5f805f7f000000000000000000000000000000000000000000000000000000000000000090505f8173ffffffffffffffffffffffffffffffffffffffff166318160ddd6040518163ffffffff1660e01b8152600401602060405180830381865afa158015611934573d5f803e3d5ffd5b505050506040513d601f19601f820116820180604052508101906119589190618696565b90505f80611964614966565b915091505f7f000000000000000000000000000000000000000000000000000000000000000073ffffffffffffffffffffffffffffffffffffffff166370a08231896040518263ffffffff1660e01b81526004016119c29190618220565b602060405180830381865afa1580156119dd573d5f803e3d5ffd5b505050506040513d601f19601f82011682018060405250810190611a019190618696565b90505f841115611a5e57611a3084611a228385614a8d90919063ffffffff16565b614aa290919063ffffffff16565b9650611a5784611a498386614a8d90919063ffffffff16565b614aa290919063ffffffff16565b9550611a65565b5f96505f95505b5050505050915091565b5f60145f8373ffffffffffffffffffffffffffffffffffffffff1673ffffffffffffffffffffffffffffffffffffffff1681526020019081526020015f20805490509050919050565b7f000000000000000000000000000000000000000000000000000000000000000081565b5f80611ae9858585614ab7565b90505f19600c5f8773ffffffffffffffffffffffffffffffffffffffff1673ffffffffffffffffffffffffffffffffffffffff1681526020019081526020015f205f3373ffffffffffffffffffffffffffffffffffffffff1673ffffffffffffffffffffffffffffffffffffffff1681526020019081526020015f205414611c6c5780600c5f8773ffffffffffffffffffffffffffffffffffffffff1673ffffffffffffffffffffffffffffffffffffffff1681526020019081526020015f205f3373ffffffffffffffffffffffffffffffffffffffff1673ffffffffffffffffffffffffffffffffffffffff1681526020019081526020015f2054611bef91906186ee565b600c5f8773ffffffffffffffffffffffffffffffffffffffff1673ffffffffffffffffffffffffffffffffffffffff1681526020019081526020015f205f3373ffffffffffffffffffffffffffffffffffffffff1673ffffffffffffffffffffffffffffffffffffffff1681526020019081526020015f20819055505b60019150509392505050565b601f5481565b6019602052805f5260405f205f915054906101000a900460ff1681565b60285481565b60275f9054906101000a900460ff1681565b3373ffffffffffffffffffffffffffffffffffffffff165f8054906101000a900473ffffffffffffffffffffffffffffffffffffffff1673ffffffffffffffffffffffffffffffffffffffff1614611d40576040517f08c379a0000000000000000000000000000000000000000000000000000000008152600401611d3790618596565b60405180910390fd5b5f815111611d83576040517f08c379a0000000000000000000000000000000000000000000000000000000008152600401611d7a9061876b565b60405180910390fd5b5f5b8151811015611f37575f828281518110611da257611da1618789565b5b602002602001015190505f7f000000000000000000000000000000000000000000000000000000000000000073ffffffffffffffffffffffffffffffffffffffff166370a08231836040518263ffffffff1660e01b8152600401611e069190618220565b602060405180830381865afa158015611e21573d5f803e3d5ffd5b505050506040513d601f19601f82011682018060405250810190611e459190618696565b9050611e5082615cdd565b8060175f8473ffffffffffffffffffffffffffffffffffffffff1673ffffffffffffffffffffffffffffffffffffffff1681526020019081526020015f2081905550611e9a615e61565b60165f8473ffffffffffffffffffffffffffffffffffffffff1673ffffffffffffffffffffffffffffffffffffffff1681526020019081526020015f2081905550611ee482613c22565b60105f8473ffffffffffffffffffffffffffffffffffffffff1673ffffffffffffffffffffffffffffffffffffffff1681526020019081526020015f206002018190555050508080600101915050611d85565b5050565b5f60375f9054906101000a900460ff16905090565b60325f9054906101000a900473ffffffffffffffffffffffffffffffffffffffff1681565b601c5f9054906101000a900473ffffffffffffffffffffffffffffffffffffffff1681565b6013602052805f5260405f205f915054906101000a900460ff1681565b7f000000000000000000000000000000000000000000000000000000000000000081565b600e602052805f5260405f205f915090505481565b602e5481565b60205481565b602a5481565b6016602052805f5260405f205f915090505481565b6014602052815f5260405f208181548110612030575f80fd5b905f5260205f20015f915091509054906101000a900473ffffffffffffffffffffffffffffffffffffffff1681565b60215481565b602d5481565b601d5481565b5f805f805f805f60175f8973ffffffffffffffffffffffffffffffffffffffff1673ffffffffffffffffffffffffffffffffffffffff1681526020019081526020015f205496507f000000000000000000000000000000000000000000000000000000000000000073ffffffffffffffffffffffffffffffffffffffff166370a08231896040518263ffffffff1660e01b81526004016121119190618220565b602060405180830381865afa15801561212c573d5f803e3d5ffd5b505050506040513d601f19601f820116820180604052508101906121509190618696565b955060195f8973ffffffffffffffffffffffffffffffffffffffff1673ffffffffffffffffffffffffffffffffffffffff1681526020019081526020015f205f9054906101000a900460ff1694505f60105f8a73ffffffffffffffffffffffffffffffffffffffff1673ffffffffffffffffffffffffffffffffffffffff1681526020019081526020015f209050805f0154945060165f8a73ffffffffffffffffffffffffffffffffffffffff1673ffffffffffffffffffffffffffffffffffffffff1681526020019081526020015f20549350806003015f9054906101000a900473ffffffffffffffffffffffffffffffffffffffff1692508060020154915050919395979092949650565b6402540be40081565b3373ffffffffffffffffffffffffffffffffffffffff165f8054906101000a900473ffffffffffffffffffffffffffffffffffffffff1673ffffffffffffffffffffffffffffffffffffffff16146122f3576040517f08c379a00000000000000000000000000000000000000000000000000000000081526004016122ea90618596565b60405180910390fd5b600a821015801561230657506103e88211155b612345576040517f08c379a000000000000000000000000000000000000000000000000000000000815260040161233c90618800565b60405180910390fd5b600a811015801561235857506103e88111155b612397576040517f08c379a000000000000000000000000000000000000000000000000000000000815260040161238e9061888e565b60405180910390fd5b81601f81905550806020819055505050565b3373ffffffffffffffffffffffffffffffffffffffff165f8054906101000a900473ffffffffffffffffffffffffffffffffffffffff1673ffffffffffffffffffffffffffffffffffffffff1614612436576040517f08c379a000000000000000000000000000000000000000000000000000000000815260040161242d90618596565b60405180910390fd5b602a545f1461247a576040517f08c379a0000000000000000000000000000000000000000000000000000000008152600401612471906188f6565b60405180910390fd5b43602a8190555042602c81905550565b600b602052805f5260405f205f915090505481565b5f806124aa83615e94565b50905080915050919050565b3373ffffffffffffffffffffffffffffffffffffffff165f8054906101000a900473ffffffffffffffffffffffffffffffffffffffff1673ffffffffffffffffffffffffffffffffffffffff1614612543576040517f08c379a000000000000000000000000000000000000000000000000000000000815260040161253a90618596565b60405180910390fd5b5f73ffffffffffffffffffffffffffffffffffffffff165f8054906101000a900473ffffffffffffffffffffffffffffffffffffffff1673ffffffffffffffffffffffffffffffffffffffff167f8be0079c531659141344cd1fd0a4f28419497f9722a3daafe3b4186f6b6457e060405160405180910390a35f805f6101000a81548173ffffffffffffffffffffffffffffffffffffffff021916908373ffffffffffffffffffffffffffffffffffffffff160217905550565b3373ffffffffffffffffffffffffffffffffffffffff165f8054906101000a900473ffffffffffffffffffffffffffffffffffffffff1673ffffffffffffffffffffffffffffffffffffffff161461268a576040517f08c379a000000000000000000000000000000000000000000000000000000000815260040161268190618596565b60405180910390fd5b600f5f3373ffffffffffffffffffffffffffffffffffffffff1673ffffffffffffffffffffffffffffffffffffffff1681526020019081526020015f205f9054906101000a900460ff16156127975761025883101561271e576040517f08c379a000000000000000000000000000000000000000000000000000000000815260040161271590618984565b60405180910390fd5b6103e8821115801561273057505f8210155b61276f576040517f08c379a000000000000000000000000000000000000000000000000000000000815260040161276690618a12565b60405180910390fd5b82602881905550816026819055508060275f6101000a81548160ff0219169083151502179055505b505050565b5f603480549050905090565b602f5481565b60315481565b5f807f000000000000000000000000000000000000000000000000000000000000000090505f808273ffffffffffffffffffffffffffffffffffffffff16630902f1ac6040518163ffffffff1660e01b8152600401606060405180830381865afa158015612824573d5f803e3d5ffd5b505050506040513d601f19601f820116820180604052508101906128489190618aac565b506dffffffffffffffffffffffffffff1691506dffffffffffffffffffffffffffff1691505f803073ffffffffffffffffffffffffffffffffffffffff167f000000000000000000000000000000000000000000000000000000000000000073ffffffffffffffffffffffffffffffffffffffff1610156128ce578391508290506128d5565b8291508390505b805f036128e9575f95505050505050612929565b612921818360375f9054906101000a900460ff16600a6129099190618c2b565b6129139190618c75565b614aa290919063ffffffff16565b955050505050505b90565b3373ffffffffffffffffffffffffffffffffffffffff165f8054906101000a900473ffffffffffffffffffffffffffffffffffffffff1673ffffffffffffffffffffffffffffffffffffffff16146129b9576040517f08c379a00000000000000000000000000000000000000000000000000000000081526004016129b090618596565b60405180910390fd5b5f73ffffffffffffffffffffffffffffffffffffffff168173ffffffffffffffffffffffffffffffffffffffff1603612a27576040517f08c379a0000000000000000000000000000000000000000000000000000000008152600401612a1e90618d00565b60405180910390fd5b80601b5f6101000a81548173ffffffffffffffffffffffffffffffffffffffff021916908373ffffffffffffffffffffffffffffffffffffffff1602179055506001600f5f8373ffffffffffffffffffffffffffffffffffffffff1673ffffffffffffffffffffffffffffffffffffffff1681526020019081526020015f205f6101000a81548160ff021916908315150217905550612ac581615cdd565b50565b7f000000000000000000000000000000000000000000000000000000000000000081565b5f339050600f5f8273ffffffffffffffffffffffffffffffffffffffff1673ffffffffffffffffffffffffffffffffffffffff1681526020019081526020015f205f9054906101000a900460ff1680612b915750601b5f9054906101000a900473ffffffffffffffffffffffffffffffffffffffff1673ffffffffffffffffffffffffffffffffffffffff168173ffffffffffffffffffffffffffffffffffffffff16145b80612be657505f8054906101000a900473ffffffffffffffffffffffffffffffffffffffff1673ffffffffffffffffffffffffffffffffffffffff168173ffffffffffffffffffffffffffffffffffffffff16145b612c25576040517f08c379a0000000000000000000000000000000000000000000000000000000008152600401612c1c906185fe565b60405180910390fd5b82602e819055505f805f90505f60348054905090506034602d5481548110612c5057612c4f618789565b5b905f5260205f20015f9054906101000a900473ffffffffffffffffffffffffffffffffffffffff1692505b80821015612d165760348281548110612c9757612c96618789565b5b905f5260205f20015f9054906101000a900473ffffffffffffffffffffffffffffffffffffffff1692508460165f8573ffffffffffffffffffffffffffffffffffffffff1673ffffffffffffffffffffffffffffffffffffffff1681526020019081526020015f20819055508180612d0e90618d1e565b925050612c7b565b505050505050565b621e848081565b5f805f9054906101000a900473ffffffffffffffffffffffffffffffffffffffff16905090565b6301406f4081565b5f339050600f5f8273ffffffffffffffffffffffffffffffffffffffff1673ffffffffffffffffffffffffffffffffffffffff1681526020019081526020015f205f9054906101000a900460ff1680612df95750601b5f9054906101000a900473ffffffffffffffffffffffffffffffffffffffff1673ffffffffffffffffffffffffffffffffffffffff168173ffffffffffffffffffffffffffffffffffffffff16145b80612e4e57505f8054906101000a900473ffffffffffffffffffffffffffffffffffffffff1673ffffffffffffffffffffffffffffffffffffffff168173ffffffffffffffffffffffffffffffffffffffff16145b612e8d576040517f08c379a0000000000000000000000000000000000000000000000000000000008152600401612e84906185fe565b60405180910390fd5b62030d408210158015612ea35750624c4b408211155b612ee2576040517f08c379a0000000000000000000000000000000000000000000000000000000008152600401612ed990618daf565b60405180910390fd5b816030819055505050565b606060368054612efc9061851c565b80601f0160208091040260200160405190810160405280929190818152602001828054612f289061851c565b8015612f735780601f10612f4a57610100808354040283529160200191612f73565b820191905f5260205f20905b815481529060010190602001808311612f5657829003601f168201915b5050505050905090565b3373ffffffffffffffffffffffffffffffffffffffff165f8054906101000a900473ffffffffffffffffffffffffffffffffffffffff1673ffffffffffffffffffffffffffffffffffffffff161461300a576040517f08c379a000000000000000000000000000000000000000000000000000000000815260040161300190618596565b60405180910390fd5b80602f8190555050565b602b5481565b5f600f5f8373ffffffffffffffffffffffffffffffffffffffff1673ffffffffffffffffffffffffffffffffffffffff1681526020019081526020015f205f9054906101000a900460ff169050919050565b60295481565b3373ffffffffffffffffffffffffffffffffffffffff165f8054906101000a900473ffffffffffffffffffffffffffffffffffffffff1673ffffffffffffffffffffffffffffffffffffffff16146130ff576040517f08c379a00000000000000000000000000000000000000000000000000000000081526004016130f690618596565b60405180910390fd5b600f5f3373ffffffffffffffffffffffffffffffffffffffff1673ffffffffffffffffffffffffffffffffffffffff1681526020019081526020015f205f9054906101000a900460ff1680156131f657503373ffffffffffffffffffffffffffffffffffffffff16601b5f9054906101000a900473ffffffffffffffffffffffffffffffffffffffff1673ffffffffffffffffffffffffffffffffffffffff1614806131f557503373ffffffffffffffffffffffffffffffffffffffff165f8054906101000a900473ffffffffffffffffffffffffffffffffffffffff1673ffffffffffffffffffffffffffffffffffffffff16145b5b1561323e578060175f8473ffffffffffffffffffffffffffffffffffffffff1673ffffffffffffffffffffffffffffffffffffffff1681526020019081526020015f20819055505b5050565b5f339050600f5f8273ffffffffffffffffffffffffffffffffffffffff1673ffffffffffffffffffffffffffffffffffffffff1681526020019081526020015f205f9054906101000a900460ff16806132e75750601b5f9054906101000a900473ffffffffffffffffffffffffffffffffffffffff1673ffffffffffffffffffffffffffffffffffffffff168173ffffffffffffffffffffffffffffffffffffffff16145b8061333c57505f8054906101000a900473ffffffffffffffffffffffffffffffffffffffff1673ffffffffffffffffffffffffffffffffffffffff168173ffffffffffffffffffffffffffffffffffffffff16145b61337b576040517f08c379a0000000000000000000000000000000000000000000000000000000008152600401613372906185fe565b60405180910390fd5b8160135f8573ffffffffffffffffffffffffffffffffffffffff1673ffffffffffffffffffffffffffffffffffffffff1681526020019081526020015f205f6101000a81548160ff021916908315150217905550505050565b5f6133e0338484614ab7565b506001905092915050565b5f339050600f5f8273ffffffffffffffffffffffffffffffffffffffff1673ffffffffffffffffffffffffffffffffffffffff1681526020019081526020015f205f9054906101000a900460ff16806134905750601b5f9054906101000a900473ffffffffffffffffffffffffffffffffffffffff1673ffffffffffffffffffffffffffffffffffffffff168173ffffffffffffffffffffffffffffffffffffffff16145b806134e557505f8054906101000a900473ffffffffffffffffffffffffffffffffffffffff1673ffffffffffffffffffffffffffffffffffffffff168173ffffffffffffffffffffffffffffffffffffffff16145b613524576040517f08c379a000000000000000000000000000000000000000000000000000000000815260040161351b906185fe565b60405180910390fd5b6001821015613568576040517f08c379a000000000000000000000000000000000000000000000000000000000815260040161355f90618e17565b60405180910390fd5b816022819055505050565b6015602052815f5260405f20602052805f5260405f205f915091509054906101000a900460ff1681565b3373ffffffffffffffffffffffffffffffffffffffff165f8054906101000a900473ffffffffffffffffffffffffffffffffffffffff1673ffffffffffffffffffffffffffffffffffffffff161461362a576040517f08c379a000000000000000000000000000000000000000000000000000000000815260040161362190618596565b60405180910390fd5b5f5b82518110156136b05781600f5f85848151811061364c5761364b618789565b5b602002602001015173ffffffffffffffffffffffffffffffffffffffff1673ffffffffffffffffffffffffffffffffffffffff1681526020019081526020015f205f6101000a81548160ff021916908315150217905550808060010191505061362c565b505050565b5f6136cc6201518042614aa290919063ffffffff16565b905090565b60235481565b60335481565b7f000000000000000000000000000000000000000000000000000000000000000081565b613709617cee565b613711617cee565b5f8490505f5b600a811015613846575f60105f8473ffffffffffffffffffffffffffffffffffffffff1673ffffffffffffffffffffffffffffffffffffffff1681526020019081526020015f206003015f9054906101000a900473ffffffffffffffffffffffffffffffffffffffff1690505f600d5f8373ffffffffffffffffffffffffffffffffffffffff1673ffffffffffffffffffffffffffffffffffffffff1681526020019081526020015f205490506001836137d19190618e35565b8110613834575f6138136064613805600187600a81106137f4576137f3618789565b5b01548b614a8d90919063ffffffff16565b614aa290919063ffffffff16565b9050808685600a811061382957613828618789565b5b602002018181525050505b81935050508080600101915050613717565b50819250505092915050565b5f339050600f5f8273ffffffffffffffffffffffffffffffffffffffff1673ffffffffffffffffffffffffffffffffffffffff1681526020019081526020015f205f9054906101000a900460ff16806138f75750601b5f9054906101000a900473ffffffffffffffffffffffffffffffffffffffff1673ffffffffffffffffffffffffffffffffffffffff168173ffffffffffffffffffffffffffffffffffffffff16145b8061394c57505f8054906101000a900473ffffffffffffffffffffffffffffffffffffffff1673ffffffffffffffffffffffffffffffffffffffff168173ffffffffffffffffffffffffffffffffffffffff16145b61398b576040517f08c379a0000000000000000000000000000000000000000000000000000000008152600401613982906185fe565b60405180910390fd5b8160165f8573ffffffffffffffffffffffffffffffffffffffff1673ffffffffffffffffffffffffffffffffffffffff1681526020019081526020015f2081905550505050565b3373ffffffffffffffffffffffffffffffffffffffff165f8054906101000a900473ffffffffffffffffffffffffffffffffffffffff1673ffffffffffffffffffffffffffffffffffffffff1614613a5f576040517f08c379a0000000000000000000000000000000000000000000000000000000008152600401613a5690618596565b60405180910390fd5b600a8110158015613a7257506103e88111155b613ab1576040517f08c379a0000000000000000000000000000000000000000000000000000000008152600401613aa890618eb2565b60405180910390fd5b8060218190555050565b5f339050600f5f8273ffffffffffffffffffffffffffffffffffffffff1673ffffffffffffffffffffffffffffffffffffffff1681526020019081526020015f205f9054906101000a900460ff1680613b605750601b5f9054906101000a900473ffffffffffffffffffffffffffffffffffffffff1673ffffffffffffffffffffffffffffffffffffffff168173ffffffffffffffffffffffffffffffffffffffff16145b80613bb557505f8054906101000a900473ffffffffffffffffffffffffffffffffffffffff1673ffffffffffffffffffffffffffffffffffffffff168173ffffffffffffffffffffffffffffffffffffffff16145b613bf4576040517f08c379a0000000000000000000000000000000000000000000000000000000008152600401613beb906185fe565b60405180910390fd5b81602e819055505050565b601e5481565b6011602052805f5260405f205f915054906101000a900460ff1681565b5f80613c2d836118c4565b5090505f73ffffffffffffffffffffffffffffffffffffffff168373ffffffffffffffffffffffffffffffffffffffff1614158015613c6e5750602f548110155b15613ca8575f613c9c6103e8613c8e600885614a8d90919063ffffffff16565b614aa290919063ffffffff16565b90508092505050613cad565b5f9150505b919050565b3373ffffffffffffffffffffffffffffffffffffffff165f8054906101000a900473ffffffffffffffffffffffffffffffffffffffff1673ffffffffffffffffffffffffffffffffffffffff1614613d3f576040517f08c379a0000000000000000000000000000000000000000000000000000000008152600401613d3690618596565b60405180910390fd5b80600f5f8473ffffffffffffffffffffffffffffffffffffffff1673ffffffffffffffffffffffffffffffffffffffff1681526020019081526020015f205f6101000a81548160ff0219169083151502179055505050565b3373ffffffffffffffffffffffffffffffffffffffff165f8054906101000a900473ffffffffffffffffffffffffffffffffffffffff1673ffffffffffffffffffffffffffffffffffffffff1614613e24576040517f08c379a0000000000000000000000000000000000000000000000000000000008152600401613e1b90618596565b60405180910390fd5b600f5f3373ffffffffffffffffffffffffffffffffffffffff1673ffffffffffffffffffffffffffffffffffffffff1681526020019081526020015f205f9054906101000a900460ff168015613f1b57503373ffffffffffffffffffffffffffffffffffffffff16601b5f9054906101000a900473ffffffffffffffffffffffffffffffffffffffff1673ffffffffffffffffffffffffffffffffffffffff161480613f1a57503373ffffffffffffffffffffffffffffffffffffffff165f8054906101000a900473ffffffffffffffffffffffffffffffffffffffff1673ffffffffffffffffffffffffffffffffffffffff16145b5b15613f75578060115f8473ffffffffffffffffffffffffffffffffffffffff1673ffffffffffffffffffffffffffffffffffffffff1681526020019081526020015f205f6101000a81548160ff0219169083151502179055505b5050565b5f80829050601a5f9054906101000a900473ffffffffffffffffffffffffffffffffffffffff1673ffffffffffffffffffffffffffffffffffffffff168173ffffffffffffffffffffffffffffffffffffffff1603613fdc576001915050614083565b5f60105f8373ffffffffffffffffffffffffffffffffffffffff1673ffffffffffffffffffffffffffffffffffffffff1681526020019081526020015f206003015f9054906101000a900473ffffffffffffffffffffffffffffffffffffffff1690505f73ffffffffffffffffffffffffffffffffffffffff168173ffffffffffffffffffffffffffffffffffffffff161461407d57600192505050614083565b5f925050505b919050565b5f600c5f8473ffffffffffffffffffffffffffffffffffffffff1673ffffffffffffffffffffffffffffffffffffffff1681526020019081526020015f205f8373ffffffffffffffffffffffffffffffffffffffff1673ffffffffffffffffffffffffffffffffffffffff1681526020019081526020015f2054905092915050565b60348181548110614119575f80fd5b905f5260205f20015f915054906101000a900473ffffffffffffffffffffffffffffffffffffffff1681565b3373ffffffffffffffffffffffffffffffffffffffff165f8054906101000a900473ffffffffffffffffffffffffffffffffffffffff1673ffffffffffffffffffffffffffffffffffffffff16146141d2576040517f08c379a00000000000000000000000000000000000000000000000000000000081526004016141c990618596565b60405180910390fd5b8060318190555050565b60245481565b60225481565b600d602052805f5260405f205f915090505481565b601b5f9054906101000a900473ffffffffffffffffffffffffffffffffffffffff1681565b60305481565b6012602052805f5260405f205f915054906101000a900460ff1681565b5f339050600f5f8273ffffffffffffffffffffffffffffffffffffffff1673ffffffffffffffffffffffffffffffffffffffff1681526020019081526020015f205f9054906101000a900460ff16806142ea5750601b5f9054906101000a900473ffffffffffffffffffffffffffffffffffffffff1673ffffffffffffffffffffffffffffffffffffffff168173ffffffffffffffffffffffffffffffffffffffff16145b8061433f57505f8054906101000a900473ffffffffffffffffffffffffffffffffffffffff1673ffffffffffffffffffffffffffffffffffffffff168173ffffffffffffffffffffffffffffffffffffffff16145b61437e576040517f08c379a0000000000000000000000000000000000000000000000000000000008152600401614375906185fe565b60405180910390fd5b5f601b5f9054906101000a900473ffffffffffffffffffffffffffffffffffffffff1673ffffffffffffffffffffffffffffffffffffffff16836040516143c490618efd565b5f6040518083038185875af1925050503d805f81146143fe576040519150601f19603f3d011682016040523d82523d5f602084013e614403565b606091505b5050905080614447576040517f08c379a000000000000000000000000000000000000000000000000000000000815260040161443e90618f5b565b60405180910390fd5b505050565b6018602052805f5260405f205f915090505481565b621e84806301406f4061447491906186ee565b81565b3373ffffffffffffffffffffffffffffffffffffffff165f8054906101000a900473ffffffffffffffffffffffffffffffffffffffff1673ffffffffffffffffffffffffffffffffffffffff1614614504576040517f08c379a00000000000000000000000000000000000000000000000000000000081526004016144fb90618596565b60405180910390fd5b5f8114806145125750600181145b614551576040517f08c379a000000000000000000000000000000000000000000000000000000000815260040161454890618fc3565b60405180910390fd5b8060258190555050565b3373ffffffffffffffffffffffffffffffffffffffff165f8054906101000a900473ffffffffffffffffffffffffffffffffffffffff1673ffffffffffffffffffffffffffffffffffffffff16146145e8576040517f08c379a00000000000000000000000000000000000000000000000000000000081526004016145df90618596565b60405180910390fd5b5f73ffffffffffffffffffffffffffffffffffffffff168173ffffffffffffffffffffffffffffffffffffffff1603614656576040517f08c379a000000000000000000000000000000000000000000000000000000000815260040161464d9061902b565b60405180910390fd5b8073ffffffffffffffffffffffffffffffffffffffff165f8054906101000a900473ffffffffffffffffffffffffffffffffffffffff1673ffffffffffffffffffffffffffffffffffffffff167f8be0079c531659141344cd1fd0a4f28419497f9722a3daafe3b4186f6b6457e060405160405180910390a3805f806101000a81548173ffffffffffffffffffffffffffffffffffffffff021916908373ffffffffffffffffffffffffffffffffffffffff16021790555050565b60255481565b3373ffffffffffffffffffffffffffffffffffffffff165f8054906101000a900473ffffffffffffffffffffffffffffffffffffffff1673ffffffffffffffffffffffffffffffffffffffff16146147a4576040517f08c379a000000000000000000000000000000000000000000000000000000000815260040161479b90618596565b60405180910390fd5b600a82101580156147b757506103e88211155b6147f6576040517f08c379a00000000000000000000000000000000000000000000000000000000081526004016147ed90619093565b60405180910390fd5b600a811015801561480957506103e88111155b614848576040517f08c379a000000000000000000000000000000000000000000000000000000000815260040161483f906190fb565b60405180910390fd5b81601d8190555080601e819055505050565b601a5f9054906101000a900473ffffffffffffffffffffffffffffffffffffffff1681565b80600c5f8573ffffffffffffffffffffffffffffffffffffffff1673ffffffffffffffffffffffffffffffffffffffff1681526020019081526020015f205f8473ffffffffffffffffffffffffffffffffffffffff1673ffffffffffffffffffffffffffffffffffffffff1681526020019081526020015f20819055508173ffffffffffffffffffffffffffffffffffffffff168373ffffffffffffffffffffffffffffffffffffffff167f8c5be1e5ebec7d5bd14f71427d1e84f3dd0314c0f7b2291e5b200ac8c7c3b925836040516149599190617d29565b60405180910390a3505050565b5f805f807f000000000000000000000000000000000000000000000000000000000000000073ffffffffffffffffffffffffffffffffffffffff16630902f1ac6040518163ffffffff1660e01b8152600401606060405180830381865afa1580156149d3573d5f803e3d5ffd5b505050506040513d601f19601f820116820180604052508101906149f79190618aac565b506dffffffffffffffffffffffffffff1691506dffffffffffffffffffffffffffff1691505f7f000000000000000000000000000000000000000000000000000000000000000090503073ffffffffffffffffffffffffffffffffffffffff168173ffffffffffffffffffffffffffffffffffffffff161015614a7f57829350819450614a86565b8193508294505b5050509091565b5f8183614a9a9190618c75565b905092915050565b5f8183614aaf9190619146565b905092915050565b5f600f5f8573ffffffffffffffffffffffffffffffffffffffff1673ffffffffffffffffffffffffffffffffffffffff1681526020019081526020015f205f9054906101000a900460ff16158015614b565750600f5f8473ffffffffffffffffffffffffffffffffffffffff1673ffffffffffffffffffffffffffffffffffffffff1681526020019081526020015f205f9054906101000a900460ff16155b8015614b8e57503073ffffffffffffffffffffffffffffffffffffffff168473ffffffffffffffffffffffffffffffffffffffff1614155b8015614be1575060135f8573ffffffffffffffffffffffffffffffffffffffff1673ffffffffffffffffffffffffffffffffffffffff1681526020019081526020015f205f9054906101000a900460ff16155b8015614c34575060135f8473ffffffffffffffffffffffffffffffffffffffff1673ffffffffffffffffffffffffffffffffffffffff1681526020019081526020015f205f9054906101000a900460ff16155b15614c82576402540be400821115614c81576040517f08c379a0000000000000000000000000000000000000000000000000000000008152600401614c78906191e6565b60405180910390fd5b5b5f7f000000000000000000000000000000000000000000000000000000000000000090505f60325f9054906101000a900473ffffffffffffffffffffffffffffffffffffffff1690505f73ffffffffffffffffffffffffffffffffffffffff168173ffffffffffffffffffffffffffffffffffffffff1614615029575f60325f6101000a81548173ffffffffffffffffffffffffffffffffffffffff021916908373ffffffffffffffffffffffffffffffffffffffff1602179055505f8273ffffffffffffffffffffffffffffffffffffffff166370a08231836040518263ffffffff1660e01b8152600401614d789190618220565b602060405180830381865afa158015614d93573d5f803e3d5ffd5b505050506040513d601f19601f82011682018060405250810190614db79190618696565b90505f811115614fda575f60175f8473ffffffffffffffffffffffffffffffffffffffff1673ffffffffffffffffffffffffffffffffffffffff1681526020019081526020015f2054905080821115614fd8575f8183614e1791906186ee565b90505f600b5f8773ffffffffffffffffffffffffffffffffffffffff1673ffffffffffffffffffffffffffffffffffffffff1681526020019081526020015f20548673ffffffffffffffffffffffffffffffffffffffff166318160ddd6040518163ffffffff1660e01b8152600401602060405180830381865afa158015614ea1573d5f803e3d5ffd5b505050506040513d601f19601f82011682018060405250810190614ec59190618696565b603354614ed29190618c75565b614edc9190619146565b905080821115614f4057600160195f8773ffffffffffffffffffffffffffffffffffffffff1673ffffffffffffffffffffffffffffffffffffffff1681526020019081526020015f205f6101000a81548160ff021916908315150217905550614fd5565b614f4985615cdd565b8360175f8773ffffffffffffffffffffffffffffffffffffffff1673ffffffffffffffffffffffffffffffffffffffff1681526020019081526020015f2081905550614f93615e61565b60165f8773ffffffffffffffffffffffffffffffffffffffff1673ffffffffffffffffffffffffffffffffffffffff1681526020019081526020015f20819055505b50505b505b614fe382613c22565b60105f8473ffffffffffffffffffffffffffffffffffffffff1673ffffffffffffffffffffffffffffffffffffffff1681526020019081526020015f2060020181905550505b600f5f8773ffffffffffffffffffffffffffffffffffffffff1673ffffffffffffffffffffffffffffffffffffffff1681526020019081526020015f205f9054906101000a900460ff161580156150c75750600f5f8673ffffffffffffffffffffffffffffffffffffffff1673ffffffffffffffffffffffffffffffffffffffff1681526020019081526020015f205f9054906101000a900460ff16155b1561515f575f80600460375f9054906101000a900460ff166150e99190619204565b600a6150f59190618c2b565b90505f600b5f8a73ffffffffffffffffffffffffffffffffffffffff1673ffffffffffffffffffffffffffffffffffffffff1681526020019081526020015f205490508181111561514f57818161514c91906186ee565b92505b8287111561515b578296505b5050505b5f8060135f8973ffffffffffffffffffffffffffffffffffffffff1673ffffffffffffffffffffffffffffffffffffffff1681526020019081526020015f205f9054906101000a900460ff16806151fc575060135f8873ffffffffffffffffffffffffffffffffffffffff1673ffffffffffffffffffffffffffffffffffffffff1681526020019081526020015f205f9054906101000a900460ff165b1561566257602b545f0361533057600f5f8973ffffffffffffffffffffffffffffffffffffffff1673ffffffffffffffffffffffffffffffffffffffff1681526020019081526020015f205f9054906101000a900460ff1680156152ab57507f000000000000000000000000000000000000000000000000000000000000000073ffffffffffffffffffffffffffffffffffffffff168773ffffffffffffffffffffffffffffffffffffffff16145b801561532257505f8773ffffffffffffffffffffffffffffffffffffffff166318160ddd6040518163ffffffff1660e01b8152600401602060405180830381865afa1580156152fc573d5f803e3d5ffd5b505050506040513d601f19601f820116820180604052508101906153209190618696565b145b1561532f5743602b819055505b5b60395f9054906101000a900460ff161580156153e3575060135f8873ffffffffffffffffffffffffffffffffffffffff1673ffffffffffffffffffffffffffffffffffffffff1681526020019081526020015f205f9054906101000a900460ff16806153e2575060135f8973ffffffffffffffffffffffffffffffffffffffff1673ffffffffffffffffffffffffffffffffffffffff1681526020019081526020015f205f9054906101000a900460ff165b5b80156153fa575060275f9054906101000a900460ff165b801561541557506028546029546154119190618e35565b4210155b80156154685750600f5f8973ffffffffffffffffffffffffffffffffffffffff1673ffffffffffffffffffffffffffffffffffffffff1681526020019081526020015f205f9054906101000a900460ff16155b156154875761547687615ee3565b156154865761548487615f35565b505b5b600f5f8973ffffffffffffffffffffffffffffffffffffffff1673ffffffffffffffffffffffffffffffffffffffff1681526020019081526020015f205f9054906101000a900460ff161580156155255750600f5f8873ffffffffffffffffffffffffffffffffffffffff1673ffffffffffffffffffffffffffffffffffffffff1681526020019081526020015f205f9054906101000a900460ff16155b1561565d57600191507f000000000000000000000000000000000000000000000000000000000000000073ffffffffffffffffffffffffffffffffffffffff168873ffffffffffffffffffffffffffffffffffffffff160361558c57615589616091565b90505b602a545f0361562f57602b545f106155d9576040517f08c379a00000000000000000000000000000000000000000000000000000000081526004016155d090619282565b60405180910390fd5b600160125f8a73ffffffffffffffffffffffffffffffffffffffff1673ffffffffffffffffffffffffffffffffffffffff1681526020019081526020015f205f6101000a81548160ff0219169083151502179055505b6003602a5461563e9190618e35565b43101561565c5761565088888861629e565b5f945050505050615cd6565b5b6159ea565b60105f8873ffffffffffffffffffffffffffffffffffffffff1673ffffffffffffffffffffffffffffffffffffffff1681526020019081526020015f206003015f9054906101000a900473ffffffffffffffffffffffffffffffffffffffff1673ffffffffffffffffffffffffffffffffffffffff165f73ffffffffffffffffffffffffffffffffffffffff161480156156fb57505f86115b801561573357508673ffffffffffffffffffffffffffffffffffffffff168873ffffffffffffffffffffffffffffffffffffffff1614155b801561579b575061574388613f79565b8061579a5750601a5f9054906101000a900473ffffffffffffffffffffffffffffffffffffffff1673ffffffffffffffffffffffffffffffffffffffff168873ffffffffffffffffffffffffffffffffffffffff16145b5b1561583157600160155f8973ffffffffffffffffffffffffffffffffffffffff1673ffffffffffffffffffffffffffffffffffffffff1681526020019081526020015f205f8a73ffffffffffffffffffffffffffffffffffffffff1673ffffffffffffffffffffffffffffffffffffffff1681526020019081526020015f205f6101000a81548160ff0219169083151502179055505b60105f8973ffffffffffffffffffffffffffffffffffffffff1673ffffffffffffffffffffffffffffffffffffffff1681526020019081526020015f206003015f9054906101000a900473ffffffffffffffffffffffffffffffffffffffff1673ffffffffffffffffffffffffffffffffffffffff165f73ffffffffffffffffffffffffffffffffffffffff161480156158cb5750606486145b801561590357508673ffffffffffffffffffffffffffffffffffffffff168873ffffffffffffffffffffffffffffffffffffffff1614155b156159e95760155f8973ffffffffffffffffffffffffffffffffffffffff1673ffffffffffffffffffffffffffffffffffffffff1681526020019081526020015f205f8873ffffffffffffffffffffffffffffffffffffffff1673ffffffffffffffffffffffffffffffffffffffff1681526020019081526020015f205f9054906101000a900460ff1680156159d857505f60145f8a73ffffffffffffffffffffffffffffffffffffffff1673ffffffffffffffffffffffffffffffffffffffff1681526020019081526020015f2080549050145b156159e8576159e7888861639a565b5b5b5b3073ffffffffffffffffffffffffffffffffffffffff168873ffffffffffffffffffffffffffffffffffffffff1614615be1578373ffffffffffffffffffffffffffffffffffffffff168773ffffffffffffffffffffffffffffffffffffffff16148015615aa557508773ffffffffffffffffffffffffffffffffffffffff1660325f9054906101000a900473ffffffffffffffffffffffffffffffffffffffff1673ffffffffffffffffffffffffffffffffffffffff1614155b15615af2578760325f6101000a81548173ffffffffffffffffffffffffffffffffffffffff021916908373ffffffffffffffffffffffffffffffffffffffff160217905550856033819055505b8373ffffffffffffffffffffffffffffffffffffffff168873ffffffffffffffffffffffffffffffffffffffff16148015615b5957505f73ffffffffffffffffffffffffffffffffffffffff168873ffffffffffffffffffffffffffffffffffffffff1614155b8015615b93575061dead73ffffffffffffffffffffffffffffffffffffffff168873ffffffffffffffffffffffffffffffffffffffff1614155b15615be0578660325f6101000a81548173ffffffffffffffffffffffffffffffffffffffff021916908373ffffffffffffffffffffffffffffffffffffffff160217905550856033819055505b5b615bee8888888585616624565b5f60105f8973ffffffffffffffffffffffffffffffffffffffff1673ffffffffffffffffffffffffffffffffffffffff1681526020019081526020015f209050600b5f8973ffffffffffffffffffffffffffffffffffffffff1673ffffffffffffffffffffffffffffffffffffffff1681526020019081526020015f2054815f0181905550600f5f8a73ffffffffffffffffffffffffffffffffffffffff1673ffffffffffffffffffffffffffffffffffffffff1681526020019081526020015f205f9054906101000a900460ff16615ccd57615ccc603054616c24565b5b86955050505050505b9392505050565b60185f8273ffffffffffffffffffffffffffffffffffffffff1673ffffffffffffffffffffffffffffffffffffffff1681526020019081526020015f20545f03615e5d576034805490505f1480615d9b57508073ffffffffffffffffffffffffffffffffffffffff1660345f81548110615d5a57615d59618789565b5b905f5260205f20015f9054906101000a900473ffffffffffffffffffffffffffffffffffffffff1673ffffffffffffffffffffffffffffffffffffffff1614155b15615e5c575f813b90505f811115615db35750615e5e565b60348054905060185f8473ffffffffffffffffffffffffffffffffffffffff1673ffffffffffffffffffffffffffffffffffffffff1681526020019081526020015f2081905550603482908060018154018082558091505060019003905f5260205f20015f9091909190916101000a81548173ffffffffffffffffffffffffffffffffffffffff021916908373ffffffffffffffffffffffffffffffffffffffff160217905550505b5b5b50565b5f806201518042615e7291906192a0565b42615e7d91906186ee565b90506201518081615e8e9190618e35565b91505090565b5f805f600b5f8573ffffffffffffffffffffffffffffffffffffffff1673ffffffffffffffffffffffffffffffffffffffff1681526020019081526020015f20549050805f9250925050915091565b5f60135f8373ffffffffffffffffffffffffffffffffffffffff1673ffffffffffffffffffffffffffffffffffffffff1681526020019081526020015f205f9054906101000a900460ff169050919050565b5f426029819055505f3073ffffffffffffffffffffffffffffffffffffffff166370a08231846040518263ffffffff1660e01b8152600401615f779190618220565b602060405180830381865afa158015615f92573d5f803e3d5ffd5b505050506040513d601f19601f82011682018060405250810190615fb69190618696565b90505f615fe2612710615fd460265485614a8d90919063ffffffff16565b614aa290919063ffffffff16565b90505f811115615ffa57615ff98461dead83617084565b5b5f8490508073ffffffffffffffffffffffffffffffffffffffff1663fff6cae96040518163ffffffff1660e01b81526004015f604051808303815f87803b158015616043575f80fd5b505af1158015616055573d5f803e3d5ffd5b505050507f454c91ae84fcc766ddda0dcb289f26b3d0176efeacf4061fc219fa6ca8c3048d60405160405180910390a160019350505050919050565b5f807f000000000000000000000000000000000000000000000000000000000000000090505f808273ffffffffffffffffffffffffffffffffffffffff16630902f1ac6040518163ffffffff1660e01b8152600401606060405180830381865afa158015616101573d5f803e3d5ffd5b505050506040513d601f19601f820116820180604052508101906161259190618aac565b506dffffffffffffffffffffffffffff1691506dffffffffffffffffffffffffffff1691505f7f000000000000000000000000000000000000000000000000000000000000000090505f3073ffffffffffffffffffffffffffffffffffffffff168273ffffffffffffffffffffffffffffffffffffffff1610156161c2576161bb64e8d4a5100085614aa290919063ffffffff16565b90506161dd565b6161da64e8d4a5100084614aa290919063ffffffff16565b90505b5f61628d64e8d4a510008473ffffffffffffffffffffffffffffffffffffffff166370a082317f00000000000000000000000000000000000000000000000000000000000000006040518263ffffffff1660e01b81526004016162409190618220565b602060405180830381865afa15801561625b573d5f803e3d5ffd5b505050506040513d601f19601f8201168201806040525081019061627f9190618696565b614aa290919063ffffffff16565b905080821015965050505050505090565b80600b5f8573ffffffffffffffffffffffffffffffffffffffff1673ffffffffffffffffffffffffffffffffffffffff1681526020019081526020015f20546162e791906186ee565b600b5f8573ffffffffffffffffffffffffffffffffffffffff1673ffffffffffffffffffffffffffffffffffffffff1681526020019081526020015f20819055505f6163506064616342606385614a8d90919063ffffffff16565b614aa290919063ffffffff16565b905061637e84601b5f9054906101000a900473ffffffffffffffffffffffffffffffffffffffff1683617202565b6163948484838561638f91906186ee565b617202565b50505050565b5f73ffffffffffffffffffffffffffffffffffffffff168173ffffffffffffffffffffffffffffffffffffffff161415801561640257508173ffffffffffffffffffffffffffffffffffffffff168173ffffffffffffffffffffffffffffffffffffffff1614155b801561649857505f73ffffffffffffffffffffffffffffffffffffffff1660105f8473ffffffffffffffffffffffffffffffffffffffff1673ffffffffffffffffffffffffffffffffffffffff1681526020019081526020015f206003015f9054906101000a900473ffffffffffffffffffffffffffffffffffffffff1673ffffffffffffffffffffffffffffffffffffffff16145b1561661f575f813b90505f8111156164b05750616620565b8160105f8573ffffffffffffffffffffffffffffffffffffffff1673ffffffffffffffffffffffffffffffffffffffff1681526020019081526020015f206003015f6101000a81548173ffffffffffffffffffffffffffffffffffffffff021916908373ffffffffffffffffffffffffffffffffffffffff16021790555060145f8373ffffffffffffffffffffffffffffffffffffffff1673ffffffffffffffffffffffffffffffffffffffff1681526020019081526020015f2083908060018154018082558091505060019003905f5260205f20015f9091909190916101000a81548173ffffffffffffffffffffffffffffffffffffffff021916908373ffffffffffffffffffffffffffffffffffffffff1602179055506001600d5f8473ffffffffffffffffffffffffffffffffffffffff1673ffffffffffffffffffffffffffffffffffffffff1681526020019081526020015f205f8282546166169190618e35565b92505081905550505b5b5050565b5f600b5f8773ffffffffffffffffffffffffffffffffffffffff1673ffffffffffffffffffffffffffffffffffffffff1681526020019081526020015f20549050838161667191906186ee565b905080600b5f8873ffffffffffffffffffffffffffffffffffffffff1673ffffffffffffffffffffffffffffffffffffffff1681526020019081526020015f20819055505f60105f8873ffffffffffffffffffffffffffffffffffffffff1673ffffffffffffffffffffffffffffffffffffffff1681526020019081526020015f20905081815f01819055505f8415616c04575f8080861561673d576167366127106167286021548c614a8d90919063ffffffff16565b614aa290919063ffffffff16565b9050616b19565b60135f8c73ffffffffffffffffffffffffffffffffffffffff1673ffffffffffffffffffffffffffffffffffffffff1681526020019081526020015f205f9054906101000a900460ff161561695b57602a545f036167d0576040517f08c379a00000000000000000000000000000000000000000000000000000000081526004016167c7906188f6565b60405180910390fd5b5f616800620f42406167f26167e36127b4565b8d614a8d90919063ffffffff16565b614aa290919063ffffffff16565b905069043c33c193756480000081111561684f576040517f08c379a00000000000000000000000000000000000000000000000000000000081526004016168469061931a565b60405180910390fd5b6078600e5f8d73ffffffffffffffffffffffffffffffffffffffff1673ffffffffffffffffffffffffffffffffffffffff1681526020019081526020015f20546168999190618e35565b4210156168db576040517f08c379a00000000000000000000000000000000000000000000000000000000081526004016168d2906193a8565b60405180910390fd5b42600e5f8d73ffffffffffffffffffffffffffffffffffffffff1673ffffffffffffffffffffffffffffffffffffffff1681526020019081526020015f2081905550616953612710616945601d54601e546169369190618e35565b8d614a8d90919063ffffffff16565b614aa290919063ffffffff16565b925050616b18565b60135f8b73ffffffffffffffffffffffffffffffffffffffff1673ffffffffffffffffffffffffffffffffffffffff1681526020019081526020015f205f9054906101000a900460ff1615616b1757602a545f036169ee576040517f08c379a00000000000000000000000000000000000000000000000000000000081526004016169e5906188f6565b60405180910390fd5b6078600e5f8c73ffffffffffffffffffffffffffffffffffffffff1673ffffffffffffffffffffffffffffffffffffffff1681526020019081526020015f2054616a389190618e35565b421015616a7a576040517f08c379a0000000000000000000000000000000000000000000000000000000008152600401616a71906193a8565b60405180910390fd5b42600e5f8c73ffffffffffffffffffffffffffffffffffffffff1673ffffffffffffffffffffffffffffffffffffffff1681526020019081526020015f208190555060019250616ae9612710616adb6020548c614a8d90919063ffffffff16565b614aa290919063ffffffff16565b9150616b14612710616b06601f548c614a8d90919063ffffffff16565b614aa290919063ffffffff16565b90505b5b5b5f821115616b3b578184616b2d9190618e35565b9350616b3a8b3084617202565b5b5f811115616b5f578084616b4f9190618e35565b9350616b5e8b61dead83617202565b5b828015616b78575060395f9054906101000a900460ff16155b15616c00575f600b5f3073ffffffffffffffffffffffffffffffffffffffff1673ffffffffffffffffffffffffffffffffffffffff1681526020019081526020015f205490505f616be66064616bd860e687614a8d90919063ffffffff16565b614aa290919063ffffffff16565b905081811115616bf4578190505b616bfd816172f6565b50505b5050505b616c1a88888389616c1591906186ee565b617202565b5050505050505050565b42602e5411617081575f7f000000000000000000000000000000000000000000000000000000000000000090505f8173ffffffffffffffffffffffffffffffffffffffff166318160ddd6040518163ffffffff1660e01b8152600401602060405180830381865afa158015616c9b573d5f803e3d5ffd5b505050506040513d601f19601f82011682018060405250810190616cbf9190618696565b90505f8103616ccf575050617081565b5f805f60348054905090505f805f5a90505f80616cea614966565b915091505b8a85108015616cff575085602d54105b1561704f575f602254602d54616d1591906192a0565b148015616d335750602d54602254602354616d309190618c75565b11155b15616d545760235f815480929190616d4a90618d1e565b919050555061704f565b6034602d5481548110616d6a57616d69618789565b5b905f5260205f20015f9054906101000a900473ffffffffffffffffffffffffffffffffffffffff169750602d5f815480929190616da690618d1e565b919050555060195f8973ffffffffffffffffffffffffffffffffffffffff1673ffffffffffffffffffffffffffffffffffffffff1681526020019081526020015f205f9054906101000a900460ff1680616e46575060115f8973ffffffffffffffffffffffffffffffffffffffff1673ffffffffffffffffffffffffffffffffffffffff1681526020019081526020015f205f9054906101000a900460ff165b616cef5760315460165f8a73ffffffffffffffffffffffffffffffffffffffff1673ffffffffffffffffffffffffffffffffffffffff1681526020019081526020015f2054616e959190618e35565b4210616cef575f60105f8a73ffffffffffffffffffffffffffffffffffffffff1673ffffffffffffffffffffffffffffffffffffffff1681526020019081526020015f2060020154111561702e575f616f4982616f3b8560105f8e73ffffffffffffffffffffffffffffffffffffffff1673ffffffffffffffffffffffffffffffffffffffff1681526020019081526020015f2060020154614a8d90919063ffffffff16565b614aa290919063ffffffff16565b9050600281616f589190618c75565b9050616fa14260165f8c73ffffffffffffffffffffffffffffffffffffffff1673ffffffffffffffffffffffffffffffffffffffff1681526020019081526020015f2054617877565b9450616fb68582614a8d90919063ffffffff16565b97505f88111561702c5762015180616fcc615e61565b616fd691906186ee565b60165f8b73ffffffffffffffffffffffffffffffffffffffff1673ffffffffffffffffffffffffffffffffffffffff1681526020019081526020015f208190555061702189896178a1565b61702b8989617b4c565b5b505b5a8361703a91906186ee565b856170459190618e35565b94505a9250616cef565b85602d54106170765760016023819055505f602d8190555061706f615e61565b602e819055505b505050505050505050505b50565b80600b5f8573ffffffffffffffffffffffffffffffffffffffff1673ffffffffffffffffffffffffffffffffffffffff1681526020019081526020015f20546170cd91906186ee565b600b5f8573ffffffffffffffffffffffffffffffffffffffff1673ffffffffffffffffffffffffffffffffffffffff1681526020019081526020015f208190555080600b5f8473ffffffffffffffffffffffffffffffffffffffff1673ffffffffffffffffffffffffffffffffffffffff1681526020019081526020015f20546171579190618e35565b600b5f8473ffffffffffffffffffffffffffffffffffffffff1673ffffffffffffffffffffffffffffffffffffffff1681526020019081526020015f20819055508173ffffffffffffffffffffffffffffffffffffffff168373ffffffffffffffffffffffffffffffffffffffff167fddf252ad1be2c89b69c2b068fc378daa952ba7f163c4a11628f55a4df523b3ef836040516171f59190617d29565b60405180910390a3505050565b80600b5f8473ffffffffffffffffffffffffffffffffffffffff1673ffffffffffffffffffffffffffffffffffffffff1681526020019081526020015f205461724b9190618e35565b600b5f8473ffffffffffffffffffffffffffffffffffffffff1673ffffffffffffffffffffffffffffffffffffffff1681526020019081526020015f20819055508173ffffffffffffffffffffffffffffffffffffffff168373ffffffffffffffffffffffffffffffffffffffff167fddf252ad1be2c89b69c2b068fc378daa952ba7f163c4a11628f55a4df523b3ef836040516172e99190617d29565b60405180910390a3505050565b600160395f6101000a81548160ff0219169083151502179055505f81148061731f575060245481115b61785b575f601e5490505f601d5490505f60205490505f8183856173439190618e35565b61734d9190618e35565b90505f7f000000000000000000000000000000000000000000000000000000000000000090505f7f000000000000000000000000000000000000000000000000000000000000000090505f7f000000000000000000000000000000000000000000000000000000000000000090505f8273ffffffffffffffffffffffffffffffffffffffff166370a08231836040518263ffffffff1660e01b81526004016173f59190618220565b602060405180830381865afa158015617410573d5f803e3d5ffd5b505050506040513d601f19601f820116820180604052508101906174349190618696565b90505f600267ffffffffffffffff8111156174525761745161805a565b5b6040519080825280602002602001820160405280156174805781602001602082028036833780820191505090505b50905030815f8151811061749757617496618789565b5b602002602001019073ffffffffffffffffffffffffffffffffffffffff16908173ffffffffffffffffffffffffffffffffffffffff168152505084816001815181106174e6576174e5618789565b5b602002602001019073ffffffffffffffffffffffffffffffffffffffff16908173ffffffffffffffffffffffffffffffffffffffff16815250507f000000000000000000000000000000000000000000000000000000000000000073ffffffffffffffffffffffffffffffffffffffff16635c11d7958b6025548487426040518663ffffffff1660e01b815260040161758395949392919061947d565b5f604051808303815f87803b15801561759a575f80fd5b505af11580156175ac573d5f803e3d5ffd5b50505050818473ffffffffffffffffffffffffffffffffffffffff166370a08231856040518263ffffffff1660e01b81526004016175ea9190618220565b602060405180830381865afa158015617605573d5f803e3d5ffd5b505050506040513d601f19601f820116820180604052508101906176299190618696565b61763391906186ee565b91505f61765b8761764d8c86614a8d90919063ffffffff16565b614aa290919063ffffffff16565b90505f617683886176758c87614a8d90919063ffffffff16565b614aa290919063ffffffff16565b90508573ffffffffffffffffffffffffffffffffffffffff166323b872dd8630876040518463ffffffff1660e01b81526004016176c2939291906194d5565b6020604051808303815f875af11580156176de573d5f803e3d5ffd5b505050506040513d601f19601f820116820180604052508101906177029190618657565b505f8211156177a9578573ffffffffffffffffffffffffffffffffffffffff1663a9059cbb601b5f9054906101000a900473ffffffffffffffffffffffffffffffffffffffff16846040518363ffffffff1660e01b815260040161776792919061861c565b6020604051808303815f875af1158015617783573d5f803e3d5ffd5b505050506040513d601f19601f820116820180604052508101906177a79190618657565b505b5f81111561784f578573ffffffffffffffffffffffffffffffffffffffff1663a9059cbb601c5f9054906101000a900473ffffffffffffffffffffffffffffffffffffffff16836040518363ffffffff1660e01b815260040161780d92919061861c565b6020604051808303815f875af1158015617829573d5f803e3d5ffd5b505050506040513d601f19601f8201168201806040525081019061784d9190618657565b505b50505050505050505050505b5f60395f6101000a81548160ff02191690831515021790555050565b5f61789962015180838561788b91906186ee565b614aa290919063ffffffff16565b905092915050565b5f6178ac8383613701565b90505f8390505f5b600a811015617b45575f8382600a81106178d1576178d0618789565b5b60200201511115617b37575f60105f8473ffffffffffffffffffffffffffffffffffffffff1673ffffffffffffffffffffffffffffffffffffffff1681526020019081526020015f206003015f9054906101000a900473ffffffffffffffffffffffffffffffffffffffff1690505f5b828110156179ec575f73ffffffffffffffffffffffffffffffffffffffff168273ffffffffffffffffffffffffffffffffffffffff16146179df5760105f8373ffffffffffffffffffffffffffffffffffffffff1673ffffffffffffffffffffffffffffffffffffffff1681526020019081526020015f206003015f9054906101000a900473ffffffffffffffffffffffffffffffffffffffff1691505b8080600101915050617941565b5060195f8273ffffffffffffffffffffffffffffffffffffffff1673ffffffffffffffffffffffffffffffffffffffff1681526020019081526020015f205f9054906101000a900460ff1680617a88575060115f8273ffffffffffffffffffffffffffffffffffffffff1673ffffffffffffffffffffffffffffffffffffffff1681526020019081526020015f205f9054906101000a900460ff165b15617a935750617b38565b5f73ffffffffffffffffffffffffffffffffffffffff168173ffffffffffffffffffffffffffffffffffffffff1614158015617b0e57505f60105f8373ffffffffffffffffffffffffffffffffffffffff1673ffffffffffffffffffffffffffffffffffffffff1681526020019081526020015f2060020154115b15617b3557617b34818584600a8110617b2a57617b29618789565b5b6020020151617b4c565b5b505b5b80806001019150506178b4565b5050505050565b5f7f0000000000000000000000000000000000000000000000000000000000000000905081600b5f8373ffffffffffffffffffffffffffffffffffffffff1673ffffffffffffffffffffffffffffffffffffffff1681526020019081526020015f2054617bb991906186ee565b600b5f8373ffffffffffffffffffffffffffffffffffffffff1673ffffffffffffffffffffffffffffffffffffffff1681526020019081526020015f208190555081600b5f8573ffffffffffffffffffffffffffffffffffffffff1673ffffffffffffffffffffffffffffffffffffffff1681526020019081526020015f2054617c439190618e35565b600b5f8573ffffffffffffffffffffffffffffffffffffffff1673ffffffffffffffffffffffffffffffffffffffff1681526020019081526020015f20819055508273ffffffffffffffffffffffffffffffffffffffff168173ffffffffffffffffffffffffffffffffffffffff167fddf252ad1be2c89b69c2b068fc378daa952ba7f163c4a11628f55a4df523b3ef84604051617ce19190617d29565b60405180910390a3505050565b604051806101400160405280600a90602082028036833780820191505090505090565b5f819050919050565b617d2381617d11565b82525050565b5f602082019050617d3c5f830184617d1a565b92915050565b5f81519050919050565b5f82825260208201905092915050565b8281835e5f83830152505050565b5f601f19601f8301169050919050565b5f617d8482617d42565b617d8e8185617d4c565b9350617d9e818560208601617d5c565b617da781617d6a565b840191505092915050565b5f6020820190508181035f830152617dca8184617d7a565b905092915050565b5f604051905090565b5f80fd5b5f80fd5b5f73ffffffffffffffffffffffffffffffffffffffff82169050919050565b5f617e0c82617de3565b9050919050565b617e1c81617e02565b8114617e26575f80fd5b50565b5f81359050617e3781617e13565b92915050565b617e4681617d11565b8114617e50575f80fd5b50565b5f81359050617e6181617e3d565b92915050565b5f8060408385031215617e7d57617e7c617ddb565b5b5f617e8a85828601617e29565b9250506020617e9b85828601617e53565b9150509250929050565b5f8115159050919050565b617eb981617ea5565b82525050565b5f602082019050617ed25f830184617eb0565b92915050565b617ee181617ea5565b8114617eeb575f80fd5b50565b5f81359050617efc81617ed8565b92915050565b5f8060408385031215617f1857617f17617ddb565b5b5f617f2585828601617e29565b9250506020617f3685828601617eee565b9150509250929050565b5f60208284031215617f5557617f54617ddb565b5b5f617f6284828501617e29565b91505092915050565b5f604082019050617f7e5f830185617d1a565b617f8b6020830184617d1a565b9392505050565b5f819050919050565b5f617fb5617fb0617fab84617de3565b617f92565b617de3565b9050919050565b5f617fc682617f9b565b9050919050565b5f617fd782617fbc565b9050919050565b617fe781617fcd565b82525050565b5f6020820190506180005f830184617fde565b92915050565b5f805f6060848603121561801d5761801c617ddb565b5b5f61802a86828701617e29565b935050602061803b86828701617e29565b925050604061804c86828701617e53565b9150509250925092565b5f80fd5b7f4e487b71000000000000000000000000000000000000000000000000000000005f52604160045260245ffd5b61809082617d6a565b810181811067ffffffffffffffff821117156180af576180ae61805a565b5b80604052505050565b5f6180c1617dd2565b90506180cd8282618087565b919050565b5f67ffffffffffffffff8211156180ec576180eb61805a565b5b602082029050602081019050919050565b5f80fd5b5f61811361810e846180d2565b6180b8565b90508083825260208201905060208402830185811115618136576181356180fd565b5b835b8181101561815f578061814b8882617e29565b845260208401935050602081019050618138565b5050509392505050565b5f82601f83011261817d5761817c618056565b5b813561818d848260208601618101565b91505092915050565b5f602082840312156181ab576181aa617ddb565b5b5f82013567ffffffffffffffff8111156181c8576181c7617ddf565b5b6181d484828501618169565b91505092915050565b5f60ff82169050919050565b6181f2816181dd565b82525050565b5f60208201905061820b5f8301846181e9565b92915050565b61821a81617e02565b82525050565b5f6020820190506182335f830184618211565b92915050565b5f60e08201905061824c5f83018a617d1a565b6182596020830189617d1a565b6182666040830188617eb0565b6182736060830187617d1a565b6182806080830186617d1a565b61828d60a0830185618211565b61829a60c0830184617d1a565b98975050505050505050565b5f80604083850312156182bc576182bb617ddb565b5b5f6182c985828601617e53565b92505060206182da85828601617e53565b9150509250929050565b5f805f606084860312156182fb576182fa617ddb565b5b5f61830886828701617e53565b935050602061831986828701617e53565b925050604061832a86828701617eee565b9150509250925092565b5f61833e82617fbc565b9050919050565b61834e81618334565b82525050565b5f6020820190506183675f830184618345565b92915050565b5f6020828403121561838257618381617ddb565b5b5f61838f84828501617e53565b91505092915050565b5f80604083850312156183ae576183ad617ddb565b5b5f6183bb85828601617e29565b92505060206183cc85828601617e29565b9150509250929050565b5f80604083850312156183ec576183eb617ddb565b5b5f83013567ffffffffffffffff81111561840957618408617ddf565b5b61841585828601618169565b925050602061842685828601617eee565b9150509250929050565b5f600a9050919050565b5f81905092915050565b5f819050919050565b61845681617d11565b82525050565b5f618467838361844d565b60208301905092915050565b5f602082019050919050565b61848881618430565b618492818461843a565b925061849d82618444565b805f5b838110156184cd5781516184b4878261845c565b96506184bf83618473565b9250506001810190506184a0565b505050505050565b5f610140820190506184e95f83018461847f565b92915050565b7f4e487b71000000000000000000000000000000000000000000000000000000005f52602260045260245ffd5b5f600282049050600182168061853357607f821691505b602082108103618546576185456184ef565b5b50919050565b7f216f0000000000000000000000000000000000000000000000000000000000005f82015250565b5f618580600283617d4c565b915061858b8261854c565b602082019050919050565b5f6020820190508181035f8301526185ad81618574565b9050919050565b7f6e770000000000000000000000000000000000000000000000000000000000005f82015250565b5f6185e8600283617d4c565b91506185f3826185b4565b602082019050919050565b5f6020820190508181035f830152618615816185dc565b9050919050565b5f60408201905061862f5f830185618211565b61863c6020830184617d1a565b9392505050565b5f8151905061865181617ed8565b92915050565b5f6020828403121561866c5761866b617ddb565b5b5f61867984828501618643565b91505092915050565b5f8151905061869081617e3d565b92915050565b5f602082840312156186ab576186aa617ddb565b5b5f6186b884828501618682565b91505092915050565b7f4e487b71000000000000000000000000000000000000000000000000000000005f52601160045260245ffd5b5f6186f882617d11565b915061870383617d11565b925082820390508181111561871b5761871a6186c1565b5b92915050565b7f4e6f206164647265737365732070726f766964656400000000000000000000005f82015250565b5f618755601583617d4c565b915061876082618721565b602082019050919050565b5f6020820190508181035f83015261878281618749565b9050919050565b7f4e487b71000000000000000000000000000000000000000000000000000000005f52603260045260245ffd5b7f496e76616c69642064657374726f7946656520616d6f756e74000000000000005f82015250565b5f6187ea601983617d4c565b91506187f5826187b6565b602082019050919050565b5f6020820190508181035f830152618817816187de565b9050919050565b7f496e76616c69642073656c6c52657365727665506f6f6c46656520616d6f756e5f8201527f7400000000000000000000000000000000000000000000000000000000000000602082015250565b5f618878602183617d4c565b91506188838261881e565b604082019050919050565b5f6020820190508181035f8301526188a58161886c565b9050919050565b7f54000000000000000000000000000000000000000000000000000000000000005f82015250565b5f6188e0600183617d4c565b91506188eb826188ac565b602082019050919050565b5f6020820190508181035f83015261890d816188d4565b9050919050565b7f63616e6e6f7420736574206275796261636b206d6f7265206f6674656e2074685f8201527f616e206576657279203130206d696e7574657300000000000000000000000000602082015250565b5f61896e603383617d4c565b915061897982618914565b604082019050919050565b5f6020820190508181035f83015261899b81618962565b9050919050565b7f4d75737420736574206175746f204c50206275726e2070657263656e742062655f8201527f747765656e20302520616e642031302500000000000000000000000000000000602082015250565b5f6189fc603083617d4c565b9150618a07826189a2565b604082019050919050565b5f6020820190508181035f830152618a29816189f0565b9050919050565b5f6dffffffffffffffffffffffffffff82169050919050565b618a5281618a30565b8114618a5c575f80fd5b50565b5f81519050618a6d81618a49565b92915050565b5f63ffffffff82169050919050565b618a8b81618a73565b8114618a95575f80fd5b50565b5f81519050618aa681618a82565b92915050565b5f805f60608486031215618ac357618ac2617ddb565b5b5f618ad086828701618a5f565b9350506020618ae186828701618a5f565b9250506040618af286828701618a98565b9150509250925092565b5f8160011c9050919050565b5f808291508390505b6001851115618b5157808604811115618b2d57618b2c6186c1565b5b6001851615618b3c5780820291505b8081029050618b4a85618afc565b9450618b11565b94509492505050565b5f82618b695760019050618c24565b81618b76575f9050618c24565b8160018114618b8c5760028114618b9657618bc5565b6001915050618c24565b60ff841115618ba857618ba76186c1565b5b8360020a915084821115618bbf57618bbe6186c1565b5b50618c24565b5060208310610133831016604e8410600b8410161715618bfa5782820a905083811115618bf557618bf46186c1565b5b618c24565b618c078484846001618b08565b92509050818404811115618c1e57618c1d6186c1565b5b81810290505b9392505050565b5f618c3582617d11565b9150618c40836181dd565b9250618c6d7fffffffffffffffffffffffffffffffffffffffffffffffffffffffffffffffff8484618b5a565b905092915050565b5f618c7f82617d11565b9150618c8a83617d11565b9250828202618c9881617d11565b91508282048414831517618caf57618cae6186c1565b5b5092915050565b7f46756e64416464726573732063616e6e6f74206265207a65726f0000000000005f82015250565b5f618cea601a83617d4c565b9150618cf582618cb6565b602082019050919050565b5f6020820190508181035f830152618d1781618cde565b9050919050565b5f618d2882617d11565b91507fffffffffffffffffffffffffffffffffffffffffffffffffffffffffffffffff8203618d5a57618d596186c1565b5b600182019050919050565b7f32302d35303077000000000000000000000000000000000000000000000000005f82015250565b5f618d99600783617d4c565b9150618da482618d65565b602082019050919050565b5f6020820190508181035f830152618dc681618d8d565b9050919050565b7f47726561746572207468652031000000000000000000000000000000000000005f82015250565b5f618e01600d83617d4c565b9150618e0c82618dcd565b602082019050919050565b5f6020820190508181035f830152618e2e81618df5565b9050919050565b5f618e3f82617d11565b9150618e4a83617d11565b9250828201905080821115618e6257618e616186c1565b5b92915050565b7f496e76616c69642046656520616d6f756e7400000000000000000000000000005f82015250565b5f618e9c601283617d4c565b9150618ea782618e68565b602082019050919050565b5f6020820190508181035f830152618ec981618e90565b9050919050565b5f81905092915050565b50565b5f618ee85f83618ed0565b9150618ef382618eda565b5f82019050919050565b5f618f0782618edd565b9150819050919050565b7f5472616e73666572206661696c656400000000000000000000000000000000005f82015250565b5f618f45600f83617d4c565b9150618f5082618f11565b602082019050919050565b5f6020820190508181035f830152618f7281618f39565b9050919050565b7f56616c75652073686f756c642062652030206f722031000000000000000000005f82015250565b5f618fad601683617d4c565b9150618fb882618f79565b602082019050919050565b5f6020820190508181035f830152618fda81618fa1565b9050919050565b7f6e300000000000000000000000000000000000000000000000000000000000005f82015250565b5f619015600283617d4c565b915061902082618fe1565b602082019050919050565b5f6020820190508181035f83015261904281619009565b9050919050565b7f496e76616c69642062757944657646656520616d6f756e7400000000000000005f82015250565b5f61907d601883617d4c565b915061908882619049565b602082019050919050565b5f6020820190508181035f8301526190aa81619071565b9050919050565b7f496e76616c69642066756e6446656520616d6f756e74000000000000000000005f82015250565b5f6190e5601683617d4c565b91506190f0826190b1565b602082019050919050565b5f6020820190508181035f830152619112816190d9565b9050919050565b7f4e487b71000000000000000000000000000000000000000000000000000000005f52601260045260245ffd5b5f61915082617d11565b915061915b83617d11565b92508261916b5761916a619119565b5b828204905092915050565b7f5472616e73666572206c696d6974206f66203130303030204e555420657863655f8201527f6564656400000000000000000000000000000000000000000000000000000000602082015250565b5f6191d0602483617d4c565b91506191db82619176565b604082019050919050565b5f6020820190508181035f8301526191fd816191c4565b9050919050565b5f61920e826181dd565b9150619219836181dd565b9250828203905060ff811115619232576192316186c1565b5b92915050565b7f21540000000000000000000000000000000000000000000000000000000000005f82015250565b5f61926c600283617d4c565b915061927782619238565b602082019050919050565b5f6020820190508181035f83015261929981619260565b9050919050565b5f6192aa82617d11565b91506192b583617d11565b9250826192c5576192c4619119565b5b828206905092915050565b7f596f752063616e206f6e6c7920627579206d61782032302c30303020757364745f82015250565b5f619304602083617d4c565b915061930f826192d0565b602082019050919050565b5f6020820190508181035f830152619331816192f8565b9050919050565b7f4d75737420776169742032206d696e75746573206265747765656e207472616e5f8201527f73616374696f6e73000000000000000000000000000000000000000000000000602082015250565b5f619392602883617d4c565b915061939d82619338565b604082019050919050565b5f6020820190508181035f8301526193bf81619386565b9050919050565b5f81519050919050565b5f82825260208201905092915050565b5f819050602082019050919050565b6193f881617e02565b82525050565b5f61940983836193ef565b60208301905092915050565b5f602082019050919050565b5f61942b826193c6565b61943581856193d0565b9350619440836193e0565b805f5b8381101561947057815161945788826193fe565b975061946283619415565b925050600181019050619443565b5085935050505092915050565b5f60a0820190506194905f830188617d1a565b61949d6020830187617d1a565b81810360408301526194af8186619421565b90506194be6060830185618211565b6194cb6080830184617d1a565b9695505050505050565b5f6060820190506194e85f830186618211565b6194f56020830185618211565b6195026040830184617d1a565b94935050505056fea2646970667358221220b7fb6cb173971ae99e313c7dd9e6877e475835f24eede19ff25724468e9ca56f64736f6c634300081a0033608060405234801561000f575f80fd5b506040516106b83803806106b8833981810160405281019061003191906101cf565b335f806101000a81548173ffffffffffffffffffffffffffffffffffffffff021916908373ffffffffffffffffffffffffffffffffffffffff1602179055508173ffffffffffffffffffffffffffffffffffffffff1663095ea7b3335f196040518363ffffffff1660e01b81526004016100ac929190610234565b6020604051808303815f875af11580156100c8573d5f803e3d5ffd5b505050506040513d601f19601f820116820180604052508101906100ec9190610290565b508173ffffffffffffffffffffffffffffffffffffffff1663095ea7b3825f196040518363ffffffff1660e01b8152600401610129929190610234565b6020604051808303815f875af1158015610145573d5f803e3d5ffd5b505050506040513d601f19601f820116820180604052508101906101699190610290565b5050506102bb565b5f80fd5b5f73ffffffffffffffffffffffffffffffffffffffff82169050919050565b5f61019e82610175565b9050919050565b6101ae81610194565b81146101b8575f80fd5b50565b5f815190506101c9816101a5565b92915050565b5f80604083850312156101e5576101e4610171565b5b5f6101f2858286016101bb565b9250506020610203858286016101bb565b9150509250929050565b61021681610194565b82525050565b5f819050919050565b61022e8161021c565b82525050565b5f6040820190506102475f83018561020d565b6102546020830184610225565b9392505050565b5f8115159050919050565b61026f8161025b565b8114610279575f80fd5b50565b5f8151905061028a81610266565b92915050565b5f602082840312156102a5576102a4610171565b5b5f6102b28482850161027c565b91505092915050565b6103f0806102c85f395ff3fe608060405234801561000f575f80fd5b5060043610610034575f3560e01c8063125bfb6614610038578063b2bdfa7b14610054575b5f80fd5b610052600480360381019061004d9190610234565b610072565b005b61005c610180565b6040516100699190610293565b60405180910390f35b5f8054906101000a900473ffffffffffffffffffffffffffffffffffffffff1673ffffffffffffffffffffffffffffffffffffffff163373ffffffffffffffffffffffffffffffffffffffff16146100ff576040517f08c379a00000000000000000000000000000000000000000000000000000000081526004016100f690610306565b60405180910390fd5b8273ffffffffffffffffffffffffffffffffffffffff1663a9059cbb83836040518363ffffffff1660e01b815260040161013a929190610333565b6020604051808303815f875af1158015610156573d5f803e3d5ffd5b505050506040513d601f19601f8201168201806040525081019061017a919061038f565b50505050565b5f8054906101000a900473ffffffffffffffffffffffffffffffffffffffff1681565b5f80fd5b5f73ffffffffffffffffffffffffffffffffffffffff82169050919050565b5f6101d0826101a7565b9050919050565b6101e0816101c6565b81146101ea575f80fd5b50565b5f813590506101fb816101d7565b92915050565b5f819050919050565b61021381610201565b811461021d575f80fd5b50565b5f8135905061022e8161020a565b92915050565b5f805f6060848603121561024b5761024a6101a3565b5b5f610258868287016101ed565b9350506020610269868287016101ed565b925050604061027a86828701610220565b9150509250925092565b61028d816101c6565b82525050565b5f6020820190506102a65f830184610284565b92915050565b5f82825260208201905092915050565b7f216f0000000000000000000000000000000000000000000000000000000000005f82015250565b5f6102f06002836102ac565b91506102fb826102bc565b602082019050919050565b5f6020820190508181035f83015261031d816102e4565b9050919050565b61032d81610201565b82525050565b5f6040820190506103465f830185610284565b6103536020830184610324565b9392505050565b5f8115159050919050565b61036e8161035a565b8114610378575f80fd5b50565b5f8151905061038981610365565b92915050565b5f602082840312156103a4576103a36101a3565b5b5f6103b18482850161037b565b9150509291505056fea2646970667358221220aa06a513f5b070f48244f32d1cceab844d97e853d05459bd2019ae2e57a5c9fa64736f6c634300081a0033",
			"opcodes": "PUSH2 0x100 PUSH1 0x40 MSTORE PUSH1 0x40 MLOAD DUP1 PUSH2 0x140 ADD PUSH1 0x40 MSTORE DUP1 PUSH1 0xA PUSH1 0xFF AND DUP2 MSTORE PUSH1 0x20 ADD PUSH1 0x8 PUSH1 0xFF AND DUP2 MSTORE PUSH1 0x20 ADD PUSH1 0x6 PUSH1 0xFF AND DUP2 MSTORE PUSH1 0x20 ADD PUSH1 0x4 PUSH1 0xFF AND DUP2 MSTORE PUSH1 0x20 ADD PUSH1 0x2 PUSH1 0xFF AND DUP2 MSTORE PUSH1 0x20 ADD PUSH1 0xA PUSH1 0xFF AND DUP2 MSTORE PUSH1 0x20 ADD PUSH1 0x8 PUSH1 0xFF AND DUP2 MSTORE PUSH1 0x20 ADD PUSH1 0x6 PUSH1 0xFF AND DUP2 MSTORE PUSH1 0x20 ADD PUSH1 0x4 PUSH1 0xFF AND DUP2 MSTORE PUSH1 0x20 ADD PUSH1 0x2 PUSH1 0xFF AND DUP2 MSTORE POP PUSH1 0x1 SWAP1 PUSH1 0xA PUSH2 0x83 SWAP3 SWAP2 SWAP1 PUSH2 0x10D2 JUMP JUMPDEST POP PUSH1 0x32 PUSH1 0x1D SSTORE PUSH1 0x96 PUSH1 0x1E SSTORE PUSH1 0x64 PUSH1 0x1F SSTORE PUSH1 0x64 PUSH1 0x20 SSTORE PUSH1 0xC8 PUSH1 0x21 SSTORE PUSH1 0x14 PUSH1 0x22 SSTORE PUSH0 PUSH1 0x23 SSTORE PUSH5 0x2540BE400 PUSH1 0x24 SSTORE PUSH0 PUSH1 0x25 SSTORE PUSH1 0x19 PUSH1 0x26 SSTORE PUSH0 PUSH1 0x27 PUSH0 PUSH2 0x100 EXP DUP2 SLOAD DUP2 PUSH1 0xFF MUL NOT AND SWAP1 DUP4 ISZERO ISZERO MUL OR SWAP1 SSTORE POP PUSH2 0xE10 PUSH1 0x28 SSTORE PUSH2 0x3E8 PUSH1 0x2F SSTORE PUSH3 0xF4240 PUSH1 0x30 SSTORE PUSH3 0x69780 PUSH1 0x31 SSTORE CALLVALUE DUP1 ISZERO PUSH2 0xF6 JUMPI PUSH0 DUP1 REVERT JUMPDEST POP PUSH20 0xD99D1C33F9FC3444F8101754ABC46C52416550D1 PUSH20 0xE96AAF0080157C2B5008FF0DDC5466B0C4F0D35E PUSH1 0x40 MLOAD DUP1 PUSH1 0x40 ADD PUSH1 0x40 MSTORE DUP1 PUSH1 0x13 DUP2 MSTORE PUSH1 0x20 ADD PUSH32 0x54657374696E674F6E4D61696E4E657433373200000000000000000000000000 DUP2 MSTORE POP PUSH1 0x40 MLOAD DUP1 PUSH1 0x40 ADD PUSH1 0x40 MSTORE DUP1 PUSH1 0x7 DUP2 MSTORE PUSH1 0x20 ADD PUSH32 0x544F4D4E33373200000000000000000000000000000000000000000000000000 DUP2 MSTORE POP PUSH1 0x6 PUSH20 0x777E2217A6E4438A6204E8E43B7648970E6417F9 PUSH20 0xDE2ECCEDB514C8C71AEBBFB4507DD84F60A02F19 PUSH20 0x6A92C5512B72F228627075764BA233537403C8EA PUSH0 CALLER SWAP1 POP DUP1 PUSH0 DUP1 PUSH2 0x100 EXP DUP2 SLOAD DUP2 PUSH20 0xFFFFFFFFFFFFFFFFFFFFFFFFFFFFFFFFFFFFFFFF MUL NOT AND SWAP1 DUP4 PUSH20 0xFFFFFFFFFFFFFFFFFFFFFFFFFFFFFFFFFFFFFFFF AND MUL OR SWAP1 SSTORE POP DUP1 PUSH20 0xFFFFFFFFFFFFFFFFFFFFFFFFFFFFFFFFFFFFFFFF AND PUSH0 PUSH20 0xFFFFFFFFFFFFFFFFFFFFFFFFFFFFFFFFFFFFFFFF AND PUSH32 0x8BE0079C531659141344CD1FD0A4F28419497F9722A3DAAFE3B4186F6B6457E0 PUSH1 0x40 MLOAD PUSH1 0x40 MLOAD DUP1 SWAP2 SUB SWAP1 LOG3 POP PUSH0 PUSH20 0xFFFFFFFFFFFFFFFFFFFFFFFFFFFFFFFFFFFFFFFF AND DUP8 PUSH20 0xFFFFFFFFFFFFFFFFFFFFFFFFFFFFFFFFFFFFFFFF AND SUB PUSH2 0x2DA JUMPI PUSH1 0x40 MLOAD PUSH32 0x8C379A000000000000000000000000000000000000000000000000000000000 DUP2 MSTORE PUSH1 0x4 ADD PUSH2 0x2D1 SWAP1 PUSH2 0x1199 JUMP JUMPDEST PUSH1 0x40 MLOAD DUP1 SWAP2 SUB SWAP1 REVERT JUMPDEST PUSH0 PUSH20 0xFFFFFFFFFFFFFFFFFFFFFFFFFFFFFFFFFFFFFFFF AND DUP3 PUSH20 0xFFFFFFFFFFFFFFFFFFFFFFFFFFFFFFFFFFFFFFFF AND SUB PUSH2 0x348 JUMPI PUSH1 0x40 MLOAD PUSH32 0x8C379A000000000000000000000000000000000000000000000000000000000 DUP2 MSTORE PUSH1 0x4 ADD PUSH2 0x33F SWAP1 PUSH2 0x1201 JUMP JUMPDEST PUSH1 0x40 MLOAD DUP1 SWAP2 SUB SWAP1 REVERT JUMPDEST PUSH0 PUSH20 0xFFFFFFFFFFFFFFFFFFFFFFFFFFFFFFFFFFFFFFFF AND DUP2 PUSH20 0xFFFFFFFFFFFFFFFFFFFFFFFFFFFFFFFFFFFFFFFF AND SUB PUSH2 0x3B6 JUMPI PUSH1 0x40 MLOAD PUSH32 0x8C379A000000000000000000000000000000000000000000000000000000000 DUP2 MSTORE PUSH1 0x4 ADD PUSH2 0x3AD SWAP1 PUSH2 0x1269 JUMP JUMPDEST PUSH1 0x40 MLOAD DUP1 SWAP2 SUB SWAP1 REVERT JUMPDEST PUSH0 PUSH20 0xFFFFFFFFFFFFFFFFFFFFFFFFFFFFFFFFFFFFFFFF AND DUP4 PUSH20 0xFFFFFFFFFFFFFFFFFFFFFFFFFFFFFFFFFFFFFFFF AND SUB PUSH2 0x424 JUMPI PUSH1 0x40 MLOAD PUSH32 0x8C379A000000000000000000000000000000000000000000000000000000000 DUP2 MSTORE PUSH1 0x4 ADD PUSH2 0x41B SWAP1 PUSH2 0x12D1 JUMP JUMPDEST PUSH1 0x40 MLOAD DUP1 SWAP2 SUB SWAP1 REVERT JUMPDEST DUP6 PUSH1 0x35 SWAP1 DUP2 PUSH2 0x433 SWAP2 SWAP1 PUSH2 0x1529 JUMP JUMPDEST POP DUP5 PUSH1 0x36 SWAP1 DUP2 PUSH2 0x443 SWAP2 SWAP1 PUSH2 0x1529 JUMP JUMPDEST POP DUP4 PUSH1 0x37 PUSH0 PUSH2 0x100 EXP DUP2 SLOAD DUP2 PUSH1 0xFF MUL NOT AND SWAP1 DUP4 PUSH1 0xFF AND MUL OR SWAP1 SSTORE POP PUSH0 DUP9 SWAP1 POP DUP1 PUSH20 0xFFFFFFFFFFFFFFFFFFFFFFFFFFFFFFFFFFFFFFFF AND PUSH1 0x80 DUP2 PUSH20 0xFFFFFFFFFFFFFFFFFFFFFFFFFFFFFFFFFFFFFFFF AND DUP2 MSTORE POP POP PUSH0 NOT PUSH1 0xC PUSH0 ADDRESS PUSH20 0xFFFFFFFFFFFFFFFFFFFFFFFFFFFFFFFFFFFFFFFF AND PUSH20 0xFFFFFFFFFFFFFFFFFFFFFFFFFFFFFFFFFFFFFFFF AND DUP2 MSTORE PUSH1 0x20 ADD SWAP1 DUP2 MSTORE PUSH1 0x20 ADD PUSH0 KECCAK256 PUSH0 DUP4 PUSH20 0xFFFFFFFFFFFFFFFFFFFFFFFFFFFFFFFFFFFFFFFF AND PUSH20 0xFFFFFFFFFFFFFFFFFFFFFFFFFFFFFFFFFFFFFFFF AND DUP2 MSTORE PUSH1 0x20 ADD SWAP1 DUP2 MSTORE PUSH1 0x20 ADD PUSH0 KECCAK256 DUP2 SWAP1 SSTORE POP PUSH0 DUP2 PUSH20 0xFFFFFFFFFFFFFFFFFFFFFFFFFFFFFFFFFFFFFFFF AND PUSH4 0xC45A0155 PUSH1 0x40 MLOAD DUP2 PUSH4 0xFFFFFFFF AND PUSH1 0xE0 SHL DUP2 MSTORE PUSH1 0x4 ADD PUSH1 0x20 PUSH1 0x40 MLOAD DUP1 DUP4 SUB DUP2 DUP7 GAS STATICCALL ISZERO DUP1 ISZERO PUSH2 0x55E JUMPI RETURNDATASIZE PUSH0 DUP1 RETURNDATACOPY RETURNDATASIZE PUSH0 REVERT JUMPDEST POP POP POP POP PUSH1 0x40 MLOAD RETURNDATASIZE PUSH1 0x1F NOT PUSH1 0x1F DUP3 ADD AND DUP3 ADD DUP1 PUSH1 0x40 MSTORE POP DUP2 ADD SWAP1 PUSH2 0x582 SWAP2 SWAP1 PUSH2 0x1656 JUMP JUMPDEST SWAP1 POP DUP9 PUSH20 0xFFFFFFFFFFFFFFFFFFFFFFFFFFFFFFFFFFFFFFFF AND PUSH1 0xC0 DUP2 PUSH20 0xFFFFFFFFFFFFFFFFFFFFFFFFFFFFFFFFFFFFFFFF AND DUP2 MSTORE POP POP PUSH1 0xC0 MLOAD PUSH20 0xFFFFFFFFFFFFFFFFFFFFFFFFFFFFFFFFFFFFFFFF AND PUSH4 0x95EA7B3 DUP4 PUSH0 NOT PUSH1 0x40 MLOAD DUP4 PUSH4 0xFFFFFFFF AND PUSH1 0xE0 SHL DUP2 MSTORE PUSH1 0x4 ADD PUSH2 0x5F6 SWAP3 SWAP2 SWAP1 PUSH2 0x169F JUMP JUMPDEST PUSH1 0x20 PUSH1 0x40 MLOAD DUP1 DUP4 SUB DUP2 PUSH0 DUP8 GAS CALL ISZERO DUP1 ISZERO PUSH2 0x612 JUMPI RETURNDATASIZE PUSH0 DUP1 RETURNDATACOPY RETURNDATASIZE PUSH0 REVERT JUMPDEST POP POP POP POP PUSH1 0x40 MLOAD RETURNDATASIZE PUSH1 0x1F NOT PUSH1 0x1F DUP3 ADD AND DUP3 ADD DUP1 PUSH1 0x40 MSTORE POP DUP2 ADD SWAP1 PUSH2 0x636 SWAP2 SWAP1 PUSH2 0x16FB JUMP JUMPDEST POP PUSH0 DUP2 PUSH20 0xFFFFFFFFFFFFFFFFFFFFFFFFFFFFFFFFFFFFFFFF AND PUSH4 0xC9C65396 ADDRESS PUSH1 0xC0 MLOAD PUSH1 0x40 MLOAD DUP4 PUSH4 0xFFFFFFFF AND PUSH1 0xE0 SHL DUP2 MSTORE PUSH1 0x4 ADD PUSH2 0x675 SWAP3 SWAP2 SWAP1 PUSH2 0x1726 JUMP JUMPDEST PUSH1 0x20 PUSH1 0x40 MLOAD DUP1 DUP4 SUB DUP2 PUSH0 DUP8 GAS CALL ISZERO DUP1 ISZERO PUSH2 0x691 JUMPI RETURNDATASIZE PUSH0 DUP1 RETURNDATACOPY RETURNDATASIZE PUSH0 REVERT JUMPDEST POP POP POP POP PUSH1 0x40 MLOAD RETURNDATASIZE PUSH1 0x1F NOT PUSH1 0x1F DUP3 ADD AND DUP3 ADD DUP1 PUSH1 0x40 MSTORE POP DUP2 ADD SWAP1 PUSH2 0x6B5 SWAP2 SWAP1 PUSH2 0x1656 JUMP JUMPDEST SWAP1 POP PUSH1 0x1 PUSH1 0x13 PUSH0 DUP4 PUSH20 0xFFFFFFFFFFFFFFFFFFFFFFFFFFFFFFFFFFFFFFFF AND PUSH20 0xFFFFFFFFFFFFFFFFFFFFFFFFFFFFFFFFFFFFFFFF AND DUP2 MSTORE PUSH1 0x20 ADD SWAP1 DUP2 MSTORE PUSH1 0x20 ADD PUSH0 KECCAK256 PUSH0 PUSH2 0x100 EXP DUP2 SLOAD DUP2 PUSH1 0xFF MUL NOT AND SWAP1 DUP4 ISZERO ISZERO MUL OR SWAP1 SSTORE POP DUP1 PUSH20 0xFFFFFFFFFFFFFFFFFFFFFFFFFFFFFFFFFFFFFFFF AND PUSH1 0xA0 DUP2 PUSH20 0xFFFFFFFFFFFFFFFFFFFFFFFFFFFFFFFFFFFFFFFF AND DUP2 MSTORE POP POP PUSH0 DUP8 PUSH1 0xA PUSH2 0x74E SWAP2 SWAP1 PUSH2 0x18B5 JUMP JUMPDEST SWAP1 POP PUSH0 DUP2 PUSH4 0x1406F40 PUSH2 0x761 SWAP2 SWAP1 PUSH2 0x18FF JUMP JUMPDEST SWAP1 POP PUSH0 DUP3 PUSH3 0x1E8480 PUSH2 0x773 SWAP2 SWAP1 PUSH2 0x18FF JUMP JUMPDEST SWAP1 POP PUSH0 DUP4 PUSH3 0x1E8480 PUSH4 0x1406F40 PUSH2 0x78A SWAP2 SWAP1 PUSH2 0x1940 JUMP JUMPDEST PUSH2 0x794 SWAP2 SWAP1 PUSH2 0x18FF JUMP JUMPDEST SWAP1 POP DUP3 PUSH1 0x38 DUP2 SWAP1 SSTORE POP DUP2 PUSH1 0xB PUSH0 DUP13 PUSH20 0xFFFFFFFFFFFFFFFFFFFFFFFFFFFFFFFFFFFFFFFF AND PUSH20 0xFFFFFFFFFFFFFFFFFFFFFFFFFFFFFFFFFFFFFFFF AND DUP2 MSTORE PUSH1 0x20 ADD SWAP1 DUP2 MSTORE PUSH1 0x20 ADD PUSH0 KECCAK256 DUP2 SWAP1 SSTORE POP DUP10 PUSH20 0xFFFFFFFFFFFFFFFFFFFFFFFFFFFFFFFFFFFFFFFF AND PUSH0 PUSH20 0xFFFFFFFFFFFFFFFFFFFFFFFFFFFFFFFFFFFFFFFF AND PUSH32 0xDDF252AD1BE2C89B69C2B068FC378DAA952BA7F163C4A11628F55A4DF523B3EF DUP5 PUSH1 0x40 MLOAD PUSH2 0x83C SWAP2 SWAP1 PUSH2 0x1973 JUMP JUMPDEST PUSH1 0x40 MLOAD DUP1 SWAP2 SUB SWAP1 LOG3 DUP9 PUSH1 0x1B PUSH0 PUSH2 0x100 EXP DUP2 SLOAD DUP2 PUSH20 0xFFFFFFFFFFFFFFFFFFFFFFFFFFFFFFFFFFFFFFFF MUL NOT AND SWAP1 DUP4 PUSH20 0xFFFFFFFFFFFFFFFFFFFFFFFFFFFFFFFFFFFFFFFF AND MUL OR SWAP1 SSTORE POP DUP8 PUSH1 0x1C PUSH0 PUSH2 0x100 EXP DUP2 SLOAD DUP2 PUSH20 0xFFFFFFFFFFFFFFFFFFFFFFFFFFFFFFFFFFFFFFFF MUL NOT AND SWAP1 DUP4 PUSH20 0xFFFFFFFFFFFFFFFFFFFFFFFFFFFFFFFFFFFFFFFF AND MUL OR SWAP1 SSTORE POP DUP10 PUSH1 0x1A PUSH0 PUSH2 0x100 EXP DUP2 SLOAD DUP2 PUSH20 0xFFFFFFFFFFFFFFFFFFFFFFFFFFFFFFFFFFFFFFFF MUL NOT AND SWAP1 DUP4 PUSH20 0xFFFFFFFFFFFFFFFFFFFFFFFFFFFFFFFFFFFFFFFF AND MUL OR SWAP1 SSTORE POP PUSH1 0xC0 MLOAD ADDRESS PUSH1 0x40 MLOAD PUSH2 0x914 SWAP1 PUSH2 0x1117 JUMP JUMPDEST PUSH2 0x91F SWAP3 SWAP2 SWAP1 PUSH2 0x1726 JUMP JUMPDEST PUSH1 0x40 MLOAD DUP1 SWAP2 SUB SWAP1 PUSH0 CREATE DUP1 ISZERO DUP1 ISZERO PUSH2 0x938 JUMPI RETURNDATASIZE PUSH0 DUP1 RETURNDATACOPY RETURNDATASIZE PUSH0 REVERT JUMPDEST POP PUSH20 0xFFFFFFFFFFFFFFFFFFFFFFFFFFFFFFFFFFFFFFFF AND PUSH1 0xE0 DUP2 PUSH20 0xFFFFFFFFFFFFFFFFFFFFFFFFFFFFFFFFFFFFFFFF AND DUP2 MSTORE POP POP PUSH0 PUSH1 0xE0 MLOAD SWAP1 POP DUP2 PUSH1 0xB PUSH0 DUP4 PUSH20 0xFFFFFFFFFFFFFFFFFFFFFFFFFFFFFFFFFFFFFFFF AND PUSH20 0xFFFFFFFFFFFFFFFFFFFFFFFFFFFFFFFFFFFFFFFF AND DUP2 MSTORE PUSH1 0x20 ADD SWAP1 DUP2 MSTORE PUSH1 0x20 ADD PUSH0 KECCAK256 DUP2 SWAP1 SSTORE POP DUP1 PUSH20 0xFFFFFFFFFFFFFFFFFFFFFFFFFFFFFFFFFFFFFFFF AND PUSH0 PUSH20 0xFFFFFFFFFFFFFFFFFFFFFFFFFFFFFFFFFFFFFFFF AND PUSH32 0xDDF252AD1BE2C89B69C2B068FC378DAA952BA7F163C4A11628F55A4DF523B3EF DUP5 PUSH1 0x40 MLOAD PUSH2 0xA11 SWAP2 SWAP1 PUSH2 0x1973 JUMP JUMPDEST PUSH1 0x40 MLOAD DUP1 SWAP2 SUB SWAP1 LOG3 PUSH1 0x1 PUSH1 0xF PUSH0 DUP14 PUSH20 0xFFFFFFFFFFFFFFFFFFFFFFFFFFFFFFFFFFFFFFFF AND PUSH20 0xFFFFFFFFFFFFFFFFFFFFFFFFFFFFFFFFFFFFFFFF AND DUP2 MSTORE PUSH1 0x20 ADD SWAP1 DUP2 MSTORE PUSH1 0x20 ADD PUSH0 KECCAK256 PUSH0 PUSH2 0x100 EXP DUP2 SLOAD DUP2 PUSH1 0xFF MUL NOT AND SWAP1 DUP4 ISZERO ISZERO MUL OR SWAP1 SSTORE POP PUSH1 0x1 PUSH1 0xF PUSH0 DUP13 PUSH20 0xFFFFFFFFFFFFFFFFFFFFFFFFFFFFFFFFFFFFFFFF AND PUSH20 0xFFFFFFFFFFFFFFFFFFFFFFFFFFFFFFFFFFFFFFFF AND DUP2 MSTORE PUSH1 0x20 ADD SWAP1 DUP2 MSTORE PUSH1 0x20 ADD PUSH0 KECCAK256 PUSH0 PUSH2 0x100 EXP DUP2 SLOAD DUP2 PUSH1 0xFF MUL NOT AND SWAP1 DUP4 ISZERO ISZERO MUL OR SWAP1 SSTORE POP PUSH1 0x1 PUSH1 0xF PUSH0 ADDRESS PUSH20 0xFFFFFFFFFFFFFFFFFFFFFFFFFFFFFFFFFFFFFFFF AND PUSH20 0xFFFFFFFFFFFFFFFFFFFFFFFFFFFFFFFFFFFFFFFF AND DUP2 MSTORE PUSH1 0x20 ADD SWAP1 DUP2 MSTORE PUSH1 0x20 ADD PUSH0 KECCAK256 PUSH0 PUSH2 0x100 EXP DUP2 SLOAD DUP2 PUSH1 0xFF MUL NOT AND SWAP1 DUP4 ISZERO ISZERO MUL OR SWAP1 SSTORE POP PUSH1 0x1 PUSH1 0xF PUSH0 CALLER PUSH20 0xFFFFFFFFFFFFFFFFFFFFFFFFFFFFFFFFFFFFFFFF AND PUSH20 0xFFFFFFFFFFFFFFFFFFFFFFFFFFFFFFFFFFFFFFFF AND DUP2 MSTORE PUSH1 0x20 ADD SWAP1 DUP2 MSTORE PUSH1 0x20 ADD PUSH0 KECCAK256 PUSH0 PUSH2 0x100 EXP DUP2 SLOAD DUP2 PUSH1 0xFF MUL NOT AND SWAP1 DUP4 ISZERO ISZERO MUL OR SWAP1 SSTORE POP PUSH1 0x1 PUSH1 0xF PUSH0 DUP1 PUSH20 0xFFFFFFFFFFFFFFFFFFFFFFFFFFFFFFFFFFFFFFFF AND PUSH20 0xFFFFFFFFFFFFFFFFFFFFFFFFFFFFFFFFFFFFFFFF AND DUP2 MSTORE PUSH1 0x20 ADD SWAP1 DUP2 MSTORE PUSH1 0x20 ADD PUSH0 KECCAK256 PUSH0 PUSH2 0x100 EXP DUP2 SLOAD DUP2 PUSH1 0xFF MUL NOT AND SWAP1 DUP4 ISZERO ISZERO MUL OR SWAP1 SSTORE POP PUSH1 0x1 PUSH1 0xF PUSH0 PUSH2 0xDEAD PUSH20 0xFFFFFFFFFFFFFFFFFFFFFFFFFFFFFFFFFFFFFFFF AND PUSH20 0xFFFFFFFFFFFFFFFFFFFFFFFFFFFFFFFFFFFFFFFF AND DUP2 MSTORE PUSH1 0x20 ADD SWAP1 DUP2 MSTORE PUSH1 0x20 ADD PUSH0 KECCAK256 PUSH0 PUSH2 0x100 EXP DUP2 SLOAD DUP2 PUSH1 0xFF MUL NOT AND SWAP1 DUP4 ISZERO ISZERO MUL OR SWAP1 SSTORE POP PUSH1 0x1 PUSH1 0xF PUSH0 DUP4 PUSH20 0xFFFFFFFFFFFFFFFFFFFFFFFFFFFFFFFFFFFFFFFF AND PUSH20 0xFFFFFFFFFFFFFFFFFFFFFFFFFFFFFFFFFFFFFFFF AND DUP2 MSTORE PUSH1 0x20 ADD SWAP1 DUP2 MSTORE PUSH1 0x20 ADD PUSH0 KECCAK256 PUSH0 PUSH2 0x100 EXP DUP2 SLOAD DUP2 PUSH1 0xFF MUL NOT AND SWAP1 DUP4 ISZERO ISZERO MUL OR SWAP1 SSTORE POP PUSH1 0x1 PUSH1 0x19 PUSH0 DUP1 PUSH20 0xFFFFFFFFFFFFFFFFFFFFFFFFFFFFFFFFFFFFFFFF AND PUSH20 0xFFFFFFFFFFFFFFFFFFFFFFFFFFFFFFFFFFFFFFFF AND DUP2 MSTORE PUSH1 0x20 ADD SWAP1 DUP2 MSTORE PUSH1 0x20 ADD PUSH0 KECCAK256 PUSH0 PUSH2 0x100 EXP DUP2 SLOAD DUP2 PUSH1 0xFF MUL NOT AND SWAP1 DUP4 ISZERO ISZERO MUL OR SWAP1 SSTORE POP PUSH1 0x1 PUSH1 0x19 PUSH0 PUSH2 0xDEAD PUSH20 0xFFFFFFFFFFFFFFFFFFFFFFFFFFFFFFFFFFFFFFFF AND PUSH20 0xFFFFFFFFFFFFFFFFFFFFFFFFFFFFFFFFFFFFFFFF AND DUP2 MSTORE PUSH1 0x20 ADD SWAP1 DUP2 MSTORE PUSH1 0x20 ADD PUSH0 KECCAK256 PUSH0 PUSH2 0x100 EXP DUP2 SLOAD DUP2 PUSH1 0xFF MUL NOT AND SWAP1 DUP4 ISZERO ISZERO MUL OR SWAP1 SSTORE POP PUSH1 0x1 PUSH1 0x11 PUSH0 DUP1 PUSH20 0xFFFFFFFFFFFFFFFFFFFFFFFFFFFFFFFFFFFFFFFF AND PUSH20 0xFFFFFFFFFFFFFFFFFFFFFFFFFFFFFFFFFFFFFFFF AND DUP2 MSTORE PUSH1 0x20 ADD SWAP1 DUP2 MSTORE PUSH1 0x20 ADD PUSH0 KECCAK256 PUSH0 PUSH2 0x100 EXP DUP2 SLOAD DUP2 PUSH1 0xFF MUL NOT AND SWAP1 DUP4 ISZERO ISZERO MUL OR SWAP1 SSTORE POP PUSH1 0x1 PUSH1 0x11 PUSH0 PUSH2 0xDEAD PUSH20 0xFFFFFFFFFFFFFFFFFFFFFFFFFFFFFFFFFFFFFFFF AND PUSH20 0xFFFFFFFFFFFFFFFFFFFFFFFFFFFFFFFFFFFFFFFF AND DUP2 MSTORE PUSH1 0x20 ADD SWAP1 DUP2 MSTORE PUSH1 0x20 ADD PUSH0 KECCAK256 PUSH0 PUSH2 0x100 EXP DUP2 SLOAD DUP2 PUSH1 0xFF MUL NOT AND SWAP1 DUP4 ISZERO ISZERO MUL OR SWAP1 SSTORE POP PUSH1 0x1 PUSH1 0x11 PUSH0 ADDRESS PUSH20 0xFFFFFFFFFFFFFFFFFFFFFFFFFFFFFFFFFFFFFFFF AND PUSH20 0xFFFFFFFFFFFFFFFFFFFFFFFFFFFFFFFFFFFFFFFF AND DUP2 MSTORE PUSH1 0x20 ADD SWAP1 DUP2 MSTORE PUSH1 0x20 ADD PUSH0 KECCAK256 PUSH0 PUSH2 0x100 EXP DUP2 SLOAD DUP2 PUSH1 0xFF MUL NOT AND SWAP1 DUP4 ISZERO ISZERO MUL OR SWAP1 SSTORE POP PUSH1 0x1 PUSH1 0x11 PUSH0 DUP4 PUSH20 0xFFFFFFFFFFFFFFFFFFFFFFFFFFFFFFFFFFFFFFFF AND PUSH20 0xFFFFFFFFFFFFFFFFFFFFFFFFFFFFFFFFFFFFFFFF AND DUP2 MSTORE PUSH1 0x20 ADD SWAP1 DUP2 MSTORE PUSH1 0x20 ADD PUSH0 KECCAK256 PUSH0 PUSH2 0x100 EXP DUP2 SLOAD DUP2 PUSH1 0xFF MUL NOT AND SWAP1 DUP4 ISZERO ISZERO MUL OR SWAP1 SSTORE POP PUSH1 0x1 PUSH1 0x11 PUSH0 DUP9 PUSH20 0xFFFFFFFFFFFFFFFFFFFFFFFFFFFFFFFFFFFFFFFF AND PUSH20 0xFFFFFFFFFFFFFFFFFFFFFFFFFFFFFFFFFFFFFFFF AND DUP2 MSTORE PUSH1 0x20 ADD SWAP1 DUP2 MSTORE PUSH1 0x20 ADD PUSH0 KECCAK256 PUSH0 PUSH2 0x100 EXP DUP2 SLOAD DUP2 PUSH1 0xFF MUL NOT AND SWAP1 DUP4 ISZERO ISZERO MUL OR SWAP1 SSTORE POP PUSH1 0x1 PUSH1 0x11 PUSH0 DUP11 PUSH20 0xFFFFFFFFFFFFFFFFFFFFFFFFFFFFFFFFFFFFFFFF AND PUSH20 0xFFFFFFFFFFFFFFFFFFFFFFFFFFFFFFFFFFFFFFFF AND DUP2 MSTORE PUSH1 0x20 ADD SWAP1 DUP2 MSTORE PUSH1 0x20 ADD PUSH0 KECCAK256 PUSH0 PUSH2 0x100 EXP DUP2 SLOAD DUP2 PUSH1 0xFF MUL NOT AND SWAP1 DUP4 ISZERO ISZERO MUL OR SWAP1 SSTORE POP PUSH2 0xF29 DUP11 PUSH2 0xF4E PUSH1 0x20 SHL PUSH1 0x20 SHR JUMP JUMPDEST PUSH9 0x1A055690D9DB80000 PUSH1 0x2F DUP2 SWAP1 SSTORE POP POP POP POP POP POP POP POP POP POP POP POP POP POP POP POP POP PUSH2 0x19B9 JUMP JUMPDEST PUSH1 0x18 PUSH0 DUP3 PUSH20 0xFFFFFFFFFFFFFFFFFFFFFFFFFFFFFFFFFFFFFFFF AND PUSH20 0xFFFFFFFFFFFFFFFFFFFFFFFFFFFFFFFFFFFFFFFF AND DUP2 MSTORE PUSH1 0x20 ADD SWAP1 DUP2 MSTORE PUSH1 0x20 ADD PUSH0 KECCAK256 SLOAD PUSH0 SUB PUSH2 0x10CE JUMPI PUSH1 0x34 DUP1 SLOAD SWAP1 POP PUSH0 EQ DUP1 PUSH2 0x100C JUMPI POP DUP1 PUSH20 0xFFFFFFFFFFFFFFFFFFFFFFFFFFFFFFFFFFFFFFFF AND PUSH1 0x34 PUSH0 DUP2 SLOAD DUP2 LT PUSH2 0xFCB JUMPI PUSH2 0xFCA PUSH2 0x198C JUMP JUMPDEST JUMPDEST SWAP1 PUSH0 MSTORE PUSH1 0x20 PUSH0 KECCAK256 ADD PUSH0 SWAP1 SLOAD SWAP1 PUSH2 0x100 EXP SWAP1 DIV PUSH20 0xFFFFFFFFFFFFFFFFFFFFFFFFFFFFFFFFFFFFFFFF AND PUSH20 0xFFFFFFFFFFFFFFFFFFFFFFFFFFFFFFFFFFFFFFFF AND EQ ISZERO JUMPDEST ISZERO PUSH2 0x10CD JUMPI PUSH0 DUP2 EXTCODESIZE SWAP1 POP PUSH0 DUP2 GT ISZERO PUSH2 0x1024 JUMPI POP PUSH2 0x10CF JUMP JUMPDEST PUSH1 0x34 DUP1 SLOAD SWAP1 POP PUSH1 0x18 PUSH0 DUP5 PUSH20 0xFFFFFFFFFFFFFFFFFFFFFFFFFFFFFFFFFFFFFFFF AND PUSH20 0xFFFFFFFFFFFFFFFFFFFFFFFFFFFFFFFFFFFFFFFF AND DUP2 MSTORE PUSH1 0x20 ADD SWAP1 DUP2 MSTORE PUSH1 0x20 ADD PUSH0 KECCAK256 DUP2 SWAP1 SSTORE POP PUSH1 0x34 DUP3 SWAP1 DUP1 PUSH1 0x1 DUP2 SLOAD ADD DUP1 DUP3 SSTORE DUP1 SWAP2 POP POP PUSH1 0x1 SWAP1 SUB SWAP1 PUSH0 MSTORE PUSH1 0x20 PUSH0 KECCAK256 ADD PUSH0 SWAP1 SWAP2 SWAP1 SWAP2 SWAP1 SWAP2 PUSH2 0x100 EXP DUP2 SLOAD DUP2 PUSH20 0xFFFFFFFFFFFFFFFFFFFFFFFFFFFFFFFFFFFFFFFF MUL NOT AND SWAP1 DUP4 PUSH20 0xFFFFFFFFFFFFFFFFFFFFFFFFFFFFFFFFFFFFFFFF AND MUL OR SWAP1 SSTORE POP POP JUMPDEST JUMPDEST JUMPDEST POP JUMP JUMPDEST DUP3 PUSH1 0xA DUP2 ADD SWAP3 DUP3 ISZERO PUSH2 0x1106 JUMPI SWAP2 PUSH1 0x20 MUL DUP3 ADD JUMPDEST DUP3 DUP2 GT ISZERO PUSH2 0x1105 JUMPI DUP3 MLOAD DUP3 SWAP1 PUSH1 0xFF AND SWAP1 SSTORE SWAP2 PUSH1 0x20 ADD SWAP2 SWAP1 PUSH1 0x1 ADD SWAP1 PUSH2 0x10E5 JUMP JUMPDEST JUMPDEST POP SWAP1 POP PUSH2 0x1113 SWAP2 SWAP1 PUSH2 0x1124 JUMP JUMPDEST POP SWAP1 JUMP JUMPDEST PUSH2 0x6B8 DUP1 PUSH2 0xAFB8 DUP4 CODECOPY ADD SWAP1 JUMP JUMPDEST JUMPDEST DUP1 DUP3 GT ISZERO PUSH2 0x113B JUMPI PUSH0 DUP2 PUSH0 SWAP1 SSTORE POP PUSH1 0x1 ADD PUSH2 0x1125 JUMP JUMPDEST POP SWAP1 JUMP JUMPDEST PUSH0 DUP3 DUP3 MSTORE PUSH1 0x20 DUP3 ADD SWAP1 POP SWAP3 SWAP2 POP POP JUMP JUMPDEST PUSH32 0x7573647420616464726573732063616E6E6F74206265207A65726F0000000000 PUSH0 DUP3 ADD MSTORE POP JUMP JUMPDEST PUSH0 PUSH2 0x1183 PUSH1 0x1B DUP4 PUSH2 0x113F JUMP JUMPDEST SWAP2 POP PUSH2 0x118E DUP3 PUSH2 0x114F JUMP JUMPDEST PUSH1 0x20 DUP3 ADD SWAP1 POP SWAP2 SWAP1 POP JUMP JUMPDEST PUSH0 PUSH1 0x20 DUP3 ADD SWAP1 POP DUP2 DUP2 SUB PUSH0 DUP4 ADD MSTORE PUSH2 0x11B0 DUP2 PUSH2 0x1177 JUMP JUMPDEST SWAP1 POP SWAP2 SWAP1 POP JUMP JUMPDEST PUSH32 0x46756E64416464726573732063616E6E6F74206265207A65726F000000000000 PUSH0 DUP3 ADD MSTORE POP JUMP JUMPDEST PUSH0 PUSH2 0x11EB PUSH1 0x1A DUP4 PUSH2 0x113F JUMP JUMPDEST SWAP2 POP PUSH2 0x11F6 DUP3 PUSH2 0x11B7 JUMP JUMPDEST PUSH1 0x20 DUP3 ADD SWAP1 POP SWAP2 SWAP1 POP JUMP JUMPDEST PUSH0 PUSH1 0x20 DUP3 ADD SWAP1 POP DUP2 DUP2 SUB PUSH0 DUP4 ADD MSTORE PUSH2 0x1218 DUP2 PUSH2 0x11DF JUMP JUMPDEST SWAP1 POP SWAP2 SWAP1 POP JUMP JUMPDEST PUSH32 0x446576416464726573732063616E6E6F74206265207A65726F00000000000000 PUSH0 DUP3 ADD MSTORE POP JUMP JUMPDEST PUSH0 PUSH2 0x1253 PUSH1 0x19 DUP4 PUSH2 0x113F JUMP JUMPDEST SWAP2 POP PUSH2 0x125E DUP3 PUSH2 0x121F JUMP JUMPDEST PUSH1 0x20 DUP3 ADD SWAP1 POP SWAP2 SWAP1 POP JUMP JUMPDEST PUSH0 PUSH1 0x20 DUP3 ADD SWAP1 POP DUP2 DUP2 SUB PUSH0 DUP4 ADD MSTORE PUSH2 0x1280 DUP2 PUSH2 0x1247 JUMP JUMPDEST SWAP1 POP SWAP2 SWAP1 POP JUMP JUMPDEST PUSH32 0x52656365697665416464726573732063616E6E6F74206265207A65726F000000 PUSH0 DUP3 ADD MSTORE POP JUMP JUMPDEST PUSH0 PUSH2 0x12BB PUSH1 0x1D DUP4 PUSH2 0x113F JUMP JUMPDEST SWAP2 POP PUSH2 0x12C6 DUP3 PUSH2 0x1287 JUMP JUMPDEST PUSH1 0x20 DUP3 ADD SWAP1 POP SWAP2 SWAP1 POP JUMP JUMPDEST PUSH0 PUSH1 0x20 DUP3 ADD SWAP1 POP DUP2 DUP2 SUB PUSH0 DUP4 ADD MSTORE PUSH2 0x12E8 DUP2 PUSH2 0x12AF JUMP JUMPDEST SWAP1 POP SWAP2 SWAP1 POP JUMP JUMPDEST PUSH0 DUP2 MLOAD SWAP1 POP SWAP2 SWAP1 POP JUMP JUMPDEST PUSH32 0x4E487B7100000000000000000000000000000000000000000000000000000000 PUSH0 MSTORE PUSH1 0x41 PUSH1 0x4 MSTORE PUSH1 0x24 PUSH0 REVERT JUMPDEST PUSH32 0x4E487B7100000000000000000000000000000000000000000000000000000000 PUSH0 MSTORE PUSH1 0x22 PUSH1 0x4 MSTORE PUSH1 0x24 PUSH0 REVERT JUMPDEST PUSH0 PUSH1 0x2 DUP3 DIV SWAP1 POP PUSH1 0x1 DUP3 AND DUP1 PUSH2 0x136A JUMPI PUSH1 0x7F DUP3 AND SWAP2 POP JUMPDEST PUSH1 0x20 DUP3 LT DUP2 SUB PUSH2 0x137D JUMPI PUSH2 0x137C PUSH2 0x1326 JUMP JUMPDEST JUMPDEST POP SWAP2 SWAP1 POP JUMP JUMPDEST PUSH0 DUP2 SWAP1 POP DUP2 PUSH0 MSTORE PUSH1 0x20 PUSH0 KECCAK256 SWAP1 POP SWAP2 SWAP1 POP JUMP JUMPDEST PUSH0 PUSH1 0x20 PUSH1 0x1F DUP4 ADD DIV SWAP1 POP SWAP2 SWAP1 POP JUMP JUMPDEST PUSH0 DUP3 DUP3 SHL SWAP1 POP SWAP3 SWAP2 POP POP JUMP JUMPDEST PUSH0 PUSH1 0x8 DUP4 MUL PUSH2 0x13DF PUSH32 0xFFFFFFFFFFFFFFFFFFFFFFFFFFFFFFFFFFFFFFFFFFFFFFFFFFFFFFFFFFFFFFFF DUP3 PUSH2 0x13A4 JUMP JUMPDEST PUSH2 0x13E9 DUP7 DUP4 PUSH2 0x13A4 JUMP JUMPDEST SWAP6 POP DUP1 NOT DUP5 AND SWAP4 POP DUP1 DUP7 AND DUP5 OR SWAP3 POP POP POP SWAP4 SWAP3 POP POP POP JUMP JUMPDEST PUSH0 DUP2 SWAP1 POP SWAP2 SWAP1 POP JUMP JUMPDEST PUSH0 DUP2 SWAP1 POP SWAP2 SWAP1 POP JUMP JUMPDEST PUSH0 PUSH2 0x142D PUSH2 0x1428 PUSH2 0x1423 DUP5 PUSH2 0x1401 JUMP JUMPDEST PUSH2 0x140A JUMP JUMPDEST PUSH2 0x1401 JUMP JUMPDEST SWAP1 POP SWAP2 SWAP1 POP JUMP JUMPDEST PUSH0 DUP2 SWAP1 POP SWAP2 SWAP1 POP JUMP JUMPDEST PUSH2 0x1446 DUP4 PUSH2 0x1413 JUMP JUMPDEST PUSH2 0x145A PUSH2 0x1452 DUP3 PUSH2 0x1434 JUMP JUMPDEST DUP5 DUP5 SLOAD PUSH2 0x13B0 JUMP JUMPDEST DUP3 SSTORE POP POP POP POP JUMP JUMPDEST PUSH0 SWAP1 JUMP JUMPDEST PUSH2 0x146E PUSH2 0x1462 JUMP JUMPDEST PUSH2 0x1479 DUP2 DUP5 DUP5 PUSH2 0x143D JUMP JUMPDEST POP POP POP JUMP JUMPDEST JUMPDEST DUP2 DUP2 LT ISZERO PUSH2 0x149C JUMPI PUSH2 0x1491 PUSH0 DUP3 PUSH2 0x1466 JUMP JUMPDEST PUSH1 0x1 DUP2 ADD SWAP1 POP PUSH2 0x147F JUMP JUMPDEST POP POP JUMP JUMPDEST PUSH1 0x1F DUP3 GT ISZERO PUSH2 0x14E1 JUMPI PUSH2 0x14B2 DUP2 PUSH2 0x1383 JUMP JUMPDEST PUSH2 0x14BB DUP5 PUSH2 0x1395 JUMP JUMPDEST DUP2 ADD PUSH1 0x20 DUP6 LT ISZERO PUSH2 0x14CA JUMPI DUP2 SWAP1 POP JUMPDEST PUSH2 0x14DE PUSH2 0x14D6 DUP6 PUSH2 0x1395 JUMP JUMPDEST DUP4 ADD DUP3 PUSH2 0x147E JUMP JUMPDEST POP POP JUMPDEST POP POP POP JUMP JUMPDEST PUSH0 DUP3 DUP3 SHR SWAP1 POP SWAP3 SWAP2 POP POP JUMP JUMPDEST PUSH0 PUSH2 0x1501 PUSH0 NOT DUP5 PUSH1 0x8 MUL PUSH2 0x14E6 JUMP JUMPDEST NOT DUP1 DUP4 AND SWAP2 POP POP SWAP3 SWAP2 POP POP JUMP JUMPDEST PUSH0 PUSH2 0x1519 DUP4 DUP4 PUSH2 0x14F2 JUMP JUMPDEST SWAP2 POP DUP3 PUSH1 0x2 MUL DUP3 OR SWAP1 POP SWAP3 SWAP2 POP POP JUMP JUMPDEST PUSH2 0x1532 DUP3 PUSH2 0x12EF JUMP JUMPDEST PUSH8 0xFFFFFFFFFFFFFFFF DUP2 GT ISZERO PUSH2 0x154B JUMPI PUSH2 0x154A PUSH2 0x12F9 JUMP JUMPDEST JUMPDEST PUSH2 0x1555 DUP3 SLOAD PUSH2 0x1353 JUMP JUMPDEST PUSH2 0x1560 DUP3 DUP3 DUP6 PUSH2 0x14A0 JUMP JUMPDEST PUSH0 PUSH1 0x20 SWAP1 POP PUSH1 0x1F DUP4 GT PUSH1 0x1 DUP2 EQ PUSH2 0x1591 JUMPI PUSH0 DUP5 ISZERO PUSH2 0x157F JUMPI DUP3 DUP8 ADD MLOAD SWAP1 POP JUMPDEST PUSH2 0x1589 DUP6 DUP3 PUSH2 0x150E JUMP JUMPDEST DUP7 SSTORE POP PUSH2 0x15F0 JUMP JUMPDEST PUSH1 0x1F NOT DUP5 AND PUSH2 0x159F DUP7 PUSH2 0x1383 JUMP JUMPDEST PUSH0 JUMPDEST DUP3 DUP2 LT ISZERO PUSH2 0x15C6 JUMPI DUP5 DUP10 ADD MLOAD DUP3 SSTORE PUSH1 0x1 DUP3 ADD SWAP2 POP PUSH1 0x20 DUP6 ADD SWAP5 POP PUSH1 0x20 DUP2 ADD SWAP1 POP PUSH2 0x15A1 JUMP JUMPDEST DUP7 DUP4 LT ISZERO PUSH2 0x15E3 JUMPI DUP5 DUP10 ADD MLOAD PUSH2 0x15DF PUSH1 0x1F DUP10 AND DUP3 PUSH2 0x14F2 JUMP JUMPDEST DUP4 SSTORE POP JUMPDEST PUSH1 0x1 PUSH1 0x2 DUP9 MUL ADD DUP9 SSTORE POP POP POP JUMPDEST POP POP POP POP POP POP JUMP JUMPDEST PUSH0 DUP1 REVERT JUMPDEST PUSH0 PUSH20 0xFFFFFFFFFFFFFFFFFFFFFFFFFFFFFFFFFFFFFFFF DUP3 AND SWAP1 POP SWAP2 SWAP1 POP JUMP JUMPDEST PUSH0 PUSH2 0x1625 DUP3 PUSH2 0x15FC JUMP JUMPDEST SWAP1 POP SWAP2 SWAP1 POP JUMP JUMPDEST PUSH2 0x1635 DUP2 PUSH2 0x161B JUMP JUMPDEST DUP2 EQ PUSH2 0x163F JUMPI PUSH0 DUP1 REVERT JUMPDEST POP JUMP JUMPDEST PUSH0 DUP2 MLOAD SWAP1 POP PUSH2 0x1650 DUP2 PUSH2 0x162C JUMP JUMPDEST SWAP3 SWAP2 POP POP JUMP JUMPDEST PUSH0 PUSH1 0x20 DUP3 DUP5 SUB SLT ISZERO PUSH2 0x166B JUMPI PUSH2 0x166A PUSH2 0x15F8 JUMP JUMPDEST JUMPDEST PUSH0 PUSH2 0x1678 DUP5 DUP3 DUP6 ADD PUSH2 0x1642 JUMP JUMPDEST SWAP2 POP POP SWAP3 SWAP2 POP POP JUMP JUMPDEST PUSH2 0x168A DUP2 PUSH2 0x161B JUMP JUMPDEST DUP3 MSTORE POP POP JUMP JUMPDEST PUSH2 0x1699 DUP2 PUSH2 0x1401 JUMP JUMPDEST DUP3 MSTORE POP POP JUMP JUMPDEST PUSH0 PUSH1 0x40 DUP3 ADD SWAP1 POP PUSH2 0x16B2 PUSH0 DUP4 ADD DUP6 PUSH2 0x1681 JUMP JUMPDEST PUSH2 0x16BF PUSH1 0x20 DUP4 ADD DUP5 PUSH2 0x1690 JUMP JUMPDEST SWAP4 SWAP3 POP POP POP JUMP JUMPDEST PUSH0 DUP2 ISZERO ISZERO SWAP1 POP SWAP2 SWAP1 POP JUMP JUMPDEST PUSH2 0x16DA DUP2 PUSH2 0x16C6 JUMP JUMPDEST DUP2 EQ PUSH2 0x16E4 JUMPI PUSH0 DUP1 REVERT JUMPDEST POP JUMP JUMPDEST PUSH0 DUP2 MLOAD SWAP1 POP PUSH2 0x16F5 DUP2 PUSH2 0x16D1 JUMP JUMPDEST SWAP3 SWAP2 POP POP JUMP JUMPDEST PUSH0 PUSH1 0x20 DUP3 DUP5 SUB SLT ISZERO PUSH2 0x1710 JUMPI PUSH2 0x170F PUSH2 0x15F8 JUMP JUMPDEST JUMPDEST PUSH0 PUSH2 0x171D DUP5 DUP3 DUP6 ADD PUSH2 0x16E7 JUMP JUMPDEST SWAP2 POP POP SWAP3 SWAP2 POP POP JUMP JUMPDEST PUSH0 PUSH1 0x40 DUP3 ADD SWAP1 POP PUSH2 0x1739 PUSH0 DUP4 ADD DUP6 PUSH2 0x1681 JUMP JUMPDEST PUSH2 0x1746 PUSH1 0x20 DUP4 ADD DUP5 PUSH2 0x1681 JUMP JUMPDEST SWAP4 SWAP3 POP POP POP JUMP JUMPDEST PUSH32 0x4E487B7100000000000000000000000000000000000000000000000000000000 PUSH0 MSTORE PUSH1 0x11 PUSH1 0x4 MSTORE PUSH1 0x24 PUSH0 REVERT JUMPDEST PUSH0 DUP2 PUSH1 0x1 SHR SWAP1 POP SWAP2 SWAP1 POP JUMP JUMPDEST PUSH0 DUP1 DUP3 SWAP2 POP DUP4 SWAP1 POP JUMPDEST PUSH1 0x1 DUP6 GT ISZERO PUSH2 0x17CF JUMPI DUP1 DUP7 DIV DUP2 GT ISZERO PUSH2 0x17AB JUMPI PUSH2 0x17AA PUSH2 0x174D JUMP JUMPDEST JUMPDEST PUSH1 0x1 DUP6 AND ISZERO PUSH2 0x17BA JUMPI DUP1 DUP3 MUL SWAP2 POP JUMPDEST DUP1 DUP2 MUL SWAP1 POP PUSH2 0x17C8 DUP6 PUSH2 0x177A JUMP JUMPDEST SWAP5 POP PUSH2 0x178F JUMP JUMPDEST SWAP5 POP SWAP5 SWAP3 POP POP POP JUMP JUMPDEST PUSH0 DUP3 PUSH2 0x17E7 JUMPI PUSH1 0x1 SWAP1 POP PUSH2 0x18A2 JUMP JUMPDEST DUP2 PUSH2 0x17F4 JUMPI PUSH0 SWAP1 POP PUSH2 0x18A2 JUMP JUMPDEST DUP2 PUSH1 0x1 DUP2 EQ PUSH2 0x180A JUMPI PUSH1 0x2 DUP2 EQ PUSH2 0x1814 JUMPI PUSH2 0x1843 JUMP JUMPDEST PUSH1 0x1 SWAP2 POP POP PUSH2 0x18A2 JUMP JUMPDEST PUSH1 0xFF DUP5 GT ISZERO PUSH2 0x1826 JUMPI PUSH2 0x1825 PUSH2 0x174D JUMP JUMPDEST JUMPDEST DUP4 PUSH1 0x2 EXP SWAP2 POP DUP5 DUP3 GT ISZERO PUSH2 0x183D JUMPI PUSH2 0x183C PUSH2 0x174D JUMP JUMPDEST JUMPDEST POP PUSH2 0x18A2 JUMP JUMPDEST POP PUSH1 0x20 DUP4 LT PUSH2 0x133 DUP4 LT AND PUSH1 0x4E DUP5 LT PUSH1 0xB DUP5 LT AND OR ISZERO PUSH2 0x1878 JUMPI DUP3 DUP3 EXP SWAP1 POP DUP4 DUP2 GT ISZERO PUSH2 0x1873 JUMPI PUSH2 0x1872 PUSH2 0x174D JUMP JUMPDEST JUMPDEST PUSH2 0x18A2 JUMP JUMPDEST PUSH2 0x1885 DUP5 DUP5 DUP5 PUSH1 0x1 PUSH2 0x1786 JUMP JUMPDEST SWAP3 POP SWAP1 POP DUP2 DUP5 DIV DUP2 GT ISZERO PUSH2 0x189C JUMPI PUSH2 0x189B PUSH2 0x174D JUMP JUMPDEST JUMPDEST DUP2 DUP2 MUL SWAP1 POP JUMPDEST SWAP4 SWAP3 POP POP POP JUMP JUMPDEST PUSH0 PUSH1 0xFF DUP3 AND SWAP1 POP SWAP2 SWAP1 POP JUMP JUMPDEST PUSH0 PUSH2 0x18BF DUP3 PUSH2 0x1401 JUMP JUMPDEST SWAP2 POP PUSH2 0x18CA DUP4 PUSH2 0x18A9 JUMP JUMPDEST SWAP3 POP PUSH2 0x18F7 PUSH32 0xFFFFFFFFFFFFFFFFFFFFFFFFFFFFFFFFFFFFFFFFFFFFFFFFFFFFFFFFFFFFFFFF DUP5 DUP5 PUSH2 0x17D8 JUMP JUMPDEST SWAP1 POP SWAP3 SWAP2 POP POP JUMP JUMPDEST PUSH0 PUSH2 0x1909 DUP3 PUSH2 0x1401 JUMP JUMPDEST SWAP2 POP PUSH2 0x1914 DUP4 PUSH2 0x1401 JUMP JUMPDEST SWAP3 POP DUP3 DUP3 MUL PUSH2 0x1922 DUP2 PUSH2 0x1401 JUMP JUMPDEST SWAP2 POP DUP3 DUP3 DIV DUP5 EQ DUP4 ISZERO OR PUSH2 0x1939 JUMPI PUSH2 0x1938 PUSH2 0x174D JUMP JUMPDEST JUMPDEST POP SWAP3 SWAP2 POP POP JUMP JUMPDEST PUSH0 PUSH2 0x194A DUP3 PUSH2 0x1401 JUMP JUMPDEST SWAP2 POP PUSH2 0x1955 DUP4 PUSH2 0x1401 JUMP JUMPDEST SWAP3 POP DUP3 DUP3 SUB SWAP1 POP DUP2 DUP2 GT ISZERO PUSH2 0x196D JUMPI PUSH2 0x196C PUSH2 0x174D JUMP JUMPDEST JUMPDEST SWAP3 SWAP2 POP POP JUMP JUMPDEST PUSH0 PUSH1 0x20 DUP3 ADD SWAP1 POP PUSH2 0x1986 PUSH0 DUP4 ADD DUP5 PUSH2 0x1690 JUMP JUMPDEST SWAP3 SWAP2 POP POP JUMP JUMPDEST PUSH32 0x4E487B7100000000000000000000000000000000000000000000000000000000 PUSH0 MSTORE PUSH1 0x32 PUSH1 0x4 MSTORE PUSH1 0x24 PUSH0 REVERT JUMPDEST PUSH1 0x80 MLOAD PUSH1 0xA0 MLOAD PUSH1 0xC0 MLOAD PUSH1 0xE0 MLOAD PUSH2 0x9540 PUSH2 0x1A78 PUSH0 CODECOPY PUSH0 DUP2 DUP2 PUSH2 0x2ACA ADD MSTORE DUP2 DUP2 PUSH2 0x739A ADD MSTORE PUSH2 0x7B4F ADD MSTORE PUSH0 DUP2 DUP2 PUSH2 0x2888 ADD MSTORE DUP2 DUP2 PUSH2 0x36DF ADD MSTORE DUP2 DUP2 PUSH2 0x4A1F ADD MSTORE DUP2 DUP2 PUSH2 0x614D ADD MSTORE DUP2 DUP2 PUSH2 0x7352 ADD MSTORE PUSH2 0x7376 ADD MSTORE PUSH0 DUP2 DUP2 PUSH2 0x18C9 ADD MSTORE DUP2 DUP2 PUSH2 0x196B ADD MSTORE DUP2 DUP2 PUSH2 0x1DAF ADD MSTORE DUP2 DUP2 PUSH2 0x1FB9 ADD MSTORE DUP2 DUP2 PUSH2 0x20BA ADD MSTORE DUP2 DUP2 PUSH2 0x27B8 ADD MSTORE DUP2 DUP2 PUSH2 0x496C ADD MSTORE DUP2 DUP2 PUSH2 0x4C85 ADD MSTORE DUP2 DUP2 PUSH2 0x525D ADD MSTORE DUP2 DUP2 PUSH2 0x5530 ADD MSTORE DUP2 DUP2 PUSH2 0x6095 ADD MSTORE DUP2 DUP2 PUSH2 0x6205 ADD MSTORE PUSH2 0x6C30 ADD MSTORE PUSH0 DUP2 DUP2 PUSH2 0x1ABA ADD MSTORE PUSH2 0x7522 ADD MSTORE PUSH2 0x9540 PUSH0 RETURN INVALID PUSH1 0x80 PUSH1 0x40 MSTORE PUSH1 0x4 CALLDATASIZE LT PUSH2 0x4EF JUMPI PUSH0 CALLDATALOAD PUSH1 0xE0 SHR DUP1 PUSH4 0x88D59741 GT PUSH2 0x28B JUMPI DUP1 PUSH4 0xCE0192F9 GT PUSH2 0x159 JUMPI DUP1 PUSH4 0xE7CC6C23 GT PUSH2 0xCB JUMPI DUP1 PUSH4 0xF059078C GT PUSH2 0x84 JUMPI DUP1 PUSH4 0xF059078C EQ PUSH2 0x1453 JUMPI DUP1 PUSH4 0xF0FA55A9 EQ PUSH2 0x147D JUMPI DUP1 PUSH4 0xF2FDE38B EQ PUSH2 0x14A5 JUMPI DUP1 PUSH4 0xF54DA1E2 EQ PUSH2 0x14CD JUMPI DUP1 PUSH4 0xFB0ECFA4 EQ PUSH2 0x14F7 JUMPI DUP1 PUSH4 0xFFFE42E9 EQ PUSH2 0x151F JUMPI PUSH2 0x4F6 JUMP JUMPDEST DUP1 PUSH4 0xE7CC6C23 EQ PUSH2 0x1323 JUMPI DUP1 PUSH4 0xE82BEF29 EQ PUSH2 0x135F JUMPI DUP1 PUSH4 0xE84FB12D EQ PUSH2 0x1389 JUMPI DUP1 PUSH4 0xE918DFDE EQ PUSH2 0x13B3 JUMPI DUP1 PUSH4 0xE9FAD396 EQ PUSH2 0x13EF JUMPI DUP1 PUSH4 0xEF34DB69 EQ PUSH2 0x1417 JUMPI PUSH2 0x4F6 JUMP JUMPDEST DUP1 PUSH4 0xDC8046E4 GT PUSH2 0x11D JUMPI DUP1 PUSH4 0xDC8046E4 EQ PUSH2 0x11F3 JUMPI DUP1 PUSH4 0xDD62ED3E EQ PUSH2 0x122F JUMPI DUP1 PUSH4 0xDE5C02C2 EQ PUSH2 0x126B JUMPI DUP1 PUSH4 0xDF076BBE EQ PUSH2 0x12A7 JUMPI DUP1 PUSH4 0xE06BD4A5 EQ PUSH2 0x12CF JUMPI DUP1 PUSH4 0xE2BA13F1 EQ PUSH2 0x12F9 JUMPI PUSH2 0x4F6 JUMP JUMPDEST DUP1 PUSH4 0xCE0192F9 EQ PUSH2 0x1101 JUMPI DUP1 PUSH4 0xD1BEA17C EQ PUSH2 0x112B JUMPI DUP1 PUSH4 0xD47768DE EQ PUSH2 0x1167 JUMPI DUP1 PUSH4 0xD83D4143 EQ PUSH2 0x11A3 JUMPI DUP1 PUSH4 0xDA39D16A EQ PUSH2 0x11CB JUMPI PUSH2 0x4F6 JUMP JUMPDEST DUP1 PUSH4 0xA9059CBB GT PUSH2 0x1FD JUMPI DUP1 PUSH4 0xBC756D4B GT PUSH2 0x1B6 JUMPI DUP1 PUSH4 0xBC756D4B EQ PUSH2 0xFF9 JUMPI DUP1 PUSH4 0xBE3601F8 EQ PUSH2 0x1023 JUMPI DUP1 PUSH4 0xBEB8314C EQ PUSH2 0x104D JUMPI DUP1 PUSH4 0xC343E9A8 EQ PUSH2 0x1089 JUMPI DUP1 PUSH4 0xCD8D263D EQ PUSH2 0x10B1 JUMPI DUP1 PUSH4 0xCDB6B98B EQ PUSH2 0x10D9 JUMPI PUSH2 0x4F6 JUMP JUMPDEST DUP1 PUSH4 0xA9059CBB EQ PUSH2 0xEDD JUMPI DUP1 PUSH4 0xAAD9E9E2 EQ PUSH2 0xF19 JUMPI DUP1 PUSH4 0xADC0DF8F EQ PUSH2 0xF41 JUMPI DUP1 PUSH4 0xB2887BEC EQ PUSH2 0xF7D JUMPI DUP1 PUSH4 0xB74E452B EQ PUSH2 0xFA5 JUMPI DUP1 PUSH4 0xB8CACC2F EQ PUSH2 0xFCF JUMPI PUSH2 0x4F6 JUMP JUMPDEST DUP1 PUSH4 0x97DAD339 GT PUSH2 0x24F JUMPI DUP1 PUSH4 0x97DAD339 EQ PUSH2 0xDD5 JUMPI DUP1 PUSH4 0x9BB85344 EQ PUSH2 0xDFD JUMPI DUP1 PUSH4 0x9CCE37C6 EQ PUSH2 0xE27 JUMPI DUP1 PUSH4 0xA4C82A00 EQ PUSH2 0xE63 JUMPI DUP1 PUSH4 0xA5696D89 EQ PUSH2 0xE8D JUMPI DUP1 PUSH4 0xA8424861 EQ PUSH2 0xEB5 JUMPI PUSH2 0x4F6 JUMP JUMPDEST DUP1 PUSH4 0x88D59741 EQ PUSH2 0xD05 JUMPI DUP1 PUSH4 0x8DA5CB5B EQ PUSH2 0xD2F JUMPI DUP1 PUSH4 0x902D55A5 EQ PUSH2 0xD59 JUMPI DUP1 PUSH4 0x917CEEB5 EQ PUSH2 0xD83 JUMPI DUP1 PUSH4 0x95D89B41 EQ PUSH2 0xDAB JUMPI PUSH2 0x4F6 JUMP JUMPDEST DUP1 PUSH4 0x51B0D102 GT PUSH2 0x3C8 JUMPI DUP1 PUSH4 0x6C580801 GT PUSH2 0x33A JUMPI DUP1 PUSH4 0x79353C08 GT PUSH2 0x2F3 JUMPI DUP1 PUSH4 0x79353C08 EQ PUSH2 0xC0D JUMPI DUP1 PUSH4 0x7A70873A EQ PUSH2 0xC37 JUMPI DUP1 PUSH4 0x7FF9B596 EQ PUSH2 0xC61 JUMPI DUP1 PUSH4 0x85DC3004 EQ PUSH2 0xC8B JUMPI DUP1 PUSH4 0x8718B24F EQ PUSH2 0xCB3 JUMPI DUP1 PUSH4 0x87C91F2A EQ PUSH2 0xCDD JUMPI PUSH2 0x4F6 JUMP JUMPDEST DUP1 PUSH4 0x6C580801 EQ PUSH2 0xB17 JUMPI DUP1 PUSH4 0x6EBCF607 EQ PUSH2 0xB2D JUMPI DUP1 PUSH4 0x70A08231 EQ PUSH2 0xB69 JUMPI DUP1 PUSH4 0x715018A6 EQ PUSH2 0xBA5 JUMPI DUP1 PUSH4 0x730C1888 EQ PUSH2 0xBBB JUMPI DUP1 PUSH4 0x74D002F1 EQ PUSH2 0xBE3 JUMPI PUSH2 0x4F6 JUMP JUMPDEST DUP1 PUSH4 0x5EF01957 GT PUSH2 0x38C JUMPI DUP1 PUSH4 0x5EF01957 EQ PUSH2 0xA05 JUMPI DUP1 PUSH4 0x61B746F2 EQ PUSH2 0xA2F JUMPI DUP1 PUSH4 0x62015852 EQ PUSH2 0xA59 JUMPI DUP1 PUSH4 0x6386C1C7 EQ PUSH2 0xA83 JUMPI DUP1 PUSH4 0x69FFD402 EQ PUSH2 0xAC5 JUMPI DUP1 PUSH4 0x6AC9A870 EQ PUSH2 0xAEF JUMPI PUSH2 0x4F6 JUMP JUMPDEST DUP1 PUSH4 0x51B0D102 EQ PUSH2 0x90F JUMPI DUP1 PUSH4 0x53B7AA1D EQ PUSH2 0x939 JUMPI DUP1 PUSH4 0x553193CA EQ PUSH2 0x963 JUMPI DUP1 PUSH4 0x5B231155 EQ PUSH2 0x98D JUMPI DUP1 PUSH4 0x5C25C30E EQ PUSH2 0x9C9 JUMPI PUSH2 0x4F6 JUMP JUMPDEST DUP1 PUSH4 0x297AC6DE GT PUSH2 0x461 JUMPI DUP1 PUSH4 0x313CE567 GT PUSH2 0x425 JUMPI DUP1 PUSH4 0x313CE567 EQ PUSH2 0x7EF JUMPI DUP1 PUSH4 0x37791BFC EQ PUSH2 0x819 JUMPI DUP1 PUSH4 0x3AD10EF6 EQ PUSH2 0x843 JUMPI DUP1 PUSH4 0x3C11100D EQ PUSH2 0x86D JUMPI DUP1 PUSH4 0x4188BF5A EQ PUSH2 0x8A9 JUMPI DUP1 PUSH4 0x4ECE7C06 EQ PUSH2 0x8D3 JUMPI PUSH2 0x4F6 JUMP JUMPDEST DUP1 PUSH4 0x297AC6DE EQ PUSH2 0x70D JUMPI DUP1 PUSH4 0x2B01FC94 EQ PUSH2 0x737 JUMPI DUP1 PUSH4 0x2C3E486C EQ PUSH2 0x773 JUMPI DUP1 PUSH4 0x2E82F1A0 EQ PUSH2 0x79D JUMPI DUP1 PUSH4 0x2F783B4F EQ PUSH2 0x7C7 JUMPI PUSH2 0x4F6 JUMP JUMPDEST DUP1 PUSH4 0x18160DDD GT PUSH2 0x4B3 JUMPI DUP1 PUSH4 0x18160DDD EQ PUSH2 0x5DA JUMPI DUP1 PUSH4 0x199FFC72 EQ PUSH2 0x604 JUMPI DUP1 PUSH4 0x1B85FECD EQ PUSH2 0x62E JUMPI DUP1 PUSH4 0x1B967AD4 EQ PUSH2 0x66B JUMPI DUP1 PUSH4 0x206C17BB EQ PUSH2 0x6A7 JUMPI DUP1 PUSH4 0x23B872DD EQ PUSH2 0x6D1 JUMPI PUSH2 0x4F6 JUMP JUMPDEST DUP1 PUSH4 0x27EDFD3 EQ PUSH2 0x4FA JUMPI DUP1 PUSH4 0x6FDDE03 EQ PUSH2 0x524 JUMPI DUP1 PUSH4 0x95EA7B3 EQ PUSH2 0x54E JUMPI DUP1 PUSH4 0x141AE566 EQ PUSH2 0x58A JUMPI DUP1 PUSH4 0x1698755F EQ PUSH2 0x5B2 JUMPI PUSH2 0x4F6 JUMP JUMPDEST CALLDATASIZE PUSH2 0x4F6 JUMPI STOP JUMPDEST PUSH0 DUP1 REVERT JUMPDEST CALLVALUE DUP1 ISZERO PUSH2 0x505 JUMPI PUSH0 DUP1 REVERT JUMPDEST POP PUSH2 0x50E PUSH2 0x1549 JUMP JUMPDEST PUSH1 0x40 MLOAD PUSH2 0x51B SWAP2 SWAP1 PUSH2 0x7D29 JUMP JUMPDEST PUSH1 0x40 MLOAD DUP1 SWAP2 SUB SWAP1 RETURN JUMPDEST CALLVALUE DUP1 ISZERO PUSH2 0x52F JUMPI PUSH0 DUP1 REVERT JUMPDEST POP PUSH2 0x538 PUSH2 0x154F JUMP JUMPDEST PUSH1 0x40 MLOAD PUSH2 0x545 SWAP2 SWAP1 PUSH2 0x7DB2 JUMP JUMPDEST PUSH1 0x40 MLOAD DUP1 SWAP2 SUB SWAP1 RETURN JUMPDEST CALLVALUE DUP1 ISZERO PUSH2 0x559 JUMPI PUSH0 DUP1 REVERT JUMPDEST POP PUSH2 0x574 PUSH1 0x4 DUP1 CALLDATASIZE SUB DUP2 ADD SWAP1 PUSH2 0x56F SWAP2 SWAP1 PUSH2 0x7E67 JUMP JUMPDEST PUSH2 0x15DF JUMP JUMPDEST PUSH1 0x40 MLOAD PUSH2 0x581 SWAP2 SWAP1 PUSH2 0x7EBF JUMP JUMPDEST PUSH1 0x40 MLOAD DUP1 SWAP2 SUB SWAP1 RETURN JUMPDEST CALLVALUE DUP1 ISZERO PUSH2 0x595 JUMPI PUSH0 DUP1 REVERT JUMPDEST POP PUSH2 0x5B0 PUSH1 0x4 DUP1 CALLDATASIZE SUB DUP2 ADD SWAP1 PUSH2 0x5AB SWAP2 SWAP1 PUSH2 0x7F02 JUMP JUMPDEST PUSH2 0x15F5 JUMP JUMPDEST STOP JUMPDEST CALLVALUE DUP1 ISZERO PUSH2 0x5BD JUMPI PUSH0 DUP1 REVERT JUMPDEST POP PUSH2 0x5D8 PUSH1 0x4 DUP1 CALLDATASIZE SUB DUP2 ADD SWAP1 PUSH2 0x5D3 SWAP2 SWAP1 PUSH2 0x7E67 JUMP JUMPDEST PUSH2 0x16DA JUMP JUMPDEST STOP JUMPDEST CALLVALUE DUP1 ISZERO PUSH2 0x5E5 JUMPI PUSH0 DUP1 REVERT JUMPDEST POP PUSH2 0x5EE PUSH2 0x18B5 JUMP JUMPDEST PUSH1 0x40 MLOAD PUSH2 0x5FB SWAP2 SWAP1 PUSH2 0x7D29 JUMP JUMPDEST PUSH1 0x40 MLOAD DUP1 SWAP2 SUB SWAP1 RETURN JUMPDEST CALLVALUE DUP1 ISZERO PUSH2 0x60F JUMPI PUSH0 DUP1 REVERT JUMPDEST POP PUSH2 0x618 PUSH2 0x18BE JUMP JUMPDEST PUSH1 0x40 MLOAD PUSH2 0x625 SWAP2 SWAP1 PUSH2 0x7D29 JUMP JUMPDEST PUSH1 0x40 MLOAD DUP1 SWAP2 SUB SWAP1 RETURN JUMPDEST CALLVALUE DUP1 ISZERO PUSH2 0x639 JUMPI PUSH0 DUP1 REVERT JUMPDEST POP PUSH2 0x654 PUSH1 0x4 DUP1 CALLDATASIZE SUB DUP2 ADD SWAP1 PUSH2 0x64F SWAP2 SWAP1 PUSH2 0x7F40 JUMP JUMPDEST PUSH2 0x18C4 JUMP JUMPDEST PUSH1 0x40 MLOAD PUSH2 0x662 SWAP3 SWAP2 SWAP1 PUSH2 0x7F6B JUMP JUMPDEST PUSH1 0x40 MLOAD DUP1 SWAP2 SUB SWAP1 RETURN JUMPDEST CALLVALUE DUP1 ISZERO PUSH2 0x676 JUMPI PUSH0 DUP1 REVERT JUMPDEST POP PUSH2 0x691 PUSH1 0x4 DUP1 CALLDATASIZE SUB DUP2 ADD SWAP1 PUSH2 0x68C SWAP2 SWAP1 PUSH2 0x7F40 JUMP JUMPDEST PUSH2 0x1A6F JUMP JUMPDEST PUSH1 0x40 MLOAD PUSH2 0x69E SWAP2 SWAP1 PUSH2 0x7D29 JUMP JUMPDEST PUSH1 0x40 MLOAD DUP1 SWAP2 SUB SWAP1 RETURN JUMPDEST CALLVALUE DUP1 ISZERO PUSH2 0x6B2 JUMPI PUSH0 DUP1 REVERT JUMPDEST POP PUSH2 0x6BB PUSH2 0x1AB8 JUMP JUMPDEST PUSH1 0x40 MLOAD PUSH2 0x6C8 SWAP2 SWAP1 PUSH2 0x7FED JUMP JUMPDEST PUSH1 0x40 MLOAD DUP1 SWAP2 SUB SWAP1 RETURN JUMPDEST CALLVALUE DUP1 ISZERO PUSH2 0x6DC JUMPI PUSH0 DUP1 REVERT JUMPDEST POP PUSH2 0x6F7 PUSH1 0x4 DUP1 CALLDATASIZE SUB DUP2 ADD SWAP1 PUSH2 0x6F2 SWAP2 SWAP1 PUSH2 0x8006 JUMP JUMPDEST PUSH2 0x1ADC JUMP JUMPDEST PUSH1 0x40 MLOAD PUSH2 0x704 SWAP2 SWAP1 PUSH2 0x7EBF JUMP JUMPDEST PUSH1 0x40 MLOAD DUP1 SWAP2 SUB SWAP1 RETURN JUMPDEST CALLVALUE DUP1 ISZERO PUSH2 0x718 JUMPI PUSH0 DUP1 REVERT JUMPDEST POP PUSH2 0x721 PUSH2 0x1C78 JUMP JUMPDEST PUSH1 0x40 MLOAD PUSH2 0x72E SWAP2 SWAP1 PUSH2 0x7D29 JUMP JUMPDEST PUSH1 0x40 MLOAD DUP1 SWAP2 SUB SWAP1 RETURN JUMPDEST CALLVALUE DUP1 ISZERO PUSH2 0x742 JUMPI PUSH0 DUP1 REVERT JUMPDEST POP PUSH2 0x75D PUSH1 0x4 DUP1 CALLDATASIZE SUB DUP2 ADD SWAP1 PUSH2 0x758 SWAP2 SWAP1 PUSH2 0x7F40 JUMP JUMPDEST PUSH2 0x1C7E JUMP JUMPDEST PUSH1 0x40 MLOAD PUSH2 0x76A SWAP2 SWAP1 PUSH2 0x7EBF JUMP JUMPDEST PUSH1 0x40 MLOAD DUP1 SWAP2 SUB SWAP1 RETURN JUMPDEST CALLVALUE DUP1 ISZERO PUSH2 0x77E JUMPI PUSH0 DUP1 REVERT JUMPDEST POP PUSH2 0x787 PUSH2 0x1C9B JUMP JUMPDEST PUSH1 0x40 MLOAD PUSH2 0x794 SWAP2 SWAP1 PUSH2 0x7D29 JUMP JUMPDEST PUSH1 0x40 MLOAD DUP1 SWAP2 SUB SWAP1 RETURN JUMPDEST CALLVALUE DUP1 ISZERO PUSH2 0x7A8 JUMPI PUSH0 DUP1 REVERT JUMPDEST POP PUSH2 0x7B1 PUSH2 0x1CA1 JUMP JUMPDEST PUSH1 0x40 MLOAD PUSH2 0x7BE SWAP2 SWAP1 PUSH2 0x7EBF JUMP JUMPDEST PUSH1 0x40 MLOAD DUP1 SWAP2 SUB SWAP1 RETURN JUMPDEST CALLVALUE DUP1 ISZERO PUSH2 0x7D2 JUMPI PUSH0 DUP1 REVERT JUMPDEST POP PUSH2 0x7ED PUSH1 0x4 DUP1 CALLDATASIZE SUB DUP2 ADD SWAP1 PUSH2 0x7E8 SWAP2 SWAP1 PUSH2 0x8196 JUMP JUMPDEST PUSH2 0x1CB3 JUMP JUMPDEST STOP JUMPDEST CALLVALUE DUP1 ISZERO PUSH2 0x7FA JUMPI PUSH0 DUP1 REVERT JUMPDEST POP PUSH2 0x803 PUSH2 0x1F3B JUMP JUMPDEST PUSH1 0x40 MLOAD PUSH2 0x810 SWAP2 SWAP1 PUSH2 0x81F8 JUMP JUMPDEST PUSH1 0x40 MLOAD DUP1 SWAP2 SUB SWAP1 RETURN JUMPDEST CALLVALUE DUP1 ISZERO PUSH2 0x824 JUMPI PUSH0 DUP1 REVERT JUMPDEST POP PUSH2 0x82D PUSH2 0x1F50 JUMP JUMPDEST PUSH1 0x40 MLOAD PUSH2 0x83A SWAP2 SWAP1 PUSH2 0x8220 JUMP JUMPDEST PUSH1 0x40 MLOAD DUP1 SWAP2 SUB SWAP1 RETURN JUMPDEST CALLVALUE DUP1 ISZERO PUSH2 0x84E JUMPI PUSH0 DUP1 REVERT JUMPDEST POP PUSH2 0x857 PUSH2 0x1F75 JUMP JUMPDEST PUSH1 0x40 MLOAD PUSH2 0x864 SWAP2 SWAP1 PUSH2 0x8220 JUMP JUMPDEST PUSH1 0x40 MLOAD DUP1 SWAP2 SUB SWAP1 RETURN JUMPDEST CALLVALUE DUP1 ISZERO PUSH2 0x878 JUMPI PUSH0 DUP1 REVERT JUMPDEST POP PUSH2 0x893 PUSH1 0x4 DUP1 CALLDATASIZE SUB DUP2 ADD SWAP1 PUSH2 0x88E SWAP2 SWAP1 PUSH2 0x7F40 JUMP JUMPDEST PUSH2 0x1F9A JUMP JUMPDEST PUSH1 0x40 MLOAD PUSH2 0x8A0 SWAP2 SWAP1 PUSH2 0x7EBF JUMP JUMPDEST PUSH1 0x40 MLOAD DUP1 SWAP2 SUB SWAP1 RETURN JUMPDEST CALLVALUE DUP1 ISZERO PUSH2 0x8B4 JUMPI PUSH0 DUP1 REVERT JUMPDEST POP PUSH2 0x8BD PUSH2 0x1FB7 JUMP JUMPDEST PUSH1 0x40 MLOAD PUSH2 0x8CA SWAP2 SWAP1 PUSH2 0x8220 JUMP JUMPDEST PUSH1 0x40 MLOAD DUP1 SWAP2 SUB SWAP1 RETURN JUMPDEST CALLVALUE DUP1 ISZERO PUSH2 0x8DE JUMPI PUSH0 DUP1 REVERT JUMPDEST POP PUSH2 0x8F9 PUSH1 0x4 DUP1 CALLDATASIZE SUB DUP2 ADD SWAP1 PUSH2 0x8F4 SWAP2 SWAP1 PUSH2 0x7F40 JUMP JUMPDEST PUSH2 0x1FDB JUMP JUMPDEST PUSH1 0x40 MLOAD PUSH2 0x906 SWAP2 SWAP1 PUSH2 0x7D29 JUMP JUMPDEST PUSH1 0x40 MLOAD DUP1 SWAP2 SUB SWAP1 RETURN JUMPDEST CALLVALUE DUP1 ISZERO PUSH2 0x91A JUMPI PUSH0 DUP1 REVERT JUMPDEST POP PUSH2 0x923 PUSH2 0x1FF0 JUMP JUMPDEST PUSH1 0x40 MLOAD PUSH2 0x930 SWAP2 SWAP1 PUSH2 0x7D29 JUMP JUMPDEST PUSH1 0x40 MLOAD DUP1 SWAP2 SUB SWAP1 RETURN JUMPDEST CALLVALUE DUP1 ISZERO PUSH2 0x944 JUMPI PUSH0 DUP1 REVERT JUMPDEST POP PUSH2 0x94D PUSH2 0x1FF6 JUMP JUMPDEST PUSH1 0x40 MLOAD PUSH2 0x95A SWAP2 SWAP1 PUSH2 0x7D29 JUMP JUMPDEST PUSH1 0x40 MLOAD DUP1 SWAP2 SUB SWAP1 RETURN JUMPDEST CALLVALUE DUP1 ISZERO PUSH2 0x96E JUMPI PUSH0 DUP1 REVERT JUMPDEST POP PUSH2 0x977 PUSH2 0x1FFC JUMP JUMPDEST PUSH1 0x40 MLOAD PUSH2 0x984 SWAP2 SWAP1 PUSH2 0x7D29 JUMP JUMPDEST PUSH1 0x40 MLOAD DUP1 SWAP2 SUB SWAP1 RETURN JUMPDEST CALLVALUE DUP1 ISZERO PUSH2 0x998 JUMPI PUSH0 DUP1 REVERT JUMPDEST POP PUSH2 0x9B3 PUSH1 0x4 DUP1 CALLDATASIZE SUB DUP2 ADD SWAP1 PUSH2 0x9AE SWAP2 SWAP1 PUSH2 0x7F40 JUMP JUMPDEST PUSH2 0x2002 JUMP JUMPDEST PUSH1 0x40 MLOAD PUSH2 0x9C0 SWAP2 SWAP1 PUSH2 0x7D29 JUMP JUMPDEST PUSH1 0x40 MLOAD DUP1 SWAP2 SUB SWAP1 RETURN JUMPDEST CALLVALUE DUP1 ISZERO PUSH2 0x9D4 JUMPI PUSH0 DUP1 REVERT JUMPDEST POP PUSH2 0x9EF PUSH1 0x4 DUP1 CALLDATASIZE SUB DUP2 ADD SWAP1 PUSH2 0x9EA SWAP2 SWAP1 PUSH2 0x7E67 JUMP JUMPDEST PUSH2 0x2017 JUMP JUMPDEST PUSH1 0x40 MLOAD PUSH2 0x9FC SWAP2 SWAP1 PUSH2 0x8220 JUMP JUMPDEST PUSH1 0x40 MLOAD DUP1 SWAP2 SUB SWAP1 RETURN JUMPDEST CALLVALUE DUP1 ISZERO PUSH2 0xA10 JUMPI PUSH0 DUP1 REVERT JUMPDEST POP PUSH2 0xA19 PUSH2 0x205F JUMP JUMPDEST PUSH1 0x40 MLOAD PUSH2 0xA26 SWAP2 SWAP1 PUSH2 0x7D29 JUMP JUMPDEST PUSH1 0x40 MLOAD DUP1 SWAP2 SUB SWAP1 RETURN JUMPDEST CALLVALUE DUP1 ISZERO PUSH2 0xA3A JUMPI PUSH0 DUP1 REVERT JUMPDEST POP PUSH2 0xA43 PUSH2 0x2065 JUMP JUMPDEST PUSH1 0x40 MLOAD PUSH2 0xA50 SWAP2 SWAP1 PUSH2 0x7D29 JUMP JUMPDEST PUSH1 0x40 MLOAD DUP1 SWAP2 SUB SWAP1 RETURN JUMPDEST CALLVALUE DUP1 ISZERO PUSH2 0xA64 JUMPI PUSH0 DUP1 REVERT JUMPDEST POP PUSH2 0xA6D PUSH2 0x206B JUMP JUMPDEST PUSH1 0x40 MLOAD PUSH2 0xA7A SWAP2 SWAP1 PUSH2 0x7D29 JUMP JUMPDEST PUSH1 0x40 MLOAD DUP1 SWAP2 SUB SWAP1 RETURN JUMPDEST CALLVALUE DUP1 ISZERO PUSH2 0xA8E JUMPI PUSH0 DUP1 REVERT JUMPDEST POP PUSH2 0xAA9 PUSH1 0x4 DUP1 CALLDATASIZE SUB DUP2 ADD SWAP1 PUSH2 0xAA4 SWAP2 SWAP1 PUSH2 0x7F40 JUMP JUMPDEST PUSH2 0x2071 JUMP JUMPDEST PUSH1 0x40 MLOAD PUSH2 0xABC SWAP8 SWAP7 SWAP6 SWAP5 SWAP4 SWAP3 SWAP2 SWAP1 PUSH2 0x8239 JUMP JUMPDEST PUSH1 0x40 MLOAD DUP1 SWAP2 SUB SWAP1 RETURN JUMPDEST CALLVALUE DUP1 ISZERO PUSH2 0xAD0 JUMPI PUSH0 DUP1 REVERT JUMPDEST POP PUSH2 0xAD9 PUSH2 0x225D JUMP JUMPDEST PUSH1 0x40 MLOAD PUSH2 0xAE6 SWAP2 SWAP1 PUSH2 0x7D29 JUMP JUMPDEST PUSH1 0x40 MLOAD DUP1 SWAP2 SUB SWAP1 RETURN JUMPDEST CALLVALUE DUP1 ISZERO PUSH2 0xAFA JUMPI PUSH0 DUP1 REVERT JUMPDEST POP PUSH2 0xB15 PUSH1 0x4 DUP1 CALLDATASIZE SUB DUP2 ADD SWAP1 PUSH2 0xB10 SWAP2 SWAP1 PUSH2 0x82A6 JUMP JUMPDEST PUSH2 0x2266 JUMP JUMPDEST STOP JUMPDEST CALLVALUE DUP1 ISZERO PUSH2 0xB22 JUMPI PUSH0 DUP1 REVERT JUMPDEST POP PUSH2 0xB2B PUSH2 0x23A9 JUMP JUMPDEST STOP JUMPDEST CALLVALUE DUP1 ISZERO PUSH2 0xB38 JUMPI PUSH0 DUP1 REVERT JUMPDEST POP PUSH2 0xB53 PUSH1 0x4 DUP1 CALLDATASIZE SUB DUP2 ADD SWAP1 PUSH2 0xB4E SWAP2 SWAP1 PUSH2 0x7F40 JUMP JUMPDEST PUSH2 0x248A JUMP JUMPDEST PUSH1 0x40 MLOAD PUSH2 0xB60 SWAP2 SWAP1 PUSH2 0x7D29 JUMP JUMPDEST PUSH1 0x40 MLOAD DUP1 SWAP2 SUB SWAP1 RETURN JUMPDEST CALLVALUE DUP1 ISZERO PUSH2 0xB74 JUMPI PUSH0 DUP1 REVERT JUMPDEST POP PUSH2 0xB8F PUSH1 0x4 DUP1 CALLDATASIZE SUB DUP2 ADD SWAP1 PUSH2 0xB8A SWAP2 SWAP1 PUSH2 0x7F40 JUMP JUMPDEST PUSH2 0x249F JUMP JUMPDEST PUSH1 0x40 MLOAD PUSH2 0xB9C SWAP2 SWAP1 PUSH2 0x7D29 JUMP JUMPDEST PUSH1 0x40 MLOAD DUP1 SWAP2 SUB SWAP1 RETURN JUMPDEST CALLVALUE DUP1 ISZERO PUSH2 0xBB0 JUMPI PUSH0 DUP1 REVERT JUMPDEST POP PUSH2 0xBB9 PUSH2 0x24B6 JUMP JUMPDEST STOP JUMPDEST CALLVALUE DUP1 ISZERO PUSH2 0xBC6 JUMPI PUSH0 DUP1 REVERT JUMPDEST POP PUSH2 0xBE1 PUSH1 0x4 DUP1 CALLDATASIZE SUB DUP2 ADD SWAP1 PUSH2 0xBDC SWAP2 SWAP1 PUSH2 0x82E4 JUMP JUMPDEST PUSH2 0x25FD JUMP JUMPDEST STOP JUMPDEST CALLVALUE DUP1 ISZERO PUSH2 0xBEE JUMPI PUSH0 DUP1 REVERT JUMPDEST POP PUSH2 0xBF7 PUSH2 0x279C JUMP JUMPDEST PUSH1 0x40 MLOAD PUSH2 0xC04 SWAP2 SWAP1 PUSH2 0x7D29 JUMP JUMPDEST PUSH1 0x40 MLOAD DUP1 SWAP2 SUB SWAP1 RETURN JUMPDEST CALLVALUE DUP1 ISZERO PUSH2 0xC18 JUMPI PUSH0 DUP1 REVERT JUMPDEST POP PUSH2 0xC21 PUSH2 0x27A8 JUMP JUMPDEST PUSH1 0x40 MLOAD PUSH2 0xC2E SWAP2 SWAP1 PUSH2 0x7D29 JUMP JUMPDEST PUSH1 0x40 MLOAD DUP1 SWAP2 SUB SWAP1 RETURN JUMPDEST CALLVALUE DUP1 ISZERO PUSH2 0xC42 JUMPI PUSH0 DUP1 REVERT JUMPDEST POP PUSH2 0xC4B PUSH2 0x27AE JUMP JUMPDEST PUSH1 0x40 MLOAD PUSH2 0xC58 SWAP2 SWAP1 PUSH2 0x7D29 JUMP JUMPDEST PUSH1 0x40 MLOAD DUP1 SWAP2 SUB SWAP1 RETURN JUMPDEST CALLVALUE DUP1 ISZERO PUSH2 0xC6C JUMPI PUSH0 DUP1 REVERT JUMPDEST POP PUSH2 0xC75 PUSH2 0x27B4 JUMP JUMPDEST PUSH1 0x40 MLOAD PUSH2 0xC82 SWAP2 SWAP1 PUSH2 0x7D29 JUMP JUMPDEST PUSH1 0x40 MLOAD DUP1 SWAP2 SUB SWAP1 RETURN JUMPDEST CALLVALUE DUP1 ISZERO PUSH2 0xC96 JUMPI PUSH0 DUP1 REVERT JUMPDEST POP PUSH2 0xCB1 PUSH1 0x4 DUP1 CALLDATASIZE SUB DUP2 ADD SWAP1 PUSH2 0xCAC SWAP2 SWAP1 PUSH2 0x7F40 JUMP JUMPDEST PUSH2 0x292C JUMP JUMPDEST STOP JUMPDEST CALLVALUE DUP1 ISZERO PUSH2 0xCBE JUMPI PUSH0 DUP1 REVERT JUMPDEST POP PUSH2 0xCC7 PUSH2 0x2AC8 JUMP JUMPDEST PUSH1 0x40 MLOAD PUSH2 0xCD4 SWAP2 SWAP1 PUSH2 0x8354 JUMP JUMPDEST PUSH1 0x40 MLOAD DUP1 SWAP2 SUB SWAP1 RETURN JUMPDEST CALLVALUE DUP1 ISZERO PUSH2 0xCE8 JUMPI PUSH0 DUP1 REVERT JUMPDEST POP PUSH2 0xD03 PUSH1 0x4 DUP1 CALLDATASIZE SUB DUP2 ADD SWAP1 PUSH2 0xCFE SWAP2 SWAP1 PUSH2 0x82A6 JUMP JUMPDEST PUSH2 0x2AEC JUMP JUMPDEST STOP JUMPDEST CALLVALUE DUP1 ISZERO PUSH2 0xD10 JUMPI PUSH0 DUP1 REVERT JUMPDEST POP PUSH2 0xD19 PUSH2 0x2D1E JUMP JUMPDEST PUSH1 0x40 MLOAD PUSH2 0xD26 SWAP2 SWAP1 PUSH2 0x7D29 JUMP JUMPDEST PUSH1 0x40 MLOAD DUP1 SWAP2 SUB SWAP1 RETURN JUMPDEST CALLVALUE DUP1 ISZERO PUSH2 0xD3A JUMPI PUSH0 DUP1 REVERT JUMPDEST POP PUSH2 0xD43 PUSH2 0x2D25 JUMP JUMPDEST PUSH1 0x40 MLOAD PUSH2 0xD50 SWAP2 SWAP1 PUSH2 0x8220 JUMP JUMPDEST PUSH1 0x40 MLOAD DUP1 SWAP2 SUB SWAP1 RETURN JUMPDEST CALLVALUE DUP1 ISZERO PUSH2 0xD64 JUMPI PUSH0 DUP1 REVERT JUMPDEST POP PUSH2 0xD6D PUSH2 0x2D4C JUMP JUMPDEST PUSH1 0x40 MLOAD PUSH2 0xD7A SWAP2 SWAP1 PUSH2 0x7D29 JUMP JUMPDEST PUSH1 0x40 MLOAD DUP1 SWAP2 SUB SWAP1 RETURN JUMPDEST CALLVALUE DUP1 ISZERO PUSH2 0xD8E JUMPI PUSH0 DUP1 REVERT JUMPDEST POP PUSH2 0xDA9 PUSH1 0x4 DUP1 CALLDATASIZE SUB DUP2 ADD SWAP1 PUSH2 0xDA4 SWAP2 SWAP1 PUSH2 0x836D JUMP JUMPDEST PUSH2 0x2D54 JUMP JUMPDEST STOP JUMPDEST CALLVALUE DUP1 ISZERO PUSH2 0xDB6 JUMPI PUSH0 DUP1 REVERT JUMPDEST POP PUSH2 0xDBF PUSH2 0x2EED JUMP JUMPDEST PUSH1 0x40 MLOAD PUSH2 0xDCC SWAP2 SWAP1 PUSH2 0x7DB2 JUMP JUMPDEST PUSH1 0x40 MLOAD DUP1 SWAP2 SUB SWAP1 RETURN JUMPDEST CALLVALUE DUP1 ISZERO PUSH2 0xDE0 JUMPI PUSH0 DUP1 REVERT JUMPDEST POP PUSH2 0xDFB PUSH1 0x4 DUP1 CALLDATASIZE SUB DUP2 ADD SWAP1 PUSH2 0xDF6 SWAP2 SWAP1 PUSH2 0x836D JUMP JUMPDEST PUSH2 0x2F7D JUMP JUMPDEST STOP JUMPDEST CALLVALUE DUP1 ISZERO PUSH2 0xE08 JUMPI PUSH0 DUP1 REVERT JUMPDEST POP PUSH2 0xE11 PUSH2 0x3014 JUMP JUMPDEST PUSH1 0x40 MLOAD PUSH2 0xE1E SWAP2 SWAP1 PUSH2 0x7D29 JUMP JUMPDEST PUSH1 0x40 MLOAD DUP1 SWAP2 SUB SWAP1 RETURN JUMPDEST CALLVALUE DUP1 ISZERO PUSH2 0xE32 JUMPI PUSH0 DUP1 REVERT JUMPDEST POP PUSH2 0xE4D PUSH1 0x4 DUP1 CALLDATASIZE SUB DUP2 ADD SWAP1 PUSH2 0xE48 SWAP2 SWAP1 PUSH2 0x7F40 JUMP JUMPDEST PUSH2 0x301A JUMP JUMPDEST PUSH1 0x40 MLOAD PUSH2 0xE5A SWAP2 SWAP1 PUSH2 0x7EBF JUMP JUMPDEST PUSH1 0x40 MLOAD DUP1 SWAP2 SUB SWAP1 RETURN JUMPDEST CALLVALUE DUP1 ISZERO PUSH2 0xE6E JUMPI PUSH0 DUP1 REVERT JUMPDEST POP PUSH2 0xE77 PUSH2 0x306C JUMP JUMPDEST PUSH1 0x40 MLOAD PUSH2 0xE84 SWAP2 SWAP1 PUSH2 0x7D29 JUMP JUMPDEST PUSH1 0x40 MLOAD DUP1 SWAP2 SUB SWAP1 RETURN JUMPDEST CALLVALUE DUP1 ISZERO PUSH2 0xE98 JUMPI PUSH0 DUP1 REVERT JUMPDEST POP PUSH2 0xEB3 PUSH1 0x4 DUP1 CALLDATASIZE SUB DUP2 ADD SWAP1 PUSH2 0xEAE SWAP2 SWAP1 PUSH2 0x7E67 JUMP JUMPDEST PUSH2 0x3072 JUMP JUMPDEST STOP JUMPDEST CALLVALUE DUP1 ISZERO PUSH2 0xEC0 JUMPI PUSH0 DUP1 REVERT JUMPDEST POP PUSH2 0xEDB PUSH1 0x4 DUP1 CALLDATASIZE SUB DUP2 ADD SWAP1 PUSH2 0xED6 SWAP2 SWAP1 PUSH2 0x7F02 JUMP JUMPDEST PUSH2 0x3242 JUMP JUMPDEST STOP JUMPDEST CALLVALUE DUP1 ISZERO PUSH2 0xEE8 JUMPI PUSH0 DUP1 REVERT JUMPDEST POP PUSH2 0xF03 PUSH1 0x4 DUP1 CALLDATASIZE SUB DUP2 ADD SWAP1 PUSH2 0xEFE SWAP2 SWAP1 PUSH2 0x7E67 JUMP JUMPDEST PUSH2 0x33D4 JUMP JUMPDEST PUSH1 0x40 MLOAD PUSH2 0xF10 SWAP2 SWAP1 PUSH2 0x7EBF JUMP JUMPDEST PUSH1 0x40 MLOAD DUP1 SWAP2 SUB SWAP1 RETURN JUMPDEST CALLVALUE DUP1 ISZERO PUSH2 0xF24 JUMPI PUSH0 DUP1 REVERT JUMPDEST POP PUSH2 0xF3F PUSH1 0x4 DUP1 CALLDATASIZE SUB DUP2 ADD SWAP1 PUSH2 0xF3A SWAP2 SWAP1 PUSH2 0x836D JUMP JUMPDEST PUSH2 0x33EB JUMP JUMPDEST STOP JUMPDEST CALLVALUE DUP1 ISZERO PUSH2 0xF4C JUMPI PUSH0 DUP1 REVERT JUMPDEST POP PUSH2 0xF67 PUSH1 0x4 DUP1 CALLDATASIZE SUB DUP2 ADD SWAP1 PUSH2 0xF62 SWAP2 SWAP1 PUSH2 0x8398 JUMP JUMPDEST PUSH2 0x3573 JUMP JUMPDEST PUSH1 0x40 MLOAD PUSH2 0xF74 SWAP2 SWAP1 PUSH2 0x7EBF JUMP JUMPDEST PUSH1 0x40 MLOAD DUP1 SWAP2 SUB SWAP1 RETURN JUMPDEST CALLVALUE DUP1 ISZERO PUSH2 0xF88 JUMPI PUSH0 DUP1 REVERT JUMPDEST POP PUSH2 0xFA3 PUSH1 0x4 DUP1 CALLDATASIZE SUB DUP2 ADD SWAP1 PUSH2 0xF9E SWAP2 SWAP1 PUSH2 0x83D6 JUMP JUMPDEST PUSH2 0x359D JUMP JUMPDEST STOP JUMPDEST CALLVALUE DUP1 ISZERO PUSH2 0xFB0 JUMPI PUSH0 DUP1 REVERT JUMPDEST POP PUSH2 0xFB9 PUSH2 0x36B5 JUMP JUMPDEST PUSH1 0x40 MLOAD PUSH2 0xFC6 SWAP2 SWAP1 PUSH2 0x7D29 JUMP JUMPDEST PUSH1 0x40 MLOAD DUP1 SWAP2 SUB SWAP1 RETURN JUMPDEST CALLVALUE DUP1 ISZERO PUSH2 0xFDA JUMPI PUSH0 DUP1 REVERT JUMPDEST POP PUSH2 0xFE3 PUSH2 0x36D1 JUMP JUMPDEST PUSH1 0x40 MLOAD PUSH2 0xFF0 SWAP2 SWAP1 PUSH2 0x7D29 JUMP JUMPDEST PUSH1 0x40 MLOAD DUP1 SWAP2 SUB SWAP1 RETURN JUMPDEST CALLVALUE DUP1 ISZERO PUSH2 0x1004 JUMPI PUSH0 DUP1 REVERT JUMPDEST POP PUSH2 0x100D PUSH2 0x36D7 JUMP JUMPDEST PUSH1 0x40 MLOAD PUSH2 0x101A SWAP2 SWAP1 PUSH2 0x7D29 JUMP JUMPDEST PUSH1 0x40 MLOAD DUP1 SWAP2 SUB SWAP1 RETURN JUMPDEST CALLVALUE DUP1 ISZERO PUSH2 0x102E JUMPI PUSH0 DUP1 REVERT JUMPDEST POP PUSH2 0x1037 PUSH2 0x36DD JUMP JUMPDEST PUSH1 0x40 MLOAD PUSH2 0x1044 SWAP2 SWAP1 PUSH2 0x8220 JUMP JUMPDEST PUSH1 0x40 MLOAD DUP1 SWAP2 SUB SWAP1 RETURN JUMPDEST CALLVALUE DUP1 ISZERO PUSH2 0x1058 JUMPI PUSH0 DUP1 REVERT JUMPDEST POP PUSH2 0x1073 PUSH1 0x4 DUP1 CALLDATASIZE SUB DUP2 ADD SWAP1 PUSH2 0x106E SWAP2 SWAP1 PUSH2 0x7E67 JUMP JUMPDEST PUSH2 0x3701 JUMP JUMPDEST PUSH1 0x40 MLOAD PUSH2 0x1080 SWAP2 SWAP1 PUSH2 0x84D5 JUMP JUMPDEST PUSH1 0x40 MLOAD DUP1 SWAP2 SUB SWAP1 RETURN JUMPDEST CALLVALUE DUP1 ISZERO PUSH2 0x1094 JUMPI PUSH0 DUP1 REVERT JUMPDEST POP PUSH2 0x10AF PUSH1 0x4 DUP1 CALLDATASIZE SUB DUP2 ADD SWAP1 PUSH2 0x10AA SWAP2 SWAP1 PUSH2 0x7E67 JUMP JUMPDEST PUSH2 0x3852 JUMP JUMPDEST STOP JUMPDEST CALLVALUE DUP1 ISZERO PUSH2 0x10BC JUMPI PUSH0 DUP1 REVERT JUMPDEST POP PUSH2 0x10D7 PUSH1 0x4 DUP1 CALLDATASIZE SUB DUP2 ADD SWAP1 PUSH2 0x10D2 SWAP2 SWAP1 PUSH2 0x836D JUMP JUMPDEST PUSH2 0x39D2 JUMP JUMPDEST STOP JUMPDEST CALLVALUE DUP1 ISZERO PUSH2 0x10E4 JUMPI PUSH0 DUP1 REVERT JUMPDEST POP PUSH2 0x10FF PUSH1 0x4 DUP1 CALLDATASIZE SUB DUP2 ADD SWAP1 PUSH2 0x10FA SWAP2 SWAP1 PUSH2 0x836D JUMP JUMPDEST PUSH2 0x3ABB JUMP JUMPDEST STOP JUMPDEST CALLVALUE DUP1 ISZERO PUSH2 0x110C JUMPI PUSH0 DUP1 REVERT JUMPDEST POP PUSH2 0x1115 PUSH2 0x3BFF JUMP JUMPDEST PUSH1 0x40 MLOAD PUSH2 0x1122 SWAP2 SWAP1 PUSH2 0x7D29 JUMP JUMPDEST PUSH1 0x40 MLOAD DUP1 SWAP2 SUB SWAP1 RETURN JUMPDEST CALLVALUE DUP1 ISZERO PUSH2 0x1136 JUMPI PUSH0 DUP1 REVERT JUMPDEST POP PUSH2 0x1151 PUSH1 0x4 DUP1 CALLDATASIZE SUB DUP2 ADD SWAP1 PUSH2 0x114C SWAP2 SWAP1 PUSH2 0x7F40 JUMP JUMPDEST PUSH2 0x3C05 JUMP JUMPDEST PUSH1 0x40 MLOAD PUSH2 0x115E SWAP2 SWAP1 PUSH2 0x7EBF JUMP JUMPDEST PUSH1 0x40 MLOAD DUP1 SWAP2 SUB SWAP1 RETURN JUMPDEST CALLVALUE DUP1 ISZERO PUSH2 0x1172 JUMPI PUSH0 DUP1 REVERT JUMPDEST POP PUSH2 0x118D PUSH1 0x4 DUP1 CALLDATASIZE SUB DUP2 ADD SWAP1 PUSH2 0x1188 SWAP2 SWAP1 PUSH2 0x7F40 JUMP JUMPDEST PUSH2 0x3C22 JUMP JUMPDEST PUSH1 0x40 MLOAD PUSH2 0x119A SWAP2 SWAP1 PUSH2 0x7D29 JUMP JUMPDEST PUSH1 0x40 MLOAD DUP1 SWAP2 SUB SWAP1 RETURN JUMPDEST CALLVALUE DUP1 ISZERO PUSH2 0x11AE JUMPI PUSH0 DUP1 REVERT JUMPDEST POP PUSH2 0x11C9 PUSH1 0x4 DUP1 CALLDATASIZE SUB DUP2 ADD SWAP1 PUSH2 0x11C4 SWAP2 SWAP1 PUSH2 0x7F02 JUMP JUMPDEST PUSH2 0x3CB2 JUMP JUMPDEST STOP JUMPDEST CALLVALUE DUP1 ISZERO PUSH2 0x11D6 JUMPI PUSH0 DUP1 REVERT JUMPDEST POP PUSH2 0x11F1 PUSH1 0x4 DUP1 CALLDATASIZE SUB DUP2 ADD SWAP1 PUSH2 0x11EC SWAP2 SWAP1 PUSH2 0x7F02 JUMP JUMPDEST PUSH2 0x3D97 JUMP JUMPDEST STOP JUMPDEST CALLVALUE DUP1 ISZERO PUSH2 0x11FE JUMPI PUSH0 DUP1 REVERT JUMPDEST POP PUSH2 0x1219 PUSH1 0x4 DUP1 CALLDATASIZE SUB DUP2 ADD SWAP1 PUSH2 0x1214 SWAP2 SWAP1 PUSH2 0x7F40 JUMP JUMPDEST PUSH2 0x3F79 JUMP JUMPDEST PUSH1 0x40 MLOAD PUSH2 0x1226 SWAP2 SWAP1 PUSH2 0x7EBF JUMP JUMPDEST PUSH1 0x40 MLOAD DUP1 SWAP2 SUB SWAP1 RETURN JUMPDEST CALLVALUE DUP1 ISZERO PUSH2 0x123A JUMPI PUSH0 DUP1 REVERT JUMPDEST POP PUSH2 0x1255 PUSH1 0x4 DUP1 CALLDATASIZE SUB DUP2 ADD SWAP1 PUSH2 0x1250 SWAP2 SWAP1 PUSH2 0x8398 JUMP JUMPDEST PUSH2 0x4088 JUMP JUMPDEST PUSH1 0x40 MLOAD PUSH2 0x1262 SWAP2 SWAP1 PUSH2 0x7D29 JUMP JUMPDEST PUSH1 0x40 MLOAD DUP1 SWAP2 SUB SWAP1 RETURN JUMPDEST CALLVALUE DUP1 ISZERO PUSH2 0x1276 JUMPI PUSH0 DUP1 REVERT JUMPDEST POP PUSH2 0x1291 PUSH1 0x4 DUP1 CALLDATASIZE SUB DUP2 ADD SWAP1 PUSH2 0x128C SWAP2 SWAP1 PUSH2 0x836D JUMP JUMPDEST PUSH2 0x410A JUMP JUMPDEST PUSH1 0x40 MLOAD PUSH2 0x129E SWAP2 SWAP1 PUSH2 0x8220 JUMP JUMPDEST PUSH1 0x40 MLOAD DUP1 SWAP2 SUB SWAP1 RETURN JUMPDEST CALLVALUE DUP1 ISZERO PUSH2 0x12B2 JUMPI PUSH0 DUP1 REVERT JUMPDEST POP PUSH2 0x12CD PUSH1 0x4 DUP1 CALLDATASIZE SUB DUP2 ADD SWAP1 PUSH2 0x12C8 SWAP2 SWAP1 PUSH2 0x836D JUMP JUMPDEST PUSH2 0x4145 JUMP JUMPDEST STOP JUMPDEST CALLVALUE DUP1 ISZERO PUSH2 0x12DA JUMPI PUSH0 DUP1 REVERT JUMPDEST POP PUSH2 0x12E3 PUSH2 0x41DC JUMP JUMPDEST PUSH1 0x40 MLOAD PUSH2 0x12F0 SWAP2 SWAP1 PUSH2 0x7D29 JUMP JUMPDEST PUSH1 0x40 MLOAD DUP1 SWAP2 SUB SWAP1 RETURN JUMPDEST CALLVALUE DUP1 ISZERO PUSH2 0x1304 JUMPI PUSH0 DUP1 REVERT JUMPDEST POP PUSH2 0x130D PUSH2 0x41E2 JUMP JUMPDEST PUSH1 0x40 MLOAD PUSH2 0x131A SWAP2 SWAP1 PUSH2 0x7D29 JUMP JUMPDEST PUSH1 0x40 MLOAD DUP1 SWAP2 SUB SWAP1 RETURN JUMPDEST CALLVALUE DUP1 ISZERO PUSH2 0x132E JUMPI PUSH0 DUP1 REVERT JUMPDEST POP PUSH2 0x1349 PUSH1 0x4 DUP1 CALLDATASIZE SUB DUP2 ADD SWAP1 PUSH2 0x1344 SWAP2 SWAP1 PUSH2 0x7F40 JUMP JUMPDEST PUSH2 0x41E8 JUMP JUMPDEST PUSH1 0x40 MLOAD PUSH2 0x1356 SWAP2 SWAP1 PUSH2 0x7D29 JUMP JUMPDEST PUSH1 0x40 MLOAD DUP1 SWAP2 SUB SWAP1 RETURN JUMPDEST CALLVALUE DUP1 ISZERO PUSH2 0x136A JUMPI PUSH0 DUP1 REVERT JUMPDEST POP PUSH2 0x1373 PUSH2 0x41FD JUMP JUMPDEST PUSH1 0x40 MLOAD PUSH2 0x1380 SWAP2 SWAP1 PUSH2 0x8220 JUMP JUMPDEST PUSH1 0x40 MLOAD DUP1 SWAP2 SUB SWAP1 RETURN JUMPDEST CALLVALUE DUP1 ISZERO PUSH2 0x1394 JUMPI PUSH0 DUP1 REVERT JUMPDEST POP PUSH2 0x139D PUSH2 0x4222 JUMP JUMPDEST PUSH1 0x40 MLOAD PUSH2 0x13AA SWAP2 SWAP1 PUSH2 0x7D29 JUMP JUMPDEST PUSH1 0x40 MLOAD DUP1 SWAP2 SUB SWAP1 RETURN JUMPDEST CALLVALUE DUP1 ISZERO PUSH2 0x13BE JUMPI PUSH0 DUP1 REVERT JUMPDEST POP PUSH2 0x13D9 PUSH1 0x4 DUP1 CALLDATASIZE SUB DUP2 ADD SWAP1 PUSH2 0x13D4 SWAP2 SWAP1 PUSH2 0x7F40 JUMP JUMPDEST PUSH2 0x4228 JUMP JUMPDEST PUSH1 0x40 MLOAD PUSH2 0x13E6 SWAP2 SWAP1 PUSH2 0x7EBF JUMP JUMPDEST PUSH1 0x40 MLOAD DUP1 SWAP2 SUB SWAP1 RETURN JUMPDEST CALLVALUE DUP1 ISZERO PUSH2 0x13FA JUMPI PUSH0 DUP1 REVERT JUMPDEST POP PUSH2 0x1415 PUSH1 0x4 DUP1 CALLDATASIZE SUB DUP2 ADD SWAP1 PUSH2 0x1410 SWAP2 SWAP1 PUSH2 0x836D JUMP JUMPDEST PUSH2 0x4245 JUMP JUMPDEST STOP JUMPDEST CALLVALUE DUP1 ISZERO PUSH2 0x1422 JUMPI PUSH0 DUP1 REVERT JUMPDEST POP PUSH2 0x143D PUSH1 0x4 DUP1 CALLDATASIZE SUB DUP2 ADD SWAP1 PUSH2 0x1438 SWAP2 SWAP1 PUSH2 0x7F40 JUMP JUMPDEST PUSH2 0x444C JUMP JUMPDEST PUSH1 0x40 MLOAD PUSH2 0x144A SWAP2 SWAP1 PUSH2 0x7D29 JUMP JUMPDEST PUSH1 0x40 MLOAD DUP1 SWAP2 SUB SWAP1 RETURN JUMPDEST CALLVALUE DUP1 ISZERO PUSH2 0x145E JUMPI PUSH0 DUP1 REVERT JUMPDEST POP PUSH2 0x1467 PUSH2 0x4461 JUMP JUMPDEST PUSH1 0x40 MLOAD PUSH2 0x1474 SWAP2 SWAP1 PUSH2 0x7D29 JUMP JUMPDEST PUSH1 0x40 MLOAD DUP1 SWAP2 SUB SWAP1 RETURN JUMPDEST CALLVALUE DUP1 ISZERO PUSH2 0x1488 JUMPI PUSH0 DUP1 REVERT JUMPDEST POP PUSH2 0x14A3 PUSH1 0x4 DUP1 CALLDATASIZE SUB DUP2 ADD SWAP1 PUSH2 0x149E SWAP2 SWAP1 PUSH2 0x836D JUMP JUMPDEST PUSH2 0x4477 JUMP JUMPDEST STOP JUMPDEST CALLVALUE DUP1 ISZERO PUSH2 0x14B0 JUMPI PUSH0 DUP1 REVERT JUMPDEST POP PUSH2 0x14CB PUSH1 0x4 DUP1 CALLDATASIZE SUB DUP2 ADD SWAP1 PUSH2 0x14C6 SWAP2 SWAP1 PUSH2 0x7F40 JUMP JUMPDEST PUSH2 0x455B JUMP JUMPDEST STOP JUMPDEST CALLVALUE DUP1 ISZERO PUSH2 0x14D8 JUMPI PUSH0 DUP1 REVERT JUMPDEST POP PUSH2 0x14E1 PUSH2 0x4711 JUMP JUMPDEST PUSH1 0x40 MLOAD PUSH2 0x14EE SWAP2 SWAP1 PUSH2 0x7D29 JUMP JUMPDEST PUSH1 0x40 MLOAD DUP1 SWAP2 SUB SWAP1 RETURN JUMPDEST CALLVALUE DUP1 ISZERO PUSH2 0x1502 JUMPI PUSH0 DUP1 REVERT JUMPDEST POP PUSH2 0x151D PUSH1 0x4 DUP1 CALLDATASIZE SUB DUP2 ADD SWAP1 PUSH2 0x1518 SWAP2 SWAP1 PUSH2 0x82A6 JUMP JUMPDEST PUSH2 0x4717 JUMP JUMPDEST STOP JUMPDEST CALLVALUE DUP1 ISZERO PUSH2 0x152A JUMPI PUSH0 DUP1 REVERT JUMPDEST POP PUSH2 0x1533 PUSH2 0x485A JUMP JUMPDEST PUSH1 0x40 MLOAD PUSH2 0x1540 SWAP2 SWAP1 PUSH2 0x8220 JUMP JUMPDEST PUSH1 0x40 MLOAD DUP1 SWAP2 SUB SWAP1 RETURN JUMPDEST PUSH1 0x2C SLOAD DUP2 JUMP JUMPDEST PUSH1 0x60 PUSH1 0x35 DUP1 SLOAD PUSH2 0x155E SWAP1 PUSH2 0x851C JUMP JUMPDEST DUP1 PUSH1 0x1F ADD PUSH1 0x20 DUP1 SWAP2 DIV MUL PUSH1 0x20 ADD PUSH1 0x40 MLOAD SWAP1 DUP2 ADD PUSH1 0x40 MSTORE DUP1 SWAP3 SWAP2 SWAP1 DUP2 DUP2 MSTORE PUSH1 0x20 ADD DUP3 DUP1 SLOAD PUSH2 0x158A SWAP1 PUSH2 0x851C JUMP JUMPDEST DUP1 ISZERO PUSH2 0x15D5 JUMPI DUP1 PUSH1 0x1F LT PUSH2 0x15AC JUMPI PUSH2 0x100 DUP1 DUP4 SLOAD DIV MUL DUP4 MSTORE SWAP2 PUSH1 0x20 ADD SWAP2 PUSH2 0x15D5 JUMP JUMPDEST DUP3 ADD SWAP2 SWAP1 PUSH0 MSTORE PUSH1 0x20 PUSH0 KECCAK256 SWAP1 JUMPDEST DUP2 SLOAD DUP2 MSTORE SWAP1 PUSH1 0x1 ADD SWAP1 PUSH1 0x20 ADD DUP1 DUP4 GT PUSH2 0x15B8 JUMPI DUP3 SWAP1 SUB PUSH1 0x1F AND DUP3 ADD SWAP2 JUMPDEST POP POP POP POP POP SWAP1 POP SWAP1 JUMP JUMPDEST PUSH0 PUSH2 0x15EB CALLER DUP5 DUP5 PUSH2 0x487F JUMP JUMPDEST PUSH1 0x1 SWAP1 POP SWAP3 SWAP2 POP POP JUMP JUMPDEST CALLER PUSH20 0xFFFFFFFFFFFFFFFFFFFFFFFFFFFFFFFFFFFFFFFF AND PUSH0 DUP1 SLOAD SWAP1 PUSH2 0x100 EXP SWAP1 DIV PUSH20 0xFFFFFFFFFFFFFFFFFFFFFFFFFFFFFFFFFFFFFFFF AND PUSH20 0xFFFFFFFFFFFFFFFFFFFFFFFFFFFFFFFFFFFFFFFF AND EQ PUSH2 0x1682 JUMPI PUSH1 0x40 MLOAD PUSH32 0x8C379A000000000000000000000000000000000000000000000000000000000 DUP2 MSTORE PUSH1 0x4 ADD PUSH2 0x1679 SWAP1 PUSH2 0x8596 JUMP JUMPDEST PUSH1 0x40 MLOAD DUP1 SWAP2 SUB SWAP1 REVERT JUMPDEST DUP1 PUSH1 0x19 PUSH0 DUP5 PUSH20 0xFFFFFFFFFFFFFFFFFFFFFFFFFFFFFFFFFFFFFFFF AND PUSH20 0xFFFFFFFFFFFFFFFFFFFFFFFFFFFFFFFFFFFFFFFF AND DUP2 MSTORE PUSH1 0x20 ADD SWAP1 DUP2 MSTORE PUSH1 0x20 ADD PUSH0 KECCAK256 PUSH0 PUSH2 0x100 EXP DUP2 SLOAD DUP2 PUSH1 0xFF MUL NOT AND SWAP1 DUP4 ISZERO ISZERO MUL OR SWAP1 SSTORE POP POP POP JUMP JUMPDEST PUSH0 CALLER SWAP1 POP PUSH1 0xF PUSH0 DUP3 PUSH20 0xFFFFFFFFFFFFFFFFFFFFFFFFFFFFFFFFFFFFFFFF AND PUSH20 0xFFFFFFFFFFFFFFFFFFFFFFFFFFFFFFFFFFFFFFFF AND DUP2 MSTORE PUSH1 0x20 ADD SWAP1 DUP2 MSTORE PUSH1 0x20 ADD PUSH0 KECCAK256 PUSH0 SWAP1 SLOAD SWAP1 PUSH2 0x100 EXP SWAP1 DIV PUSH1 0xFF AND DUP1 PUSH2 0x177F JUMPI POP PUSH1 0x1B PUSH0 SWAP1 SLOAD SWAP1 PUSH2 0x100 EXP SWAP1 DIV PUSH20 0xFFFFFFFFFFFFFFFFFFFFFFFFFFFFFFFFFFFFFFFF AND PUSH20 0xFFFFFFFFFFFFFFFFFFFFFFFFFFFFFFFFFFFFFFFF AND DUP2 PUSH20 0xFFFFFFFFFFFFFFFFFFFFFFFFFFFFFFFFFFFFFFFF AND EQ JUMPDEST DUP1 PUSH2 0x17D4 JUMPI POP PUSH0 DUP1 SLOAD SWAP1 PUSH2 0x100 EXP SWAP1 DIV PUSH20 0xFFFFFFFFFFFFFFFFFFFFFFFFFFFFFFFFFFFFFFFF AND PUSH20 0xFFFFFFFFFFFFFFFFFFFFFFFFFFFFFFFFFFFFFFFF AND DUP2 PUSH20 0xFFFFFFFFFFFFFFFFFFFFFFFFFFFFFFFFFFFFFFFF AND EQ JUMPDEST PUSH2 0x1813 JUMPI PUSH1 0x40 MLOAD PUSH32 0x8C379A000000000000000000000000000000000000000000000000000000000 DUP2 MSTORE PUSH1 0x4 ADD PUSH2 0x180A SWAP1 PUSH2 0x85FE JUMP JUMPDEST PUSH1 0x40 MLOAD DUP1 SWAP2 SUB SWAP1 REVERT JUMPDEST DUP3 PUSH20 0xFFFFFFFFFFFFFFFFFFFFFFFFFFFFFFFFFFFFFFFF AND PUSH4 0xA9059CBB PUSH1 0x1B PUSH0 SWAP1 SLOAD SWAP1 PUSH2 0x100 EXP SWAP1 DIV PUSH20 0xFFFFFFFFFFFFFFFFFFFFFFFFFFFFFFFFFFFFFFFF AND DUP5 PUSH1 0x40 MLOAD DUP4 PUSH4 0xFFFFFFFF AND PUSH1 0xE0 SHL DUP2 MSTORE PUSH1 0x4 ADD PUSH2 0x186F SWAP3 SWAP2 SWAP1 PUSH2 0x861C JUMP JUMPDEST PUSH1 0x20 PUSH1 0x40 MLOAD DUP1 DUP4 SUB DUP2 PUSH0 DUP8 GAS CALL ISZERO DUP1 ISZERO PUSH2 0x188B JUMPI RETURNDATASIZE PUSH0 DUP1 RETURNDATACOPY RETURNDATASIZE PUSH0 REVERT JUMPDEST POP POP POP POP PUSH1 0x40 MLOAD RETURNDATASIZE PUSH1 0x1F NOT PUSH1 0x1F DUP3 ADD AND DUP3 ADD DUP1 PUSH1 0x40 MSTORE POP DUP2 ADD SWAP1 PUSH2 0x18AF SWAP2 SWAP1 PUSH2 0x8657 JUMP JUMPDEST POP POP POP POP JUMP JUMPDEST PUSH0 PUSH1 0x38 SLOAD SWAP1 POP SWAP1 JUMP JUMPDEST PUSH1 0x26 SLOAD DUP2 JUMP JUMPDEST PUSH0 DUP1 PUSH0 PUSH32 0x0 SWAP1 POP PUSH0 DUP2 PUSH20 0xFFFFFFFFFFFFFFFFFFFFFFFFFFFFFFFFFFFFFFFF AND PUSH4 0x18160DDD PUSH1 0x40 MLOAD DUP2 PUSH4 0xFFFFFFFF AND PUSH1 0xE0 SHL DUP2 MSTORE PUSH1 0x4 ADD PUSH1 0x20 PUSH1 0x40 MLOAD DUP1 DUP4 SUB DUP2 DUP7 GAS STATICCALL ISZERO DUP1 ISZERO PUSH2 0x1934 JUMPI RETURNDATASIZE PUSH0 DUP1 RETURNDATACOPY RETURNDATASIZE PUSH0 REVERT JUMPDEST POP POP POP POP PUSH1 0x40 MLOAD RETURNDATASIZE PUSH1 0x1F NOT PUSH1 0x1F DUP3 ADD AND DUP3 ADD DUP1 PUSH1 0x40 MSTORE POP DUP2 ADD SWAP1 PUSH2 0x1958 SWAP2 SWAP1 PUSH2 0x8696 JUMP JUMPDEST SWAP1 POP PUSH0 DUP1 PUSH2 0x1964 PUSH2 0x4966 JUMP JUMPDEST SWAP2 POP SWAP2 POP PUSH0 PUSH32 0x0 PUSH20 0xFFFFFFFFFFFFFFFFFFFFFFFFFFFFFFFFFFFFFFFF AND PUSH4 0x70A08231 DUP10 PUSH1 0x40 MLOAD DUP3 PUSH4 0xFFFFFFFF AND PUSH1 0xE0 SHL DUP2 MSTORE PUSH1 0x4 ADD PUSH2 0x19C2 SWAP2 SWAP1 PUSH2 0x8220 JUMP JUMPDEST PUSH1 0x20 PUSH1 0x40 MLOAD DUP1 DUP4 SUB DUP2 DUP7 GAS STATICCALL ISZERO DUP1 ISZERO PUSH2 0x19DD JUMPI RETURNDATASIZE PUSH0 DUP1 RETURNDATACOPY RETURNDATASIZE PUSH0 REVERT JUMPDEST POP POP POP POP PUSH1 0x40 MLOAD RETURNDATASIZE PUSH1 0x1F NOT PUSH1 0x1F DUP3 ADD AND DUP3 ADD DUP1 PUSH1 0x40 MSTORE POP DUP2 ADD SWAP1 PUSH2 0x1A01 SWAP2 SWAP1 PUSH2 0x8696 JUMP JUMPDEST SWAP1 POP PUSH0 DUP5 GT ISZERO PUSH2 0x1A5E JUMPI PUSH2 0x1A30 DUP5 PUSH2 0x1A22 DUP4 DUP6 PUSH2 0x4A8D SWAP1 SWAP2 SWAP1 PUSH4 0xFFFFFFFF AND JUMP JUMPDEST PUSH2 0x4AA2 SWAP1 SWAP2 SWAP1 PUSH4 0xFFFFFFFF AND JUMP JUMPDEST SWAP7 POP PUSH2 0x1A57 DUP5 PUSH2 0x1A49 DUP4 DUP7 PUSH2 0x4A8D SWAP1 SWAP2 SWAP1 PUSH4 0xFFFFFFFF AND JUMP JUMPDEST PUSH2 0x4AA2 SWAP1 SWAP2 SWAP1 PUSH4 0xFFFFFFFF AND JUMP JUMPDEST SWAP6 POP PUSH2 0x1A65 JUMP JUMPDEST PUSH0 SWAP7 POP PUSH0 SWAP6 POP JUMPDEST POP POP POP POP POP SWAP2 POP SWAP2 JUMP JUMPDEST PUSH0 PUSH1 0x14 PUSH0 DUP4 PUSH20 0xFFFFFFFFFFFFFFFFFFFFFFFFFFFFFFFFFFFFFFFF AND PUSH20 0xFFFFFFFFFFFFFFFFFFFFFFFFFFFFFFFFFFFFFFFF AND DUP2 MSTORE PUSH1 0x20 ADD SWAP1 DUP2 MSTORE PUSH1 0x20 ADD PUSH0 KECCAK256 DUP1 SLOAD SWAP1 POP SWAP1 POP SWAP2 SWAP1 POP JUMP JUMPDEST PUSH32 0x0 DUP2 JUMP JUMPDEST PUSH0 DUP1 PUSH2 0x1AE9 DUP6 DUP6 DUP6 PUSH2 0x4AB7 JUMP JUMPDEST SWAP1 POP PUSH0 NOT PUSH1 0xC PUSH0 DUP8 PUSH20 0xFFFFFFFFFFFFFFFFFFFFFFFFFFFFFFFFFFFFFFFF AND PUSH20 0xFFFFFFFFFFFFFFFFFFFFFFFFFFFFFFFFFFFFFFFF AND DUP2 MSTORE PUSH1 0x20 ADD SWAP1 DUP2 MSTORE PUSH1 0x20 ADD PUSH0 KECCAK256 PUSH0 CALLER PUSH20 0xFFFFFFFFFFFFFFFFFFFFFFFFFFFFFFFFFFFFFFFF AND PUSH20 0xFFFFFFFFFFFFFFFFFFFFFFFFFFFFFFFFFFFFFFFF AND DUP2 MSTORE PUSH1 0x20 ADD SWAP1 DUP2 MSTORE PUSH1 0x20 ADD PUSH0 KECCAK256 SLOAD EQ PUSH2 0x1C6C JUMPI DUP1 PUSH1 0xC PUSH0 DUP8 PUSH20 0xFFFFFFFFFFFFFFFFFFFFFFFFFFFFFFFFFFFFFFFF AND PUSH20 0xFFFFFFFFFFFFFFFFFFFFFFFFFFFFFFFFFFFFFFFF AND DUP2 MSTORE PUSH1 0x20 ADD SWAP1 DUP2 MSTORE PUSH1 0x20 ADD PUSH0 KECCAK256 PUSH0 CALLER PUSH20 0xFFFFFFFFFFFFFFFFFFFFFFFFFFFFFFFFFFFFFFFF AND PUSH20 0xFFFFFFFFFFFFFFFFFFFFFFFFFFFFFFFFFFFFFFFF AND DUP2 MSTORE PUSH1 0x20 ADD SWAP1 DUP2 MSTORE PUSH1 0x20 ADD PUSH0 KECCAK256 SLOAD PUSH2 0x1BEF SWAP2 SWAP1 PUSH2 0x86EE JUMP JUMPDEST PUSH1 0xC PUSH0 DUP8 PUSH20 0xFFFFFFFFFFFFFFFFFFFFFFFFFFFFFFFFFFFFFFFF AND PUSH20 0xFFFFFFFFFFFFFFFFFFFFFFFFFFFFFFFFFFFFFFFF AND DUP2 MSTORE PUSH1 0x20 ADD SWAP1 DUP2 MSTORE PUSH1 0x20 ADD PUSH0 KECCAK256 PUSH0 CALLER PUSH20 0xFFFFFFFFFFFFFFFFFFFFFFFFFFFFFFFFFFFFFFFF AND PUSH20 0xFFFFFFFFFFFFFFFFFFFFFFFFFFFFFFFFFFFFFFFF AND DUP2 MSTORE PUSH1 0x20 ADD SWAP1 DUP2 MSTORE PUSH1 0x20 ADD PUSH0 KECCAK256 DUP2 SWAP1 SSTORE POP JUMPDEST PUSH1 0x1 SWAP2 POP POP SWAP4 SWAP3 POP POP POP JUMP JUMPDEST PUSH1 0x1F SLOAD DUP2 JUMP JUMPDEST PUSH1 0x19 PUSH1 0x20 MSTORE DUP1 PUSH0 MSTORE PUSH1 0x40 PUSH0 KECCAK256 PUSH0 SWAP2 POP SLOAD SWAP1 PUSH2 0x100 EXP SWAP1 DIV PUSH1 0xFF AND DUP2 JUMP JUMPDEST PUSH1 0x28 SLOAD DUP2 JUMP JUMPDEST PUSH1 0x27 PUSH0 SWAP1 SLOAD SWAP1 PUSH2 0x100 EXP SWAP1 DIV PUSH1 0xFF AND DUP2 JUMP JUMPDEST CALLER PUSH20 0xFFFFFFFFFFFFFFFFFFFFFFFFFFFFFFFFFFFFFFFF AND PUSH0 DUP1 SLOAD SWAP1 PUSH2 0x100 EXP SWAP1 DIV PUSH20 0xFFFFFFFFFFFFFFFFFFFFFFFFFFFFFFFFFFFFFFFF AND PUSH20 0xFFFFFFFFFFFFFFFFFFFFFFFFFFFFFFFFFFFFFFFF AND EQ PUSH2 0x1D40 JUMPI PUSH1 0x40 MLOAD PUSH32 0x8C379A000000000000000000000000000000000000000000000000000000000 DUP2 MSTORE PUSH1 0x4 ADD PUSH2 0x1D37 SWAP1 PUSH2 0x8596 JUMP JUMPDEST PUSH1 0x40 MLOAD DUP1 SWAP2 SUB SWAP1 REVERT JUMPDEST PUSH0 DUP2 MLOAD GT PUSH2 0x1D83 JUMPI PUSH1 0x40 MLOAD PUSH32 0x8C379A000000000000000000000000000000000000000000000000000000000 DUP2 MSTORE PUSH1 0x4 ADD PUSH2 0x1D7A SWAP1 PUSH2 0x876B JUMP JUMPDEST PUSH1 0x40 MLOAD DUP1 SWAP2 SUB SWAP1 REVERT JUMPDEST PUSH0 JUMPDEST DUP2 MLOAD DUP2 LT ISZERO PUSH2 0x1F37 JUMPI PUSH0 DUP3 DUP3 DUP2 MLOAD DUP2 LT PUSH2 0x1DA2 JUMPI PUSH2 0x1DA1 PUSH2 0x8789 JUMP JUMPDEST JUMPDEST PUSH1 0x20 MUL PUSH1 0x20 ADD ADD MLOAD SWAP1 POP PUSH0 PUSH32 0x0 PUSH20 0xFFFFFFFFFFFFFFFFFFFFFFFFFFFFFFFFFFFFFFFF AND PUSH4 0x70A08231 DUP4 PUSH1 0x40 MLOAD DUP3 PUSH4 0xFFFFFFFF AND PUSH1 0xE0 SHL DUP2 MSTORE PUSH1 0x4 ADD PUSH2 0x1E06 SWAP2 SWAP1 PUSH2 0x8220 JUMP JUMPDEST PUSH1 0x20 PUSH1 0x40 MLOAD DUP1 DUP4 SUB DUP2 DUP7 GAS STATICCALL ISZERO DUP1 ISZERO PUSH2 0x1E21 JUMPI RETURNDATASIZE PUSH0 DUP1 RETURNDATACOPY RETURNDATASIZE PUSH0 REVERT JUMPDEST POP POP POP POP PUSH1 0x40 MLOAD RETURNDATASIZE PUSH1 0x1F NOT PUSH1 0x1F DUP3 ADD AND DUP3 ADD DUP1 PUSH1 0x40 MSTORE POP DUP2 ADD SWAP1 PUSH2 0x1E45 SWAP2 SWAP1 PUSH2 0x8696 JUMP JUMPDEST SWAP1 POP PUSH2 0x1E50 DUP3 PUSH2 0x5CDD JUMP JUMPDEST DUP1 PUSH1 0x17 PUSH0 DUP5 PUSH20 0xFFFFFFFFFFFFFFFFFFFFFFFFFFFFFFFFFFFFFFFF AND PUSH20 0xFFFFFFFFFFFFFFFFFFFFFFFFFFFFFFFFFFFFFFFF AND DUP2 MSTORE PUSH1 0x20 ADD SWAP1 DUP2 MSTORE PUSH1 0x20 ADD PUSH0 KECCAK256 DUP2 SWAP1 SSTORE POP PUSH2 0x1E9A PUSH2 0x5E61 JUMP JUMPDEST PUSH1 0x16 PUSH0 DUP5 PUSH20 0xFFFFFFFFFFFFFFFFFFFFFFFFFFFFFFFFFFFFFFFF AND PUSH20 0xFFFFFFFFFFFFFFFFFFFFFFFFFFFFFFFFFFFFFFFF AND DUP2 MSTORE PUSH1 0x20 ADD SWAP1 DUP2 MSTORE PUSH1 0x20 ADD PUSH0 KECCAK256 DUP2 SWAP1 SSTORE POP PUSH2 0x1EE4 DUP3 PUSH2 0x3C22 JUMP JUMPDEST PUSH1 0x10 PUSH0 DUP5 PUSH20 0xFFFFFFFFFFFFFFFFFFFFFFFFFFFFFFFFFFFFFFFF AND PUSH20 0xFFFFFFFFFFFFFFFFFFFFFFFFFFFFFFFFFFFFFFFF AND DUP2 MSTORE PUSH1 0x20 ADD SWAP1 DUP2 MSTORE PUSH1 0x20 ADD PUSH0 KECCAK256 PUSH1 0x2 ADD DUP2 SWAP1 SSTORE POP POP POP DUP1 DUP1 PUSH1 0x1 ADD SWAP2 POP POP PUSH2 0x1D85 JUMP JUMPDEST POP POP JUMP JUMPDEST PUSH0 PUSH1 0x37 PUSH0 SWAP1 SLOAD SWAP1 PUSH2 0x100 EXP SWAP1 DIV PUSH1 0xFF AND SWAP1 POP SWAP1 JUMP JUMPDEST PUSH1 0x32 PUSH0 SWAP1 SLOAD SWAP1 PUSH2 0x100 EXP SWAP1 DIV PUSH20 0xFFFFFFFFFFFFFFFFFFFFFFFFFFFFFFFFFFFFFFFF AND DUP2 JUMP JUMPDEST PUSH1 0x1C PUSH0 SWAP1 SLOAD SWAP1 PUSH2 0x100 EXP SWAP1 DIV PUSH20 0xFFFFFFFFFFFFFFFFFFFFFFFFFFFFFFFFFFFFFFFF AND DUP2 JUMP JUMPDEST PUSH1 0x13 PUSH1 0x20 MSTORE DUP1 PUSH0 MSTORE PUSH1 0x40 PUSH0 KECCAK256 PUSH0 SWAP2 POP SLOAD SWAP1 PUSH2 0x100 EXP SWAP1 DIV PUSH1 0xFF AND DUP2 JUMP JUMPDEST PUSH32 0x0 DUP2 JUMP JUMPDEST PUSH1 0xE PUSH1 0x20 MSTORE DUP1 PUSH0 MSTORE PUSH1 0x40 PUSH0 KECCAK256 PUSH0 SWAP2 POP SWAP1 POP SLOAD DUP2 JUMP JUMPDEST PUSH1 0x2E SLOAD DUP2 JUMP JUMPDEST PUSH1 0x20 SLOAD DUP2 JUMP JUMPDEST PUSH1 0x2A SLOAD DUP2 JUMP JUMPDEST PUSH1 0x16 PUSH1 0x20 MSTORE DUP1 PUSH0 MSTORE PUSH1 0x40 PUSH0 KECCAK256 PUSH0 SWAP2 POP SWAP1 POP SLOAD DUP2 JUMP JUMPDEST PUSH1 0x14 PUSH1 0x20 MSTORE DUP2 PUSH0 MSTORE PUSH1 0x40 PUSH0 KECCAK256 DUP2 DUP2 SLOAD DUP2 LT PUSH2 0x2030 JUMPI PUSH0 DUP1 REVERT JUMPDEST SWAP1 PUSH0 MSTORE PUSH1 0x20 PUSH0 KECCAK256 ADD PUSH0 SWAP2 POP SWAP2 POP SWAP1 SLOAD SWAP1 PUSH2 0x100 EXP SWAP1 DIV PUSH20 0xFFFFFFFFFFFFFFFFFFFFFFFFFFFFFFFFFFFFFFFF AND DUP2 JUMP JUMPDEST PUSH1 0x21 SLOAD DUP2 JUMP JUMPDEST PUSH1 0x2D SLOAD DUP2 JUMP JUMPDEST PUSH1 0x1D SLOAD DUP2 JUMP JUMPDEST PUSH0 DUP1 PUSH0 DUP1 PUSH0 DUP1 PUSH0 PUSH1 0x17 PUSH0 DUP10 PUSH20 0xFFFFFFFFFFFFFFFFFFFFFFFFFFFFFFFFFFFFFFFF AND PUSH20 0xFFFFFFFFFFFFFFFFFFFFFFFFFFFFFFFFFFFFFFFF AND DUP2 MSTORE PUSH1 0x20 ADD SWAP1 DUP2 MSTORE PUSH1 0x20 ADD PUSH0 KECCAK256 SLOAD SWAP7 POP PUSH32 0x0 PUSH20 0xFFFFFFFFFFFFFFFFFFFFFFFFFFFFFFFFFFFFFFFF AND PUSH4 0x70A08231 DUP10 PUSH1 0x40 MLOAD DUP3 PUSH4 0xFFFFFFFF AND PUSH1 0xE0 SHL DUP2 MSTORE PUSH1 0x4 ADD PUSH2 0x2111 SWAP2 SWAP1 PUSH2 0x8220 JUMP JUMPDEST PUSH1 0x20 PUSH1 0x40 MLOAD DUP1 DUP4 SUB DUP2 DUP7 GAS STATICCALL ISZERO DUP1 ISZERO PUSH2 0x212C JUMPI RETURNDATASIZE PUSH0 DUP1 RETURNDATACOPY RETURNDATASIZE PUSH0 REVERT JUMPDEST POP POP POP POP PUSH1 0x40 MLOAD RETURNDATASIZE PUSH1 0x1F NOT PUSH1 0x1F DUP3 ADD AND DUP3 ADD DUP1 PUSH1 0x40 MSTORE POP DUP2 ADD SWAP1 PUSH2 0x2150 SWAP2 SWAP1 PUSH2 0x8696 JUMP JUMPDEST SWAP6 POP PUSH1 0x19 PUSH0 DUP10 PUSH20 0xFFFFFFFFFFFFFFFFFFFFFFFFFFFFFFFFFFFFFFFF AND PUSH20 0xFFFFFFFFFFFFFFFFFFFFFFFFFFFFFFFFFFFFFFFF AND DUP2 MSTORE PUSH1 0x20 ADD SWAP1 DUP2 MSTORE PUSH1 0x20 ADD PUSH0 KECCAK256 PUSH0 SWAP1 SLOAD SWAP1 PUSH2 0x100 EXP SWAP1 DIV PUSH1 0xFF AND SWAP5 POP PUSH0 PUSH1 0x10 PUSH0 DUP11 PUSH20 0xFFFFFFFFFFFFFFFFFFFFFFFFFFFFFFFFFFFFFFFF AND PUSH20 0xFFFFFFFFFFFFFFFFFFFFFFFFFFFFFFFFFFFFFFFF AND DUP2 MSTORE PUSH1 0x20 ADD SWAP1 DUP2 MSTORE PUSH1 0x20 ADD PUSH0 KECCAK256 SWAP1 POP DUP1 PUSH0 ADD SLOAD SWAP5 POP PUSH1 0x16 PUSH0 DUP11 PUSH20 0xFFFFFFFFFFFFFFFFFFFFFFFFFFFFFFFFFFFFFFFF AND PUSH20 0xFFFFFFFFFFFFFFFFFFFFFFFFFFFFFFFFFFFFFFFF AND DUP2 MSTORE PUSH1 0x20 ADD SWAP1 DUP2 MSTORE PUSH1 0x20 ADD PUSH0 KECCAK256 SLOAD SWAP4 POP DUP1 PUSH1 0x3 ADD PUSH0 SWAP1 SLOAD SWAP1 PUSH2 0x100 EXP SWAP1 DIV PUSH20 0xFFFFFFFFFFFFFFFFFFFFFFFFFFFFFFFFFFFFFFFF AND SWAP3 POP DUP1 PUSH1 0x2 ADD SLOAD SWAP2 POP POP SWAP2 SWAP4 SWAP6 SWAP8 SWAP1 SWAP3 SWAP5 SWAP7 POP JUMP JUMPDEST PUSH5 0x2540BE400 DUP2 JUMP JUMPDEST CALLER PUSH20 0xFFFFFFFFFFFFFFFFFFFFFFFFFFFFFFFFFFFFFFFF AND PUSH0 DUP1 SLOAD SWAP1 PUSH2 0x100 EXP SWAP1 DIV PUSH20 0xFFFFFFFFFFFFFFFFFFFFFFFFFFFFFFFFFFFFFFFF AND PUSH20 0xFFFFFFFFFFFFFFFFFFFFFFFFFFFFFFFFFFFFFFFF AND EQ PUSH2 0x22F3 JUMPI PUSH1 0x40 MLOAD PUSH32 0x8C379A000000000000000000000000000000000000000000000000000000000 DUP2 MSTORE PUSH1 0x4 ADD PUSH2 0x22EA SWAP1 PUSH2 0x8596 JUMP JUMPDEST PUSH1 0x40 MLOAD DUP1 SWAP2 SUB SWAP1 REVERT JUMPDEST PUSH1 0xA DUP3 LT ISZERO DUP1 ISZERO PUSH2 0x2306 JUMPI POP PUSH2 0x3E8 DUP3 GT ISZERO JUMPDEST PUSH2 0x2345 JUMPI PUSH1 0x40 MLOAD PUSH32 0x8C379A000000000000000000000000000000000000000000000000000000000 DUP2 MSTORE PUSH1 0x4 ADD PUSH2 0x233C SWAP1 PUSH2 0x8800 JUMP JUMPDEST PUSH1 0x40 MLOAD DUP1 SWAP2 SUB SWAP1 REVERT JUMPDEST PUSH1 0xA DUP2 LT ISZERO DUP1 ISZERO PUSH2 0x2358 JUMPI POP PUSH2 0x3E8 DUP2 GT ISZERO JUMPDEST PUSH2 0x2397 JUMPI PUSH1 0x40 MLOAD PUSH32 0x8C379A000000000000000000000000000000000000000000000000000000000 DUP2 MSTORE PUSH1 0x4 ADD PUSH2 0x238E SWAP1 PUSH2 0x888E JUMP JUMPDEST PUSH1 0x40 MLOAD DUP1 SWAP2 SUB SWAP1 REVERT JUMPDEST DUP2 PUSH1 0x1F DUP2 SWAP1 SSTORE POP DUP1 PUSH1 0x20 DUP2 SWAP1 SSTORE POP POP POP JUMP JUMPDEST CALLER PUSH20 0xFFFFFFFFFFFFFFFFFFFFFFFFFFFFFFFFFFFFFFFF AND PUSH0 DUP1 SLOAD SWAP1 PUSH2 0x100 EXP SWAP1 DIV PUSH20 0xFFFFFFFFFFFFFFFFFFFFFFFFFFFFFFFFFFFFFFFF AND PUSH20 0xFFFFFFFFFFFFFFFFFFFFFFFFFFFFFFFFFFFFFFFF AND EQ PUSH2 0x2436 JUMPI PUSH1 0x40 MLOAD PUSH32 0x8C379A000000000000000000000000000000000000000000000000000000000 DUP2 MSTORE PUSH1 0x4 ADD PUSH2 0x242D SWAP1 PUSH2 0x8596 JUMP JUMPDEST PUSH1 0x40 MLOAD DUP1 SWAP2 SUB SWAP1 REVERT JUMPDEST PUSH1 0x2A SLOAD PUSH0 EQ PUSH2 0x247A JUMPI PUSH1 0x40 MLOAD PUSH32 0x8C379A000000000000000000000000000000000000000000000000000000000 DUP2 MSTORE PUSH1 0x4 ADD PUSH2 0x2471 SWAP1 PUSH2 0x88F6 JUMP JUMPDEST PUSH1 0x40 MLOAD DUP1 SWAP2 SUB SWAP1 REVERT JUMPDEST NUMBER PUSH1 0x2A DUP2 SWAP1 SSTORE POP TIMESTAMP PUSH1 0x2C DUP2 SWAP1 SSTORE POP JUMP JUMPDEST PUSH1 0xB PUSH1 0x20 MSTORE DUP1 PUSH0 MSTORE PUSH1 0x40 PUSH0 KECCAK256 PUSH0 SWAP2 POP SWAP1 POP SLOAD DUP2 JUMP JUMPDEST PUSH0 DUP1 PUSH2 0x24AA DUP4 PUSH2 0x5E94 JUMP JUMPDEST POP SWAP1 POP DUP1 SWAP2 POP POP SWAP2 SWAP1 POP JUMP JUMPDEST CALLER PUSH20 0xFFFFFFFFFFFFFFFFFFFFFFFFFFFFFFFFFFFFFFFF AND PUSH0 DUP1 SLOAD SWAP1 PUSH2 0x100 EXP SWAP1 DIV PUSH20 0xFFFFFFFFFFFFFFFFFFFFFFFFFFFFFFFFFFFFFFFF AND PUSH20 0xFFFFFFFFFFFFFFFFFFFFFFFFFFFFFFFFFFFFFFFF AND EQ PUSH2 0x2543 JUMPI PUSH1 0x40 MLOAD PUSH32 0x8C379A000000000000000000000000000000000000000000000000000000000 DUP2 MSTORE PUSH1 0x4 ADD PUSH2 0x253A SWAP1 PUSH2 0x8596 JUMP JUMPDEST PUSH1 0x40 MLOAD DUP1 SWAP2 SUB SWAP1 REVERT JUMPDEST PUSH0 PUSH20 0xFFFFFFFFFFFFFFFFFFFFFFFFFFFFFFFFFFFFFFFF AND PUSH0 DUP1 SLOAD SWAP1 PUSH2 0x100 EXP SWAP1 DIV PUSH20 0xFFFFFFFFFFFFFFFFFFFFFFFFFFFFFFFFFFFFFFFF AND PUSH20 0xFFFFFFFFFFFFFFFFFFFFFFFFFFFFFFFFFFFFFFFF AND PUSH32 0x8BE0079C531659141344CD1FD0A4F28419497F9722A3DAAFE3B4186F6B6457E0 PUSH1 0x40 MLOAD PUSH1 0x40 MLOAD DUP1 SWAP2 SUB SWAP1 LOG3 PUSH0 DUP1 PUSH0 PUSH2 0x100 EXP DUP2 SLOAD DUP2 PUSH20 0xFFFFFFFFFFFFFFFFFFFFFFFFFFFFFFFFFFFFFFFF MUL NOT AND SWAP1 DUP4 PUSH20 0xFFFFFFFFFFFFFFFFFFFFFFFFFFFFFFFFFFFFFFFF AND MUL OR SWAP1 SSTORE POP JUMP JUMPDEST CALLER PUSH20 0xFFFFFFFFFFFFFFFFFFFFFFFFFFFFFFFFFFFFFFFF AND PUSH0 DUP1 SLOAD SWAP1 PUSH2 0x100 EXP SWAP1 DIV PUSH20 0xFFFFFFFFFFFFFFFFFFFFFFFFFFFFFFFFFFFFFFFF AND PUSH20 0xFFFFFFFFFFFFFFFFFFFFFFFFFFFFFFFFFFFFFFFF AND EQ PUSH2 0x268A JUMPI PUSH1 0x40 MLOAD PUSH32 0x8C379A000000000000000000000000000000000000000000000000000000000 DUP2 MSTORE PUSH1 0x4 ADD PUSH2 0x2681 SWAP1 PUSH2 0x8596 JUMP JUMPDEST PUSH1 0x40 MLOAD DUP1 SWAP2 SUB SWAP1 REVERT JUMPDEST PUSH1 0xF PUSH0 CALLER PUSH20 0xFFFFFFFFFFFFFFFFFFFFFFFFFFFFFFFFFFFFFFFF AND PUSH20 0xFFFFFFFFFFFFFFFFFFFFFFFFFFFFFFFFFFFFFFFF AND DUP2 MSTORE PUSH1 0x20 ADD SWAP1 DUP2 MSTORE PUSH1 0x20 ADD PUSH0 KECCAK256 PUSH0 SWAP1 SLOAD SWAP1 PUSH2 0x100 EXP SWAP1 DIV PUSH1 0xFF AND ISZERO PUSH2 0x2797 JUMPI PUSH2 0x258 DUP4 LT ISZERO PUSH2 0x271E JUMPI PUSH1 0x40 MLOAD PUSH32 0x8C379A000000000000000000000000000000000000000000000000000000000 DUP2 MSTORE PUSH1 0x4 ADD PUSH2 0x2715 SWAP1 PUSH2 0x8984 JUMP JUMPDEST PUSH1 0x40 MLOAD DUP1 SWAP2 SUB SWAP1 REVERT JUMPDEST PUSH2 0x3E8 DUP3 GT ISZERO DUP1 ISZERO PUSH2 0x2730 JUMPI POP PUSH0 DUP3 LT ISZERO JUMPDEST PUSH2 0x276F JUMPI PUSH1 0x40 MLOAD PUSH32 0x8C379A000000000000000000000000000000000000000000000000000000000 DUP2 MSTORE PUSH1 0x4 ADD PUSH2 0x2766 SWAP1 PUSH2 0x8A12 JUMP JUMPDEST PUSH1 0x40 MLOAD DUP1 SWAP2 SUB SWAP1 REVERT JUMPDEST DUP3 PUSH1 0x28 DUP2 SWAP1 SSTORE POP DUP2 PUSH1 0x26 DUP2 SWAP1 SSTORE POP DUP1 PUSH1 0x27 PUSH0 PUSH2 0x100 EXP DUP2 SLOAD DUP2 PUSH1 0xFF MUL NOT AND SWAP1 DUP4 ISZERO ISZERO MUL OR SWAP1 SSTORE POP JUMPDEST POP POP POP JUMP JUMPDEST PUSH0 PUSH1 0x34 DUP1 SLOAD SWAP1 POP SWAP1 POP SWAP1 JUMP JUMPDEST PUSH1 0x2F SLOAD DUP2 JUMP JUMPDEST PUSH1 0x31 SLOAD DUP2 JUMP JUMPDEST PUSH0 DUP1 PUSH32 0x0 SWAP1 POP PUSH0 DUP1 DUP3 PUSH20 0xFFFFFFFFFFFFFFFFFFFFFFFFFFFFFFFFFFFFFFFF AND PUSH4 0x902F1AC PUSH1 0x40 MLOAD DUP2 PUSH4 0xFFFFFFFF AND PUSH1 0xE0 SHL DUP2 MSTORE PUSH1 0x4 ADD PUSH1 0x60 PUSH1 0x40 MLOAD DUP1 DUP4 SUB DUP2 DUP7 GAS STATICCALL ISZERO DUP1 ISZERO PUSH2 0x2824 JUMPI RETURNDATASIZE PUSH0 DUP1 RETURNDATACOPY RETURNDATASIZE PUSH0 REVERT JUMPDEST POP POP POP POP PUSH1 0x40 MLOAD RETURNDATASIZE PUSH1 0x1F NOT PUSH1 0x1F DUP3 ADD AND DUP3 ADD DUP1 PUSH1 0x40 MSTORE POP DUP2 ADD SWAP1 PUSH2 0x2848 SWAP2 SWAP1 PUSH2 0x8AAC JUMP JUMPDEST POP PUSH14 0xFFFFFFFFFFFFFFFFFFFFFFFFFFFF AND SWAP2 POP PUSH14 0xFFFFFFFFFFFFFFFFFFFFFFFFFFFF AND SWAP2 POP PUSH0 DUP1 ADDRESS PUSH20 0xFFFFFFFFFFFFFFFFFFFFFFFFFFFFFFFFFFFFFFFF AND PUSH32 0x0 PUSH20 0xFFFFFFFFFFFFFFFFFFFFFFFFFFFFFFFFFFFFFFFF AND LT ISZERO PUSH2 0x28CE JUMPI DUP4 SWAP2 POP DUP3 SWAP1 POP PUSH2 0x28D5 JUMP JUMPDEST DUP3 SWAP2 POP DUP4 SWAP1 POP JUMPDEST DUP1 PUSH0 SUB PUSH2 0x28E9 JUMPI PUSH0 SWAP6 POP POP POP POP POP POP PUSH2 0x2929 JUMP JUMPDEST PUSH2 0x2921 DUP2 DUP4 PUSH1 0x37 PUSH0 SWAP1 SLOAD SWAP1 PUSH2 0x100 EXP SWAP1 DIV PUSH1 0xFF AND PUSH1 0xA PUSH2 0x2909 SWAP2 SWAP1 PUSH2 0x8C2B JUMP JUMPDEST PUSH2 0x2913 SWAP2 SWAP1 PUSH2 0x8C75 JUMP JUMPDEST PUSH2 0x4AA2 SWAP1 SWAP2 SWAP1 PUSH4 0xFFFFFFFF AND JUMP JUMPDEST SWAP6 POP POP POP POP POP POP JUMPDEST SWAP1 JUMP JUMPDEST CALLER PUSH20 0xFFFFFFFFFFFFFFFFFFFFFFFFFFFFFFFFFFFFFFFF AND PUSH0 DUP1 SLOAD SWAP1 PUSH2 0x100 EXP SWAP1 DIV PUSH20 0xFFFFFFFFFFFFFFFFFFFFFFFFFFFFFFFFFFFFFFFF AND PUSH20 0xFFFFFFFFFFFFFFFFFFFFFFFFFFFFFFFFFFFFFFFF AND EQ PUSH2 0x29B9 JUMPI PUSH1 0x40 MLOAD PUSH32 0x8C379A000000000000000000000000000000000000000000000000000000000 DUP2 MSTORE PUSH1 0x4 ADD PUSH2 0x29B0 SWAP1 PUSH2 0x8596 JUMP JUMPDEST PUSH1 0x40 MLOAD DUP1 SWAP2 SUB SWAP1 REVERT JUMPDEST PUSH0 PUSH20 0xFFFFFFFFFFFFFFFFFFFFFFFFFFFFFFFFFFFFFFFF AND DUP2 PUSH20 0xFFFFFFFFFFFFFFFFFFFFFFFFFFFFFFFFFFFFFFFF AND SUB PUSH2 0x2A27 JUMPI PUSH1 0x40 MLOAD PUSH32 0x8C379A000000000000000000000000000000000000000000000000000000000 DUP2 MSTORE PUSH1 0x4 ADD PUSH2 0x2A1E SWAP1 PUSH2 0x8D00 JUMP JUMPDEST PUSH1 0x40 MLOAD DUP1 SWAP2 SUB SWAP1 REVERT JUMPDEST DUP1 PUSH1 0x1B PUSH0 PUSH2 0x100 EXP DUP2 SLOAD DUP2 PUSH20 0xFFFFFFFFFFFFFFFFFFFFFFFFFFFFFFFFFFFFFFFF MUL NOT AND SWAP1 DUP4 PUSH20 0xFFFFFFFFFFFFFFFFFFFFFFFFFFFFFFFFFFFFFFFF AND MUL OR SWAP1 SSTORE POP PUSH1 0x1 PUSH1 0xF PUSH0 DUP4 PUSH20 0xFFFFFFFFFFFFFFFFFFFFFFFFFFFFFFFFFFFFFFFF AND PUSH20 0xFFFFFFFFFFFFFFFFFFFFFFFFFFFFFFFFFFFFFFFF AND DUP2 MSTORE PUSH1 0x20 ADD SWAP1 DUP2 MSTORE PUSH1 0x20 ADD PUSH0 KECCAK256 PUSH0 PUSH2 0x100 EXP DUP2 SLOAD DUP2 PUSH1 0xFF MUL NOT AND SWAP1 DUP4 ISZERO ISZERO MUL OR SWAP1 SSTORE POP PUSH2 0x2AC5 DUP2 PUSH2 0x5CDD JUMP JUMPDEST POP JUMP JUMPDEST PUSH32 0x0 DUP2 JUMP JUMPDEST PUSH0 CALLER SWAP1 POP PUSH1 0xF PUSH0 DUP3 PUSH20 0xFFFFFFFFFFFFFFFFFFFFFFFFFFFFFFFFFFFFFFFF AND PUSH20 0xFFFFFFFFFFFFFFFFFFFFFFFFFFFFFFFFFFFFFFFF AND DUP2 MSTORE PUSH1 0x20 ADD SWAP1 DUP2 MSTORE PUSH1 0x20 ADD PUSH0 KECCAK256 PUSH0 SWAP1 SLOAD SWAP1 PUSH2 0x100 EXP SWAP1 DIV PUSH1 0xFF AND DUP1 PUSH2 0x2B91 JUMPI POP PUSH1 0x1B PUSH0 SWAP1 SLOAD SWAP1 PUSH2 0x100 EXP SWAP1 DIV PUSH20 0xFFFFFFFFFFFFFFFFFFFFFFFFFFFFFFFFFFFFFFFF AND PUSH20 0xFFFFFFFFFFFFFFFFFFFFFFFFFFFFFFFFFFFFFFFF AND DUP2 PUSH20 0xFFFFFFFFFFFFFFFFFFFFFFFFFFFFFFFFFFFFFFFF AND EQ JUMPDEST DUP1 PUSH2 0x2BE6 JUMPI POP PUSH0 DUP1 SLOAD SWAP1 PUSH2 0x100 EXP SWAP1 DIV PUSH20 0xFFFFFFFFFFFFFFFFFFFFFFFFFFFFFFFFFFFFFFFF AND PUSH20 0xFFFFFFFFFFFFFFFFFFFFFFFFFFFFFFFFFFFFFFFF AND DUP2 PUSH20 0xFFFFFFFFFFFFFFFFFFFFFFFFFFFFFFFFFFFFFFFF AND EQ JUMPDEST PUSH2 0x2C25 JUMPI PUSH1 0x40 MLOAD PUSH32 0x8C379A000000000000000000000000000000000000000000000000000000000 DUP2 MSTORE PUSH1 0x4 ADD PUSH2 0x2C1C SWAP1 PUSH2 0x85FE JUMP JUMPDEST PUSH1 0x40 MLOAD DUP1 SWAP2 SUB SWAP1 REVERT JUMPDEST DUP3 PUSH1 0x2E DUP2 SWAP1 SSTORE POP PUSH0 DUP1 PUSH0 SWAP1 POP PUSH0 PUSH1 0x34 DUP1 SLOAD SWAP1 POP SWAP1 POP PUSH1 0x34 PUSH1 0x2D SLOAD DUP2 SLOAD DUP2 LT PUSH2 0x2C50 JUMPI PUSH2 0x2C4F PUSH2 0x8789 JUMP JUMPDEST JUMPDEST SWAP1 PUSH0 MSTORE PUSH1 0x20 PUSH0 KECCAK256 ADD PUSH0 SWAP1 SLOAD SWAP1 PUSH2 0x100 EXP SWAP1 DIV PUSH20 0xFFFFFFFFFFFFFFFFFFFFFFFFFFFFFFFFFFFFFFFF AND SWAP3 POP JUMPDEST DUP1 DUP3 LT ISZERO PUSH2 0x2D16 JUMPI PUSH1 0x34 DUP3 DUP2 SLOAD DUP2 LT PUSH2 0x2C97 JUMPI PUSH2 0x2C96 PUSH2 0x8789 JUMP JUMPDEST JUMPDEST SWAP1 PUSH0 MSTORE PUSH1 0x20 PUSH0 KECCAK256 ADD PUSH0 SWAP1 SLOAD SWAP1 PUSH2 0x100 EXP SWAP1 DIV PUSH20 0xFFFFFFFFFFFFFFFFFFFFFFFFFFFFFFFFFFFFFFFF AND SWAP3 POP DUP5 PUSH1 0x16 PUSH0 DUP6 PUSH20 0xFFFFFFFFFFFFFFFFFFFFFFFFFFFFFFFFFFFFFFFF AND PUSH20 0xFFFFFFFFFFFFFFFFFFFFFFFFFFFFFFFFFFFFFFFF AND DUP2 MSTORE PUSH1 0x20 ADD SWAP1 DUP2 MSTORE PUSH1 0x20 ADD PUSH0 KECCAK256 DUP2 SWAP1 SSTORE POP DUP2 DUP1 PUSH2 0x2D0E SWAP1 PUSH2 0x8D1E JUMP JUMPDEST SWAP3 POP POP PUSH2 0x2C7B JUMP JUMPDEST POP POP POP POP POP POP JUMP JUMPDEST PUSH3 0x1E8480 DUP2 JUMP JUMPDEST PUSH0 DUP1 PUSH0 SWAP1 SLOAD SWAP1 PUSH2 0x100 EXP SWAP1 DIV PUSH20 0xFFFFFFFFFFFFFFFFFFFFFFFFFFFFFFFFFFFFFFFF AND SWAP1 POP SWAP1 JUMP JUMPDEST PUSH4 0x1406F40 DUP2 JUMP JUMPDEST PUSH0 CALLER SWAP1 POP PUSH1 0xF PUSH0 DUP3 PUSH20 0xFFFFFFFFFFFFFFFFFFFFFFFFFFFFFFFFFFFFFFFF AND PUSH20 0xFFFFFFFFFFFFFFFFFFFFFFFFFFFFFFFFFFFFFFFF AND DUP2 MSTORE PUSH1 0x20 ADD SWAP1 DUP2 MSTORE PUSH1 0x20 ADD PUSH0 KECCAK256 PUSH0 SWAP1 SLOAD SWAP1 PUSH2 0x100 EXP SWAP1 DIV PUSH1 0xFF AND DUP1 PUSH2 0x2DF9 JUMPI POP PUSH1 0x1B PUSH0 SWAP1 SLOAD SWAP1 PUSH2 0x100 EXP SWAP1 DIV PUSH20 0xFFFFFFFFFFFFFFFFFFFFFFFFFFFFFFFFFFFFFFFF AND PUSH20 0xFFFFFFFFFFFFFFFFFFFFFFFFFFFFFFFFFFFFFFFF AND DUP2 PUSH20 0xFFFFFFFFFFFFFFFFFFFFFFFFFFFFFFFFFFFFFFFF AND EQ JUMPDEST DUP1 PUSH2 0x2E4E JUMPI POP PUSH0 DUP1 SLOAD SWAP1 PUSH2 0x100 EXP SWAP1 DIV PUSH20 0xFFFFFFFFFFFFFFFFFFFFFFFFFFFFFFFFFFFFFFFF AND PUSH20 0xFFFFFFFFFFFFFFFFFFFFFFFFFFFFFFFFFFFFFFFF AND DUP2 PUSH20 0xFFFFFFFFFFFFFFFFFFFFFFFFFFFFFFFFFFFFFFFF AND EQ JUMPDEST PUSH2 0x2E8D JUMPI PUSH1 0x40 MLOAD PUSH32 0x8C379A000000000000000000000000000000000000000000000000000000000 DUP2 MSTORE PUSH1 0x4 ADD PUSH2 0x2E84 SWAP1 PUSH2 0x85FE JUMP JUMPDEST PUSH1 0x40 MLOAD DUP1 SWAP2 SUB SWAP1 REVERT JUMPDEST PUSH3 0x30D40 DUP3 LT ISZERO DUP1 ISZERO PUSH2 0x2EA3 JUMPI POP PUSH3 0x4C4B40 DUP3 GT ISZERO JUMPDEST PUSH2 0x2EE2 JUMPI PUSH1 0x40 MLOAD PUSH32 0x8C379A000000000000000000000000000000000000000000000000000000000 DUP2 MSTORE PUSH1 0x4 ADD PUSH2 0x2ED9 SWAP1 PUSH2 0x8DAF JUMP JUMPDEST PUSH1 0x40 MLOAD DUP1 SWAP2 SUB SWAP1 REVERT JUMPDEST DUP2 PUSH1 0x30 DUP2 SWAP1 SSTORE POP POP POP JUMP JUMPDEST PUSH1 0x60 PUSH1 0x36 DUP1 SLOAD PUSH2 0x2EFC SWAP1 PUSH2 0x851C JUMP JUMPDEST DUP1 PUSH1 0x1F ADD PUSH1 0x20 DUP1 SWAP2 DIV MUL PUSH1 0x20 ADD PUSH1 0x40 MLOAD SWAP1 DUP2 ADD PUSH1 0x40 MSTORE DUP1 SWAP3 SWAP2 SWAP1 DUP2 DUP2 MSTORE PUSH1 0x20 ADD DUP3 DUP1 SLOAD PUSH2 0x2F28 SWAP1 PUSH2 0x851C JUMP JUMPDEST DUP1 ISZERO PUSH2 0x2F73 JUMPI DUP1 PUSH1 0x1F LT PUSH2 0x2F4A JUMPI PUSH2 0x100 DUP1 DUP4 SLOAD DIV MUL DUP4 MSTORE SWAP2 PUSH1 0x20 ADD SWAP2 PUSH2 0x2F73 JUMP JUMPDEST DUP3 ADD SWAP2 SWAP1 PUSH0 MSTORE PUSH1 0x20 PUSH0 KECCAK256 SWAP1 JUMPDEST DUP2 SLOAD DUP2 MSTORE SWAP1 PUSH1 0x1 ADD SWAP1 PUSH1 0x20 ADD DUP1 DUP4 GT PUSH2 0x2F56 JUMPI DUP3 SWAP1 SUB PUSH1 0x1F AND DUP3 ADD SWAP2 JUMPDEST POP POP POP POP POP SWAP1 POP SWAP1 JUMP JUMPDEST CALLER PUSH20 0xFFFFFFFFFFFFFFFFFFFFFFFFFFFFFFFFFFFFFFFF AND PUSH0 DUP1 SLOAD SWAP1 PUSH2 0x100 EXP SWAP1 DIV PUSH20 0xFFFFFFFFFFFFFFFFFFFFFFFFFFFFFFFFFFFFFFFF AND PUSH20 0xFFFFFFFFFFFFFFFFFFFFFFFFFFFFFFFFFFFFFFFF AND EQ PUSH2 0x300A JUMPI PUSH1 0x40 MLOAD PUSH32 0x8C379A000000000000000000000000000000000000000000000000000000000 DUP2 MSTORE PUSH1 0x4 ADD PUSH2 0x3001 SWAP1 PUSH2 0x8596 JUMP JUMPDEST PUSH1 0x40 MLOAD DUP1 SWAP2 SUB SWAP1 REVERT JUMPDEST DUP1 PUSH1 0x2F DUP2 SWAP1 SSTORE POP POP JUMP JUMPDEST PUSH1 0x2B SLOAD DUP2 JUMP JUMPDEST PUSH0 PUSH1 0xF PUSH0 DUP4 PUSH20 0xFFFFFFFFFFFFFFFFFFFFFFFFFFFFFFFFFFFFFFFF AND PUSH20 0xFFFFFFFFFFFFFFFFFFFFFFFFFFFFFFFFFFFFFFFF AND DUP2 MSTORE PUSH1 0x20 ADD SWAP1 DUP2 MSTORE PUSH1 0x20 ADD PUSH0 KECCAK256 PUSH0 SWAP1 SLOAD SWAP1 PUSH2 0x100 EXP SWAP1 DIV PUSH1 0xFF AND SWAP1 POP SWAP2 SWAP1 POP JUMP JUMPDEST PUSH1 0x29 SLOAD DUP2 JUMP JUMPDEST CALLER PUSH20 0xFFFFFFFFFFFFFFFFFFFFFFFFFFFFFFFFFFFFFFFF AND PUSH0 DUP1 SLOAD SWAP1 PUSH2 0x100 EXP SWAP1 DIV PUSH20 0xFFFFFFFFFFFFFFFFFFFFFFFFFFFFFFFFFFFFFFFF AND PUSH20 0xFFFFFFFFFFFFFFFFFFFFFFFFFFFFFFFFFFFFFFFF AND EQ PUSH2 0x30FF JUMPI PUSH1 0x40 MLOAD PUSH32 0x8C379A000000000000000000000000000000000000000000000000000000000 DUP2 MSTORE PUSH1 0x4 ADD PUSH2 0x30F6 SWAP1 PUSH2 0x8596 JUMP JUMPDEST PUSH1 0x40 MLOAD DUP1 SWAP2 SUB SWAP1 REVERT JUMPDEST PUSH1 0xF PUSH0 CALLER PUSH20 0xFFFFFFFFFFFFFFFFFFFFFFFFFFFFFFFFFFFFFFFF AND PUSH20 0xFFFFFFFFFFFFFFFFFFFFFFFFFFFFFFFFFFFFFFFF AND DUP2 MSTORE PUSH1 0x20 ADD SWAP1 DUP2 MSTORE PUSH1 0x20 ADD PUSH0 KECCAK256 PUSH0 SWAP1 SLOAD SWAP1 PUSH2 0x100 EXP SWAP1 DIV PUSH1 0xFF AND DUP1 ISZERO PUSH2 0x31F6 JUMPI POP CALLER PUSH20 0xFFFFFFFFFFFFFFFFFFFFFFFFFFFFFFFFFFFFFFFF AND PUSH1 0x1B PUSH0 SWAP1 SLOAD SWAP1 PUSH2 0x100 EXP SWAP1 DIV PUSH20 0xFFFFFFFFFFFFFFFFFFFFFFFFFFFFFFFFFFFFFFFF AND PUSH20 0xFFFFFFFFFFFFFFFFFFFFFFFFFFFFFFFFFFFFFFFF AND EQ DUP1 PUSH2 0x31F5 JUMPI POP CALLER PUSH20 0xFFFFFFFFFFFFFFFFFFFFFFFFFFFFFFFFFFFFFFFF AND PUSH0 DUP1 SLOAD SWAP1 PUSH2 0x100 EXP SWAP1 DIV PUSH20 0xFFFFFFFFFFFFFFFFFFFFFFFFFFFFFFFFFFFFFFFF AND PUSH20 0xFFFFFFFFFFFFFFFFFFFFFFFFFFFFFFFFFFFFFFFF AND EQ JUMPDEST JUMPDEST ISZERO PUSH2 0x323E JUMPI DUP1 PUSH1 0x17 PUSH0 DUP5 PUSH20 0xFFFFFFFFFFFFFFFFFFFFFFFFFFFFFFFFFFFFFFFF AND PUSH20 0xFFFFFFFFFFFFFFFFFFFFFFFFFFFFFFFFFFFFFFFF AND DUP2 MSTORE PUSH1 0x20 ADD SWAP1 DUP2 MSTORE PUSH1 0x20 ADD PUSH0 KECCAK256 DUP2 SWAP1 SSTORE POP JUMPDEST POP POP JUMP JUMPDEST PUSH0 CALLER SWAP1 POP PUSH1 0xF PUSH0 DUP3 PUSH20 0xFFFFFFFFFFFFFFFFFFFFFFFFFFFFFFFFFFFFFFFF AND PUSH20 0xFFFFFFFFFFFFFFFFFFFFFFFFFFFFFFFFFFFFFFFF AND DUP2 MSTORE PUSH1 0x20 ADD SWAP1 DUP2 MSTORE PUSH1 0x20 ADD PUSH0 KECCAK256 PUSH0 SWAP1 SLOAD SWAP1 PUSH2 0x100 EXP SWAP1 DIV PUSH1 0xFF AND DUP1 PUSH2 0x32E7 JUMPI POP PUSH1 0x1B PUSH0 SWAP1 SLOAD SWAP1 PUSH2 0x100 EXP SWAP1 DIV PUSH20 0xFFFFFFFFFFFFFFFFFFFFFFFFFFFFFFFFFFFFFFFF AND PUSH20 0xFFFFFFFFFFFFFFFFFFFFFFFFFFFFFFFFFFFFFFFF AND DUP2 PUSH20 0xFFFFFFFFFFFFFFFFFFFFFFFFFFFFFFFFFFFFFFFF AND EQ JUMPDEST DUP1 PUSH2 0x333C JUMPI POP PUSH0 DUP1 SLOAD SWAP1 PUSH2 0x100 EXP SWAP1 DIV PUSH20 0xFFFFFFFFFFFFFFFFFFFFFFFFFFFFFFFFFFFFFFFF AND PUSH20 0xFFFFFFFFFFFFFFFFFFFFFFFFFFFFFFFFFFFFFFFF AND DUP2 PUSH20 0xFFFFFFFFFFFFFFFFFFFFFFFFFFFFFFFFFFFFFFFF AND EQ JUMPDEST PUSH2 0x337B JUMPI PUSH1 0x40 MLOAD PUSH32 0x8C379A000000000000000000000000000000000000000000000000000000000 DUP2 MSTORE PUSH1 0x4 ADD PUSH2 0x3372 SWAP1 PUSH2 0x85FE JUMP JUMPDEST PUSH1 0x40 MLOAD DUP1 SWAP2 SUB SWAP1 REVERT JUMPDEST DUP2 PUSH1 0x13 PUSH0 DUP6 PUSH20 0xFFFFFFFFFFFFFFFFFFFFFFFFFFFFFFFFFFFFFFFF AND PUSH20 0xFFFFFFFFFFFFFFFFFFFFFFFFFFFFFFFFFFFFFFFF AND DUP2 MSTORE PUSH1 0x20 ADD SWAP1 DUP2 MSTORE PUSH1 0x20 ADD PUSH0 KECCAK256 PUSH0 PUSH2 0x100 EXP DUP2 SLOAD DUP2 PUSH1 0xFF MUL NOT AND SWAP1 DUP4 ISZERO ISZERO MUL OR SWAP1 SSTORE POP POP POP POP JUMP JUMPDEST PUSH0 PUSH2 0x33E0 CALLER DUP5 DUP5 PUSH2 0x4AB7 JUMP JUMPDEST POP PUSH1 0x1 SWAP1 POP SWAP3 SWAP2 POP POP JUMP JUMPDEST PUSH0 CALLER SWAP1 POP PUSH1 0xF PUSH0 DUP3 PUSH20 0xFFFFFFFFFFFFFFFFFFFFFFFFFFFFFFFFFFFFFFFF AND PUSH20 0xFFFFFFFFFFFFFFFFFFFFFFFFFFFFFFFFFFFFFFFF AND DUP2 MSTORE PUSH1 0x20 ADD SWAP1 DUP2 MSTORE PUSH1 0x20 ADD PUSH0 KECCAK256 PUSH0 SWAP1 SLOAD SWAP1 PUSH2 0x100 EXP SWAP1 DIV PUSH1 0xFF AND DUP1 PUSH2 0x3490 JUMPI POP PUSH1 0x1B PUSH0 SWAP1 SLOAD SWAP1 PUSH2 0x100 EXP SWAP1 DIV PUSH20 0xFFFFFFFFFFFFFFFFFFFFFFFFFFFFFFFFFFFFFFFF AND PUSH20 0xFFFFFFFFFFFFFFFFFFFFFFFFFFFFFFFFFFFFFFFF AND DUP2 PUSH20 0xFFFFFFFFFFFFFFFFFFFFFFFFFFFFFFFFFFFFFFFF AND EQ JUMPDEST DUP1 PUSH2 0x34E5 JUMPI POP PUSH0 DUP1 SLOAD SWAP1 PUSH2 0x100 EXP SWAP1 DIV PUSH20 0xFFFFFFFFFFFFFFFFFFFFFFFFFFFFFFFFFFFFFFFF AND PUSH20 0xFFFFFFFFFFFFFFFFFFFFFFFFFFFFFFFFFFFFFFFF AND DUP2 PUSH20 0xFFFFFFFFFFFFFFFFFFFFFFFFFFFFFFFFFFFFFFFF AND EQ JUMPDEST PUSH2 0x3524 JUMPI PUSH1 0x40 MLOAD PUSH32 0x8C379A000000000000000000000000000000000000000000000000000000000 DUP2 MSTORE PUSH1 0x4 ADD PUSH2 0x351B SWAP1 PUSH2 0x85FE JUMP JUMPDEST PUSH1 0x40 MLOAD DUP1 SWAP2 SUB SWAP1 REVERT JUMPDEST PUSH1 0x1 DUP3 LT ISZERO PUSH2 0x3568 JUMPI PUSH1 0x40 MLOAD PUSH32 0x8C379A000000000000000000000000000000000000000000000000000000000 DUP2 MSTORE PUSH1 0x4 ADD PUSH2 0x355F SWAP1 PUSH2 0x8E17 JUMP JUMPDEST PUSH1 0x40 MLOAD DUP1 SWAP2 SUB SWAP1 REVERT JUMPDEST DUP2 PUSH1 0x22 DUP2 SWAP1 SSTORE POP POP POP JUMP JUMPDEST PUSH1 0x15 PUSH1 0x20 MSTORE DUP2 PUSH0 MSTORE PUSH1 0x40 PUSH0 KECCAK256 PUSH1 0x20 MSTORE DUP1 PUSH0 MSTORE PUSH1 0x40 PUSH0 KECCAK256 PUSH0 SWAP2 POP SWAP2 POP SWAP1 SLOAD SWAP1 PUSH2 0x100 EXP SWAP1 DIV PUSH1 0xFF AND DUP2 JUMP JUMPDEST CALLER PUSH20 0xFFFFFFFFFFFFFFFFFFFFFFFFFFFFFFFFFFFFFFFF AND PUSH0 DUP1 SLOAD SWAP1 PUSH2 0x100 EXP SWAP1 DIV PUSH20 0xFFFFFFFFFFFFFFFFFFFFFFFFFFFFFFFFFFFFFFFF AND PUSH20 0xFFFFFFFFFFFFFFFFFFFFFFFFFFFFFFFFFFFFFFFF AND EQ PUSH2 0x362A JUMPI PUSH1 0x40 MLOAD PUSH32 0x8C379A000000000000000000000000000000000000000000000000000000000 DUP2 MSTORE PUSH1 0x4 ADD PUSH2 0x3621 SWAP1 PUSH2 0x8596 JUMP JUMPDEST PUSH1 0x40 MLOAD DUP1 SWAP2 SUB SWAP1 REVERT JUMPDEST PUSH0 JUMPDEST DUP3 MLOAD DUP2 LT ISZERO PUSH2 0x36B0 JUMPI DUP2 PUSH1 0xF PUSH0 DUP6 DUP5 DUP2 MLOAD DUP2 LT PUSH2 0x364C JUMPI PUSH2 0x364B PUSH2 0x8789 JUMP JUMPDEST JUMPDEST PUSH1 0x20 MUL PUSH1 0x20 ADD ADD MLOAD PUSH20 0xFFFFFFFFFFFFFFFFFFFFFFFFFFFFFFFFFFFFFFFF AND PUSH20 0xFFFFFFFFFFFFFFFFFFFFFFFFFFFFFFFFFFFFFFFF AND DUP2 MSTORE PUSH1 0x20 ADD SWAP1 DUP2 MSTORE PUSH1 0x20 ADD PUSH0 KECCAK256 PUSH0 PUSH2 0x100 EXP DUP2 SLOAD DUP2 PUSH1 0xFF MUL NOT AND SWAP1 DUP4 ISZERO ISZERO MUL OR SWAP1 SSTORE POP DUP1 DUP1 PUSH1 0x1 ADD SWAP2 POP POP PUSH2 0x362C JUMP JUMPDEST POP POP POP JUMP JUMPDEST PUSH0 PUSH2 0x36CC PUSH3 0x15180 TIMESTAMP PUSH2 0x4AA2 SWAP1 SWAP2 SWAP1 PUSH4 0xFFFFFFFF AND JUMP JUMPDEST SWAP1 POP SWAP1 JUMP JUMPDEST PUSH1 0x23 SLOAD DUP2 JUMP JUMPDEST PUSH1 0x33 SLOAD DUP2 JUMP JUMPDEST PUSH32 0x0 DUP2 JUMP JUMPDEST PUSH2 0x3709 PUSH2 0x7CEE JUMP JUMPDEST PUSH2 0x3711 PUSH2 0x7CEE JUMP JUMPDEST PUSH0 DUP5 SWAP1 POP PUSH0 JUMPDEST PUSH1 0xA DUP2 LT ISZERO PUSH2 0x3846 JUMPI PUSH0 PUSH1 0x10 PUSH0 DUP5 PUSH20 0xFFFFFFFFFFFFFFFFFFFFFFFFFFFFFFFFFFFFFFFF AND PUSH20 0xFFFFFFFFFFFFFFFFFFFFFFFFFFFFFFFFFFFFFFFF AND DUP2 MSTORE PUSH1 0x20 ADD SWAP1 DUP2 MSTORE PUSH1 0x20 ADD PUSH0 KECCAK256 PUSH1 0x3 ADD PUSH0 SWAP1 SLOAD SWAP1 PUSH2 0x100 EXP SWAP1 DIV PUSH20 0xFFFFFFFFFFFFFFFFFFFFFFFFFFFFFFFFFFFFFFFF AND SWAP1 POP PUSH0 PUSH1 0xD PUSH0 DUP4 PUSH20 0xFFFFFFFFFFFFFFFFFFFFFFFFFFFFFFFFFFFFFFFF AND PUSH20 0xFFFFFFFFFFFFFFFFFFFFFFFFFFFFFFFFFFFFFFFF AND DUP2 MSTORE PUSH1 0x20 ADD SWAP1 DUP2 MSTORE PUSH1 0x20 ADD PUSH0 KECCAK256 SLOAD SWAP1 POP PUSH1 0x1 DUP4 PUSH2 0x37D1 SWAP2 SWAP1 PUSH2 0x8E35 JUMP JUMPDEST DUP2 LT PUSH2 0x3834 JUMPI PUSH0 PUSH2 0x3813 PUSH1 0x64 PUSH2 0x3805 PUSH1 0x1 DUP8 PUSH1 0xA DUP2 LT PUSH2 0x37F4 JUMPI PUSH2 0x37F3 PUSH2 0x8789 JUMP JUMPDEST JUMPDEST ADD SLOAD DUP12 PUSH2 0x4A8D SWAP1 SWAP2 SWAP1 PUSH4 0xFFFFFFFF AND JUMP JUMPDEST PUSH2 0x4AA2 SWAP1 SWAP2 SWAP1 PUSH4 0xFFFFFFFF AND JUMP JUMPDEST SWAP1 POP DUP1 DUP7 DUP6 PUSH1 0xA DUP2 LT PUSH2 0x3829 JUMPI PUSH2 0x3828 PUSH2 0x8789 JUMP JUMPDEST JUMPDEST PUSH1 0x20 MUL ADD DUP2 DUP2 MSTORE POP POP POP JUMPDEST DUP2 SWAP4 POP POP POP DUP1 DUP1 PUSH1 0x1 ADD SWAP2 POP POP PUSH2 0x3717 JUMP JUMPDEST POP DUP2 SWAP3 POP POP POP SWAP3 SWAP2 POP POP JUMP JUMPDEST PUSH0 CALLER SWAP1 POP PUSH1 0xF PUSH0 DUP3 PUSH20 0xFFFFFFFFFFFFFFFFFFFFFFFFFFFFFFFFFFFFFFFF AND PUSH20 0xFFFFFFFFFFFFFFFFFFFFFFFFFFFFFFFFFFFFFFFF AND DUP2 MSTORE PUSH1 0x20 ADD SWAP1 DUP2 MSTORE PUSH1 0x20 ADD PUSH0 KECCAK256 PUSH0 SWAP1 SLOAD SWAP1 PUSH2 0x100 EXP SWAP1 DIV PUSH1 0xFF AND DUP1 PUSH2 0x38F7 JUMPI POP PUSH1 0x1B PUSH0 SWAP1 SLOAD SWAP1 PUSH2 0x100 EXP SWAP1 DIV PUSH20 0xFFFFFFFFFFFFFFFFFFFFFFFFFFFFFFFFFFFFFFFF AND PUSH20 0xFFFFFFFFFFFFFFFFFFFFFFFFFFFFFFFFFFFFFFFF AND DUP2 PUSH20 0xFFFFFFFFFFFFFFFFFFFFFFFFFFFFFFFFFFFFFFFF AND EQ JUMPDEST DUP1 PUSH2 0x394C JUMPI POP PUSH0 DUP1 SLOAD SWAP1 PUSH2 0x100 EXP SWAP1 DIV PUSH20 0xFFFFFFFFFFFFFFFFFFFFFFFFFFFFFFFFFFFFFFFF AND PUSH20 0xFFFFFFFFFFFFFFFFFFFFFFFFFFFFFFFFFFFFFFFF AND DUP2 PUSH20 0xFFFFFFFFFFFFFFFFFFFFFFFFFFFFFFFFFFFFFFFF AND EQ JUMPDEST PUSH2 0x398B JUMPI PUSH1 0x40 MLOAD PUSH32 0x8C379A000000000000000000000000000000000000000000000000000000000 DUP2 MSTORE PUSH1 0x4 ADD PUSH2 0x3982 SWAP1 PUSH2 0x85FE JUMP JUMPDEST PUSH1 0x40 MLOAD DUP1 SWAP2 SUB SWAP1 REVERT JUMPDEST DUP2 PUSH1 0x16 PUSH0 DUP6 PUSH20 0xFFFFFFFFFFFFFFFFFFFFFFFFFFFFFFFFFFFFFFFF AND PUSH20 0xFFFFFFFFFFFFFFFFFFFFFFFFFFFFFFFFFFFFFFFF AND DUP2 MSTORE PUSH1 0x20 ADD SWAP1 DUP2 MSTORE PUSH1 0x20 ADD PUSH0 KECCAK256 DUP2 SWAP1 SSTORE POP POP POP POP JUMP JUMPDEST CALLER PUSH20 0xFFFFFFFFFFFFFFFFFFFFFFFFFFFFFFFFFFFFFFFF AND PUSH0 DUP1 SLOAD SWAP1 PUSH2 0x100 EXP SWAP1 DIV PUSH20 0xFFFFFFFFFFFFFFFFFFFFFFFFFFFFFFFFFFFFFFFF AND PUSH20 0xFFFFFFFFFFFFFFFFFFFFFFFFFFFFFFFFFFFFFFFF AND EQ PUSH2 0x3A5F JUMPI PUSH1 0x40 MLOAD PUSH32 0x8C379A000000000000000000000000000000000000000000000000000000000 DUP2 MSTORE PUSH1 0x4 ADD PUSH2 0x3A56 SWAP1 PUSH2 0x8596 JUMP JUMPDEST PUSH1 0x40 MLOAD DUP1 SWAP2 SUB SWAP1 REVERT JUMPDEST PUSH1 0xA DUP2 LT ISZERO DUP1 ISZERO PUSH2 0x3A72 JUMPI POP PUSH2 0x3E8 DUP2 GT ISZERO JUMPDEST PUSH2 0x3AB1 JUMPI PUSH1 0x40 MLOAD PUSH32 0x8C379A000000000000000000000000000000000000000000000000000000000 DUP2 MSTORE PUSH1 0x4 ADD PUSH2 0x3AA8 SWAP1 PUSH2 0x8EB2 JUMP JUMPDEST PUSH1 0x40 MLOAD DUP1 SWAP2 SUB SWAP1 REVERT JUMPDEST DUP1 PUSH1 0x21 DUP2 SWAP1 SSTORE POP POP JUMP JUMPDEST PUSH0 CALLER SWAP1 POP PUSH1 0xF PUSH0 DUP3 PUSH20 0xFFFFFFFFFFFFFFFFFFFFFFFFFFFFFFFFFFFFFFFF AND PUSH20 0xFFFFFFFFFFFFFFFFFFFFFFFFFFFFFFFFFFFFFFFF AND DUP2 MSTORE PUSH1 0x20 ADD SWAP1 DUP2 MSTORE PUSH1 0x20 ADD PUSH0 KECCAK256 PUSH0 SWAP1 SLOAD SWAP1 PUSH2 0x100 EXP SWAP1 DIV PUSH1 0xFF AND DUP1 PUSH2 0x3B60 JUMPI POP PUSH1 0x1B PUSH0 SWAP1 SLOAD SWAP1 PUSH2 0x100 EXP SWAP1 DIV PUSH20 0xFFFFFFFFFFFFFFFFFFFFFFFFFFFFFFFFFFFFFFFF AND PUSH20 0xFFFFFFFFFFFFFFFFFFFFFFFFFFFFFFFFFFFFFFFF AND DUP2 PUSH20 0xFFFFFFFFFFFFFFFFFFFFFFFFFFFFFFFFFFFFFFFF AND EQ JUMPDEST DUP1 PUSH2 0x3BB5 JUMPI POP PUSH0 DUP1 SLOAD SWAP1 PUSH2 0x100 EXP SWAP1 DIV PUSH20 0xFFFFFFFFFFFFFFFFFFFFFFFFFFFFFFFFFFFFFFFF AND PUSH20 0xFFFFFFFFFFFFFFFFFFFFFFFFFFFFFFFFFFFFFFFF AND DUP2 PUSH20 0xFFFFFFFFFFFFFFFFFFFFFFFFFFFFFFFFFFFFFFFF AND EQ JUMPDEST PUSH2 0x3BF4 JUMPI PUSH1 0x40 MLOAD PUSH32 0x8C379A000000000000000000000000000000000000000000000000000000000 DUP2 MSTORE PUSH1 0x4 ADD PUSH2 0x3BEB SWAP1 PUSH2 0x85FE JUMP JUMPDEST PUSH1 0x40 MLOAD DUP1 SWAP2 SUB SWAP1 REVERT JUMPDEST DUP2 PUSH1 0x2E DUP2 SWAP1 SSTORE POP POP POP JUMP JUMPDEST PUSH1 0x1E SLOAD DUP2 JUMP JUMPDEST PUSH1 0x11 PUSH1 0x20 MSTORE DUP1 PUSH0 MSTORE PUSH1 0x40 PUSH0 KECCAK256 PUSH0 SWAP2 POP SLOAD SWAP1 PUSH2 0x100 EXP SWAP1 DIV PUSH1 0xFF AND DUP2 JUMP JUMPDEST PUSH0 DUP1 PUSH2 0x3C2D DUP4 PUSH2 0x18C4 JUMP JUMPDEST POP SWAP1 POP PUSH0 PUSH20 0xFFFFFFFFFFFFFFFFFFFFFFFFFFFFFFFFFFFFFFFF AND DUP4 PUSH20 0xFFFFFFFFFFFFFFFFFFFFFFFFFFFFFFFFFFFFFFFF AND EQ ISZERO DUP1 ISZERO PUSH2 0x3C6E JUMPI POP PUSH1 0x2F SLOAD DUP2 LT ISZERO JUMPDEST ISZERO PUSH2 0x3CA8 JUMPI PUSH0 PUSH2 0x3C9C PUSH2 0x3E8 PUSH2 0x3C8E PUSH1 0x8 DUP6 PUSH2 0x4A8D SWAP1 SWAP2 SWAP1 PUSH4 0xFFFFFFFF AND JUMP JUMPDEST PUSH2 0x4AA2 SWAP1 SWAP2 SWAP1 PUSH4 0xFFFFFFFF AND JUMP JUMPDEST SWAP1 POP DUP1 SWAP3 POP POP POP PUSH2 0x3CAD JUMP JUMPDEST PUSH0 SWAP2 POP POP JUMPDEST SWAP2 SWAP1 POP JUMP JUMPDEST CALLER PUSH20 0xFFFFFFFFFFFFFFFFFFFFFFFFFFFFFFFFFFFFFFFF AND PUSH0 DUP1 SLOAD SWAP1 PUSH2 0x100 EXP SWAP1 DIV PUSH20 0xFFFFFFFFFFFFFFFFFFFFFFFFFFFFFFFFFFFFFFFF AND PUSH20 0xFFFFFFFFFFFFFFFFFFFFFFFFFFFFFFFFFFFFFFFF AND EQ PUSH2 0x3D3F JUMPI PUSH1 0x40 MLOAD PUSH32 0x8C379A000000000000000000000000000000000000000000000000000000000 DUP2 MSTORE PUSH1 0x4 ADD PUSH2 0x3D36 SWAP1 PUSH2 0x8596 JUMP JUMPDEST PUSH1 0x40 MLOAD DUP1 SWAP2 SUB SWAP1 REVERT JUMPDEST DUP1 PUSH1 0xF PUSH0 DUP5 PUSH20 0xFFFFFFFFFFFFFFFFFFFFFFFFFFFFFFFFFFFFFFFF AND PUSH20 0xFFFFFFFFFFFFFFFFFFFFFFFFFFFFFFFFFFFFFFFF AND DUP2 MSTORE PUSH1 0x20 ADD SWAP1 DUP2 MSTORE PUSH1 0x20 ADD PUSH0 KECCAK256 PUSH0 PUSH2 0x100 EXP DUP2 SLOAD DUP2 PUSH1 0xFF MUL NOT AND SWAP1 DUP4 ISZERO ISZERO MUL OR SWAP1 SSTORE POP POP POP JUMP JUMPDEST CALLER PUSH20 0xFFFFFFFFFFFFFFFFFFFFFFFFFFFFFFFFFFFFFFFF AND PUSH0 DUP1 SLOAD SWAP1 PUSH2 0x100 EXP SWAP1 DIV PUSH20 0xFFFFFFFFFFFFFFFFFFFFFFFFFFFFFFFFFFFFFFFF AND PUSH20 0xFFFFFFFFFFFFFFFFFFFFFFFFFFFFFFFFFFFFFFFF AND EQ PUSH2 0x3E24 JUMPI PUSH1 0x40 MLOAD PUSH32 0x8C379A000000000000000000000000000000000000000000000000000000000 DUP2 MSTORE PUSH1 0x4 ADD PUSH2 0x3E1B SWAP1 PUSH2 0x8596 JUMP JUMPDEST PUSH1 0x40 MLOAD DUP1 SWAP2 SUB SWAP1 REVERT JUMPDEST PUSH1 0xF PUSH0 CALLER PUSH20 0xFFFFFFFFFFFFFFFFFFFFFFFFFFFFFFFFFFFFFFFF AND PUSH20 0xFFFFFFFFFFFFFFFFFFFFFFFFFFFFFFFFFFFFFFFF AND DUP2 MSTORE PUSH1 0x20 ADD SWAP1 DUP2 MSTORE PUSH1 0x20 ADD PUSH0 KECCAK256 PUSH0 SWAP1 SLOAD SWAP1 PUSH2 0x100 EXP SWAP1 DIV PUSH1 0xFF AND DUP1 ISZERO PUSH2 0x3F1B JUMPI POP CALLER PUSH20 0xFFFFFFFFFFFFFFFFFFFFFFFFFFFFFFFFFFFFFFFF AND PUSH1 0x1B PUSH0 SWAP1 SLOAD SWAP1 PUSH2 0x100 EXP SWAP1 DIV PUSH20 0xFFFFFFFFFFFFFFFFFFFFFFFFFFFFFFFFFFFFFFFF AND PUSH20 0xFFFFFFFFFFFFFFFFFFFFFFFFFFFFFFFFFFFFFFFF AND EQ DUP1 PUSH2 0x3F1A JUMPI POP CALLER PUSH20 0xFFFFFFFFFFFFFFFFFFFFFFFFFFFFFFFFFFFFFFFF AND PUSH0 DUP1 SLOAD SWAP1 PUSH2 0x100 EXP SWAP1 DIV PUSH20 0xFFFFFFFFFFFFFFFFFFFFFFFFFFFFFFFFFFFFFFFF AND PUSH20 0xFFFFFFFFFFFFFFFFFFFFFFFFFFFFFFFFFFFFFFFF AND EQ JUMPDEST JUMPDEST ISZERO PUSH2 0x3F75 JUMPI DUP1 PUSH1 0x11 PUSH0 DUP5 PUSH20 0xFFFFFFFFFFFFFFFFFFFFFFFFFFFFFFFFFFFFFFFF AND PUSH20 0xFFFFFFFFFFFFFFFFFFFFFFFFFFFFFFFFFFFFFFFF AND DUP2 MSTORE PUSH1 0x20 ADD SWAP1 DUP2 MSTORE PUSH1 0x20 ADD PUSH0 KECCAK256 PUSH0 PUSH2 0x100 EXP DUP2 SLOAD DUP2 PUSH1 0xFF MUL NOT AND SWAP1 DUP4 ISZERO ISZERO MUL OR SWAP1 SSTORE POP JUMPDEST POP POP JUMP JUMPDEST PUSH0 DUP1 DUP3 SWAP1 POP PUSH1 0x1A PUSH0 SWAP1 SLOAD SWAP1 PUSH2 0x100 EXP SWAP1 DIV PUSH20 0xFFFFFFFFFFFFFFFFFFFFFFFFFFFFFFFFFFFFFFFF AND PUSH20 0xFFFFFFFFFFFFFFFFFFFFFFFFFFFFFFFFFFFFFFFF AND DUP2 PUSH20 0xFFFFFFFFFFFFFFFFFFFFFFFFFFFFFFFFFFFFFFFF AND SUB PUSH2 0x3FDC JUMPI PUSH1 0x1 SWAP2 POP POP PUSH2 0x4083 JUMP JUMPDEST PUSH0 PUSH1 0x10 PUSH0 DUP4 PUSH20 0xFFFFFFFFFFFFFFFFFFFFFFFFFFFFFFFFFFFFFFFF AND PUSH20 0xFFFFFFFFFFFFFFFFFFFFFFFFFFFFFFFFFFFFFFFF AND DUP2 MSTORE PUSH1 0x20 ADD SWAP1 DUP2 MSTORE PUSH1 0x20 ADD PUSH0 KECCAK256 PUSH1 0x3 ADD PUSH0 SWAP1 SLOAD SWAP1 PUSH2 0x100 EXP SWAP1 DIV PUSH20 0xFFFFFFFFFFFFFFFFFFFFFFFFFFFFFFFFFFFFFFFF AND SWAP1 POP PUSH0 PUSH20 0xFFFFFFFFFFFFFFFFFFFFFFFFFFFFFFFFFFFFFFFF AND DUP2 PUSH20 0xFFFFFFFFFFFFFFFFFFFFFFFFFFFFFFFFFFFFFFFF AND EQ PUSH2 0x407D JUMPI PUSH1 0x1 SWAP3 POP POP POP PUSH2 0x4083 JUMP JUMPDEST PUSH0 SWAP3 POP POP POP JUMPDEST SWAP2 SWAP1 POP JUMP JUMPDEST PUSH0 PUSH1 0xC PUSH0 DUP5 PUSH20 0xFFFFFFFFFFFFFFFFFFFFFFFFFFFFFFFFFFFFFFFF AND PUSH20 0xFFFFFFFFFFFFFFFFFFFFFFFFFFFFFFFFFFFFFFFF AND DUP2 MSTORE PUSH1 0x20 ADD SWAP1 DUP2 MSTORE PUSH1 0x20 ADD PUSH0 KECCAK256 PUSH0 DUP4 PUSH20 0xFFFFFFFFFFFFFFFFFFFFFFFFFFFFFFFFFFFFFFFF AND PUSH20 0xFFFFFFFFFFFFFFFFFFFFFFFFFFFFFFFFFFFFFFFF AND DUP2 MSTORE PUSH1 0x20 ADD SWAP1 DUP2 MSTORE PUSH1 0x20 ADD PUSH0 KECCAK256 SLOAD SWAP1 POP SWAP3 SWAP2 POP POP JUMP JUMPDEST PUSH1 0x34 DUP2 DUP2 SLOAD DUP2 LT PUSH2 0x4119 JUMPI PUSH0 DUP1 REVERT JUMPDEST SWAP1 PUSH0 MSTORE PUSH1 0x20 PUSH0 KECCAK256 ADD PUSH0 SWAP2 POP SLOAD SWAP1 PUSH2 0x100 EXP SWAP1 DIV PUSH20 0xFFFFFFFFFFFFFFFFFFFFFFFFFFFFFFFFFFFFFFFF AND DUP2 JUMP JUMPDEST CALLER PUSH20 0xFFFFFFFFFFFFFFFFFFFFFFFFFFFFFFFFFFFFFFFF AND PUSH0 DUP1 SLOAD SWAP1 PUSH2 0x100 EXP SWAP1 DIV PUSH20 0xFFFFFFFFFFFFFFFFFFFFFFFFFFFFFFFFFFFFFFFF AND PUSH20 0xFFFFFFFFFFFFFFFFFFFFFFFFFFFFFFFFFFFFFFFF AND EQ PUSH2 0x41D2 JUMPI PUSH1 0x40 MLOAD PUSH32 0x8C379A000000000000000000000000000000000000000000000000000000000 DUP2 MSTORE PUSH1 0x4 ADD PUSH2 0x41C9 SWAP1 PUSH2 0x8596 JUMP JUMPDEST PUSH1 0x40 MLOAD DUP1 SWAP2 SUB SWAP1 REVERT JUMPDEST DUP1 PUSH1 0x31 DUP2 SWAP1 SSTORE POP POP JUMP JUMPDEST PUSH1 0x24 SLOAD DUP2 JUMP JUMPDEST PUSH1 0x22 SLOAD DUP2 JUMP JUMPDEST PUSH1 0xD PUSH1 0x20 MSTORE DUP1 PUSH0 MSTORE PUSH1 0x40 PUSH0 KECCAK256 PUSH0 SWAP2 POP SWAP1 POP SLOAD DUP2 JUMP JUMPDEST PUSH1 0x1B PUSH0 SWAP1 SLOAD SWAP1 PUSH2 0x100 EXP SWAP1 DIV PUSH20 0xFFFFFFFFFFFFFFFFFFFFFFFFFFFFFFFFFFFFFFFF AND DUP2 JUMP JUMPDEST PUSH1 0x30 SLOAD DUP2 JUMP JUMPDEST PUSH1 0x12 PUSH1 0x20 MSTORE DUP1 PUSH0 MSTORE PUSH1 0x40 PUSH0 KECCAK256 PUSH0 SWAP2 POP SLOAD SWAP1 PUSH2 0x100 EXP SWAP1 DIV PUSH1 0xFF AND DUP2 JUMP JUMPDEST PUSH0 CALLER SWAP1 POP PUSH1 0xF PUSH0 DUP3 PUSH20 0xFFFFFFFFFFFFFFFFFFFFFFFFFFFFFFFFFFFFFFFF AND PUSH20 0xFFFFFFFFFFFFFFFFFFFFFFFFFFFFFFFFFFFFFFFF AND DUP2 MSTORE PUSH1 0x20 ADD SWAP1 DUP2 MSTORE PUSH1 0x20 ADD PUSH0 KECCAK256 PUSH0 SWAP1 SLOAD SWAP1 PUSH2 0x100 EXP SWAP1 DIV PUSH1 0xFF AND DUP1 PUSH2 0x42EA JUMPI POP PUSH1 0x1B PUSH0 SWAP1 SLOAD SWAP1 PUSH2 0x100 EXP SWAP1 DIV PUSH20 0xFFFFFFFFFFFFFFFFFFFFFFFFFFFFFFFFFFFFFFFF AND PUSH20 0xFFFFFFFFFFFFFFFFFFFFFFFFFFFFFFFFFFFFFFFF AND DUP2 PUSH20 0xFFFFFFFFFFFFFFFFFFFFFFFFFFFFFFFFFFFFFFFF AND EQ JUMPDEST DUP1 PUSH2 0x433F JUMPI POP PUSH0 DUP1 SLOAD SWAP1 PUSH2 0x100 EXP SWAP1 DIV PUSH20 0xFFFFFFFFFFFFFFFFFFFFFFFFFFFFFFFFFFFFFFFF AND PUSH20 0xFFFFFFFFFFFFFFFFFFFFFFFFFFFFFFFFFFFFFFFF AND DUP2 PUSH20 0xFFFFFFFFFFFFFFFFFFFFFFFFFFFFFFFFFFFFFFFF AND EQ JUMPDEST PUSH2 0x437E JUMPI PUSH1 0x40 MLOAD PUSH32 0x8C379A000000000000000000000000000000000000000000000000000000000 DUP2 MSTORE PUSH1 0x4 ADD PUSH2 0x4375 SWAP1 PUSH2 0x85FE JUMP JUMPDEST PUSH1 0x40 MLOAD DUP1 SWAP2 SUB SWAP1 REVERT JUMPDEST PUSH0 PUSH1 0x1B PUSH0 SWAP1 SLOAD SWAP1 PUSH2 0x100 EXP SWAP1 DIV PUSH20 0xFFFFFFFFFFFFFFFFFFFFFFFFFFFFFFFFFFFFFFFF AND PUSH20 0xFFFFFFFFFFFFFFFFFFFFFFFFFFFFFFFFFFFFFFFF AND DUP4 PUSH1 0x40 MLOAD PUSH2 0x43C4 SWAP1 PUSH2 0x8EFD JUMP JUMPDEST PUSH0 PUSH1 0x40 MLOAD DUP1 DUP4 SUB DUP2 DUP6 DUP8 GAS CALL SWAP3 POP POP POP RETURNDATASIZE DUP1 PUSH0 DUP2 EQ PUSH2 0x43FE JUMPI PUSH1 0x40 MLOAD SWAP2 POP PUSH1 0x1F NOT PUSH1 0x3F RETURNDATASIZE ADD AND DUP3 ADD PUSH1 0x40 MSTORE RETURNDATASIZE DUP3 MSTORE RETURNDATASIZE PUSH0 PUSH1 0x20 DUP5 ADD RETURNDATACOPY PUSH2 0x4403 JUMP JUMPDEST PUSH1 0x60 SWAP2 POP JUMPDEST POP POP SWAP1 POP DUP1 PUSH2 0x4447 JUMPI PUSH1 0x40 MLOAD PUSH32 0x8C379A000000000000000000000000000000000000000000000000000000000 DUP2 MSTORE PUSH1 0x4 ADD PUSH2 0x443E SWAP1 PUSH2 0x8F5B JUMP JUMPDEST PUSH1 0x40 MLOAD DUP1 SWAP2 SUB SWAP1 REVERT JUMPDEST POP POP POP JUMP JUMPDEST PUSH1 0x18 PUSH1 0x20 MSTORE DUP1 PUSH0 MSTORE PUSH1 0x40 PUSH0 KECCAK256 PUSH0 SWAP2 POP SWAP1 POP SLOAD DUP2 JUMP JUMPDEST PUSH3 0x1E8480 PUSH4 0x1406F40 PUSH2 0x4474 SWAP2 SWAP1 PUSH2 0x86EE JUMP JUMPDEST DUP2 JUMP JUMPDEST CALLER PUSH20 0xFFFFFFFFFFFFFFFFFFFFFFFFFFFFFFFFFFFFFFFF AND PUSH0 DUP1 SLOAD SWAP1 PUSH2 0x100 EXP SWAP1 DIV PUSH20 0xFFFFFFFFFFFFFFFFFFFFFFFFFFFFFFFFFFFFFFFF AND PUSH20 0xFFFFFFFFFFFFFFFFFFFFFFFFFFFFFFFFFFFFFFFF AND EQ PUSH2 0x4504 JUMPI PUSH1 0x40 MLOAD PUSH32 0x8C379A000000000000000000000000000000000000000000000000000000000 DUP2 MSTORE PUSH1 0x4 ADD PUSH2 0x44FB SWAP1 PUSH2 0x8596 JUMP JUMPDEST PUSH1 0x40 MLOAD DUP1 SWAP2 SUB SWAP1 REVERT JUMPDEST PUSH0 DUP2 EQ DUP1 PUSH2 0x4512 JUMPI POP PUSH1 0x1 DUP2 EQ JUMPDEST PUSH2 0x4551 JUMPI PUSH1 0x40 MLOAD PUSH32 0x8C379A000000000000000000000000000000000000000000000000000000000 DUP2 MSTORE PUSH1 0x4 ADD PUSH2 0x4548 SWAP1 PUSH2 0x8FC3 JUMP JUMPDEST PUSH1 0x40 MLOAD DUP1 SWAP2 SUB SWAP1 REVERT JUMPDEST DUP1 PUSH1 0x25 DUP2 SWAP1 SSTORE POP POP JUMP JUMPDEST CALLER PUSH20 0xFFFFFFFFFFFFFFFFFFFFFFFFFFFFFFFFFFFFFFFF AND PUSH0 DUP1 SLOAD SWAP1 PUSH2 0x100 EXP SWAP1 DIV PUSH20 0xFFFFFFFFFFFFFFFFFFFFFFFFFFFFFFFFFFFFFFFF AND PUSH20 0xFFFFFFFFFFFFFFFFFFFFFFFFFFFFFFFFFFFFFFFF AND EQ PUSH2 0x45E8 JUMPI PUSH1 0x40 MLOAD PUSH32 0x8C379A000000000000000000000000000000000000000000000000000000000 DUP2 MSTORE PUSH1 0x4 ADD PUSH2 0x45DF SWAP1 PUSH2 0x8596 JUMP JUMPDEST PUSH1 0x40 MLOAD DUP1 SWAP2 SUB SWAP1 REVERT JUMPDEST PUSH0 PUSH20 0xFFFFFFFFFFFFFFFFFFFFFFFFFFFFFFFFFFFFFFFF AND DUP2 PUSH20 0xFFFFFFFFFFFFFFFFFFFFFFFFFFFFFFFFFFFFFFFF AND SUB PUSH2 0x4656 JUMPI PUSH1 0x40 MLOAD PUSH32 0x8C379A000000000000000000000000000000000000000000000000000000000 DUP2 MSTORE PUSH1 0x4 ADD PUSH2 0x464D SWAP1 PUSH2 0x902B JUMP JUMPDEST PUSH1 0x40 MLOAD DUP1 SWAP2 SUB SWAP1 REVERT JUMPDEST DUP1 PUSH20 0xFFFFFFFFFFFFFFFFFFFFFFFFFFFFFFFFFFFFFFFF AND PUSH0 DUP1 SLOAD SWAP1 PUSH2 0x100 EXP SWAP1 DIV PUSH20 0xFFFFFFFFFFFFFFFFFFFFFFFFFFFFFFFFFFFFFFFF AND PUSH20 0xFFFFFFFFFFFFFFFFFFFFFFFFFFFFFFFFFFFFFFFF AND PUSH32 0x8BE0079C531659141344CD1FD0A4F28419497F9722A3DAAFE3B4186F6B6457E0 PUSH1 0x40 MLOAD PUSH1 0x40 MLOAD DUP1 SWAP2 SUB SWAP1 LOG3 DUP1 PUSH0 DUP1 PUSH2 0x100 EXP DUP2 SLOAD DUP2 PUSH20 0xFFFFFFFFFFFFFFFFFFFFFFFFFFFFFFFFFFFFFFFF MUL NOT AND SWAP1 DUP4 PUSH20 0xFFFFFFFFFFFFFFFFFFFFFFFFFFFFFFFFFFFFFFFF AND MUL OR SWAP1 SSTORE POP POP JUMP JUMPDEST PUSH1 0x25 SLOAD DUP2 JUMP JUMPDEST CALLER PUSH20 0xFFFFFFFFFFFFFFFFFFFFFFFFFFFFFFFFFFFFFFFF AND PUSH0 DUP1 SLOAD SWAP1 PUSH2 0x100 EXP SWAP1 DIV PUSH20 0xFFFFFFFFFFFFFFFFFFFFFFFFFFFFFFFFFFFFFFFF AND PUSH20 0xFFFFFFFFFFFFFFFFFFFFFFFFFFFFFFFFFFFFFFFF AND EQ PUSH2 0x47A4 JUMPI PUSH1 0x40 MLOAD PUSH32 0x8C379A000000000000000000000000000000000000000000000000000000000 DUP2 MSTORE PUSH1 0x4 ADD PUSH2 0x479B SWAP1 PUSH2 0x8596 JUMP JUMPDEST PUSH1 0x40 MLOAD DUP1 SWAP2 SUB SWAP1 REVERT JUMPDEST PUSH1 0xA DUP3 LT ISZERO DUP1 ISZERO PUSH2 0x47B7 JUMPI POP PUSH2 0x3E8 DUP3 GT ISZERO JUMPDEST PUSH2 0x47F6 JUMPI PUSH1 0x40 MLOAD PUSH32 0x8C379A000000000000000000000000000000000000000000000000000000000 DUP2 MSTORE PUSH1 0x4 ADD PUSH2 0x47ED SWAP1 PUSH2 0x9093 JUMP JUMPDEST PUSH1 0x40 MLOAD DUP1 SWAP2 SUB SWAP1 REVERT JUMPDEST PUSH1 0xA DUP2 LT ISZERO DUP1 ISZERO PUSH2 0x4809 JUMPI POP PUSH2 0x3E8 DUP2 GT ISZERO JUMPDEST PUSH2 0x4848 JUMPI PUSH1 0x40 MLOAD PUSH32 0x8C379A000000000000000000000000000000000000000000000000000000000 DUP2 MSTORE PUSH1 0x4 ADD PUSH2 0x483F SWAP1 PUSH2 0x90FB JUMP JUMPDEST PUSH1 0x40 MLOAD DUP1 SWAP2 SUB SWAP1 REVERT JUMPDEST DUP2 PUSH1 0x1D DUP2 SWAP1 SSTORE POP DUP1 PUSH1 0x1E DUP2 SWAP1 SSTORE POP POP POP JUMP JUMPDEST PUSH1 0x1A PUSH0 SWAP1 SLOAD SWAP1 PUSH2 0x100 EXP SWAP1 DIV PUSH20 0xFFFFFFFFFFFFFFFFFFFFFFFFFFFFFFFFFFFFFFFF AND DUP2 JUMP JUMPDEST DUP1 PUSH1 0xC PUSH0 DUP6 PUSH20 0xFFFFFFFFFFFFFFFFFFFFFFFFFFFFFFFFFFFFFFFF AND PUSH20 0xFFFFFFFFFFFFFFFFFFFFFFFFFFFFFFFFFFFFFFFF AND DUP2 MSTORE PUSH1 0x20 ADD SWAP1 DUP2 MSTORE PUSH1 0x20 ADD PUSH0 KECCAK256 PUSH0 DUP5 PUSH20 0xFFFFFFFFFFFFFFFFFFFFFFFFFFFFFFFFFFFFFFFF AND PUSH20 0xFFFFFFFFFFFFFFFFFFFFFFFFFFFFFFFFFFFFFFFF AND DUP2 MSTORE PUSH1 0x20 ADD SWAP1 DUP2 MSTORE PUSH1 0x20 ADD PUSH0 KECCAK256 DUP2 SWAP1 SSTORE POP DUP2 PUSH20 0xFFFFFFFFFFFFFFFFFFFFFFFFFFFFFFFFFFFFFFFF AND DUP4 PUSH20 0xFFFFFFFFFFFFFFFFFFFFFFFFFFFFFFFFFFFFFFFF AND PUSH32 0x8C5BE1E5EBEC7D5BD14F71427D1E84F3DD0314C0F7B2291E5B200AC8C7C3B925 DUP4 PUSH1 0x40 MLOAD PUSH2 0x4959 SWAP2 SWAP1 PUSH2 0x7D29 JUMP JUMPDEST PUSH1 0x40 MLOAD DUP1 SWAP2 SUB SWAP1 LOG3 POP POP POP JUMP JUMPDEST PUSH0 DUP1 PUSH0 DUP1 PUSH32 0x0 PUSH20 0xFFFFFFFFFFFFFFFFFFFFFFFFFFFFFFFFFFFFFFFF AND PUSH4 0x902F1AC PUSH1 0x40 MLOAD DUP2 PUSH4 0xFFFFFFFF AND PUSH1 0xE0 SHL DUP2 MSTORE PUSH1 0x4 ADD PUSH1 0x60 PUSH1 0x40 MLOAD DUP1 DUP4 SUB DUP2 DUP7 GAS STATICCALL ISZERO DUP1 ISZERO PUSH2 0x49D3 JUMPI RETURNDATASIZE PUSH0 DUP1 RETURNDATACOPY RETURNDATASIZE PUSH0 REVERT JUMPDEST POP POP POP POP PUSH1 0x40 MLOAD RETURNDATASIZE PUSH1 0x1F NOT PUSH1 0x1F DUP3 ADD AND DUP3 ADD DUP1 PUSH1 0x40 MSTORE POP DUP2 ADD SWAP1 PUSH2 0x49F7 SWAP2 SWAP1 PUSH2 0x8AAC JUMP JUMPDEST POP PUSH14 0xFFFFFFFFFFFFFFFFFFFFFFFFFFFF AND SWAP2 POP PUSH14 0xFFFFFFFFFFFFFFFFFFFFFFFFFFFF AND SWAP2 POP PUSH0 PUSH32 0x0 SWAP1 POP ADDRESS PUSH20 0xFFFFFFFFFFFFFFFFFFFFFFFFFFFFFFFFFFFFFFFF AND DUP2 PUSH20 0xFFFFFFFFFFFFFFFFFFFFFFFFFFFFFFFFFFFFFFFF AND LT ISZERO PUSH2 0x4A7F JUMPI DUP3 SWAP4 POP DUP2 SWAP5 POP PUSH2 0x4A86 JUMP JUMPDEST DUP2 SWAP4 POP DUP3 SWAP5 POP JUMPDEST POP POP POP SWAP1 SWAP2 JUMP JUMPDEST PUSH0 DUP2 DUP4 PUSH2 0x4A9A SWAP2 SWAP1 PUSH2 0x8C75 JUMP JUMPDEST SWAP1 POP SWAP3 SWAP2 POP POP JUMP JUMPDEST PUSH0 DUP2 DUP4 PUSH2 0x4AAF SWAP2 SWAP1 PUSH2 0x9146 JUMP JUMPDEST SWAP1 POP SWAP3 SWAP2 POP POP JUMP JUMPDEST PUSH0 PUSH1 0xF PUSH0 DUP6 PUSH20 0xFFFFFFFFFFFFFFFFFFFFFFFFFFFFFFFFFFFFFFFF AND PUSH20 0xFFFFFFFFFFFFFFFFFFFFFFFFFFFFFFFFFFFFFFFF AND DUP2 MSTORE PUSH1 0x20 ADD SWAP1 DUP2 MSTORE PUSH1 0x20 ADD PUSH0 KECCAK256 PUSH0 SWAP1 SLOAD SWAP1 PUSH2 0x100 EXP SWAP1 DIV PUSH1 0xFF AND ISZERO DUP1 ISZERO PUSH2 0x4B56 JUMPI POP PUSH1 0xF PUSH0 DUP5 PUSH20 0xFFFFFFFFFFFFFFFFFFFFFFFFFFFFFFFFFFFFFFFF AND PUSH20 0xFFFFFFFFFFFFFFFFFFFFFFFFFFFFFFFFFFFFFFFF AND DUP2 MSTORE PUSH1 0x20 ADD SWAP1 DUP2 MSTORE PUSH1 0x20 ADD PUSH0 KECCAK256 PUSH0 SWAP1 SLOAD SWAP1 PUSH2 0x100 EXP SWAP1 DIV PUSH1 0xFF AND ISZERO JUMPDEST DUP1 ISZERO PUSH2 0x4B8E JUMPI POP ADDRESS PUSH20 0xFFFFFFFFFFFFFFFFFFFFFFFFFFFFFFFFFFFFFFFF AND DUP5 PUSH20 0xFFFFFFFFFFFFFFFFFFFFFFFFFFFFFFFFFFFFFFFF AND EQ ISZERO JUMPDEST DUP1 ISZERO PUSH2 0x4BE1 JUMPI POP PUSH1 0x13 PUSH0 DUP6 PUSH20 0xFFFFFFFFFFFFFFFFFFFFFFFFFFFFFFFFFFFFFFFF AND PUSH20 0xFFFFFFFFFFFFFFFFFFFFFFFFFFFFFFFFFFFFFFFF AND DUP2 MSTORE PUSH1 0x20 ADD SWAP1 DUP2 MSTORE PUSH1 0x20 ADD PUSH0 KECCAK256 PUSH0 SWAP1 SLOAD SWAP1 PUSH2 0x100 EXP SWAP1 DIV PUSH1 0xFF AND ISZERO JUMPDEST DUP1 ISZERO PUSH2 0x4C34 JUMPI POP PUSH1 0x13 PUSH0 DUP5 PUSH20 0xFFFFFFFFFFFFFFFFFFFFFFFFFFFFFFFFFFFFFFFF AND PUSH20 0xFFFFFFFFFFFFFFFFFFFFFFFFFFFFFFFFFFFFFFFF AND DUP2 MSTORE PUSH1 0x20 ADD SWAP1 DUP2 MSTORE PUSH1 0x20 ADD PUSH0 KECCAK256 PUSH0 SWAP1 SLOAD SWAP1 PUSH2 0x100 EXP SWAP1 DIV PUSH1 0xFF AND ISZERO JUMPDEST ISZERO PUSH2 0x4C82 JUMPI PUSH5 0x2540BE400 DUP3 GT ISZERO PUSH2 0x4C81 JUMPI PUSH1 0x40 MLOAD PUSH32 0x8C379A000000000000000000000000000000000000000000000000000000000 DUP2 MSTORE PUSH1 0x4 ADD PUSH2 0x4C78 SWAP1 PUSH2 0x91E6 JUMP JUMPDEST PUSH1 0x40 MLOAD DUP1 SWAP2 SUB SWAP1 REVERT JUMPDEST JUMPDEST PUSH0 PUSH32 0x0 SWAP1 POP PUSH0 PUSH1 0x32 PUSH0 SWAP1 SLOAD SWAP1 PUSH2 0x100 EXP SWAP1 DIV PUSH20 0xFFFFFFFFFFFFFFFFFFFFFFFFFFFFFFFFFFFFFFFF AND SWAP1 POP PUSH0 PUSH20 0xFFFFFFFFFFFFFFFFFFFFFFFFFFFFFFFFFFFFFFFF AND DUP2 PUSH20 0xFFFFFFFFFFFFFFFFFFFFFFFFFFFFFFFFFFFFFFFF AND EQ PUSH2 0x5029 JUMPI PUSH0 PUSH1 0x32 PUSH0 PUSH2 0x100 EXP DUP2 SLOAD DUP2 PUSH20 0xFFFFFFFFFFFFFFFFFFFFFFFFFFFFFFFFFFFFFFFF MUL NOT AND SWAP1 DUP4 PUSH20 0xFFFFFFFFFFFFFFFFFFFFFFFFFFFFFFFFFFFFFFFF AND MUL OR SWAP1 SSTORE POP PUSH0 DUP3 PUSH20 0xFFFFFFFFFFFFFFFFFFFFFFFFFFFFFFFFFFFFFFFF AND PUSH4 0x70A08231 DUP4 PUSH1 0x40 MLOAD DUP3 PUSH4 0xFFFFFFFF AND PUSH1 0xE0 SHL DUP2 MSTORE PUSH1 0x4 ADD PUSH2 0x4D78 SWAP2 SWAP1 PUSH2 0x8220 JUMP JUMPDEST PUSH1 0x20 PUSH1 0x40 MLOAD DUP1 DUP4 SUB DUP2 DUP7 GAS STATICCALL ISZERO DUP1 ISZERO PUSH2 0x4D93 JUMPI RETURNDATASIZE PUSH0 DUP1 RETURNDATACOPY RETURNDATASIZE PUSH0 REVERT JUMPDEST POP POP POP POP PUSH1 0x40 MLOAD RETURNDATASIZE PUSH1 0x1F NOT PUSH1 0x1F DUP3 ADD AND DUP3 ADD DUP1 PUSH1 0x40 MSTORE POP DUP2 ADD SWAP1 PUSH2 0x4DB7 SWAP2 SWAP1 PUSH2 0x8696 JUMP JUMPDEST SWAP1 POP PUSH0 DUP2 GT ISZERO PUSH2 0x4FDA JUMPI PUSH0 PUSH1 0x17 PUSH0 DUP5 PUSH20 0xFFFFFFFFFFFFFFFFFFFFFFFFFFFFFFFFFFFFFFFF AND PUSH20 0xFFFFFFFFFFFFFFFFFFFFFFFFFFFFFFFFFFFFFFFF AND DUP2 MSTORE PUSH1 0x20 ADD SWAP1 DUP2 MSTORE PUSH1 0x20 ADD PUSH0 KECCAK256 SLOAD SWAP1 POP DUP1 DUP3 GT ISZERO PUSH2 0x4FD8 JUMPI PUSH0 DUP2 DUP4 PUSH2 0x4E17 SWAP2 SWAP1 PUSH2 0x86EE JUMP JUMPDEST SWAP1 POP PUSH0 PUSH1 0xB PUSH0 DUP8 PUSH20 0xFFFFFFFFFFFFFFFFFFFFFFFFFFFFFFFFFFFFFFFF AND PUSH20 0xFFFFFFFFFFFFFFFFFFFFFFFFFFFFFFFFFFFFFFFF AND DUP2 MSTORE PUSH1 0x20 ADD SWAP1 DUP2 MSTORE PUSH1 0x20 ADD PUSH0 KECCAK256 SLOAD DUP7 PUSH20 0xFFFFFFFFFFFFFFFFFFFFFFFFFFFFFFFFFFFFFFFF AND PUSH4 0x18160DDD PUSH1 0x40 MLOAD DUP2 PUSH4 0xFFFFFFFF AND PUSH1 0xE0 SHL DUP2 MSTORE PUSH1 0x4 ADD PUSH1 0x20 PUSH1 0x40 MLOAD DUP1 DUP4 SUB DUP2 DUP7 GAS STATICCALL ISZERO DUP1 ISZERO PUSH2 0x4EA1 JUMPI RETURNDATASIZE PUSH0 DUP1 RETURNDATACOPY RETURNDATASIZE PUSH0 REVERT JUMPDEST POP POP POP POP PUSH1 0x40 MLOAD RETURNDATASIZE PUSH1 0x1F NOT PUSH1 0x1F DUP3 ADD AND DUP3 ADD DUP1 PUSH1 0x40 MSTORE POP DUP2 ADD SWAP1 PUSH2 0x4EC5 SWAP2 SWAP1 PUSH2 0x8696 JUMP JUMPDEST PUSH1 0x33 SLOAD PUSH2 0x4ED2 SWAP2 SWAP1 PUSH2 0x8C75 JUMP JUMPDEST PUSH2 0x4EDC SWAP2 SWAP1 PUSH2 0x9146 JUMP JUMPDEST SWAP1 POP DUP1 DUP3 GT ISZERO PUSH2 0x4F40 JUMPI PUSH1 0x1 PUSH1 0x19 PUSH0 DUP8 PUSH20 0xFFFFFFFFFFFFFFFFFFFFFFFFFFFFFFFFFFFFFFFF AND PUSH20 0xFFFFFFFFFFFFFFFFFFFFFFFFFFFFFFFFFFFFFFFF AND DUP2 MSTORE PUSH1 0x20 ADD SWAP1 DUP2 MSTORE PUSH1 0x20 ADD PUSH0 KECCAK256 PUSH0 PUSH2 0x100 EXP DUP2 SLOAD DUP2 PUSH1 0xFF MUL NOT AND SWAP1 DUP4 ISZERO ISZERO MUL OR SWAP1 SSTORE POP PUSH2 0x4FD5 JUMP JUMPDEST PUSH2 0x4F49 DUP6 PUSH2 0x5CDD JUMP JUMPDEST DUP4 PUSH1 0x17 PUSH0 DUP8 PUSH20 0xFFFFFFFFFFFFFFFFFFFFFFFFFFFFFFFFFFFFFFFF AND PUSH20 0xFFFFFFFFFFFFFFFFFFFFFFFFFFFFFFFFFFFFFFFF AND DUP2 MSTORE PUSH1 0x20 ADD SWAP1 DUP2 MSTORE PUSH1 0x20 ADD PUSH0 KECCAK256 DUP2 SWAP1 SSTORE POP PUSH2 0x4F93 PUSH2 0x5E61 JUMP JUMPDEST PUSH1 0x16 PUSH0 DUP8 PUSH20 0xFFFFFFFFFFFFFFFFFFFFFFFFFFFFFFFFFFFFFFFF AND PUSH20 0xFFFFFFFFFFFFFFFFFFFFFFFFFFFFFFFFFFFFFFFF AND DUP2 MSTORE PUSH1 0x20 ADD SWAP1 DUP2 MSTORE PUSH1 0x20 ADD PUSH0 KECCAK256 DUP2 SWAP1 SSTORE POP JUMPDEST POP POP JUMPDEST POP JUMPDEST PUSH2 0x4FE3 DUP3 PUSH2 0x3C22 JUMP JUMPDEST PUSH1 0x10 PUSH0 DUP5 PUSH20 0xFFFFFFFFFFFFFFFFFFFFFFFFFFFFFFFFFFFFFFFF AND PUSH20 0xFFFFFFFFFFFFFFFFFFFFFFFFFFFFFFFFFFFFFFFF AND DUP2 MSTORE PUSH1 0x20 ADD SWAP1 DUP2 MSTORE PUSH1 0x20 ADD PUSH0 KECCAK256 PUSH1 0x2 ADD DUP2 SWAP1 SSTORE POP POP JUMPDEST PUSH1 0xF PUSH0 DUP8 PUSH20 0xFFFFFFFFFFFFFFFFFFFFFFFFFFFFFFFFFFFFFFFF AND PUSH20 0xFFFFFFFFFFFFFFFFFFFFFFFFFFFFFFFFFFFFFFFF AND DUP2 MSTORE PUSH1 0x20 ADD SWAP1 DUP2 MSTORE PUSH1 0x20 ADD PUSH0 KECCAK256 PUSH0 SWAP1 SLOAD SWAP1 PUSH2 0x100 EXP SWAP1 DIV PUSH1 0xFF AND ISZERO DUP1 ISZERO PUSH2 0x50C7 JUMPI POP PUSH1 0xF PUSH0 DUP7 PUSH20 0xFFFFFFFFFFFFFFFFFFFFFFFFFFFFFFFFFFFFFFFF AND PUSH20 0xFFFFFFFFFFFFFFFFFFFFFFFFFFFFFFFFFFFFFFFF AND DUP2 MSTORE PUSH1 0x20 ADD SWAP1 DUP2 MSTORE PUSH1 0x20 ADD PUSH0 KECCAK256 PUSH0 SWAP1 SLOAD SWAP1 PUSH2 0x100 EXP SWAP1 DIV PUSH1 0xFF AND ISZERO JUMPDEST ISZERO PUSH2 0x515F JUMPI PUSH0 DUP1 PUSH1 0x4 PUSH1 0x37 PUSH0 SWAP1 SLOAD SWAP1 PUSH2 0x100 EXP SWAP1 DIV PUSH1 0xFF AND PUSH2 0x50E9 SWAP2 SWAP1 PUSH2 0x9204 JUMP JUMPDEST PUSH1 0xA PUSH2 0x50F5 SWAP2 SWAP1 PUSH2 0x8C2B JUMP JUMPDEST SWAP1 POP PUSH0 PUSH1 0xB PUSH0 DUP11 PUSH20 0xFFFFFFFFFFFFFFFFFFFFFFFFFFFFFFFFFFFFFFFF AND PUSH20 0xFFFFFFFFFFFFFFFFFFFFFFFFFFFFFFFFFFFFFFFF AND DUP2 MSTORE PUSH1 0x20 ADD SWAP1 DUP2 MSTORE PUSH1 0x20 ADD PUSH0 KECCAK256 SLOAD SWAP1 POP DUP2 DUP2 GT ISZERO PUSH2 0x514F JUMPI DUP2 DUP2 PUSH2 0x514C SWAP2 SWAP1 PUSH2 0x86EE JUMP JUMPDEST SWAP3 POP JUMPDEST DUP3 DUP8 GT ISZERO PUSH2 0x515B JUMPI DUP3 SWAP7 POP JUMPDEST POP POP POP JUMPDEST PUSH0 DUP1 PUSH1 0x13 PUSH0 DUP10 PUSH20 0xFFFFFFFFFFFFFFFFFFFFFFFFFFFFFFFFFFFFFFFF AND PUSH20 0xFFFFFFFFFFFFFFFFFFFFFFFFFFFFFFFFFFFFFFFF AND DUP2 MSTORE PUSH1 0x20 ADD SWAP1 DUP2 MSTORE PUSH1 0x20 ADD PUSH0 KECCAK256 PUSH0 SWAP1 SLOAD SWAP1 PUSH2 0x100 EXP SWAP1 DIV PUSH1 0xFF AND DUP1 PUSH2 0x51FC JUMPI POP PUSH1 0x13 PUSH0 DUP9 PUSH20 0xFFFFFFFFFFFFFFFFFFFFFFFFFFFFFFFFFFFFFFFF AND PUSH20 0xFFFFFFFFFFFFFFFFFFFFFFFFFFFFFFFFFFFFFFFF AND DUP2 MSTORE PUSH1 0x20 ADD SWAP1 DUP2 MSTORE PUSH1 0x20 ADD PUSH0 KECCAK256 PUSH0 SWAP1 SLOAD SWAP1 PUSH2 0x100 EXP SWAP1 DIV PUSH1 0xFF AND JUMPDEST ISZERO PUSH2 0x5662 JUMPI PUSH1 0x2B SLOAD PUSH0 SUB PUSH2 0x5330 JUMPI PUSH1 0xF PUSH0 DUP10 PUSH20 0xFFFFFFFFFFFFFFFFFFFFFFFFFFFFFFFFFFFFFFFF AND PUSH20 0xFFFFFFFFFFFFFFFFFFFFFFFFFFFFFFFFFFFFFFFF AND DUP2 MSTORE PUSH1 0x20 ADD SWAP1 DUP2 MSTORE PUSH1 0x20 ADD PUSH0 KECCAK256 PUSH0 SWAP1 SLOAD SWAP1 PUSH2 0x100 EXP SWAP1 DIV PUSH1 0xFF AND DUP1 ISZERO PUSH2 0x52AB JUMPI POP PUSH32 0x0 PUSH20 0xFFFFFFFFFFFFFFFFFFFFFFFFFFFFFFFFFFFFFFFF AND DUP8 PUSH20 0xFFFFFFFFFFFFFFFFFFFFFFFFFFFFFFFFFFFFFFFF AND EQ JUMPDEST DUP1 ISZERO PUSH2 0x5322 JUMPI POP PUSH0 DUP8 PUSH20 0xFFFFFFFFFFFFFFFFFFFFFFFFFFFFFFFFFFFFFFFF AND PUSH4 0x18160DDD PUSH1 0x40 MLOAD DUP2 PUSH4 0xFFFFFFFF AND PUSH1 0xE0 SHL DUP2 MSTORE PUSH1 0x4 ADD PUSH1 0x20 PUSH1 0x40 MLOAD DUP1 DUP4 SUB DUP2 DUP7 GAS STATICCALL ISZERO DUP1 ISZERO PUSH2 0x52FC JUMPI RETURNDATASIZE PUSH0 DUP1 RETURNDATACOPY RETURNDATASIZE PUSH0 REVERT JUMPDEST POP POP POP POP PUSH1 0x40 MLOAD RETURNDATASIZE PUSH1 0x1F NOT PUSH1 0x1F DUP3 ADD AND DUP3 ADD DUP1 PUSH1 0x40 MSTORE POP DUP2 ADD SWAP1 PUSH2 0x5320 SWAP2 SWAP1 PUSH2 0x8696 JUMP JUMPDEST EQ JUMPDEST ISZERO PUSH2 0x532F JUMPI NUMBER PUSH1 0x2B DUP2 SWAP1 SSTORE POP JUMPDEST JUMPDEST PUSH1 0x39 PUSH0 SWAP1 SLOAD SWAP1 PUSH2 0x100 EXP SWAP1 DIV PUSH1 0xFF AND ISZERO DUP1 ISZERO PUSH2 0x53E3 JUMPI POP PUSH1 0x13 PUSH0 DUP9 PUSH20 0xFFFFFFFFFFFFFFFFFFFFFFFFFFFFFFFFFFFFFFFF AND PUSH20 0xFFFFFFFFFFFFFFFFFFFFFFFFFFFFFFFFFFFFFFFF AND DUP2 MSTORE PUSH1 0x20 ADD SWAP1 DUP2 MSTORE PUSH1 0x20 ADD PUSH0 KECCAK256 PUSH0 SWAP1 SLOAD SWAP1 PUSH2 0x100 EXP SWAP1 DIV PUSH1 0xFF AND DUP1 PUSH2 0x53E2 JUMPI POP PUSH1 0x13 PUSH0 DUP10 PUSH20 0xFFFFFFFFFFFFFFFFFFFFFFFFFFFFFFFFFFFFFFFF AND PUSH20 0xFFFFFFFFFFFFFFFFFFFFFFFFFFFFFFFFFFFFFFFF AND DUP2 MSTORE PUSH1 0x20 ADD SWAP1 DUP2 MSTORE PUSH1 0x20 ADD PUSH0 KECCAK256 PUSH0 SWAP1 SLOAD SWAP1 PUSH2 0x100 EXP SWAP1 DIV PUSH1 0xFF AND JUMPDEST JUMPDEST DUP1 ISZERO PUSH2 0x53FA JUMPI POP PUSH1 0x27 PUSH0 SWAP1 SLOAD SWAP1 PUSH2 0x100 EXP SWAP1 DIV PUSH1 0xFF AND JUMPDEST DUP1 ISZERO PUSH2 0x5415 JUMPI POP PUSH1 0x28 SLOAD PUSH1 0x29 SLOAD PUSH2 0x5411 SWAP2 SWAP1 PUSH2 0x8E35 JUMP JUMPDEST TIMESTAMP LT ISZERO JUMPDEST DUP1 ISZERO PUSH2 0x5468 JUMPI POP PUSH1 0xF PUSH0 DUP10 PUSH20 0xFFFFFFFFFFFFFFFFFFFFFFFFFFFFFFFFFFFFFFFF AND PUSH20 0xFFFFFFFFFFFFFFFFFFFFFFFFFFFFFFFFFFFFFFFF AND DUP2 MSTORE PUSH1 0x20 ADD SWAP1 DUP2 MSTORE PUSH1 0x20 ADD PUSH0 KECCAK256 PUSH0 SWAP1 SLOAD SWAP1 PUSH2 0x100 EXP SWAP1 DIV PUSH1 0xFF AND ISZERO JUMPDEST ISZERO PUSH2 0x5487 JUMPI PUSH2 0x5476 DUP8 PUSH2 0x5EE3 JUMP JUMPDEST ISZERO PUSH2 0x5486 JUMPI PUSH2 0x5484 DUP8 PUSH2 0x5F35 JUMP JUMPDEST POP JUMPDEST JUMPDEST PUSH1 0xF PUSH0 DUP10 PUSH20 0xFFFFFFFFFFFFFFFFFFFFFFFFFFFFFFFFFFFFFFFF AND PUSH20 0xFFFFFFFFFFFFFFFFFFFFFFFFFFFFFFFFFFFFFFFF AND DUP2 MSTORE PUSH1 0x20 ADD SWAP1 DUP2 MSTORE PUSH1 0x20 ADD PUSH0 KECCAK256 PUSH0 SWAP1 SLOAD SWAP1 PUSH2 0x100 EXP SWAP1 DIV PUSH1 0xFF AND ISZERO DUP1 ISZERO PUSH2 0x5525 JUMPI POP PUSH1 0xF PUSH0 DUP9 PUSH20 0xFFFFFFFFFFFFFFFFFFFFFFFFFFFFFFFFFFFFFFFF AND PUSH20 0xFFFFFFFFFFFFFFFFFFFFFFFFFFFFFFFFFFFFFFFF AND DUP2 MSTORE PUSH1 0x20 ADD SWAP1 DUP2 MSTORE PUSH1 0x20 ADD PUSH0 KECCAK256 PUSH0 SWAP1 SLOAD SWAP1 PUSH2 0x100 EXP SWAP1 DIV PUSH1 0xFF AND ISZERO JUMPDEST ISZERO PUSH2 0x565D JUMPI PUSH1 0x1 SWAP2 POP PUSH32 0x0 PUSH20 0xFFFFFFFFFFFFFFFFFFFFFFFFFFFFFFFFFFFFFFFF AND DUP9 PUSH20 0xFFFFFFFFFFFFFFFFFFFFFFFFFFFFFFFFFFFFFFFF AND SUB PUSH2 0x558C JUMPI PUSH2 0x5589 PUSH2 0x6091 JUMP JUMPDEST SWAP1 POP JUMPDEST PUSH1 0x2A SLOAD PUSH0 SUB PUSH2 0x562F JUMPI PUSH1 0x2B SLOAD PUSH0 LT PUSH2 0x55D9 JUMPI PUSH1 0x40 MLOAD PUSH32 0x8C379A000000000000000000000000000000000000000000000000000000000 DUP2 MSTORE PUSH1 0x4 ADD PUSH2 0x55D0 SWAP1 PUSH2 0x9282 JUMP JUMPDEST PUSH1 0x40 MLOAD DUP1 SWAP2 SUB SWAP1 REVERT JUMPDEST PUSH1 0x1 PUSH1 0x12 PUSH0 DUP11 PUSH20 0xFFFFFFFFFFFFFFFFFFFFFFFFFFFFFFFFFFFFFFFF AND PUSH20 0xFFFFFFFFFFFFFFFFFFFFFFFFFFFFFFFFFFFFFFFF AND DUP2 MSTORE PUSH1 0x20 ADD SWAP1 DUP2 MSTORE PUSH1 0x20 ADD PUSH0 KECCAK256 PUSH0 PUSH2 0x100 EXP DUP2 SLOAD DUP2 PUSH1 0xFF MUL NOT AND SWAP1 DUP4 ISZERO ISZERO MUL OR SWAP1 SSTORE POP JUMPDEST PUSH1 0x3 PUSH1 0x2A SLOAD PUSH2 0x563E SWAP2 SWAP1 PUSH2 0x8E35 JUMP JUMPDEST NUMBER LT ISZERO PUSH2 0x565C JUMPI PUSH2 0x5650 DUP9 DUP9 DUP9 PUSH2 0x629E JUMP JUMPDEST PUSH0 SWAP5 POP POP POP POP POP PUSH2 0x5CD6 JUMP JUMPDEST JUMPDEST PUSH2 0x59EA JUMP JUMPDEST PUSH1 0x10 PUSH0 DUP9 PUSH20 0xFFFFFFFFFFFFFFFFFFFFFFFFFFFFFFFFFFFFFFFF AND PUSH20 0xFFFFFFFFFFFFFFFFFFFFFFFFFFFFFFFFFFFFFFFF AND DUP2 MSTORE PUSH1 0x20 ADD SWAP1 DUP2 MSTORE PUSH1 0x20 ADD PUSH0 KECCAK256 PUSH1 0x3 ADD PUSH0 SWAP1 SLOAD SWAP1 PUSH2 0x100 EXP SWAP1 DIV PUSH20 0xFFFFFFFFFFFFFFFFFFFFFFFFFFFFFFFFFFFFFFFF AND PUSH20 0xFFFFFFFFFFFFFFFFFFFFFFFFFFFFFFFFFFFFFFFF AND PUSH0 PUSH20 0xFFFFFFFFFFFFFFFFFFFFFFFFFFFFFFFFFFFFFFFF AND EQ DUP1 ISZERO PUSH2 0x56FB JUMPI POP PUSH0 DUP7 GT JUMPDEST DUP1 ISZERO PUSH2 0x5733 JUMPI POP DUP7 PUSH20 0xFFFFFFFFFFFFFFFFFFFFFFFFFFFFFFFFFFFFFFFF AND DUP9 PUSH20 0xFFFFFFFFFFFFFFFFFFFFFFFFFFFFFFFFFFFFFFFF AND EQ ISZERO JUMPDEST DUP1 ISZERO PUSH2 0x579B JUMPI POP PUSH2 0x5743 DUP9 PUSH2 0x3F79 JUMP JUMPDEST DUP1 PUSH2 0x579A JUMPI POP PUSH1 0x1A PUSH0 SWAP1 SLOAD SWAP1 PUSH2 0x100 EXP SWAP1 DIV PUSH20 0xFFFFFFFFFFFFFFFFFFFFFFFFFFFFFFFFFFFFFFFF AND PUSH20 0xFFFFFFFFFFFFFFFFFFFFFFFFFFFFFFFFFFFFFFFF AND DUP9 PUSH20 0xFFFFFFFFFFFFFFFFFFFFFFFFFFFFFFFFFFFFFFFF AND EQ JUMPDEST JUMPDEST ISZERO PUSH2 0x5831 JUMPI PUSH1 0x1 PUSH1 0x15 PUSH0 DUP10 PUSH20 0xFFFFFFFFFFFFFFFFFFFFFFFFFFFFFFFFFFFFFFFF AND PUSH20 0xFFFFFFFFFFFFFFFFFFFFFFFFFFFFFFFFFFFFFFFF AND DUP2 MSTORE PUSH1 0x20 ADD SWAP1 DUP2 MSTORE PUSH1 0x20 ADD PUSH0 KECCAK256 PUSH0 DUP11 PUSH20 0xFFFFFFFFFFFFFFFFFFFFFFFFFFFFFFFFFFFFFFFF AND PUSH20 0xFFFFFFFFFFFFFFFFFFFFFFFFFFFFFFFFFFFFFFFF AND DUP2 MSTORE PUSH1 0x20 ADD SWAP1 DUP2 MSTORE PUSH1 0x20 ADD PUSH0 KECCAK256 PUSH0 PUSH2 0x100 EXP DUP2 SLOAD DUP2 PUSH1 0xFF MUL NOT AND SWAP1 DUP4 ISZERO ISZERO MUL OR SWAP1 SSTORE POP JUMPDEST PUSH1 0x10 PUSH0 DUP10 PUSH20 0xFFFFFFFFFFFFFFFFFFFFFFFFFFFFFFFFFFFFFFFF AND PUSH20 0xFFFFFFFFFFFFFFFFFFFFFFFFFFFFFFFFFFFFFFFF AND DUP2 MSTORE PUSH1 0x20 ADD SWAP1 DUP2 MSTORE PUSH1 0x20 ADD PUSH0 KECCAK256 PUSH1 0x3 ADD PUSH0 SWAP1 SLOAD SWAP1 PUSH2 0x100 EXP SWAP1 DIV PUSH20 0xFFFFFFFFFFFFFFFFFFFFFFFFFFFFFFFFFFFFFFFF AND PUSH20 0xFFFFFFFFFFFFFFFFFFFFFFFFFFFFFFFFFFFFFFFF AND PUSH0 PUSH20 0xFFFFFFFFFFFFFFFFFFFFFFFFFFFFFFFFFFFFFFFF AND EQ DUP1 ISZERO PUSH2 0x58CB JUMPI POP PUSH1 0x64 DUP7 EQ JUMPDEST DUP1 ISZERO PUSH2 0x5903 JUMPI POP DUP7 PUSH20 0xFFFFFFFFFFFFFFFFFFFFFFFFFFFFFFFFFFFFFFFF AND DUP9 PUSH20 0xFFFFFFFFFFFFFFFFFFFFFFFFFFFFFFFFFFFFFFFF AND EQ ISZERO JUMPDEST ISZERO PUSH2 0x59E9 JUMPI PUSH1 0x15 PUSH0 DUP10 PUSH20 0xFFFFFFFFFFFFFFFFFFFFFFFFFFFFFFFFFFFFFFFF AND PUSH20 0xFFFFFFFFFFFFFFFFFFFFFFFFFFFFFFFFFFFFFFFF AND DUP2 MSTORE PUSH1 0x20 ADD SWAP1 DUP2 MSTORE PUSH1 0x20 ADD PUSH0 KECCAK256 PUSH0 DUP9 PUSH20 0xFFFFFFFFFFFFFFFFFFFFFFFFFFFFFFFFFFFFFFFF AND PUSH20 0xFFFFFFFFFFFFFFFFFFFFFFFFFFFFFFFFFFFFFFFF AND DUP2 MSTORE PUSH1 0x20 ADD SWAP1 DUP2 MSTORE PUSH1 0x20 ADD PUSH0 KECCAK256 PUSH0 SWAP1 SLOAD SWAP1 PUSH2 0x100 EXP SWAP1 DIV PUSH1 0xFF AND DUP1 ISZERO PUSH2 0x59D8 JUMPI POP PUSH0 PUSH1 0x14 PUSH0 DUP11 PUSH20 0xFFFFFFFFFFFFFFFFFFFFFFFFFFFFFFFFFFFFFFFF AND PUSH20 0xFFFFFFFFFFFFFFFFFFFFFFFFFFFFFFFFFFFFFFFF AND DUP2 MSTORE PUSH1 0x20 ADD SWAP1 DUP2 MSTORE PUSH1 0x20 ADD PUSH0 KECCAK256 DUP1 SLOAD SWAP1 POP EQ JUMPDEST ISZERO PUSH2 0x59E8 JUMPI PUSH2 0x59E7 DUP9 DUP9 PUSH2 0x639A JUMP JUMPDEST JUMPDEST JUMPDEST JUMPDEST ADDRESS PUSH20 0xFFFFFFFFFFFFFFFFFFFFFFFFFFFFFFFFFFFFFFFF AND DUP9 PUSH20 0xFFFFFFFFFFFFFFFFFFFFFFFFFFFFFFFFFFFFFFFF AND EQ PUSH2 0x5BE1 JUMPI DUP4 PUSH20 0xFFFFFFFFFFFFFFFFFFFFFFFFFFFFFFFFFFFFFFFF AND DUP8 PUSH20 0xFFFFFFFFFFFFFFFFFFFFFFFFFFFFFFFFFFFFFFFF AND EQ DUP1 ISZERO PUSH2 0x5AA5 JUMPI POP DUP8 PUSH20 0xFFFFFFFFFFFFFFFFFFFFFFFFFFFFFFFFFFFFFFFF AND PUSH1 0x32 PUSH0 SWAP1 SLOAD SWAP1 PUSH2 0x100 EXP SWAP1 DIV PUSH20 0xFFFFFFFFFFFFFFFFFFFFFFFFFFFFFFFFFFFFFFFF AND PUSH20 0xFFFFFFFFFFFFFFFFFFFFFFFFFFFFFFFFFFFFFFFF AND EQ ISZERO JUMPDEST ISZERO PUSH2 0x5AF2 JUMPI DUP8 PUSH1 0x32 PUSH0 PUSH2 0x100 EXP DUP2 SLOAD DUP2 PUSH20 0xFFFFFFFFFFFFFFFFFFFFFFFFFFFFFFFFFFFFFFFF MUL NOT AND SWAP1 DUP4 PUSH20 0xFFFFFFFFFFFFFFFFFFFFFFFFFFFFFFFFFFFFFFFF AND MUL OR SWAP1 SSTORE POP DUP6 PUSH1 0x33 DUP2 SWAP1 SSTORE POP JUMPDEST DUP4 PUSH20 0xFFFFFFFFFFFFFFFFFFFFFFFFFFFFFFFFFFFFFFFF AND DUP9 PUSH20 0xFFFFFFFFFFFFFFFFFFFFFFFFFFFFFFFFFFFFFFFF AND EQ DUP1 ISZERO PUSH2 0x5B59 JUMPI POP PUSH0 PUSH20 0xFFFFFFFFFFFFFFFFFFFFFFFFFFFFFFFFFFFFFFFF AND DUP9 PUSH20 0xFFFFFFFFFFFFFFFFFFFFFFFFFFFFFFFFFFFFFFFF AND EQ ISZERO JUMPDEST DUP1 ISZERO PUSH2 0x5B93 JUMPI POP PUSH2 0xDEAD PUSH20 0xFFFFFFFFFFFFFFFFFFFFFFFFFFFFFFFFFFFFFFFF AND DUP9 PUSH20 0xFFFFFFFFFFFFFFFFFFFFFFFFFFFFFFFFFFFFFFFF AND EQ ISZERO JUMPDEST ISZERO PUSH2 0x5BE0 JUMPI DUP7 PUSH1 0x32 PUSH0 PUSH2 0x100 EXP DUP2 SLOAD DUP2 PUSH20 0xFFFFFFFFFFFFFFFFFFFFFFFFFFFFFFFFFFFFFFFF MUL NOT AND SWAP1 DUP4 PUSH20 0xFFFFFFFFFFFFFFFFFFFFFFFFFFFFFFFFFFFFFFFF AND MUL OR SWAP1 SSTORE POP DUP6 PUSH1 0x33 DUP2 SWAP1 SSTORE POP JUMPDEST JUMPDEST PUSH2 0x5BEE DUP9 DUP9 DUP9 DUP6 DUP6 PUSH2 0x6624 JUMP JUMPDEST PUSH0 PUSH1 0x10 PUSH0 DUP10 PUSH20 0xFFFFFFFFFFFFFFFFFFFFFFFFFFFFFFFFFFFFFFFF AND PUSH20 0xFFFFFFFFFFFFFFFFFFFFFFFFFFFFFFFFFFFFFFFF AND DUP2 MSTORE PUSH1 0x20 ADD SWAP1 DUP2 MSTORE PUSH1 0x20 ADD PUSH0 KECCAK256 SWAP1 POP PUSH1 0xB PUSH0 DUP10 PUSH20 0xFFFFFFFFFFFFFFFFFFFFFFFFFFFFFFFFFFFFFFFF AND PUSH20 0xFFFFFFFFFFFFFFFFFFFFFFFFFFFFFFFFFFFFFFFF AND DUP2 MSTORE PUSH1 0x20 ADD SWAP1 DUP2 MSTORE PUSH1 0x20 ADD PUSH0 KECCAK256 SLOAD DUP2 PUSH0 ADD DUP2 SWAP1 SSTORE POP PUSH1 0xF PUSH0 DUP11 PUSH20 0xFFFFFFFFFFFFFFFFFFFFFFFFFFFFFFFFFFFFFFFF AND PUSH20 0xFFFFFFFFFFFFFFFFFFFFFFFFFFFFFFFFFFFFFFFF AND DUP2 MSTORE PUSH1 0x20 ADD SWAP1 DUP2 MSTORE PUSH1 0x20 ADD PUSH0 KECCAK256 PUSH0 SWAP1 SLOAD SWAP1 PUSH2 0x100 EXP SWAP1 DIV PUSH1 0xFF AND PUSH2 0x5CCD JUMPI PUSH2 0x5CCC PUSH1 0x30 SLOAD PUSH2 0x6C24 JUMP JUMPDEST JUMPDEST DUP7 SWAP6 POP POP POP POP POP POP JUMPDEST SWAP4 SWAP3 POP POP POP JUMP JUMPDEST PUSH1 0x18 PUSH0 DUP3 PUSH20 0xFFFFFFFFFFFFFFFFFFFFFFFFFFFFFFFFFFFFFFFF AND PUSH20 0xFFFFFFFFFFFFFFFFFFFFFFFFFFFFFFFFFFFFFFFF AND DUP2 MSTORE PUSH1 0x20 ADD SWAP1 DUP2 MSTORE PUSH1 0x20 ADD PUSH0 KECCAK256 SLOAD PUSH0 SUB PUSH2 0x5E5D JUMPI PUSH1 0x34 DUP1 SLOAD SWAP1 POP PUSH0 EQ DUP1 PUSH2 0x5D9B JUMPI POP DUP1 PUSH20 0xFFFFFFFFFFFFFFFFFFFFFFFFFFFFFFFFFFFFFFFF AND PUSH1 0x34 PUSH0 DUP2 SLOAD DUP2 LT PUSH2 0x5D5A JUMPI PUSH2 0x5D59 PUSH2 0x8789 JUMP JUMPDEST JUMPDEST SWAP1 PUSH0 MSTORE PUSH1 0x20 PUSH0 KECCAK256 ADD PUSH0 SWAP1 SLOAD SWAP1 PUSH2 0x100 EXP SWAP1 DIV PUSH20 0xFFFFFFFFFFFFFFFFFFFFFFFFFFFFFFFFFFFFFFFF AND PUSH20 0xFFFFFFFFFFFFFFFFFFFFFFFFFFFFFFFFFFFFFFFF AND EQ ISZERO JUMPDEST ISZERO PUSH2 0x5E5C JUMPI PUSH0 DUP2 EXTCODESIZE SWAP1 POP PUSH0 DUP2 GT ISZERO PUSH2 0x5DB3 JUMPI POP PUSH2 0x5E5E JUMP JUMPDEST PUSH1 0x34 DUP1 SLOAD SWAP1 POP PUSH1 0x18 PUSH0 DUP5 PUSH20 0xFFFFFFFFFFFFFFFFFFFFFFFFFFFFFFFFFFFFFFFF AND PUSH20 0xFFFFFFFFFFFFFFFFFFFFFFFFFFFFFFFFFFFFFFFF AND DUP2 MSTORE PUSH1 0x20 ADD SWAP1 DUP2 MSTORE PUSH1 0x20 ADD PUSH0 KECCAK256 DUP2 SWAP1 SSTORE POP PUSH1 0x34 DUP3 SWAP1 DUP1 PUSH1 0x1 DUP2 SLOAD ADD DUP1 DUP3 SSTORE DUP1 SWAP2 POP POP PUSH1 0x1 SWAP1 SUB SWAP1 PUSH0 MSTORE PUSH1 0x20 PUSH0 KECCAK256 ADD PUSH0 SWAP1 SWAP2 SWAP1 SWAP2 SWAP1 SWAP2 PUSH2 0x100 EXP DUP2 SLOAD DUP2 PUSH20 0xFFFFFFFFFFFFFFFFFFFFFFFFFFFFFFFFFFFFFFFF MUL NOT AND SWAP1 DUP4 PUSH20 0xFFFFFFFFFFFFFFFFFFFFFFFFFFFFFFFFFFFFFFFF AND MUL OR SWAP1 SSTORE POP POP JUMPDEST JUMPDEST JUMPDEST POP JUMP JUMPDEST PUSH0 DUP1 PUSH3 0x15180 TIMESTAMP PUSH2 0x5E72 SWAP2 SWAP1 PUSH2 0x92A0 JUMP JUMPDEST TIMESTAMP PUSH2 0x5E7D SWAP2 SWAP1 PUSH2 0x86EE JUMP JUMPDEST SWAP1 POP PUSH3 0x15180 DUP2 PUSH2 0x5E8E SWAP2 SWAP1 PUSH2 0x8E35 JUMP JUMPDEST SWAP2 POP POP SWAP1 JUMP JUMPDEST PUSH0 DUP1 PUSH0 PUSH1 0xB PUSH0 DUP6 PUSH20 0xFFFFFFFFFFFFFFFFFFFFFFFFFFFFFFFFFFFFFFFF AND PUSH20 0xFFFFFFFFFFFFFFFFFFFFFFFFFFFFFFFFFFFFFFFF AND DUP2 MSTORE PUSH1 0x20 ADD SWAP1 DUP2 MSTORE PUSH1 0x20 ADD PUSH0 KECCAK256 SLOAD SWAP1 POP DUP1 PUSH0 SWAP3 POP SWAP3 POP POP SWAP2 POP SWAP2 JUMP JUMPDEST PUSH0 PUSH1 0x13 PUSH0 DUP4 PUSH20 0xFFFFFFFFFFFFFFFFFFFFFFFFFFFFFFFFFFFFFFFF AND PUSH20 0xFFFFFFFFFFFFFFFFFFFFFFFFFFFFFFFFFFFFFFFF AND DUP2 MSTORE PUSH1 0x20 ADD SWAP1 DUP2 MSTORE PUSH1 0x20 ADD PUSH0 KECCAK256 PUSH0 SWAP1 SLOAD SWAP1 PUSH2 0x100 EXP SWAP1 DIV PUSH1 0xFF AND SWAP1 POP SWAP2 SWAP1 POP JUMP JUMPDEST PUSH0 TIMESTAMP PUSH1 0x29 DUP2 SWAP1 SSTORE POP PUSH0 ADDRESS PUSH20 0xFFFFFFFFFFFFFFFFFFFFFFFFFFFFFFFFFFFFFFFF AND PUSH4 0x70A08231 DUP5 PUSH1 0x40 MLOAD DUP3 PUSH4 0xFFFFFFFF AND PUSH1 0xE0 SHL DUP2 MSTORE PUSH1 0x4 ADD PUSH2 0x5F77 SWAP2 SWAP1 PUSH2 0x8220 JUMP JUMPDEST PUSH1 0x20 PUSH1 0x40 MLOAD DUP1 DUP4 SUB DUP2 DUP7 GAS STATICCALL ISZERO DUP1 ISZERO PUSH2 0x5F92 JUMPI RETURNDATASIZE PUSH0 DUP1 RETURNDATACOPY RETURNDATASIZE PUSH0 REVERT JUMPDEST POP POP POP POP PUSH1 0x40 MLOAD RETURNDATASIZE PUSH1 0x1F NOT PUSH1 0x1F DUP3 ADD AND DUP3 ADD DUP1 PUSH1 0x40 MSTORE POP DUP2 ADD SWAP1 PUSH2 0x5FB6 SWAP2 SWAP1 PUSH2 0x8696 JUMP JUMPDEST SWAP1 POP PUSH0 PUSH2 0x5FE2 PUSH2 0x2710 PUSH2 0x5FD4 PUSH1 0x26 SLOAD DUP6 PUSH2 0x4A8D SWAP1 SWAP2 SWAP1 PUSH4 0xFFFFFFFF AND JUMP JUMPDEST PUSH2 0x4AA2 SWAP1 SWAP2 SWAP1 PUSH4 0xFFFFFFFF AND JUMP JUMPDEST SWAP1 POP PUSH0 DUP2 GT ISZERO PUSH2 0x5FFA JUMPI PUSH2 0x5FF9 DUP5 PUSH2 0xDEAD DUP4 PUSH2 0x7084 JUMP JUMPDEST JUMPDEST PUSH0 DUP5 SWAP1 POP DUP1 PUSH20 0xFFFFFFFFFFFFFFFFFFFFFFFFFFFFFFFFFFFFFFFF AND PUSH4 0xFFF6CAE9 PUSH1 0x40 MLOAD DUP2 PUSH4 0xFFFFFFFF AND PUSH1 0xE0 SHL DUP2 MSTORE PUSH1 0x4 ADD PUSH0 PUSH1 0x40 MLOAD DUP1 DUP4 SUB DUP2 PUSH0 DUP8 DUP1 EXTCODESIZE ISZERO DUP1 ISZERO PUSH2 0x6043 JUMPI PUSH0 DUP1 REVERT JUMPDEST POP GAS CALL ISZERO DUP1 ISZERO PUSH2 0x6055 JUMPI RETURNDATASIZE PUSH0 DUP1 RETURNDATACOPY RETURNDATASIZE PUSH0 REVERT JUMPDEST POP POP POP POP PUSH32 0x454C91AE84FCC766DDDA0DCB289F26B3D0176EFEACF4061FC219FA6CA8C3048D PUSH1 0x40 MLOAD PUSH1 0x40 MLOAD DUP1 SWAP2 SUB SWAP1 LOG1 PUSH1 0x1 SWAP4 POP POP POP POP SWAP2 SWAP1 POP JUMP JUMPDEST PUSH0 DUP1 PUSH32 0x0 SWAP1 POP PUSH0 DUP1 DUP3 PUSH20 0xFFFFFFFFFFFFFFFFFFFFFFFFFFFFFFFFFFFFFFFF AND PUSH4 0x902F1AC PUSH1 0x40 MLOAD DUP2 PUSH4 0xFFFFFFFF AND PUSH1 0xE0 SHL DUP2 MSTORE PUSH1 0x4 ADD PUSH1 0x60 PUSH1 0x40 MLOAD DUP1 DUP4 SUB DUP2 DUP7 GAS STATICCALL ISZERO DUP1 ISZERO PUSH2 0x6101 JUMPI RETURNDATASIZE PUSH0 DUP1 RETURNDATACOPY RETURNDATASIZE PUSH0 REVERT JUMPDEST POP POP POP POP PUSH1 0x40 MLOAD RETURNDATASIZE PUSH1 0x1F NOT PUSH1 0x1F DUP3 ADD AND DUP3 ADD DUP1 PUSH1 0x40 MSTORE POP DUP2 ADD SWAP1 PUSH2 0x6125 SWAP2 SWAP1 PUSH2 0x8AAC JUMP JUMPDEST POP PUSH14 0xFFFFFFFFFFFFFFFFFFFFFFFFFFFF AND SWAP2 POP PUSH14 0xFFFFFFFFFFFFFFFFFFFFFFFFFFFF AND SWAP2 POP PUSH0 PUSH32 0x0 SWAP1 POP PUSH0 ADDRESS PUSH20 0xFFFFFFFFFFFFFFFFFFFFFFFFFFFFFFFFFFFFFFFF AND DUP3 PUSH20 0xFFFFFFFFFFFFFFFFFFFFFFFFFFFFFFFFFFFFFFFF AND LT ISZERO PUSH2 0x61C2 JUMPI PUSH2 0x61BB PUSH5 0xE8D4A51000 DUP6 PUSH2 0x4AA2 SWAP1 SWAP2 SWAP1 PUSH4 0xFFFFFFFF AND JUMP JUMPDEST SWAP1 POP PUSH2 0x61DD JUMP JUMPDEST PUSH2 0x61DA PUSH5 0xE8D4A51000 DUP5 PUSH2 0x4AA2 SWAP1 SWAP2 SWAP1 PUSH4 0xFFFFFFFF AND JUMP JUMPDEST SWAP1 POP JUMPDEST PUSH0 PUSH2 0x628D PUSH5 0xE8D4A51000 DUP5 PUSH20 0xFFFFFFFFFFFFFFFFFFFFFFFFFFFFFFFFFFFFFFFF AND PUSH4 0x70A08231 PUSH32 0x0 PUSH1 0x40 MLOAD DUP3 PUSH4 0xFFFFFFFF AND PUSH1 0xE0 SHL DUP2 MSTORE PUSH1 0x4 ADD PUSH2 0x6240 SWAP2 SWAP1 PUSH2 0x8220 JUMP JUMPDEST PUSH1 0x20 PUSH1 0x40 MLOAD DUP1 DUP4 SUB DUP2 DUP7 GAS STATICCALL ISZERO DUP1 ISZERO PUSH2 0x625B JUMPI RETURNDATASIZE PUSH0 DUP1 RETURNDATACOPY RETURNDATASIZE PUSH0 REVERT JUMPDEST POP POP POP POP PUSH1 0x40 MLOAD RETURNDATASIZE PUSH1 0x1F NOT PUSH1 0x1F DUP3 ADD AND DUP3 ADD DUP1 PUSH1 0x40 MSTORE POP DUP2 ADD SWAP1 PUSH2 0x627F SWAP2 SWAP1 PUSH2 0x8696 JUMP JUMPDEST PUSH2 0x4AA2 SWAP1 SWAP2 SWAP1 PUSH4 0xFFFFFFFF AND JUMP JUMPDEST SWAP1 POP DUP1 DUP3 LT ISZERO SWAP7 POP POP POP POP POP POP POP SWAP1 JUMP JUMPDEST DUP1 PUSH1 0xB PUSH0 DUP6 PUSH20 0xFFFFFFFFFFFFFFFFFFFFFFFFFFFFFFFFFFFFFFFF AND PUSH20 0xFFFFFFFFFFFFFFFFFFFFFFFFFFFFFFFFFFFFFFFF AND DUP2 MSTORE PUSH1 0x20 ADD SWAP1 DUP2 MSTORE PUSH1 0x20 ADD PUSH0 KECCAK256 SLOAD PUSH2 0x62E7 SWAP2 SWAP1 PUSH2 0x86EE JUMP JUMPDEST PUSH1 0xB PUSH0 DUP6 PUSH20 0xFFFFFFFFFFFFFFFFFFFFFFFFFFFFFFFFFFFFFFFF AND PUSH20 0xFFFFFFFFFFFFFFFFFFFFFFFFFFFFFFFFFFFFFFFF AND DUP2 MSTORE PUSH1 0x20 ADD SWAP1 DUP2 MSTORE PUSH1 0x20 ADD PUSH0 KECCAK256 DUP2 SWAP1 SSTORE POP PUSH0 PUSH2 0x6350 PUSH1 0x64 PUSH2 0x6342 PUSH1 0x63 DUP6 PUSH2 0x4A8D SWAP1 SWAP2 SWAP1 PUSH4 0xFFFFFFFF AND JUMP JUMPDEST PUSH2 0x4AA2 SWAP1 SWAP2 SWAP1 PUSH4 0xFFFFFFFF AND JUMP JUMPDEST SWAP1 POP PUSH2 0x637E DUP5 PUSH1 0x1B PUSH0 SWAP1 SLOAD SWAP1 PUSH2 0x100 EXP SWAP1 DIV PUSH20 0xFFFFFFFFFFFFFFFFFFFFFFFFFFFFFFFFFFFFFFFF AND DUP4 PUSH2 0x7202 JUMP JUMPDEST PUSH2 0x6394 DUP5 DUP5 DUP4 DUP6 PUSH2 0x638F SWAP2 SWAP1 PUSH2 0x86EE JUMP JUMPDEST PUSH2 0x7202 JUMP JUMPDEST POP POP POP POP JUMP JUMPDEST PUSH0 PUSH20 0xFFFFFFFFFFFFFFFFFFFFFFFFFFFFFFFFFFFFFFFF AND DUP2 PUSH20 0xFFFFFFFFFFFFFFFFFFFFFFFFFFFFFFFFFFFFFFFF AND EQ ISZERO DUP1 ISZERO PUSH2 0x6402 JUMPI POP DUP2 PUSH20 0xFFFFFFFFFFFFFFFFFFFFFFFFFFFFFFFFFFFFFFFF AND DUP2 PUSH20 0xFFFFFFFFFFFFFFFFFFFFFFFFFFFFFFFFFFFFFFFF AND EQ ISZERO JUMPDEST DUP1 ISZERO PUSH2 0x6498 JUMPI POP PUSH0 PUSH20 0xFFFFFFFFFFFFFFFFFFFFFFFFFFFFFFFFFFFFFFFF AND PUSH1 0x10 PUSH0 DUP5 PUSH20 0xFFFFFFFFFFFFFFFFFFFFFFFFFFFFFFFFFFFFFFFF AND PUSH20 0xFFFFFFFFFFFFFFFFFFFFFFFFFFFFFFFFFFFFFFFF AND DUP2 MSTORE PUSH1 0x20 ADD SWAP1 DUP2 MSTORE PUSH1 0x20 ADD PUSH0 KECCAK256 PUSH1 0x3 ADD PUSH0 SWAP1 SLOAD SWAP1 PUSH2 0x100 EXP SWAP1 DIV PUSH20 0xFFFFFFFFFFFFFFFFFFFFFFFFFFFFFFFFFFFFFFFF AND PUSH20 0xFFFFFFFFFFFFFFFFFFFFFFFFFFFFFFFFFFFFFFFF AND EQ JUMPDEST ISZERO PUSH2 0x661F JUMPI PUSH0 DUP2 EXTCODESIZE SWAP1 POP PUSH0 DUP2 GT ISZERO PUSH2 0x64B0 JUMPI POP PUSH2 0x6620 JUMP JUMPDEST DUP2 PUSH1 0x10 PUSH0 DUP6 PUSH20 0xFFFFFFFFFFFFFFFFFFFFFFFFFFFFFFFFFFFFFFFF AND PUSH20 0xFFFFFFFFFFFFFFFFFFFFFFFFFFFFFFFFFFFFFFFF AND DUP2 MSTORE PUSH1 0x20 ADD SWAP1 DUP2 MSTORE PUSH1 0x20 ADD PUSH0 KECCAK256 PUSH1 0x3 ADD PUSH0 PUSH2 0x100 EXP DUP2 SLOAD DUP2 PUSH20 0xFFFFFFFFFFFFFFFFFFFFFFFFFFFFFFFFFFFFFFFF MUL NOT AND SWAP1 DUP4 PUSH20 0xFFFFFFFFFFFFFFFFFFFFFFFFFFFFFFFFFFFFFFFF AND MUL OR SWAP1 SSTORE POP PUSH1 0x14 PUSH0 DUP4 PUSH20 0xFFFFFFFFFFFFFFFFFFFFFFFFFFFFFFFFFFFFFFFF AND PUSH20 0xFFFFFFFFFFFFFFFFFFFFFFFFFFFFFFFFFFFFFFFF AND DUP2 MSTORE PUSH1 0x20 ADD SWAP1 DUP2 MSTORE PUSH1 0x20 ADD PUSH0 KECCAK256 DUP4 SWAP1 DUP1 PUSH1 0x1 DUP2 SLOAD ADD DUP1 DUP3 SSTORE DUP1 SWAP2 POP POP PUSH1 0x1 SWAP1 SUB SWAP1 PUSH0 MSTORE PUSH1 0x20 PUSH0 KECCAK256 ADD PUSH0 SWAP1 SWAP2 SWAP1 SWAP2 SWAP1 SWAP2 PUSH2 0x100 EXP DUP2 SLOAD DUP2 PUSH20 0xFFFFFFFFFFFFFFFFFFFFFFFFFFFFFFFFFFFFFFFF MUL NOT AND SWAP1 DUP4 PUSH20 0xFFFFFFFFFFFFFFFFFFFFFFFFFFFFFFFFFFFFFFFF AND MUL OR SWAP1 SSTORE POP PUSH1 0x1 PUSH1 0xD PUSH0 DUP5 PUSH20 0xFFFFFFFFFFFFFFFFFFFFFFFFFFFFFFFFFFFFFFFF AND PUSH20 0xFFFFFFFFFFFFFFFFFFFFFFFFFFFFFFFFFFFFFFFF AND DUP2 MSTORE PUSH1 0x20 ADD SWAP1 DUP2 MSTORE PUSH1 0x20 ADD PUSH0 KECCAK256 PUSH0 DUP3 DUP3 SLOAD PUSH2 0x6616 SWAP2 SWAP1 PUSH2 0x8E35 JUMP JUMPDEST SWAP3 POP POP DUP2 SWAP1 SSTORE POP POP JUMPDEST JUMPDEST POP POP JUMP JUMPDEST PUSH0 PUSH1 0xB PUSH0 DUP8 PUSH20 0xFFFFFFFFFFFFFFFFFFFFFFFFFFFFFFFFFFFFFFFF AND PUSH20 0xFFFFFFFFFFFFFFFFFFFFFFFFFFFFFFFFFFFFFFFF AND DUP2 MSTORE PUSH1 0x20 ADD SWAP1 DUP2 MSTORE PUSH1 0x20 ADD PUSH0 KECCAK256 SLOAD SWAP1 POP DUP4 DUP2 PUSH2 0x6671 SWAP2 SWAP1 PUSH2 0x86EE JUMP JUMPDEST SWAP1 POP DUP1 PUSH1 0xB PUSH0 DUP9 PUSH20 0xFFFFFFFFFFFFFFFFFFFFFFFFFFFFFFFFFFFFFFFF AND PUSH20 0xFFFFFFFFFFFFFFFFFFFFFFFFFFFFFFFFFFFFFFFF AND DUP2 MSTORE PUSH1 0x20 ADD SWAP1 DUP2 MSTORE PUSH1 0x20 ADD PUSH0 KECCAK256 DUP2 SWAP1 SSTORE POP PUSH0 PUSH1 0x10 PUSH0 DUP9 PUSH20 0xFFFFFFFFFFFFFFFFFFFFFFFFFFFFFFFFFFFFFFFF AND PUSH20 0xFFFFFFFFFFFFFFFFFFFFFFFFFFFFFFFFFFFFFFFF AND DUP2 MSTORE PUSH1 0x20 ADD SWAP1 DUP2 MSTORE PUSH1 0x20 ADD PUSH0 KECCAK256 SWAP1 POP DUP2 DUP2 PUSH0 ADD DUP2 SWAP1 SSTORE POP PUSH0 DUP5 ISZERO PUSH2 0x6C04 JUMPI PUSH0 DUP1 DUP1 DUP7 ISZERO PUSH2 0x673D JUMPI PUSH2 0x6736 PUSH2 0x2710 PUSH2 0x6728 PUSH1 0x21 SLOAD DUP13 PUSH2 0x4A8D SWAP1 SWAP2 SWAP1 PUSH4 0xFFFFFFFF AND JUMP JUMPDEST PUSH2 0x4AA2 SWAP1 SWAP2 SWAP1 PUSH4 0xFFFFFFFF AND JUMP JUMPDEST SWAP1 POP PUSH2 0x6B19 JUMP JUMPDEST PUSH1 0x13 PUSH0 DUP13 PUSH20 0xFFFFFFFFFFFFFFFFFFFFFFFFFFFFFFFFFFFFFFFF AND PUSH20 0xFFFFFFFFFFFFFFFFFFFFFFFFFFFFFFFFFFFFFFFF AND DUP2 MSTORE PUSH1 0x20 ADD SWAP1 DUP2 MSTORE PUSH1 0x20 ADD PUSH0 KECCAK256 PUSH0 SWAP1 SLOAD SWAP1 PUSH2 0x100 EXP SWAP1 DIV PUSH1 0xFF AND ISZERO PUSH2 0x695B JUMPI PUSH1 0x2A SLOAD PUSH0 SUB PUSH2 0x67D0 JUMPI PUSH1 0x40 MLOAD PUSH32 0x8C379A000000000000000000000000000000000000000000000000000000000 DUP2 MSTORE PUSH1 0x4 ADD PUSH2 0x67C7 SWAP1 PUSH2 0x88F6 JUMP JUMPDEST PUSH1 0x40 MLOAD DUP1 SWAP2 SUB SWAP1 REVERT JUMPDEST PUSH0 PUSH2 0x6800 PUSH3 0xF4240 PUSH2 0x67F2 PUSH2 0x67E3 PUSH2 0x27B4 JUMP JUMPDEST DUP14 PUSH2 0x4A8D SWAP1 SWAP2 SWAP1 PUSH4 0xFFFFFFFF AND JUMP JUMPDEST PUSH2 0x4AA2 SWAP1 SWAP2 SWAP1 PUSH4 0xFFFFFFFF AND JUMP JUMPDEST SWAP1 POP PUSH10 0x43C33C1937564800000 DUP2 GT ISZERO PUSH2 0x684F JUMPI PUSH1 0x40 MLOAD PUSH32 0x8C379A000000000000000000000000000000000000000000000000000000000 DUP2 MSTORE PUSH1 0x4 ADD PUSH2 0x6846 SWAP1 PUSH2 0x931A JUMP JUMPDEST PUSH1 0x40 MLOAD DUP1 SWAP2 SUB SWAP1 REVERT JUMPDEST PUSH1 0x78 PUSH1 0xE PUSH0 DUP14 PUSH20 0xFFFFFFFFFFFFFFFFFFFFFFFFFFFFFFFFFFFFFFFF AND PUSH20 0xFFFFFFFFFFFFFFFFFFFFFFFFFFFFFFFFFFFFFFFF AND DUP2 MSTORE PUSH1 0x20 ADD SWAP1 DUP2 MSTORE PUSH1 0x20 ADD PUSH0 KECCAK256 SLOAD PUSH2 0x6899 SWAP2 SWAP1 PUSH2 0x8E35 JUMP JUMPDEST TIMESTAMP LT ISZERO PUSH2 0x68DB JUMPI PUSH1 0x40 MLOAD PUSH32 0x8C379A000000000000000000000000000000000000000000000000000000000 DUP2 MSTORE PUSH1 0x4 ADD PUSH2 0x68D2 SWAP1 PUSH2 0x93A8 JUMP JUMPDEST PUSH1 0x40 MLOAD DUP1 SWAP2 SUB SWAP1 REVERT JUMPDEST TIMESTAMP PUSH1 0xE PUSH0 DUP14 PUSH20 0xFFFFFFFFFFFFFFFFFFFFFFFFFFFFFFFFFFFFFFFF AND PUSH20 0xFFFFFFFFFFFFFFFFFFFFFFFFFFFFFFFFFFFFFFFF AND DUP2 MSTORE PUSH1 0x20 ADD SWAP1 DUP2 MSTORE PUSH1 0x20 ADD PUSH0 KECCAK256 DUP2 SWAP1 SSTORE POP PUSH2 0x6953 PUSH2 0x2710 PUSH2 0x6945 PUSH1 0x1D SLOAD PUSH1 0x1E SLOAD PUSH2 0x6936 SWAP2 SWAP1 PUSH2 0x8E35 JUMP JUMPDEST DUP14 PUSH2 0x4A8D SWAP1 SWAP2 SWAP1 PUSH4 0xFFFFFFFF AND JUMP JUMPDEST PUSH2 0x4AA2 SWAP1 SWAP2 SWAP1 PUSH4 0xFFFFFFFF AND JUMP JUMPDEST SWAP3 POP POP PUSH2 0x6B18 JUMP JUMPDEST PUSH1 0x13 PUSH0 DUP12 PUSH20 0xFFFFFFFFFFFFFFFFFFFFFFFFFFFFFFFFFFFFFFFF AND PUSH20 0xFFFFFFFFFFFFFFFFFFFFFFFFFFFFFFFFFFFFFFFF AND DUP2 MSTORE PUSH1 0x20 ADD SWAP1 DUP2 MSTORE PUSH1 0x20 ADD PUSH0 KECCAK256 PUSH0 SWAP1 SLOAD SWAP1 PUSH2 0x100 EXP SWAP1 DIV PUSH1 0xFF AND ISZERO PUSH2 0x6B17 JUMPI PUSH1 0x2A SLOAD PUSH0 SUB PUSH2 0x69EE JUMPI PUSH1 0x40 MLOAD PUSH32 0x8C379A000000000000000000000000000000000000000000000000000000000 DUP2 MSTORE PUSH1 0x4 ADD PUSH2 0x69E5 SWAP1 PUSH2 0x88F6 JUMP JUMPDEST PUSH1 0x40 MLOAD DUP1 SWAP2 SUB SWAP1 REVERT JUMPDEST PUSH1 0x78 PUSH1 0xE PUSH0 DUP13 PUSH20 0xFFFFFFFFFFFFFFFFFFFFFFFFFFFFFFFFFFFFFFFF AND PUSH20 0xFFFFFFFFFFFFFFFFFFFFFFFFFFFFFFFFFFFFFFFF AND DUP2 MSTORE PUSH1 0x20 ADD SWAP1 DUP2 MSTORE PUSH1 0x20 ADD PUSH0 KECCAK256 SLOAD PUSH2 0x6A38 SWAP2 SWAP1 PUSH2 0x8E35 JUMP JUMPDEST TIMESTAMP LT ISZERO PUSH2 0x6A7A JUMPI PUSH1 0x40 MLOAD PUSH32 0x8C379A000000000000000000000000000000000000000000000000000000000 DUP2 MSTORE PUSH1 0x4 ADD PUSH2 0x6A71 SWAP1 PUSH2 0x93A8 JUMP JUMPDEST PUSH1 0x40 MLOAD DUP1 SWAP2 SUB SWAP1 REVERT JUMPDEST TIMESTAMP PUSH1 0xE PUSH0 DUP13 PUSH20 0xFFFFFFFFFFFFFFFFFFFFFFFFFFFFFFFFFFFFFFFF AND PUSH20 0xFFFFFFFFFFFFFFFFFFFFFFFFFFFFFFFFFFFFFFFF AND DUP2 MSTORE PUSH1 0x20 ADD SWAP1 DUP2 MSTORE PUSH1 0x20 ADD PUSH0 KECCAK256 DUP2 SWAP1 SSTORE POP PUSH1 0x1 SWAP3 POP PUSH2 0x6AE9 PUSH2 0x2710 PUSH2 0x6ADB PUSH1 0x20 SLOAD DUP13 PUSH2 0x4A8D SWAP1 SWAP2 SWAP1 PUSH4 0xFFFFFFFF AND JUMP JUMPDEST PUSH2 0x4AA2 SWAP1 SWAP2 SWAP1 PUSH4 0xFFFFFFFF AND JUMP JUMPDEST SWAP2 POP PUSH2 0x6B14 PUSH2 0x2710 PUSH2 0x6B06 PUSH1 0x1F SLOAD DUP13 PUSH2 0x4A8D SWAP1 SWAP2 SWAP1 PUSH4 0xFFFFFFFF AND JUMP JUMPDEST PUSH2 0x4AA2 SWAP1 SWAP2 SWAP1 PUSH4 0xFFFFFFFF AND JUMP JUMPDEST SWAP1 POP JUMPDEST JUMPDEST JUMPDEST PUSH0 DUP3 GT ISZERO PUSH2 0x6B3B JUMPI DUP2 DUP5 PUSH2 0x6B2D SWAP2 SWAP1 PUSH2 0x8E35 JUMP JUMPDEST SWAP4 POP PUSH2 0x6B3A DUP12 ADDRESS DUP5 PUSH2 0x7202 JUMP JUMPDEST JUMPDEST PUSH0 DUP2 GT ISZERO PUSH2 0x6B5F JUMPI DUP1 DUP5 PUSH2 0x6B4F SWAP2 SWAP1 PUSH2 0x8E35 JUMP JUMPDEST SWAP4 POP PUSH2 0x6B5E DUP12 PUSH2 0xDEAD DUP4 PUSH2 0x7202 JUMP JUMPDEST JUMPDEST DUP3 DUP1 ISZERO PUSH2 0x6B78 JUMPI POP PUSH1 0x39 PUSH0 SWAP1 SLOAD SWAP1 PUSH2 0x100 EXP SWAP1 DIV PUSH1 0xFF AND ISZERO JUMPDEST ISZERO PUSH2 0x6C00 JUMPI PUSH0 PUSH1 0xB PUSH0 ADDRESS PUSH20 0xFFFFFFFFFFFFFFFFFFFFFFFFFFFFFFFFFFFFFFFF AND PUSH20 0xFFFFFFFFFFFFFFFFFFFFFFFFFFFFFFFFFFFFFFFF AND DUP2 MSTORE PUSH1 0x20 ADD SWAP1 DUP2 MSTORE PUSH1 0x20 ADD PUSH0 KECCAK256 SLOAD SWAP1 POP PUSH0 PUSH2 0x6BE6 PUSH1 0x64 PUSH2 0x6BD8 PUSH1 0xE6 DUP8 PUSH2 0x4A8D SWAP1 SWAP2 SWAP1 PUSH4 0xFFFFFFFF AND JUMP JUMPDEST PUSH2 0x4AA2 SWAP1 SWAP2 SWAP1 PUSH4 0xFFFFFFFF AND JUMP JUMPDEST SWAP1 POP DUP2 DUP2 GT ISZERO PUSH2 0x6BF4 JUMPI DUP2 SWAP1 POP JUMPDEST PUSH2 0x6BFD DUP2 PUSH2 0x72F6 JUMP JUMPDEST POP POP JUMPDEST POP POP POP JUMPDEST PUSH2 0x6C1A DUP9 DUP9 DUP4 DUP10 PUSH2 0x6C15 SWAP2 SWAP1 PUSH2 0x86EE JUMP JUMPDEST PUSH2 0x7202 JUMP JUMPDEST POP POP POP POP POP POP POP POP JUMP JUMPDEST TIMESTAMP PUSH1 0x2E SLOAD GT PUSH2 0x7081 JUMPI PUSH0 PUSH32 0x0 SWAP1 POP PUSH0 DUP2 PUSH20 0xFFFFFFFFFFFFFFFFFFFFFFFFFFFFFFFFFFFFFFFF AND PUSH4 0x18160DDD PUSH1 0x40 MLOAD DUP2 PUSH4 0xFFFFFFFF AND PUSH1 0xE0 SHL DUP2 MSTORE PUSH1 0x4 ADD PUSH1 0x20 PUSH1 0x40 MLOAD DUP1 DUP4 SUB DUP2 DUP7 GAS STATICCALL ISZERO DUP1 ISZERO PUSH2 0x6C9B JUMPI RETURNDATASIZE PUSH0 DUP1 RETURNDATACOPY RETURNDATASIZE PUSH0 REVERT JUMPDEST POP POP POP POP PUSH1 0x40 MLOAD RETURNDATASIZE PUSH1 0x1F NOT PUSH1 0x1F DUP3 ADD AND DUP3 ADD DUP1 PUSH1 0x40 MSTORE POP DUP2 ADD SWAP1 PUSH2 0x6CBF SWAP2 SWAP1 PUSH2 0x8696 JUMP JUMPDEST SWAP1 POP PUSH0 DUP2 SUB PUSH2 0x6CCF JUMPI POP POP PUSH2 0x7081 JUMP JUMPDEST PUSH0 DUP1 PUSH0 PUSH1 0x34 DUP1 SLOAD SWAP1 POP SWAP1 POP PUSH0 DUP1 PUSH0 GAS SWAP1 POP PUSH0 DUP1 PUSH2 0x6CEA PUSH2 0x4966 JUMP JUMPDEST SWAP2 POP SWAP2 POP JUMPDEST DUP11 DUP6 LT DUP1 ISZERO PUSH2 0x6CFF JUMPI POP DUP6 PUSH1 0x2D SLOAD LT JUMPDEST ISZERO PUSH2 0x704F JUMPI PUSH0 PUSH1 0x22 SLOAD PUSH1 0x2D SLOAD PUSH2 0x6D15 SWAP2 SWAP1 PUSH2 0x92A0 JUMP JUMPDEST EQ DUP1 ISZERO PUSH2 0x6D33 JUMPI POP PUSH1 0x2D SLOAD PUSH1 0x22 SLOAD PUSH1 0x23 SLOAD PUSH2 0x6D30 SWAP2 SWAP1 PUSH2 0x8C75 JUMP JUMPDEST GT ISZERO JUMPDEST ISZERO PUSH2 0x6D54 JUMPI PUSH1 0x23 PUSH0 DUP2 SLOAD DUP1 SWAP3 SWAP2 SWAP1 PUSH2 0x6D4A SWAP1 PUSH2 0x8D1E JUMP JUMPDEST SWAP2 SWAP1 POP SSTORE POP PUSH2 0x704F JUMP JUMPDEST PUSH1 0x34 PUSH1 0x2D SLOAD DUP2 SLOAD DUP2 LT PUSH2 0x6D6A JUMPI PUSH2 0x6D69 PUSH2 0x8789 JUMP JUMPDEST JUMPDEST SWAP1 PUSH0 MSTORE PUSH1 0x20 PUSH0 KECCAK256 ADD PUSH0 SWAP1 SLOAD SWAP1 PUSH2 0x100 EXP SWAP1 DIV PUSH20 0xFFFFFFFFFFFFFFFFFFFFFFFFFFFFFFFFFFFFFFFF AND SWAP8 POP PUSH1 0x2D PUSH0 DUP2 SLOAD DUP1 SWAP3 SWAP2 SWAP1 PUSH2 0x6DA6 SWAP1 PUSH2 0x8D1E JUMP JUMPDEST SWAP2 SWAP1 POP SSTORE POP PUSH1 0x19 PUSH0 DUP10 PUSH20 0xFFFFFFFFFFFFFFFFFFFFFFFFFFFFFFFFFFFFFFFF AND PUSH20 0xFFFFFFFFFFFFFFFFFFFFFFFFFFFFFFFFFFFFFFFF AND DUP2 MSTORE PUSH1 0x20 ADD SWAP1 DUP2 MSTORE PUSH1 0x20 ADD PUSH0 KECCAK256 PUSH0 SWAP1 SLOAD SWAP1 PUSH2 0x100 EXP SWAP1 DIV PUSH1 0xFF AND DUP1 PUSH2 0x6E46 JUMPI POP PUSH1 0x11 PUSH0 DUP10 PUSH20 0xFFFFFFFFFFFFFFFFFFFFFFFFFFFFFFFFFFFFFFFF AND PUSH20 0xFFFFFFFFFFFFFFFFFFFFFFFFFFFFFFFFFFFFFFFF AND DUP2 MSTORE PUSH1 0x20 ADD SWAP1 DUP2 MSTORE PUSH1 0x20 ADD PUSH0 KECCAK256 PUSH0 SWAP1 SLOAD SWAP1 PUSH2 0x100 EXP SWAP1 DIV PUSH1 0xFF AND JUMPDEST PUSH2 0x6CEF JUMPI PUSH1 0x31 SLOAD PUSH1 0x16 PUSH0 DUP11 PUSH20 0xFFFFFFFFFFFFFFFFFFFFFFFFFFFFFFFFFFFFFFFF AND PUSH20 0xFFFFFFFFFFFFFFFFFFFFFFFFFFFFFFFFFFFFFFFF AND DUP2 MSTORE PUSH1 0x20 ADD SWAP1 DUP2 MSTORE PUSH1 0x20 ADD PUSH0 KECCAK256 SLOAD PUSH2 0x6E95 SWAP2 SWAP1 PUSH2 0x8E35 JUMP JUMPDEST TIMESTAMP LT PUSH2 0x6CEF JUMPI PUSH0 PUSH1 0x10 PUSH0 DUP11 PUSH20 0xFFFFFFFFFFFFFFFFFFFFFFFFFFFFFFFFFFFFFFFF AND PUSH20 0xFFFFFFFFFFFFFFFFFFFFFFFFFFFFFFFFFFFFFFFF AND DUP2 MSTORE PUSH1 0x20 ADD SWAP1 DUP2 MSTORE PUSH1 0x20 ADD PUSH0 KECCAK256 PUSH1 0x2 ADD SLOAD GT ISZERO PUSH2 0x702E JUMPI PUSH0 PUSH2 0x6F49 DUP3 PUSH2 0x6F3B DUP6 PUSH1 0x10 PUSH0 DUP15 PUSH20 0xFFFFFFFFFFFFFFFFFFFFFFFFFFFFFFFFFFFFFFFF AND PUSH20 0xFFFFFFFFFFFFFFFFFFFFFFFFFFFFFFFFFFFFFFFF AND DUP2 MSTORE PUSH1 0x20 ADD SWAP1 DUP2 MSTORE PUSH1 0x20 ADD PUSH0 KECCAK256 PUSH1 0x2 ADD SLOAD PUSH2 0x4A8D SWAP1 SWAP2 SWAP1 PUSH4 0xFFFFFFFF AND JUMP JUMPDEST PUSH2 0x4AA2 SWAP1 SWAP2 SWAP1 PUSH4 0xFFFFFFFF AND JUMP JUMPDEST SWAP1 POP PUSH1 0x2 DUP2 PUSH2 0x6F58 SWAP2 SWAP1 PUSH2 0x8C75 JUMP JUMPDEST SWAP1 POP PUSH2 0x6FA1 TIMESTAMP PUSH1 0x16 PUSH0 DUP13 PUSH20 0xFFFFFFFFFFFFFFFFFFFFFFFFFFFFFFFFFFFFFFFF AND PUSH20 0xFFFFFFFFFFFFFFFFFFFFFFFFFFFFFFFFFFFFFFFF AND DUP2 MSTORE PUSH1 0x20 ADD SWAP1 DUP2 MSTORE PUSH1 0x20 ADD PUSH0 KECCAK256 SLOAD PUSH2 0x7877 JUMP JUMPDEST SWAP5 POP PUSH2 0x6FB6 DUP6 DUP3 PUSH2 0x4A8D SWAP1 SWAP2 SWAP1 PUSH4 0xFFFFFFFF AND JUMP JUMPDEST SWAP8 POP PUSH0 DUP9 GT ISZERO PUSH2 0x702C JUMPI PUSH3 0x15180 PUSH2 0x6FCC PUSH2 0x5E61 JUMP JUMPDEST PUSH2 0x6FD6 SWAP2 SWAP1 PUSH2 0x86EE JUMP JUMPDEST PUSH1 0x16 PUSH0 DUP12 PUSH20 0xFFFFFFFFFFFFFFFFFFFFFFFFFFFFFFFFFFFFFFFF AND PUSH20 0xFFFFFFFFFFFFFFFFFFFFFFFFFFFFFFFFFFFFFFFF AND DUP2 MSTORE PUSH1 0x20 ADD SWAP1 DUP2 MSTORE PUSH1 0x20 ADD PUSH0 KECCAK256 DUP2 SWAP1 SSTORE POP PUSH2 0x7021 DUP10 DUP10 PUSH2 0x78A1 JUMP JUMPDEST PUSH2 0x702B DUP10 DUP10 PUSH2 0x7B4C JUMP JUMPDEST JUMPDEST POP JUMPDEST GAS DUP4 PUSH2 0x703A SWAP2 SWAP1 PUSH2 0x86EE JUMP JUMPDEST DUP6 PUSH2 0x7045 SWAP2 SWAP1 PUSH2 0x8E35 JUMP JUMPDEST SWAP5 POP GAS SWAP3 POP PUSH2 0x6CEF JUMP JUMPDEST DUP6 PUSH1 0x2D SLOAD LT PUSH2 0x7076 JUMPI PUSH1 0x1 PUSH1 0x23 DUP2 SWAP1 SSTORE POP PUSH0 PUSH1 0x2D DUP2 SWAP1 SSTORE POP PUSH2 0x706F PUSH2 0x5E61 JUMP JUMPDEST PUSH1 0x2E DUP2 SWAP1 SSTORE POP JUMPDEST POP POP POP POP POP POP POP POP POP POP JUMPDEST POP JUMP JUMPDEST DUP1 PUSH1 0xB PUSH0 DUP6 PUSH20 0xFFFFFFFFFFFFFFFFFFFFFFFFFFFFFFFFFFFFFFFF AND PUSH20 0xFFFFFFFFFFFFFFFFFFFFFFFFFFFFFFFFFFFFFFFF AND DUP2 MSTORE PUSH1 0x20 ADD SWAP1 DUP2 MSTORE PUSH1 0x20 ADD PUSH0 KECCAK256 SLOAD PUSH2 0x70CD SWAP2 SWAP1 PUSH2 0x86EE JUMP JUMPDEST PUSH1 0xB PUSH0 DUP6 PUSH20 0xFFFFFFFFFFFFFFFFFFFFFFFFFFFFFFFFFFFFFFFF AND PUSH20 0xFFFFFFFFFFFFFFFFFFFFFFFFFFFFFFFFFFFFFFFF AND DUP2 MSTORE PUSH1 0x20 ADD SWAP1 DUP2 MSTORE PUSH1 0x20 ADD PUSH0 KECCAK256 DUP2 SWAP1 SSTORE POP DUP1 PUSH1 0xB PUSH0 DUP5 PUSH20 0xFFFFFFFFFFFFFFFFFFFFFFFFFFFFFFFFFFFFFFFF AND PUSH20 0xFFFFFFFFFFFFFFFFFFFFFFFFFFFFFFFFFFFFFFFF AND DUP2 MSTORE PUSH1 0x20 ADD SWAP1 DUP2 MSTORE PUSH1 0x20 ADD PUSH0 KECCAK256 SLOAD PUSH2 0x7157 SWAP2 SWAP1 PUSH2 0x8E35 JUMP JUMPDEST PUSH1 0xB PUSH0 DUP5 PUSH20 0xFFFFFFFFFFFFFFFFFFFFFFFFFFFFFFFFFFFFFFFF AND PUSH20 0xFFFFFFFFFFFFFFFFFFFFFFFFFFFFFFFFFFFFFFFF AND DUP2 MSTORE PUSH1 0x20 ADD SWAP1 DUP2 MSTORE PUSH1 0x20 ADD PUSH0 KECCAK256 DUP2 SWAP1 SSTORE POP DUP2 PUSH20 0xFFFFFFFFFFFFFFFFFFFFFFFFFFFFFFFFFFFFFFFF AND DUP4 PUSH20 0xFFFFFFFFFFFFFFFFFFFFFFFFFFFFFFFFFFFFFFFF AND PUSH32 0xDDF252AD1BE2C89B69C2B068FC378DAA952BA7F163C4A11628F55A4DF523B3EF DUP4 PUSH1 0x40 MLOAD PUSH2 0x71F5 SWAP2 SWAP1 PUSH2 0x7D29 JUMP JUMPDEST PUSH1 0x40 MLOAD DUP1 SWAP2 SUB SWAP1 LOG3 POP POP POP JUMP JUMPDEST DUP1 PUSH1 0xB PUSH0 DUP5 PUSH20 0xFFFFFFFFFFFFFFFFFFFFFFFFFFFFFFFFFFFFFFFF AND PUSH20 0xFFFFFFFFFFFFFFFFFFFFFFFFFFFFFFFFFFFFFFFF AND DUP2 MSTORE PUSH1 0x20 ADD SWAP1 DUP2 MSTORE PUSH1 0x20 ADD PUSH0 KECCAK256 SLOAD PUSH2 0x724B SWAP2 SWAP1 PUSH2 0x8E35 JUMP JUMPDEST PUSH1 0xB PUSH0 DUP5 PUSH20 0xFFFFFFFFFFFFFFFFFFFFFFFFFFFFFFFFFFFFFFFF AND PUSH20 0xFFFFFFFFFFFFFFFFFFFFFFFFFFFFFFFFFFFFFFFF AND DUP2 MSTORE PUSH1 0x20 ADD SWAP1 DUP2 MSTORE PUSH1 0x20 ADD PUSH0 KECCAK256 DUP2 SWAP1 SSTORE POP DUP2 PUSH20 0xFFFFFFFFFFFFFFFFFFFFFFFFFFFFFFFFFFFFFFFF AND DUP4 PUSH20 0xFFFFFFFFFFFFFFFFFFFFFFFFFFFFFFFFFFFFFFFF AND PUSH32 0xDDF252AD1BE2C89B69C2B068FC378DAA952BA7F163C4A11628F55A4DF523B3EF DUP4 PUSH1 0x40 MLOAD PUSH2 0x72E9 SWAP2 SWAP1 PUSH2 0x7D29 JUMP JUMPDEST PUSH1 0x40 MLOAD DUP1 SWAP2 SUB SWAP1 LOG3 POP POP POP JUMP JUMPDEST PUSH1 0x1 PUSH1 0x39 PUSH0 PUSH2 0x100 EXP DUP2 SLOAD DUP2 PUSH1 0xFF MUL NOT AND SWAP1 DUP4 ISZERO ISZERO MUL OR SWAP1 SSTORE POP PUSH0 DUP2 EQ DUP1 PUSH2 0x731F JUMPI POP PUSH1 0x24 SLOAD DUP2 GT JUMPDEST PUSH2 0x785B JUMPI PUSH0 PUSH1 0x1E SLOAD SWAP1 POP PUSH0 PUSH1 0x1D SLOAD SWAP1 POP PUSH0 PUSH1 0x20 SLOAD SWAP1 POP PUSH0 DUP2 DUP4 DUP6 PUSH2 0x7343 SWAP2 SWAP1 PUSH2 0x8E35 JUMP JUMPDEST PUSH2 0x734D SWAP2 SWAP1 PUSH2 0x8E35 JUMP JUMPDEST SWAP1 POP PUSH0 PUSH32 0x0 SWAP1 POP PUSH0 PUSH32 0x0 SWAP1 POP PUSH0 PUSH32 0x0 SWAP1 POP PUSH0 DUP3 PUSH20 0xFFFFFFFFFFFFFFFFFFFFFFFFFFFFFFFFFFFFFFFF AND PUSH4 0x70A08231 DUP4 PUSH1 0x40 MLOAD DUP3 PUSH4 0xFFFFFFFF AND PUSH1 0xE0 SHL DUP2 MSTORE PUSH1 0x4 ADD PUSH2 0x73F5 SWAP2 SWAP1 PUSH2 0x8220 JUMP JUMPDEST PUSH1 0x20 PUSH1 0x40 MLOAD DUP1 DUP4 SUB DUP2 DUP7 GAS STATICCALL ISZERO DUP1 ISZERO PUSH2 0x7410 JUMPI RETURNDATASIZE PUSH0 DUP1 RETURNDATACOPY RETURNDATASIZE PUSH0 REVERT JUMPDEST POP POP POP POP PUSH1 0x40 MLOAD RETURNDATASIZE PUSH1 0x1F NOT PUSH1 0x1F DUP3 ADD AND DUP3 ADD DUP1 PUSH1 0x40 MSTORE POP DUP2 ADD SWAP1 PUSH2 0x7434 SWAP2 SWAP1 PUSH2 0x8696 JUMP JUMPDEST SWAP1 POP PUSH0 PUSH1 0x2 PUSH8 0xFFFFFFFFFFFFFFFF DUP2 GT ISZERO PUSH2 0x7452 JUMPI PUSH2 0x7451 PUSH2 0x805A JUMP JUMPDEST JUMPDEST PUSH1 0x40 MLOAD SWAP1 DUP1 DUP3 MSTORE DUP1 PUSH1 0x20 MUL PUSH1 0x20 ADD DUP3 ADD PUSH1 0x40 MSTORE DUP1 ISZERO PUSH2 0x7480 JUMPI DUP2 PUSH1 0x20 ADD PUSH1 0x20 DUP3 MUL DUP1 CALLDATASIZE DUP4 CALLDATACOPY DUP1 DUP3 ADD SWAP2 POP POP SWAP1 POP JUMPDEST POP SWAP1 POP ADDRESS DUP2 PUSH0 DUP2 MLOAD DUP2 LT PUSH2 0x7497 JUMPI PUSH2 0x7496 PUSH2 0x8789 JUMP JUMPDEST JUMPDEST PUSH1 0x20 MUL PUSH1 0x20 ADD ADD SWAP1 PUSH20 0xFFFFFFFFFFFFFFFFFFFFFFFFFFFFFFFFFFFFFFFF AND SWAP1 DUP2 PUSH20 0xFFFFFFFFFFFFFFFFFFFFFFFFFFFFFFFFFFFFFFFF AND DUP2 MSTORE POP POP DUP5 DUP2 PUSH1 0x1 DUP2 MLOAD DUP2 LT PUSH2 0x74E6 JUMPI PUSH2 0x74E5 PUSH2 0x8789 JUMP JUMPDEST JUMPDEST PUSH1 0x20 MUL PUSH1 0x20 ADD ADD SWAP1 PUSH20 0xFFFFFFFFFFFFFFFFFFFFFFFFFFFFFFFFFFFFFFFF AND SWAP1 DUP2 PUSH20 0xFFFFFFFFFFFFFFFFFFFFFFFFFFFFFFFFFFFFFFFF AND DUP2 MSTORE POP POP PUSH32 0x0 PUSH20 0xFFFFFFFFFFFFFFFFFFFFFFFFFFFFFFFFFFFFFFFF AND PUSH4 0x5C11D795 DUP12 PUSH1 0x25 SLOAD DUP5 DUP8 TIMESTAMP PUSH1 0x40 MLOAD DUP7 PUSH4 0xFFFFFFFF AND PUSH1 0xE0 SHL DUP2 MSTORE PUSH1 0x4 ADD PUSH2 0x7583 SWAP6 SWAP5 SWAP4 SWAP3 SWAP2 SWAP1 PUSH2 0x947D JUMP JUMPDEST PUSH0 PUSH1 0x40 MLOAD DUP1 DUP4 SUB DUP2 PUSH0 DUP8 DUP1 EXTCODESIZE ISZERO DUP1 ISZERO PUSH2 0x759A JUMPI PUSH0 DUP1 REVERT JUMPDEST POP GAS CALL ISZERO DUP1 ISZERO PUSH2 0x75AC JUMPI RETURNDATASIZE PUSH0 DUP1 RETURNDATACOPY RETURNDATASIZE PUSH0 REVERT JUMPDEST POP POP POP POP DUP2 DUP5 PUSH20 0xFFFFFFFFFFFFFFFFFFFFFFFFFFFFFFFFFFFFFFFF AND PUSH4 0x70A08231 DUP6 PUSH1 0x40 MLOAD DUP3 PUSH4 0xFFFFFFFF AND PUSH1 0xE0 SHL DUP2 MSTORE PUSH1 0x4 ADD PUSH2 0x75EA SWAP2 SWAP1 PUSH2 0x8220 JUMP JUMPDEST PUSH1 0x20 PUSH1 0x40 MLOAD DUP1 DUP4 SUB DUP2 DUP7 GAS STATICCALL ISZERO DUP1 ISZERO PUSH2 0x7605 JUMPI RETURNDATASIZE PUSH0 DUP1 RETURNDATACOPY RETURNDATASIZE PUSH0 REVERT JUMPDEST POP POP POP POP PUSH1 0x40 MLOAD RETURNDATASIZE PUSH1 0x1F NOT PUSH1 0x1F DUP3 ADD AND DUP3 ADD DUP1 PUSH1 0x40 MSTORE POP DUP2 ADD SWAP1 PUSH2 0x7629 SWAP2 SWAP1 PUSH2 0x8696 JUMP JUMPDEST PUSH2 0x7633 SWAP2 SWAP1 PUSH2 0x86EE JUMP JUMPDEST SWAP2 POP PUSH0 PUSH2 0x765B DUP8 PUSH2 0x764D DUP13 DUP7 PUSH2 0x4A8D SWAP1 SWAP2 SWAP1 PUSH4 0xFFFFFFFF AND JUMP JUMPDEST PUSH2 0x4AA2 SWAP1 SWAP2 SWAP1 PUSH4 0xFFFFFFFF AND JUMP JUMPDEST SWAP1 POP PUSH0 PUSH2 0x7683 DUP9 PUSH2 0x7675 DUP13 DUP8 PUSH2 0x4A8D SWAP1 SWAP2 SWAP1 PUSH4 0xFFFFFFFF AND JUMP JUMPDEST PUSH2 0x4AA2 SWAP1 SWAP2 SWAP1 PUSH4 0xFFFFFFFF AND JUMP JUMPDEST SWAP1 POP DUP6 PUSH20 0xFFFFFFFFFFFFFFFFFFFFFFFFFFFFFFFFFFFFFFFF AND PUSH4 0x23B872DD DUP7 ADDRESS DUP8 PUSH1 0x40 MLOAD DUP5 PUSH4 0xFFFFFFFF AND PUSH1 0xE0 SHL DUP2 MSTORE PUSH1 0x4 ADD PUSH2 0x76C2 SWAP4 SWAP3 SWAP2 SWAP1 PUSH2 0x94D5 JUMP JUMPDEST PUSH1 0x20 PUSH1 0x40 MLOAD DUP1 DUP4 SUB DUP2 PUSH0 DUP8 GAS CALL ISZERO DUP1 ISZERO PUSH2 0x76DE JUMPI RETURNDATASIZE PUSH0 DUP1 RETURNDATACOPY RETURNDATASIZE PUSH0 REVERT JUMPDEST POP POP POP POP PUSH1 0x40 MLOAD RETURNDATASIZE PUSH1 0x1F NOT PUSH1 0x1F DUP3 ADD AND DUP3 ADD DUP1 PUSH1 0x40 MSTORE POP DUP2 ADD SWAP1 PUSH2 0x7702 SWAP2 SWAP1 PUSH2 0x8657 JUMP JUMPDEST POP PUSH0 DUP3 GT ISZERO PUSH2 0x77A9 JUMPI DUP6 PUSH20 0xFFFFFFFFFFFFFFFFFFFFFFFFFFFFFFFFFFFFFFFF AND PUSH4 0xA9059CBB PUSH1 0x1B PUSH0 SWAP1 SLOAD SWAP1 PUSH2 0x100 EXP SWAP1 DIV PUSH20 0xFFFFFFFFFFFFFFFFFFFFFFFFFFFFFFFFFFFFFFFF AND DUP5 PUSH1 0x40 MLOAD DUP4 PUSH4 0xFFFFFFFF AND PUSH1 0xE0 SHL DUP2 MSTORE PUSH1 0x4 ADD PUSH2 0x7767 SWAP3 SWAP2 SWAP1 PUSH2 0x861C JUMP JUMPDEST PUSH1 0x20 PUSH1 0x40 MLOAD DUP1 DUP4 SUB DUP2 PUSH0 DUP8 GAS CALL ISZERO DUP1 ISZERO PUSH2 0x7783 JUMPI RETURNDATASIZE PUSH0 DUP1 RETURNDATACOPY RETURNDATASIZE PUSH0 REVERT JUMPDEST POP POP POP POP PUSH1 0x40 MLOAD RETURNDATASIZE PUSH1 0x1F NOT PUSH1 0x1F DUP3 ADD AND DUP3 ADD DUP1 PUSH1 0x40 MSTORE POP DUP2 ADD SWAP1 PUSH2 0x77A7 SWAP2 SWAP1 PUSH2 0x8657 JUMP JUMPDEST POP JUMPDEST PUSH0 DUP2 GT ISZERO PUSH2 0x784F JUMPI DUP6 PUSH20 0xFFFFFFFFFFFFFFFFFFFFFFFFFFFFFFFFFFFFFFFF AND PUSH4 0xA9059CBB PUSH1 0x1C PUSH0 SWAP1 SLOAD SWAP1 PUSH2 0x100 EXP SWAP1 DIV PUSH20 0xFFFFFFFFFFFFFFFFFFFFFFFFFFFFFFFFFFFFFFFF AND DUP4 PUSH1 0x40 MLOAD DUP4 PUSH4 0xFFFFFFFF AND PUSH1 0xE0 SHL DUP2 MSTORE PUSH1 0x4 ADD PUSH2 0x780D SWAP3 SWAP2 SWAP1 PUSH2 0x861C JUMP JUMPDEST PUSH1 0x20 PUSH1 0x40 MLOAD DUP1 DUP4 SUB DUP2 PUSH0 DUP8 GAS CALL ISZERO DUP1 ISZERO PUSH2 0x7829 JUMPI RETURNDATASIZE PUSH0 DUP1 RETURNDATACOPY RETURNDATASIZE PUSH0 REVERT JUMPDEST POP POP POP POP PUSH1 0x40 MLOAD RETURNDATASIZE PUSH1 0x1F NOT PUSH1 0x1F DUP3 ADD AND DUP3 ADD DUP1 PUSH1 0x40 MSTORE POP DUP2 ADD SWAP1 PUSH2 0x784D SWAP2 SWAP1 PUSH2 0x8657 JUMP JUMPDEST POP JUMPDEST POP POP POP POP POP POP POP POP POP POP POP JUMPDEST PUSH0 PUSH1 0x39 PUSH0 PUSH2 0x100 EXP DUP2 SLOAD DUP2 PUSH1 0xFF MUL NOT AND SWAP1 DUP4 ISZERO ISZERO MUL OR SWAP1 SSTORE POP POP JUMP JUMPDEST PUSH0 PUSH2 0x7899 PUSH3 0x15180 DUP4 DUP6 PUSH2 0x788B SWAP2 SWAP1 PUSH2 0x86EE JUMP JUMPDEST PUSH2 0x4AA2 SWAP1 SWAP2 SWAP1 PUSH4 0xFFFFFFFF AND JUMP JUMPDEST SWAP1 POP SWAP3 SWAP2 POP POP JUMP JUMPDEST PUSH0 PUSH2 0x78AC DUP4 DUP4 PUSH2 0x3701 JUMP JUMPDEST SWAP1 POP PUSH0 DUP4 SWAP1 POP PUSH0 JUMPDEST PUSH1 0xA DUP2 LT ISZERO PUSH2 0x7B45 JUMPI PUSH0 DUP4 DUP3 PUSH1 0xA DUP2 LT PUSH2 0x78D1 JUMPI PUSH2 0x78D0 PUSH2 0x8789 JUMP JUMPDEST JUMPDEST PUSH1 0x20 MUL ADD MLOAD GT ISZERO PUSH2 0x7B37 JUMPI PUSH0 PUSH1 0x10 PUSH0 DUP5 PUSH20 0xFFFFFFFFFFFFFFFFFFFFFFFFFFFFFFFFFFFFFFFF AND PUSH20 0xFFFFFFFFFFFFFFFFFFFFFFFFFFFFFFFFFFFFFFFF AND DUP2 MSTORE PUSH1 0x20 ADD SWAP1 DUP2 MSTORE PUSH1 0x20 ADD PUSH0 KECCAK256 PUSH1 0x3 ADD PUSH0 SWAP1 SLOAD SWAP1 PUSH2 0x100 EXP SWAP1 DIV PUSH20 0xFFFFFFFFFFFFFFFFFFFFFFFFFFFFFFFFFFFFFFFF AND SWAP1 POP PUSH0 JUMPDEST DUP3 DUP2 LT ISZERO PUSH2 0x79EC JUMPI PUSH0 PUSH20 0xFFFFFFFFFFFFFFFFFFFFFFFFFFFFFFFFFFFFFFFF AND DUP3 PUSH20 0xFFFFFFFFFFFFFFFFFFFFFFFFFFFFFFFFFFFFFFFF AND EQ PUSH2 0x79DF JUMPI PUSH1 0x10 PUSH0 DUP4 PUSH20 0xFFFFFFFFFFFFFFFFFFFFFFFFFFFFFFFFFFFFFFFF AND PUSH20 0xFFFFFFFFFFFFFFFFFFFFFFFFFFFFFFFFFFFFFFFF AND DUP2 MSTORE PUSH1 0x20 ADD SWAP1 DUP2 MSTORE PUSH1 0x20 ADD PUSH0 KECCAK256 PUSH1 0x3 ADD PUSH0 SWAP1 SLOAD SWAP1 PUSH2 0x100 EXP SWAP1 DIV PUSH20 0xFFFFFFFFFFFFFFFFFFFFFFFFFFFFFFFFFFFFFFFF AND SWAP2 POP JUMPDEST DUP1 DUP1 PUSH1 0x1 ADD SWAP2 POP POP PUSH2 0x7941 JUMP JUMPDEST POP PUSH1 0x19 PUSH0 DUP3 PUSH20 0xFFFFFFFFFFFFFFFFFFFFFFFFFFFFFFFFFFFFFFFF AND PUSH20 0xFFFFFFFFFFFFFFFFFFFFFFFFFFFFFFFFFFFFFFFF AND DUP2 MSTORE PUSH1 0x20 ADD SWAP1 DUP2 MSTORE PUSH1 0x20 ADD PUSH0 KECCAK256 PUSH0 SWAP1 SLOAD SWAP1 PUSH2 0x100 EXP SWAP1 DIV PUSH1 0xFF AND DUP1 PUSH2 0x7A88 JUMPI POP PUSH1 0x11 PUSH0 DUP3 PUSH20 0xFFFFFFFFFFFFFFFFFFFFFFFFFFFFFFFFFFFFFFFF AND PUSH20 0xFFFFFFFFFFFFFFFFFFFFFFFFFFFFFFFFFFFFFFFF AND DUP2 MSTORE PUSH1 0x20 ADD SWAP1 DUP2 MSTORE PUSH1 0x20 ADD PUSH0 KECCAK256 PUSH0 SWAP1 SLOAD SWAP1 PUSH2 0x100 EXP SWAP1 DIV PUSH1 0xFF AND JUMPDEST ISZERO PUSH2 0x7A93 JUMPI POP PUSH2 0x7B38 JUMP JUMPDEST PUSH0 PUSH20 0xFFFFFFFFFFFFFFFFFFFFFFFFFFFFFFFFFFFFFFFF AND DUP2 PUSH20 0xFFFFFFFFFFFFFFFFFFFFFFFFFFFFFFFFFFFFFFFF AND EQ ISZERO DUP1 ISZERO PUSH2 0x7B0E JUMPI POP PUSH0 PUSH1 0x10 PUSH0 DUP4 PUSH20 0xFFFFFFFFFFFFFFFFFFFFFFFFFFFFFFFFFFFFFFFF AND PUSH20 0xFFFFFFFFFFFFFFFFFFFFFFFFFFFFFFFFFFFFFFFF AND DUP2 MSTORE PUSH1 0x20 ADD SWAP1 DUP2 MSTORE PUSH1 0x20 ADD PUSH0 KECCAK256 PUSH1 0x2 ADD SLOAD GT JUMPDEST ISZERO PUSH2 0x7B35 JUMPI PUSH2 0x7B34 DUP2 DUP6 DUP5 PUSH1 0xA DUP2 LT PUSH2 0x7B2A JUMPI PUSH2 0x7B29 PUSH2 0x8789 JUMP JUMPDEST JUMPDEST PUSH1 0x20 MUL ADD MLOAD PUSH2 0x7B4C JUMP JUMPDEST JUMPDEST POP JUMPDEST JUMPDEST DUP1 DUP1 PUSH1 0x1 ADD SWAP2 POP POP PUSH2 0x78B4 JUMP JUMPDEST POP POP POP POP POP JUMP JUMPDEST PUSH0 PUSH32 0x0 SWAP1 POP DUP2 PUSH1 0xB PUSH0 DUP4 PUSH20 0xFFFFFFFFFFFFFFFFFFFFFFFFFFFFFFFFFFFFFFFF AND PUSH20 0xFFFFFFFFFFFFFFFFFFFFFFFFFFFFFFFFFFFFFFFF AND DUP2 MSTORE PUSH1 0x20 ADD SWAP1 DUP2 MSTORE PUSH1 0x20 ADD PUSH0 KECCAK256 SLOAD PUSH2 0x7BB9 SWAP2 SWAP1 PUSH2 0x86EE JUMP JUMPDEST PUSH1 0xB PUSH0 DUP4 PUSH20 0xFFFFFFFFFFFFFFFFFFFFFFFFFFFFFFFFFFFFFFFF AND PUSH20 0xFFFFFFFFFFFFFFFFFFFFFFFFFFFFFFFFFFFFFFFF AND DUP2 MSTORE PUSH1 0x20 ADD SWAP1 DUP2 MSTORE PUSH1 0x20 ADD PUSH0 KECCAK256 DUP2 SWAP1 SSTORE POP DUP2 PUSH1 0xB PUSH0 DUP6 PUSH20 0xFFFFFFFFFFFFFFFFFFFFFFFFFFFFFFFFFFFFFFFF AND PUSH20 0xFFFFFFFFFFFFFFFFFFFFFFFFFFFFFFFFFFFFFFFF AND DUP2 MSTORE PUSH1 0x20 ADD SWAP1 DUP2 MSTORE PUSH1 0x20 ADD PUSH0 KECCAK256 SLOAD PUSH2 0x7C43 SWAP2 SWAP1 PUSH2 0x8E35 JUMP JUMPDEST PUSH1 0xB PUSH0 DUP6 PUSH20 0xFFFFFFFFFFFFFFFFFFFFFFFFFFFFFFFFFFFFFFFF AND PUSH20 0xFFFFFFFFFFFFFFFFFFFFFFFFFFFFFFFFFFFFFFFF AND DUP2 MSTORE PUSH1 0x20 ADD SWAP1 DUP2 MSTORE PUSH1 0x20 ADD PUSH0 KECCAK256 DUP2 SWAP1 SSTORE POP DUP3 PUSH20 0xFFFFFFFFFFFFFFFFFFFFFFFFFFFFFFFFFFFFFFFF AND DUP2 PUSH20 0xFFFFFFFFFFFFFFFFFFFFFFFFFFFFFFFFFFFFFFFF AND PUSH32 0xDDF252AD1BE2C89B69C2B068FC378DAA952BA7F163C4A11628F55A4DF523B3EF DUP5 PUSH1 0x40 MLOAD PUSH2 0x7CE1 SWAP2 SWAP1 PUSH2 0x7D29 JUMP JUMPDEST PUSH1 0x40 MLOAD DUP1 SWAP2 SUB SWAP1 LOG3 POP POP POP JUMP JUMPDEST PUSH1 0x40 MLOAD DUP1 PUSH2 0x140 ADD PUSH1 0x40 MSTORE DUP1 PUSH1 0xA SWAP1 PUSH1 0x20 DUP3 MUL DUP1 CALLDATASIZE DUP4 CALLDATACOPY DUP1 DUP3 ADD SWAP2 POP POP SWAP1 POP POP SWAP1 JUMP JUMPDEST PUSH0 DUP2 SWAP1 POP SWAP2 SWAP1 POP JUMP JUMPDEST PUSH2 0x7D23 DUP2 PUSH2 0x7D11 JUMP JUMPDEST DUP3 MSTORE POP POP JUMP JUMPDEST PUSH0 PUSH1 0x20 DUP3 ADD SWAP1 POP PUSH2 0x7D3C PUSH0 DUP4 ADD DUP5 PUSH2 0x7D1A JUMP JUMPDEST SWAP3 SWAP2 POP POP JUMP JUMPDEST PUSH0 DUP2 MLOAD SWAP1 POP SWAP2 SWAP1 POP JUMP JUMPDEST PUSH0 DUP3 DUP3 MSTORE PUSH1 0x20 DUP3 ADD SWAP1 POP SWAP3 SWAP2 POP POP JUMP JUMPDEST DUP3 DUP2 DUP4 MCOPY PUSH0 DUP4 DUP4 ADD MSTORE POP POP POP JUMP JUMPDEST PUSH0 PUSH1 0x1F NOT PUSH1 0x1F DUP4 ADD AND SWAP1 POP SWAP2 SWAP1 POP JUMP JUMPDEST PUSH0 PUSH2 0x7D84 DUP3 PUSH2 0x7D42 JUMP JUMPDEST PUSH2 0x7D8E DUP2 DUP6 PUSH2 0x7D4C JUMP JUMPDEST SWAP4 POP PUSH2 0x7D9E DUP2 DUP6 PUSH1 0x20 DUP7 ADD PUSH2 0x7D5C JUMP JUMPDEST PUSH2 0x7DA7 DUP2 PUSH2 0x7D6A JUMP JUMPDEST DUP5 ADD SWAP2 POP POP SWAP3 SWAP2 POP POP JUMP JUMPDEST PUSH0 PUSH1 0x20 DUP3 ADD SWAP1 POP DUP2 DUP2 SUB PUSH0 DUP4 ADD MSTORE PUSH2 0x7DCA DUP2 DUP5 PUSH2 0x7D7A JUMP JUMPDEST SWAP1 POP SWAP3 SWAP2 POP POP JUMP JUMPDEST PUSH0 PUSH1 0x40 MLOAD SWAP1 POP SWAP1 JUMP JUMPDEST PUSH0 DUP1 REVERT JUMPDEST PUSH0 DUP1 REVERT JUMPDEST PUSH0 PUSH20 0xFFFFFFFFFFFFFFFFFFFFFFFFFFFFFFFFFFFFFFFF DUP3 AND SWAP1 POP SWAP2 SWAP1 POP JUMP JUMPDEST PUSH0 PUSH2 0x7E0C DUP3 PUSH2 0x7DE3 JUMP JUMPDEST SWAP1 POP SWAP2 SWAP1 POP JUMP JUMPDEST PUSH2 0x7E1C DUP2 PUSH2 0x7E02 JUMP JUMPDEST DUP2 EQ PUSH2 0x7E26 JUMPI PUSH0 DUP1 REVERT JUMPDEST POP JUMP JUMPDEST PUSH0 DUP2 CALLDATALOAD SWAP1 POP PUSH2 0x7E37 DUP2 PUSH2 0x7E13 JUMP JUMPDEST SWAP3 SWAP2 POP POP JUMP JUMPDEST PUSH2 0x7E46 DUP2 PUSH2 0x7D11 JUMP JUMPDEST DUP2 EQ PUSH2 0x7E50 JUMPI PUSH0 DUP1 REVERT JUMPDEST POP JUMP JUMPDEST PUSH0 DUP2 CALLDATALOAD SWAP1 POP PUSH2 0x7E61 DUP2 PUSH2 0x7E3D JUMP JUMPDEST SWAP3 SWAP2 POP POP JUMP JUMPDEST PUSH0 DUP1 PUSH1 0x40 DUP4 DUP6 SUB SLT ISZERO PUSH2 0x7E7D JUMPI PUSH2 0x7E7C PUSH2 0x7DDB JUMP JUMPDEST JUMPDEST PUSH0 PUSH2 0x7E8A DUP6 DUP3 DUP7 ADD PUSH2 0x7E29 JUMP JUMPDEST SWAP3 POP POP PUSH1 0x20 PUSH2 0x7E9B DUP6 DUP3 DUP7 ADD PUSH2 0x7E53 JUMP JUMPDEST SWAP2 POP POP SWAP3 POP SWAP3 SWAP1 POP JUMP JUMPDEST PUSH0 DUP2 ISZERO ISZERO SWAP1 POP SWAP2 SWAP1 POP JUMP JUMPDEST PUSH2 0x7EB9 DUP2 PUSH2 0x7EA5 JUMP JUMPDEST DUP3 MSTORE POP POP JUMP JUMPDEST PUSH0 PUSH1 0x20 DUP3 ADD SWAP1 POP PUSH2 0x7ED2 PUSH0 DUP4 ADD DUP5 PUSH2 0x7EB0 JUMP JUMPDEST SWAP3 SWAP2 POP POP JUMP JUMPDEST PUSH2 0x7EE1 DUP2 PUSH2 0x7EA5 JUMP JUMPDEST DUP2 EQ PUSH2 0x7EEB JUMPI PUSH0 DUP1 REVERT JUMPDEST POP JUMP JUMPDEST PUSH0 DUP2 CALLDATALOAD SWAP1 POP PUSH2 0x7EFC DUP2 PUSH2 0x7ED8 JUMP JUMPDEST SWAP3 SWAP2 POP POP JUMP JUMPDEST PUSH0 DUP1 PUSH1 0x40 DUP4 DUP6 SUB SLT ISZERO PUSH2 0x7F18 JUMPI PUSH2 0x7F17 PUSH2 0x7DDB JUMP JUMPDEST JUMPDEST PUSH0 PUSH2 0x7F25 DUP6 DUP3 DUP7 ADD PUSH2 0x7E29 JUMP JUMPDEST SWAP3 POP POP PUSH1 0x20 PUSH2 0x7F36 DUP6 DUP3 DUP7 ADD PUSH2 0x7EEE JUMP JUMPDEST SWAP2 POP POP SWAP3 POP SWAP3 SWAP1 POP JUMP JUMPDEST PUSH0 PUSH1 0x20 DUP3 DUP5 SUB SLT ISZERO PUSH2 0x7F55 JUMPI PUSH2 0x7F54 PUSH2 0x7DDB JUMP JUMPDEST JUMPDEST PUSH0 PUSH2 0x7F62 DUP5 DUP3 DUP6 ADD PUSH2 0x7E29 JUMP JUMPDEST SWAP2 POP POP SWAP3 SWAP2 POP POP JUMP JUMPDEST PUSH0 PUSH1 0x40 DUP3 ADD SWAP1 POP PUSH2 0x7F7E PUSH0 DUP4 ADD DUP6 PUSH2 0x7D1A JUMP JUMPDEST PUSH2 0x7F8B PUSH1 0x20 DUP4 ADD DUP5 PUSH2 0x7D1A JUMP JUMPDEST SWAP4 SWAP3 POP POP POP JUMP JUMPDEST PUSH0 DUP2 SWAP1 POP SWAP2 SWAP1 POP JUMP JUMPDEST PUSH0 PUSH2 0x7FB5 PUSH2 0x7FB0 PUSH2 0x7FAB DUP5 PUSH2 0x7DE3 JUMP JUMPDEST PUSH2 0x7F92 JUMP JUMPDEST PUSH2 0x7DE3 JUMP JUMPDEST SWAP1 POP SWAP2 SWAP1 POP JUMP JUMPDEST PUSH0 PUSH2 0x7FC6 DUP3 PUSH2 0x7F9B JUMP JUMPDEST SWAP1 POP SWAP2 SWAP1 POP JUMP JUMPDEST PUSH0 PUSH2 0x7FD7 DUP3 PUSH2 0x7FBC JUMP JUMPDEST SWAP1 POP SWAP2 SWAP1 POP JUMP JUMPDEST PUSH2 0x7FE7 DUP2 PUSH2 0x7FCD JUMP JUMPDEST DUP3 MSTORE POP POP JUMP JUMPDEST PUSH0 PUSH1 0x20 DUP3 ADD SWAP1 POP PUSH2 0x8000 PUSH0 DUP4 ADD DUP5 PUSH2 0x7FDE JUMP JUMPDEST SWAP3 SWAP2 POP POP JUMP JUMPDEST PUSH0 DUP1 PUSH0 PUSH1 0x60 DUP5 DUP7 SUB SLT ISZERO PUSH2 0x801D JUMPI PUSH2 0x801C PUSH2 0x7DDB JUMP JUMPDEST JUMPDEST PUSH0 PUSH2 0x802A DUP7 DUP3 DUP8 ADD PUSH2 0x7E29 JUMP JUMPDEST SWAP4 POP POP PUSH1 0x20 PUSH2 0x803B DUP7 DUP3 DUP8 ADD PUSH2 0x7E29 JUMP JUMPDEST SWAP3 POP POP PUSH1 0x40 PUSH2 0x804C DUP7 DUP3 DUP8 ADD PUSH2 0x7E53 JUMP JUMPDEST SWAP2 POP POP SWAP3 POP SWAP3 POP SWAP3 JUMP JUMPDEST PUSH0 DUP1 REVERT JUMPDEST PUSH32 0x4E487B7100000000000000000000000000000000000000000000000000000000 PUSH0 MSTORE PUSH1 0x41 PUSH1 0x4 MSTORE PUSH1 0x24 PUSH0 REVERT JUMPDEST PUSH2 0x8090 DUP3 PUSH2 0x7D6A JUMP JUMPDEST DUP2 ADD DUP2 DUP2 LT PUSH8 0xFFFFFFFFFFFFFFFF DUP3 GT OR ISZERO PUSH2 0x80AF JUMPI PUSH2 0x80AE PUSH2 0x805A JUMP JUMPDEST JUMPDEST DUP1 PUSH1 0x40 MSTORE POP POP POP JUMP JUMPDEST PUSH0 PUSH2 0x80C1 PUSH2 0x7DD2 JUMP JUMPDEST SWAP1 POP PUSH2 0x80CD DUP3 DUP3 PUSH2 0x8087 JUMP JUMPDEST SWAP2 SWAP1 POP JUMP JUMPDEST PUSH0 PUSH8 0xFFFFFFFFFFFFFFFF DUP3 GT ISZERO PUSH2 0x80EC JUMPI PUSH2 0x80EB PUSH2 0x805A JUMP JUMPDEST JUMPDEST PUSH1 0x20 DUP3 MUL SWAP1 POP PUSH1 0x20 DUP2 ADD SWAP1 POP SWAP2 SWAP1 POP JUMP JUMPDEST PUSH0 DUP1 REVERT JUMPDEST PUSH0 PUSH2 0x8113 PUSH2 0x810E DUP5 PUSH2 0x80D2 JUMP JUMPDEST PUSH2 0x80B8 JUMP JUMPDEST SWAP1 POP DUP1 DUP4 DUP3 MSTORE PUSH1 0x20 DUP3 ADD SWAP1 POP PUSH1 0x20 DUP5 MUL DUP4 ADD DUP6 DUP2 GT ISZERO PUSH2 0x8136 JUMPI PUSH2 0x8135 PUSH2 0x80FD JUMP JUMPDEST JUMPDEST DUP4 JUMPDEST DUP2 DUP2 LT ISZERO PUSH2 0x815F JUMPI DUP1 PUSH2 0x814B DUP9 DUP3 PUSH2 0x7E29 JUMP JUMPDEST DUP5 MSTORE PUSH1 0x20 DUP5 ADD SWAP4 POP POP PUSH1 0x20 DUP2 ADD SWAP1 POP PUSH2 0x8138 JUMP JUMPDEST POP POP POP SWAP4 SWAP3 POP POP POP JUMP JUMPDEST PUSH0 DUP3 PUSH1 0x1F DUP4 ADD SLT PUSH2 0x817D JUMPI PUSH2 0x817C PUSH2 0x8056 JUMP JUMPDEST JUMPDEST DUP2 CALLDATALOAD PUSH2 0x818D DUP5 DUP3 PUSH1 0x20 DUP7 ADD PUSH2 0x8101 JUMP JUMPDEST SWAP2 POP POP SWAP3 SWAP2 POP POP JUMP JUMPDEST PUSH0 PUSH1 0x20 DUP3 DUP5 SUB SLT ISZERO PUSH2 0x81AB JUMPI PUSH2 0x81AA PUSH2 0x7DDB JUMP JUMPDEST JUMPDEST PUSH0 DUP3 ADD CALLDATALOAD PUSH8 0xFFFFFFFFFFFFFFFF DUP2 GT ISZERO PUSH2 0x81C8 JUMPI PUSH2 0x81C7 PUSH2 0x7DDF JUMP JUMPDEST JUMPDEST PUSH2 0x81D4 DUP5 DUP3 DUP6 ADD PUSH2 0x8169 JUMP JUMPDEST SWAP2 POP POP SWAP3 SWAP2 POP POP JUMP JUMPDEST PUSH0 PUSH1 0xFF DUP3 AND SWAP1 POP SWAP2 SWAP1 POP JUMP JUMPDEST PUSH2 0x81F2 DUP2 PUSH2 0x81DD JUMP JUMPDEST DUP3 MSTORE POP POP JUMP JUMPDEST PUSH0 PUSH1 0x20 DUP3 ADD SWAP1 POP PUSH2 0x820B PUSH0 DUP4 ADD DUP5 PUSH2 0x81E9 JUMP JUMPDEST SWAP3 SWAP2 POP POP JUMP JUMPDEST PUSH2 0x821A DUP2 PUSH2 0x7E02 JUMP JUMPDEST DUP3 MSTORE POP POP JUMP JUMPDEST PUSH0 PUSH1 0x20 DUP3 ADD SWAP1 POP PUSH2 0x8233 PUSH0 DUP4 ADD DUP5 PUSH2 0x8211 JUMP JUMPDEST SWAP3 SWAP2 POP POP JUMP JUMPDEST PUSH0 PUSH1 0xE0 DUP3 ADD SWAP1 POP PUSH2 0x824C PUSH0 DUP4 ADD DUP11 PUSH2 0x7D1A JUMP JUMPDEST PUSH2 0x8259 PUSH1 0x20 DUP4 ADD DUP10 PUSH2 0x7D1A JUMP JUMPDEST PUSH2 0x8266 PUSH1 0x40 DUP4 ADD DUP9 PUSH2 0x7EB0 JUMP JUMPDEST PUSH2 0x8273 PUSH1 0x60 DUP4 ADD DUP8 PUSH2 0x7D1A JUMP JUMPDEST PUSH2 0x8280 PUSH1 0x80 DUP4 ADD DUP7 PUSH2 0x7D1A JUMP JUMPDEST PUSH2 0x828D PUSH1 0xA0 DUP4 ADD DUP6 PUSH2 0x8211 JUMP JUMPDEST PUSH2 0x829A PUSH1 0xC0 DUP4 ADD DUP5 PUSH2 0x7D1A JUMP JUMPDEST SWAP9 SWAP8 POP POP POP POP POP POP POP POP JUMP JUMPDEST PUSH0 DUP1 PUSH1 0x40 DUP4 DUP6 SUB SLT ISZERO PUSH2 0x82BC JUMPI PUSH2 0x82BB PUSH2 0x7DDB JUMP JUMPDEST JUMPDEST PUSH0 PUSH2 0x82C9 DUP6 DUP3 DUP7 ADD PUSH2 0x7E53 JUMP JUMPDEST SWAP3 POP POP PUSH1 0x20 PUSH2 0x82DA DUP6 DUP3 DUP7 ADD PUSH2 0x7E53 JUMP JUMPDEST SWAP2 POP POP SWAP3 POP SWAP3 SWAP1 POP JUMP JUMPDEST PUSH0 DUP1 PUSH0 PUSH1 0x60 DUP5 DUP7 SUB SLT ISZERO PUSH2 0x82FB JUMPI PUSH2 0x82FA PUSH2 0x7DDB JUMP JUMPDEST JUMPDEST PUSH0 PUSH2 0x8308 DUP7 DUP3 DUP8 ADD PUSH2 0x7E53 JUMP JUMPDEST SWAP4 POP POP PUSH1 0x20 PUSH2 0x8319 DUP7 DUP3 DUP8 ADD PUSH2 0x7E53 JUMP JUMPDEST SWAP3 POP POP PUSH1 0x40 PUSH2 0x832A DUP7 DUP3 DUP8 ADD PUSH2 0x7EEE JUMP JUMPDEST SWAP2 POP POP SWAP3 POP SWAP3 POP SWAP3 JUMP JUMPDEST PUSH0 PUSH2 0x833E DUP3 PUSH2 0x7FBC JUMP JUMPDEST SWAP1 POP SWAP2 SWAP1 POP JUMP JUMPDEST PUSH2 0x834E DUP2 PUSH2 0x8334 JUMP JUMPDEST DUP3 MSTORE POP POP JUMP JUMPDEST PUSH0 PUSH1 0x20 DUP3 ADD SWAP1 POP PUSH2 0x8367 PUSH0 DUP4 ADD DUP5 PUSH2 0x8345 JUMP JUMPDEST SWAP3 SWAP2 POP POP JUMP JUMPDEST PUSH0 PUSH1 0x20 DUP3 DUP5 SUB SLT ISZERO PUSH2 0x8382 JUMPI PUSH2 0x8381 PUSH2 0x7DDB JUMP JUMPDEST JUMPDEST PUSH0 PUSH2 0x838F DUP5 DUP3 DUP6 ADD PUSH2 0x7E53 JUMP JUMPDEST SWAP2 POP POP SWAP3 SWAP2 POP POP JUMP JUMPDEST PUSH0 DUP1 PUSH1 0x40 DUP4 DUP6 SUB SLT ISZERO PUSH2 0x83AE JUMPI PUSH2 0x83AD PUSH2 0x7DDB JUMP JUMPDEST JUMPDEST PUSH0 PUSH2 0x83BB DUP6 DUP3 DUP7 ADD PUSH2 0x7E29 JUMP JUMPDEST SWAP3 POP POP PUSH1 0x20 PUSH2 0x83CC DUP6 DUP3 DUP7 ADD PUSH2 0x7E29 JUMP JUMPDEST SWAP2 POP POP SWAP3 POP SWAP3 SWAP1 POP JUMP JUMPDEST PUSH0 DUP1 PUSH1 0x40 DUP4 DUP6 SUB SLT ISZERO PUSH2 0x83EC JUMPI PUSH2 0x83EB PUSH2 0x7DDB JUMP JUMPDEST JUMPDEST PUSH0 DUP4 ADD CALLDATALOAD PUSH8 0xFFFFFFFFFFFFFFFF DUP2 GT ISZERO PUSH2 0x8409 JUMPI PUSH2 0x8408 PUSH2 0x7DDF JUMP JUMPDEST JUMPDEST PUSH2 0x8415 DUP6 DUP3 DUP7 ADD PUSH2 0x8169 JUMP JUMPDEST SWAP3 POP POP PUSH1 0x20 PUSH2 0x8426 DUP6 DUP3 DUP7 ADD PUSH2 0x7EEE JUMP JUMPDEST SWAP2 POP POP SWAP3 POP SWAP3 SWAP1 POP JUMP JUMPDEST PUSH0 PUSH1 0xA SWAP1 POP SWAP2 SWAP1 POP JUMP JUMPDEST PUSH0 DUP2 SWAP1 POP SWAP3 SWAP2 POP POP JUMP JUMPDEST PUSH0 DUP2 SWAP1 POP SWAP2 SWAP1 POP JUMP JUMPDEST PUSH2 0x8456 DUP2 PUSH2 0x7D11 JUMP JUMPDEST DUP3 MSTORE POP POP JUMP JUMPDEST PUSH0 PUSH2 0x8467 DUP4 DUP4 PUSH2 0x844D JUMP JUMPDEST PUSH1 0x20 DUP4 ADD SWAP1 POP SWAP3 SWAP2 POP POP JUMP JUMPDEST PUSH0 PUSH1 0x20 DUP3 ADD SWAP1 POP SWAP2 SWAP1 POP JUMP JUMPDEST PUSH2 0x8488 DUP2 PUSH2 0x8430 JUMP JUMPDEST PUSH2 0x8492 DUP2 DUP5 PUSH2 0x843A JUMP JUMPDEST SWAP3 POP PUSH2 0x849D DUP3 PUSH2 0x8444 JUMP JUMPDEST DUP1 PUSH0 JUMPDEST DUP4 DUP2 LT ISZERO PUSH2 0x84CD JUMPI DUP2 MLOAD PUSH2 0x84B4 DUP8 DUP3 PUSH2 0x845C JUMP JUMPDEST SWAP7 POP PUSH2 0x84BF DUP4 PUSH2 0x8473 JUMP JUMPDEST SWAP3 POP POP PUSH1 0x1 DUP2 ADD SWAP1 POP PUSH2 0x84A0 JUMP JUMPDEST POP POP POP POP POP POP JUMP JUMPDEST PUSH0 PUSH2 0x140 DUP3 ADD SWAP1 POP PUSH2 0x84E9 PUSH0 DUP4 ADD DUP5 PUSH2 0x847F JUMP JUMPDEST SWAP3 SWAP2 POP POP JUMP JUMPDEST PUSH32 0x4E487B7100000000000000000000000000000000000000000000000000000000 PUSH0 MSTORE PUSH1 0x22 PUSH1 0x4 MSTORE PUSH1 0x24 PUSH0 REVERT JUMPDEST PUSH0 PUSH1 0x2 DUP3 DIV SWAP1 POP PUSH1 0x1 DUP3 AND DUP1 PUSH2 0x8533 JUMPI PUSH1 0x7F DUP3 AND SWAP2 POP JUMPDEST PUSH1 0x20 DUP3 LT DUP2 SUB PUSH2 0x8546 JUMPI PUSH2 0x8545 PUSH2 0x84EF JUMP JUMPDEST JUMPDEST POP SWAP2 SWAP1 POP JUMP JUMPDEST PUSH32 0x216F000000000000000000000000000000000000000000000000000000000000 PUSH0 DUP3 ADD MSTORE POP JUMP JUMPDEST PUSH0 PUSH2 0x8580 PUSH1 0x2 DUP4 PUSH2 0x7D4C JUMP JUMPDEST SWAP2 POP PUSH2 0x858B DUP3 PUSH2 0x854C JUMP JUMPDEST PUSH1 0x20 DUP3 ADD SWAP1 POP SWAP2 SWAP1 POP JUMP JUMPDEST PUSH0 PUSH1 0x20 DUP3 ADD SWAP1 POP DUP2 DUP2 SUB PUSH0 DUP4 ADD MSTORE PUSH2 0x85AD DUP2 PUSH2 0x8574 JUMP JUMPDEST SWAP1 POP SWAP2 SWAP1 POP JUMP JUMPDEST PUSH32 0x6E77000000000000000000000000000000000000000000000000000000000000 PUSH0 DUP3 ADD MSTORE POP JUMP JUMPDEST PUSH0 PUSH2 0x85E8 PUSH1 0x2 DUP4 PUSH2 0x7D4C JUMP JUMPDEST SWAP2 POP PUSH2 0x85F3 DUP3 PUSH2 0x85B4 JUMP JUMPDEST PUSH1 0x20 DUP3 ADD SWAP1 POP SWAP2 SWAP1 POP JUMP JUMPDEST PUSH0 PUSH1 0x20 DUP3 ADD SWAP1 POP DUP2 DUP2 SUB PUSH0 DUP4 ADD MSTORE PUSH2 0x8615 DUP2 PUSH2 0x85DC JUMP JUMPDEST SWAP1 POP SWAP2 SWAP1 POP JUMP JUMPDEST PUSH0 PUSH1 0x40 DUP3 ADD SWAP1 POP PUSH2 0x862F PUSH0 DUP4 ADD DUP6 PUSH2 0x8211 JUMP JUMPDEST PUSH2 0x863C PUSH1 0x20 DUP4 ADD DUP5 PUSH2 0x7D1A JUMP JUMPDEST SWAP4 SWAP3 POP POP POP JUMP JUMPDEST PUSH0 DUP2 MLOAD SWAP1 POP PUSH2 0x8651 DUP2 PUSH2 0x7ED8 JUMP JUMPDEST SWAP3 SWAP2 POP POP JUMP JUMPDEST PUSH0 PUSH1 0x20 DUP3 DUP5 SUB SLT ISZERO PUSH2 0x866C JUMPI PUSH2 0x866B PUSH2 0x7DDB JUMP JUMPDEST JUMPDEST PUSH0 PUSH2 0x8679 DUP5 DUP3 DUP6 ADD PUSH2 0x8643 JUMP JUMPDEST SWAP2 POP POP SWAP3 SWAP2 POP POP JUMP JUMPDEST PUSH0 DUP2 MLOAD SWAP1 POP PUSH2 0x8690 DUP2 PUSH2 0x7E3D JUMP JUMPDEST SWAP3 SWAP2 POP POP JUMP JUMPDEST PUSH0 PUSH1 0x20 DUP3 DUP5 SUB SLT ISZERO PUSH2 0x86AB JUMPI PUSH2 0x86AA PUSH2 0x7DDB JUMP JUMPDEST JUMPDEST PUSH0 PUSH2 0x86B8 DUP5 DUP3 DUP6 ADD PUSH2 0x8682 JUMP JUMPDEST SWAP2 POP POP SWAP3 SWAP2 POP POP JUMP JUMPDEST PUSH32 0x4E487B7100000000000000000000000000000000000000000000000000000000 PUSH0 MSTORE PUSH1 0x11 PUSH1 0x4 MSTORE PUSH1 0x24 PUSH0 REVERT JUMPDEST PUSH0 PUSH2 0x86F8 DUP3 PUSH2 0x7D11 JUMP JUMPDEST SWAP2 POP PUSH2 0x8703 DUP4 PUSH2 0x7D11 JUMP JUMPDEST SWAP3 POP DUP3 DUP3 SUB SWAP1 POP DUP2 DUP2 GT ISZERO PUSH2 0x871B JUMPI PUSH2 0x871A PUSH2 0x86C1 JUMP JUMPDEST JUMPDEST SWAP3 SWAP2 POP POP JUMP JUMPDEST PUSH32 0x4E6F206164647265737365732070726F76696465640000000000000000000000 PUSH0 DUP3 ADD MSTORE POP JUMP JUMPDEST PUSH0 PUSH2 0x8755 PUSH1 0x15 DUP4 PUSH2 0x7D4C JUMP JUMPDEST SWAP2 POP PUSH2 0x8760 DUP3 PUSH2 0x8721 JUMP JUMPDEST PUSH1 0x20 DUP3 ADD SWAP1 POP SWAP2 SWAP1 POP JUMP JUMPDEST PUSH0 PUSH1 0x20 DUP3 ADD SWAP1 POP DUP2 DUP2 SUB PUSH0 DUP4 ADD MSTORE PUSH2 0x8782 DUP2 PUSH2 0x8749 JUMP JUMPDEST SWAP1 POP SWAP2 SWAP1 POP JUMP JUMPDEST PUSH32 0x4E487B7100000000000000000000000000000000000000000000000000000000 PUSH0 MSTORE PUSH1 0x32 PUSH1 0x4 MSTORE PUSH1 0x24 PUSH0 REVERT JUMPDEST PUSH32 0x496E76616C69642064657374726F7946656520616D6F756E7400000000000000 PUSH0 DUP3 ADD MSTORE POP JUMP JUMPDEST PUSH0 PUSH2 0x87EA PUSH1 0x19 DUP4 PUSH2 0x7D4C JUMP JUMPDEST SWAP2 POP PUSH2 0x87F5 DUP3 PUSH2 0x87B6 JUMP JUMPDEST PUSH1 0x20 DUP3 ADD SWAP1 POP SWAP2 SWAP1 POP JUMP JUMPDEST PUSH0 PUSH1 0x20 DUP3 ADD SWAP1 POP DUP2 DUP2 SUB PUSH0 DUP4 ADD MSTORE PUSH2 0x8817 DUP2 PUSH2 0x87DE JUMP JUMPDEST SWAP1 POP SWAP2 SWAP1 POP JUMP JUMPDEST PUSH32 0x496E76616C69642073656C6C52657365727665506F6F6C46656520616D6F756E PUSH0 DUP3 ADD MSTORE PUSH32 0x7400000000000000000000000000000000000000000000000000000000000000 PUSH1 0x20 DUP3 ADD MSTORE POP JUMP JUMPDEST PUSH0 PUSH2 0x8878 PUSH1 0x21 DUP4 PUSH2 0x7D4C JUMP JUMPDEST SWAP2 POP PUSH2 0x8883 DUP3 PUSH2 0x881E JUMP JUMPDEST PUSH1 0x40 DUP3 ADD SWAP1 POP SWAP2 SWAP1 POP JUMP JUMPDEST PUSH0 PUSH1 0x20 DUP3 ADD SWAP1 POP DUP2 DUP2 SUB PUSH0 DUP4 ADD MSTORE PUSH2 0x88A5 DUP2 PUSH2 0x886C JUMP JUMPDEST SWAP1 POP SWAP2 SWAP1 POP JUMP JUMPDEST PUSH32 0x5400000000000000000000000000000000000000000000000000000000000000 PUSH0 DUP3 ADD MSTORE POP JUMP JUMPDEST PUSH0 PUSH2 0x88E0 PUSH1 0x1 DUP4 PUSH2 0x7D4C JUMP JUMPDEST SWAP2 POP PUSH2 0x88EB DUP3 PUSH2 0x88AC JUMP JUMPDEST PUSH1 0x20 DUP3 ADD SWAP1 POP SWAP2 SWAP1 POP JUMP JUMPDEST PUSH0 PUSH1 0x20 DUP3 ADD SWAP1 POP DUP2 DUP2 SUB PUSH0 DUP4 ADD MSTORE PUSH2 0x890D DUP2 PUSH2 0x88D4 JUMP JUMPDEST SWAP1 POP SWAP2 SWAP1 POP JUMP JUMPDEST PUSH32 0x63616E6E6F7420736574206275796261636B206D6F7265206F6674656E207468 PUSH0 DUP3 ADD MSTORE PUSH32 0x616E206576657279203130206D696E7574657300000000000000000000000000 PUSH1 0x20 DUP3 ADD MSTORE POP JUMP JUMPDEST PUSH0 PUSH2 0x896E PUSH1 0x33 DUP4 PUSH2 0x7D4C JUMP JUMPDEST SWAP2 POP PUSH2 0x8979 DUP3 PUSH2 0x8914 JUMP JUMPDEST PUSH1 0x40 DUP3 ADD SWAP1 POP SWAP2 SWAP1 POP JUMP JUMPDEST PUSH0 PUSH1 0x20 DUP3 ADD SWAP1 POP DUP2 DUP2 SUB PUSH0 DUP4 ADD MSTORE PUSH2 0x899B DUP2 PUSH2 0x8962 JUMP JUMPDEST SWAP1 POP SWAP2 SWAP1 POP JUMP JUMPDEST PUSH32 0x4D75737420736574206175746F204C50206275726E2070657263656E74206265 PUSH0 DUP3 ADD MSTORE PUSH32 0x747765656E20302520616E642031302500000000000000000000000000000000 PUSH1 0x20 DUP3 ADD MSTORE POP JUMP JUMPDEST PUSH0 PUSH2 0x89FC PUSH1 0x30 DUP4 PUSH2 0x7D4C JUMP JUMPDEST SWAP2 POP PUSH2 0x8A07 DUP3 PUSH2 0x89A2 JUMP JUMPDEST PUSH1 0x40 DUP3 ADD SWAP1 POP SWAP2 SWAP1 POP JUMP JUMPDEST PUSH0 PUSH1 0x20 DUP3 ADD SWAP1 POP DUP2 DUP2 SUB PUSH0 DUP4 ADD MSTORE PUSH2 0x8A29 DUP2 PUSH2 0x89F0 JUMP JUMPDEST SWAP1 POP SWAP2 SWAP1 POP JUMP JUMPDEST PUSH0 PUSH14 0xFFFFFFFFFFFFFFFFFFFFFFFFFFFF DUP3 AND SWAP1 POP SWAP2 SWAP1 POP JUMP JUMPDEST PUSH2 0x8A52 DUP2 PUSH2 0x8A30 JUMP JUMPDEST DUP2 EQ PUSH2 0x8A5C JUMPI PUSH0 DUP1 REVERT JUMPDEST POP JUMP JUMPDEST PUSH0 DUP2 MLOAD SWAP1 POP PUSH2 0x8A6D DUP2 PUSH2 0x8A49 JUMP JUMPDEST SWAP3 SWAP2 POP POP JUMP JUMPDEST PUSH0 PUSH4 0xFFFFFFFF DUP3 AND SWAP1 POP SWAP2 SWAP1 POP JUMP JUMPDEST PUSH2 0x8A8B DUP2 PUSH2 0x8A73 JUMP JUMPDEST DUP2 EQ PUSH2 0x8A95 JUMPI PUSH0 DUP1 REVERT JUMPDEST POP JUMP JUMPDEST PUSH0 DUP2 MLOAD SWAP1 POP PUSH2 0x8AA6 DUP2 PUSH2 0x8A82 JUMP JUMPDEST SWAP3 SWAP2 POP POP JUMP JUMPDEST PUSH0 DUP1 PUSH0 PUSH1 0x60 DUP5 DUP7 SUB SLT ISZERO PUSH2 0x8AC3 JUMPI PUSH2 0x8AC2 PUSH2 0x7DDB JUMP JUMPDEST JUMPDEST PUSH0 PUSH2 0x8AD0 DUP7 DUP3 DUP8 ADD PUSH2 0x8A5F JUMP JUMPDEST SWAP4 POP POP PUSH1 0x20 PUSH2 0x8AE1 DUP7 DUP3 DUP8 ADD PUSH2 0x8A5F JUMP JUMPDEST SWAP3 POP POP PUSH1 0x40 PUSH2 0x8AF2 DUP7 DUP3 DUP8 ADD PUSH2 0x8A98 JUMP JUMPDEST SWAP2 POP POP SWAP3 POP SWAP3 POP SWAP3 JUMP JUMPDEST PUSH0 DUP2 PUSH1 0x1 SHR SWAP1 POP SWAP2 SWAP1 POP JUMP JUMPDEST PUSH0 DUP1 DUP3 SWAP2 POP DUP4 SWAP1 POP JUMPDEST PUSH1 0x1 DUP6 GT ISZERO PUSH2 0x8B51 JUMPI DUP1 DUP7 DIV DUP2 GT ISZERO PUSH2 0x8B2D JUMPI PUSH2 0x8B2C PUSH2 0x86C1 JUMP JUMPDEST JUMPDEST PUSH1 0x1 DUP6 AND ISZERO PUSH2 0x8B3C JUMPI DUP1 DUP3 MUL SWAP2 POP JUMPDEST DUP1 DUP2 MUL SWAP1 POP PUSH2 0x8B4A DUP6 PUSH2 0x8AFC JUMP JUMPDEST SWAP5 POP PUSH2 0x8B11 JUMP JUMPDEST SWAP5 POP SWAP5 SWAP3 POP POP POP JUMP JUMPDEST PUSH0 DUP3 PUSH2 0x8B69 JUMPI PUSH1 0x1 SWAP1 POP PUSH2 0x8C24 JUMP JUMPDEST DUP2 PUSH2 0x8B76 JUMPI PUSH0 SWAP1 POP PUSH2 0x8C24 JUMP JUMPDEST DUP2 PUSH1 0x1 DUP2 EQ PUSH2 0x8B8C JUMPI PUSH1 0x2 DUP2 EQ PUSH2 0x8B96 JUMPI PUSH2 0x8BC5 JUMP JUMPDEST PUSH1 0x1 SWAP2 POP POP PUSH2 0x8C24 JUMP JUMPDEST PUSH1 0xFF DUP5 GT ISZERO PUSH2 0x8BA8 JUMPI PUSH2 0x8BA7 PUSH2 0x86C1 JUMP JUMPDEST JUMPDEST DUP4 PUSH1 0x2 EXP SWAP2 POP DUP5 DUP3 GT ISZERO PUSH2 0x8BBF JUMPI PUSH2 0x8BBE PUSH2 0x86C1 JUMP JUMPDEST JUMPDEST POP PUSH2 0x8C24 JUMP JUMPDEST POP PUSH1 0x20 DUP4 LT PUSH2 0x133 DUP4 LT AND PUSH1 0x4E DUP5 LT PUSH1 0xB DUP5 LT AND OR ISZERO PUSH2 0x8BFA JUMPI DUP3 DUP3 EXP SWAP1 POP DUP4 DUP2 GT ISZERO PUSH2 0x8BF5 JUMPI PUSH2 0x8BF4 PUSH2 0x86C1 JUMP JUMPDEST JUMPDEST PUSH2 0x8C24 JUMP JUMPDEST PUSH2 0x8C07 DUP5 DUP5 DUP5 PUSH1 0x1 PUSH2 0x8B08 JUMP JUMPDEST SWAP3 POP SWAP1 POP DUP2 DUP5 DIV DUP2 GT ISZERO PUSH2 0x8C1E JUMPI PUSH2 0x8C1D PUSH2 0x86C1 JUMP JUMPDEST JUMPDEST DUP2 DUP2 MUL SWAP1 POP JUMPDEST SWAP4 SWAP3 POP POP POP JUMP JUMPDEST PUSH0 PUSH2 0x8C35 DUP3 PUSH2 0x7D11 JUMP JUMPDEST SWAP2 POP PUSH2 0x8C40 DUP4 PUSH2 0x81DD JUMP JUMPDEST SWAP3 POP PUSH2 0x8C6D PUSH32 0xFFFFFFFFFFFFFFFFFFFFFFFFFFFFFFFFFFFFFFFFFFFFFFFFFFFFFFFFFFFFFFFF DUP5 DUP5 PUSH2 0x8B5A JUMP JUMPDEST SWAP1 POP SWAP3 SWAP2 POP POP JUMP JUMPDEST PUSH0 PUSH2 0x8C7F DUP3 PUSH2 0x7D11 JUMP JUMPDEST SWAP2 POP PUSH2 0x8C8A DUP4 PUSH2 0x7D11 JUMP JUMPDEST SWAP3 POP DUP3 DUP3 MUL PUSH2 0x8C98 DUP2 PUSH2 0x7D11 JUMP JUMPDEST SWAP2 POP DUP3 DUP3 DIV DUP5 EQ DUP4 ISZERO OR PUSH2 0x8CAF JUMPI PUSH2 0x8CAE PUSH2 0x86C1 JUMP JUMPDEST JUMPDEST POP SWAP3 SWAP2 POP POP JUMP JUMPDEST PUSH32 0x46756E64416464726573732063616E6E6F74206265207A65726F000000000000 PUSH0 DUP3 ADD MSTORE POP JUMP JUMPDEST PUSH0 PUSH2 0x8CEA PUSH1 0x1A DUP4 PUSH2 0x7D4C JUMP JUMPDEST SWAP2 POP PUSH2 0x8CF5 DUP3 PUSH2 0x8CB6 JUMP JUMPDEST PUSH1 0x20 DUP3 ADD SWAP1 POP SWAP2 SWAP1 POP JUMP JUMPDEST PUSH0 PUSH1 0x20 DUP3 ADD SWAP1 POP DUP2 DUP2 SUB PUSH0 DUP4 ADD MSTORE PUSH2 0x8D17 DUP2 PUSH2 0x8CDE JUMP JUMPDEST SWAP1 POP SWAP2 SWAP1 POP JUMP JUMPDEST PUSH0 PUSH2 0x8D28 DUP3 PUSH2 0x7D11 JUMP JUMPDEST SWAP2 POP PUSH32 0xFFFFFFFFFFFFFFFFFFFFFFFFFFFFFFFFFFFFFFFFFFFFFFFFFFFFFFFFFFFFFFFF DUP3 SUB PUSH2 0x8D5A JUMPI PUSH2 0x8D59 PUSH2 0x86C1 JUMP JUMPDEST JUMPDEST PUSH1 0x1 DUP3 ADD SWAP1 POP SWAP2 SWAP1 POP JUMP JUMPDEST PUSH32 0x32302D3530307700000000000000000000000000000000000000000000000000 PUSH0 DUP3 ADD MSTORE POP JUMP JUMPDEST PUSH0 PUSH2 0x8D99 PUSH1 0x7 DUP4 PUSH2 0x7D4C JUMP JUMPDEST SWAP2 POP PUSH2 0x8DA4 DUP3 PUSH2 0x8D65 JUMP JUMPDEST PUSH1 0x20 DUP3 ADD SWAP1 POP SWAP2 SWAP1 POP JUMP JUMPDEST PUSH0 PUSH1 0x20 DUP3 ADD SWAP1 POP DUP2 DUP2 SUB PUSH0 DUP4 ADD MSTORE PUSH2 0x8DC6 DUP2 PUSH2 0x8D8D JUMP JUMPDEST SWAP1 POP SWAP2 SWAP1 POP JUMP JUMPDEST PUSH32 0x4772656174657220746865203100000000000000000000000000000000000000 PUSH0 DUP3 ADD MSTORE POP JUMP JUMPDEST PUSH0 PUSH2 0x8E01 PUSH1 0xD DUP4 PUSH2 0x7D4C JUMP JUMPDEST SWAP2 POP PUSH2 0x8E0C DUP3 PUSH2 0x8DCD JUMP JUMPDEST PUSH1 0x20 DUP3 ADD SWAP1 POP SWAP2 SWAP1 POP JUMP JUMPDEST PUSH0 PUSH1 0x20 DUP3 ADD SWAP1 POP DUP2 DUP2 SUB PUSH0 DUP4 ADD MSTORE PUSH2 0x8E2E DUP2 PUSH2 0x8DF5 JUMP JUMPDEST SWAP1 POP SWAP2 SWAP1 POP JUMP JUMPDEST PUSH0 PUSH2 0x8E3F DUP3 PUSH2 0x7D11 JUMP JUMPDEST SWAP2 POP PUSH2 0x8E4A DUP4 PUSH2 0x7D11 JUMP JUMPDEST SWAP3 POP DUP3 DUP3 ADD SWAP1 POP DUP1 DUP3 GT ISZERO PUSH2 0x8E62 JUMPI PUSH2 0x8E61 PUSH2 0x86C1 JUMP JUMPDEST JUMPDEST SWAP3 SWAP2 POP POP JUMP JUMPDEST PUSH32 0x496E76616C69642046656520616D6F756E740000000000000000000000000000 PUSH0 DUP3 ADD MSTORE POP JUMP JUMPDEST PUSH0 PUSH2 0x8E9C PUSH1 0x12 DUP4 PUSH2 0x7D4C JUMP JUMPDEST SWAP2 POP PUSH2 0x8EA7 DUP3 PUSH2 0x8E68 JUMP JUMPDEST PUSH1 0x20 DUP3 ADD SWAP1 POP SWAP2 SWAP1 POP JUMP JUMPDEST PUSH0 PUSH1 0x20 DUP3 ADD SWAP1 POP DUP2 DUP2 SUB PUSH0 DUP4 ADD MSTORE PUSH2 0x8EC9 DUP2 PUSH2 0x8E90 JUMP JUMPDEST SWAP1 POP SWAP2 SWAP1 POP JUMP JUMPDEST PUSH0 DUP2 SWAP1 POP SWAP3 SWAP2 POP POP JUMP JUMPDEST POP JUMP JUMPDEST PUSH0 PUSH2 0x8EE8 PUSH0 DUP4 PUSH2 0x8ED0 JUMP JUMPDEST SWAP2 POP PUSH2 0x8EF3 DUP3 PUSH2 0x8EDA JUMP JUMPDEST PUSH0 DUP3 ADD SWAP1 POP SWAP2 SWAP1 POP JUMP JUMPDEST PUSH0 PUSH2 0x8F07 DUP3 PUSH2 0x8EDD JUMP JUMPDEST SWAP2 POP DUP2 SWAP1 POP SWAP2 SWAP1 POP JUMP JUMPDEST PUSH32 0x5472616E73666572206661696C65640000000000000000000000000000000000 PUSH0 DUP3 ADD MSTORE POP JUMP JUMPDEST PUSH0 PUSH2 0x8F45 PUSH1 0xF DUP4 PUSH2 0x7D4C JUMP JUMPDEST SWAP2 POP PUSH2 0x8F50 DUP3 PUSH2 0x8F11 JUMP JUMPDEST PUSH1 0x20 DUP3 ADD SWAP1 POP SWAP2 SWAP1 POP JUMP JUMPDEST PUSH0 PUSH1 0x20 DUP3 ADD SWAP1 POP DUP2 DUP2 SUB PUSH0 DUP4 ADD MSTORE PUSH2 0x8F72 DUP2 PUSH2 0x8F39 JUMP JUMPDEST SWAP1 POP SWAP2 SWAP1 POP JUMP JUMPDEST PUSH32 0x56616C75652073686F756C642062652030206F72203100000000000000000000 PUSH0 DUP3 ADD MSTORE POP JUMP JUMPDEST PUSH0 PUSH2 0x8FAD PUSH1 0x16 DUP4 PUSH2 0x7D4C JUMP JUMPDEST SWAP2 POP PUSH2 0x8FB8 DUP3 PUSH2 0x8F79 JUMP JUMPDEST PUSH1 0x20 DUP3 ADD SWAP1 POP SWAP2 SWAP1 POP JUMP JUMPDEST PUSH0 PUSH1 0x20 DUP3 ADD SWAP1 POP DUP2 DUP2 SUB PUSH0 DUP4 ADD MSTORE PUSH2 0x8FDA DUP2 PUSH2 0x8FA1 JUMP JUMPDEST SWAP1 POP SWAP2 SWAP1 POP JUMP JUMPDEST PUSH32 0x6E30000000000000000000000000000000000000000000000000000000000000 PUSH0 DUP3 ADD MSTORE POP JUMP JUMPDEST PUSH0 PUSH2 0x9015 PUSH1 0x2 DUP4 PUSH2 0x7D4C JUMP JUMPDEST SWAP2 POP PUSH2 0x9020 DUP3 PUSH2 0x8FE1 JUMP JUMPDEST PUSH1 0x20 DUP3 ADD SWAP1 POP SWAP2 SWAP1 POP JUMP JUMPDEST PUSH0 PUSH1 0x20 DUP3 ADD SWAP1 POP DUP2 DUP2 SUB PUSH0 DUP4 ADD MSTORE PUSH2 0x9042 DUP2 PUSH2 0x9009 JUMP JUMPDEST SWAP1 POP SWAP2 SWAP1 POP JUMP JUMPDEST PUSH32 0x496E76616C69642062757944657646656520616D6F756E740000000000000000 PUSH0 DUP3 ADD MSTORE POP JUMP JUMPDEST PUSH0 PUSH2 0x907D PUSH1 0x18 DUP4 PUSH2 0x7D4C JUMP JUMPDEST SWAP2 POP PUSH2 0x9088 DUP3 PUSH2 0x9049 JUMP JUMPDEST PUSH1 0x20 DUP3 ADD SWAP1 POP SWAP2 SWAP1 POP JUMP JUMPDEST PUSH0 PUSH1 0x20 DUP3 ADD SWAP1 POP DUP2 DUP2 SUB PUSH0 DUP4 ADD MSTORE PUSH2 0x90AA DUP2 PUSH2 0x9071 JUMP JUMPDEST SWAP1 POP SWAP2 SWAP1 POP JUMP JUMPDEST PUSH32 0x496E76616C69642066756E6446656520616D6F756E7400000000000000000000 PUSH0 DUP3 ADD MSTORE POP JUMP JUMPDEST PUSH0 PUSH2 0x90E5 PUSH1 0x16 DUP4 PUSH2 0x7D4C JUMP JUMPDEST SWAP2 POP PUSH2 0x90F0 DUP3 PUSH2 0x90B1 JUMP JUMPDEST PUSH1 0x20 DUP3 ADD SWAP1 POP SWAP2 SWAP1 POP JUMP JUMPDEST PUSH0 PUSH1 0x20 DUP3 ADD SWAP1 POP DUP2 DUP2 SUB PUSH0 DUP4 ADD MSTORE PUSH2 0x9112 DUP2 PUSH2 0x90D9 JUMP JUMPDEST SWAP1 POP SWAP2 SWAP1 POP JUMP JUMPDEST PUSH32 0x4E487B7100000000000000000000000000000000000000000000000000000000 PUSH0 MSTORE PUSH1 0x12 PUSH1 0x4 MSTORE PUSH1 0x24 PUSH0 REVERT JUMPDEST PUSH0 PUSH2 0x9150 DUP3 PUSH2 0x7D11 JUMP JUMPDEST SWAP2 POP PUSH2 0x915B DUP4 PUSH2 0x7D11 JUMP JUMPDEST SWAP3 POP DUP3 PUSH2 0x916B JUMPI PUSH2 0x916A PUSH2 0x9119 JUMP JUMPDEST JUMPDEST DUP3 DUP3 DIV SWAP1 POP SWAP3 SWAP2 POP POP JUMP JUMPDEST PUSH32 0x5472616E73666572206C696D6974206F66203130303030204E55542065786365 PUSH0 DUP3 ADD MSTORE PUSH32 0x6564656400000000000000000000000000000000000000000000000000000000 PUSH1 0x20 DUP3 ADD MSTORE POP JUMP JUMPDEST PUSH0 PUSH2 0x91D0 PUSH1 0x24 DUP4 PUSH2 0x7D4C JUMP JUMPDEST SWAP2 POP PUSH2 0x91DB DUP3 PUSH2 0x9176 JUMP JUMPDEST PUSH1 0x40 DUP3 ADD SWAP1 POP SWAP2 SWAP1 POP JUMP JUMPDEST PUSH0 PUSH1 0x20 DUP3 ADD SWAP1 POP DUP2 DUP2 SUB PUSH0 DUP4 ADD MSTORE PUSH2 0x91FD DUP2 PUSH2 0x91C4 JUMP JUMPDEST SWAP1 POP SWAP2 SWAP1 POP JUMP JUMPDEST PUSH0 PUSH2 0x920E DUP3 PUSH2 0x81DD JUMP JUMPDEST SWAP2 POP PUSH2 0x9219 DUP4 PUSH2 0x81DD JUMP JUMPDEST SWAP3 POP DUP3 DUP3 SUB SWAP1 POP PUSH1 0xFF DUP2 GT ISZERO PUSH2 0x9232 JUMPI PUSH2 0x9231 PUSH2 0x86C1 JUMP JUMPDEST JUMPDEST SWAP3 SWAP2 POP POP JUMP JUMPDEST PUSH32 0x2154000000000000000000000000000000000000000000000000000000000000 PUSH0 DUP3 ADD MSTORE POP JUMP JUMPDEST PUSH0 PUSH2 0x926C PUSH1 0x2 DUP4 PUSH2 0x7D4C JUMP JUMPDEST SWAP2 POP PUSH2 0x9277 DUP3 PUSH2 0x9238 JUMP JUMPDEST PUSH1 0x20 DUP3 ADD SWAP1 POP SWAP2 SWAP1 POP JUMP JUMPDEST PUSH0 PUSH1 0x20 DUP3 ADD SWAP1 POP DUP2 DUP2 SUB PUSH0 DUP4 ADD MSTORE PUSH2 0x9299 DUP2 PUSH2 0x9260 JUMP JUMPDEST SWAP1 POP SWAP2 SWAP1 POP JUMP JUMPDEST PUSH0 PUSH2 0x92AA DUP3 PUSH2 0x7D11 JUMP JUMPDEST SWAP2 POP PUSH2 0x92B5 DUP4 PUSH2 0x7D11 JUMP JUMPDEST SWAP3 POP DUP3 PUSH2 0x92C5 JUMPI PUSH2 0x92C4 PUSH2 0x9119 JUMP JUMPDEST JUMPDEST DUP3 DUP3 MOD SWAP1 POP SWAP3 SWAP2 POP POP JUMP JUMPDEST PUSH32 0x596F752063616E206F6E6C7920627579206D61782032302C3030302075736474 PUSH0 DUP3 ADD MSTORE POP JUMP JUMPDEST PUSH0 PUSH2 0x9304 PUSH1 0x20 DUP4 PUSH2 0x7D4C JUMP JUMPDEST SWAP2 POP PUSH2 0x930F DUP3 PUSH2 0x92D0 JUMP JUMPDEST PUSH1 0x20 DUP3 ADD SWAP1 POP SWAP2 SWAP1 POP JUMP JUMPDEST PUSH0 PUSH1 0x20 DUP3 ADD SWAP1 POP DUP2 DUP2 SUB PUSH0 DUP4 ADD MSTORE PUSH2 0x9331 DUP2 PUSH2 0x92F8 JUMP JUMPDEST SWAP1 POP SWAP2 SWAP1 POP JUMP JUMPDEST PUSH32 0x4D75737420776169742032206D696E75746573206265747765656E207472616E PUSH0 DUP3 ADD MSTORE PUSH32 0x73616374696F6E73000000000000000000000000000000000000000000000000 PUSH1 0x20 DUP3 ADD MSTORE POP JUMP JUMPDEST PUSH0 PUSH2 0x9392 PUSH1 0x28 DUP4 PUSH2 0x7D4C JUMP JUMPDEST SWAP2 POP PUSH2 0x939D DUP3 PUSH2 0x9338 JUMP JUMPDEST PUSH1 0x40 DUP3 ADD SWAP1 POP SWAP2 SWAP1 POP JUMP JUMPDEST PUSH0 PUSH1 0x20 DUP3 ADD SWAP1 POP DUP2 DUP2 SUB PUSH0 DUP4 ADD MSTORE PUSH2 0x93BF DUP2 PUSH2 0x9386 JUMP JUMPDEST SWAP1 POP SWAP2 SWAP1 POP JUMP JUMPDEST PUSH0 DUP2 MLOAD SWAP1 POP SWAP2 SWAP1 POP JUMP JUMPDEST PUSH0 DUP3 DUP3 MSTORE PUSH1 0x20 DUP3 ADD SWAP1 POP SWAP3 SWAP2 POP POP JUMP JUMPDEST PUSH0 DUP2 SWAP1 POP PUSH1 0x20 DUP3 ADD SWAP1 POP SWAP2 SWAP1 POP JUMP JUMPDEST PUSH2 0x93F8 DUP2 PUSH2 0x7E02 JUMP JUMPDEST DUP3 MSTORE POP POP JUMP JUMPDEST PUSH0 PUSH2 0x9409 DUP4 DUP4 PUSH2 0x93EF JUMP JUMPDEST PUSH1 0x20 DUP4 ADD SWAP1 POP SWAP3 SWAP2 POP POP JUMP JUMPDEST PUSH0 PUSH1 0x20 DUP3 ADD SWAP1 POP SWAP2 SWAP1 POP JUMP JUMPDEST PUSH0 PUSH2 0x942B DUP3 PUSH2 0x93C6 JUMP JUMPDEST PUSH2 0x9435 DUP2 DUP6 PUSH2 0x93D0 JUMP JUMPDEST SWAP4 POP PUSH2 0x9440 DUP4 PUSH2 0x93E0 JUMP JUMPDEST DUP1 PUSH0 JUMPDEST DUP4 DUP2 LT ISZERO PUSH2 0x9470 JUMPI DUP2 MLOAD PUSH2 0x9457 DUP9 DUP3 PUSH2 0x93FE JUMP JUMPDEST SWAP8 POP PUSH2 0x9462 DUP4 PUSH2 0x9415 JUMP JUMPDEST SWAP3 POP POP PUSH1 0x1 DUP2 ADD SWAP1 POP PUSH2 0x9443 JUMP JUMPDEST POP DUP6 SWAP4 POP POP POP POP SWAP3 SWAP2 POP POP JUMP JUMPDEST PUSH0 PUSH1 0xA0 DUP3 ADD SWAP1 POP PUSH2 0x9490 PUSH0 DUP4 ADD DUP9 PUSH2 0x7D1A JUMP JUMPDEST PUSH2 0x949D PUSH1 0x20 DUP4 ADD DUP8 PUSH2 0x7D1A JUMP JUMPDEST DUP2 DUP2 SUB PUSH1 0x40 DUP4 ADD MSTORE PUSH2 0x94AF DUP2 DUP7 PUSH2 0x9421 JUMP JUMPDEST SWAP1 POP PUSH2 0x94BE PUSH1 0x60 DUP4 ADD DUP6 PUSH2 0x8211 JUMP JUMPDEST PUSH2 0x94CB PUSH1 0x80 DUP4 ADD DUP5 PUSH2 0x7D1A JUMP JUMPDEST SWAP7 SWAP6 POP POP POP POP POP POP JUMP JUMPDEST PUSH0 PUSH1 0x60 DUP3 ADD SWAP1 POP PUSH2 0x94E8 PUSH0 DUP4 ADD DUP7 PUSH2 0x8211 JUMP JUMPDEST PUSH2 0x94F5 PUSH1 0x20 DUP4 ADD DUP6 PUSH2 0x8211 JUMP JUMPDEST PUSH2 0x9502 PUSH1 0x40 DUP4 ADD DUP5 PUSH2 0x7D1A JUMP JUMPDEST SWAP5 SWAP4 POP POP POP POP JUMP INVALID LOG2 PUSH5 0x6970667358 0x22 SLT KECCAK256 0xB7 0xFB PUSH13 0xB173971AE99E313C7DD9E6877E SELFBALANCE PC CALLDATALOAD CALLCODE 0x4E 0xED 0xE1 SWAP16 CALLCODE JUMPI 0x24 CHAINID DUP15 SWAP13 0xA5 PUSH16 0x64736F6C634300081A00336080604052 CALLVALUE DUP1 ISZERO PUSH2 0xF JUMPI PUSH0 DUP1 REVERT JUMPDEST POP PUSH1 0x40 MLOAD PUSH2 0x6B8 CODESIZE SUB DUP1 PUSH2 0x6B8 DUP4 CODECOPY DUP2 DUP2 ADD PUSH1 0x40 MSTORE DUP2 ADD SWAP1 PUSH2 0x31 SWAP2 SWAP1 PUSH2 0x1CF JUMP JUMPDEST CALLER PUSH0 DUP1 PUSH2 0x100 EXP DUP2 SLOAD DUP2 PUSH20 0xFFFFFFFFFFFFFFFFFFFFFFFFFFFFFFFFFFFFFFFF MUL NOT AND SWAP1 DUP4 PUSH20 0xFFFFFFFFFFFFFFFFFFFFFFFFFFFFFFFFFFFFFFFF AND MUL OR SWAP1 SSTORE POP DUP2 PUSH20 0xFFFFFFFFFFFFFFFFFFFFFFFFFFFFFFFFFFFFFFFF AND PUSH4 0x95EA7B3 CALLER PUSH0 NOT PUSH1 0x40 MLOAD DUP4 PUSH4 0xFFFFFFFF AND PUSH1 0xE0 SHL DUP2 MSTORE PUSH1 0x4 ADD PUSH2 0xAC SWAP3 SWAP2 SWAP1 PUSH2 0x234 JUMP JUMPDEST PUSH1 0x20 PUSH1 0x40 MLOAD DUP1 DUP4 SUB DUP2 PUSH0 DUP8 GAS CALL ISZERO DUP1 ISZERO PUSH2 0xC8 JUMPI RETURNDATASIZE PUSH0 DUP1 RETURNDATACOPY RETURNDATASIZE PUSH0 REVERT JUMPDEST POP POP POP POP PUSH1 0x40 MLOAD RETURNDATASIZE PUSH1 0x1F NOT PUSH1 0x1F DUP3 ADD AND DUP3 ADD DUP1 PUSH1 0x40 MSTORE POP DUP2 ADD SWAP1 PUSH2 0xEC SWAP2 SWAP1 PUSH2 0x290 JUMP JUMPDEST POP DUP2 PUSH20 0xFFFFFFFFFFFFFFFFFFFFFFFFFFFFFFFFFFFFFFFF AND PUSH4 0x95EA7B3 DUP3 PUSH0 NOT PUSH1 0x40 MLOAD DUP4 PUSH4 0xFFFFFFFF AND PUSH1 0xE0 SHL DUP2 MSTORE PUSH1 0x4 ADD PUSH2 0x129 SWAP3 SWAP2 SWAP1 PUSH2 0x234 JUMP JUMPDEST PUSH1 0x20 PUSH1 0x40 MLOAD DUP1 DUP4 SUB DUP2 PUSH0 DUP8 GAS CALL ISZERO DUP1 ISZERO PUSH2 0x145 JUMPI RETURNDATASIZE PUSH0 DUP1 RETURNDATACOPY RETURNDATASIZE PUSH0 REVERT JUMPDEST POP POP POP POP PUSH1 0x40 MLOAD RETURNDATASIZE PUSH1 0x1F NOT PUSH1 0x1F DUP3 ADD AND DUP3 ADD DUP1 PUSH1 0x40 MSTORE POP DUP2 ADD SWAP1 PUSH2 0x169 SWAP2 SWAP1 PUSH2 0x290 JUMP JUMPDEST POP POP POP PUSH2 0x2BB JUMP JUMPDEST PUSH0 DUP1 REVERT JUMPDEST PUSH0 PUSH20 0xFFFFFFFFFFFFFFFFFFFFFFFFFFFFFFFFFFFFFFFF DUP3 AND SWAP1 POP SWAP2 SWAP1 POP JUMP JUMPDEST PUSH0 PUSH2 0x19E DUP3 PUSH2 0x175 JUMP JUMPDEST SWAP1 POP SWAP2 SWAP1 POP JUMP JUMPDEST PUSH2 0x1AE DUP2 PUSH2 0x194 JUMP JUMPDEST DUP2 EQ PUSH2 0x1B8 JUMPI PUSH0 DUP1 REVERT JUMPDEST POP JUMP JUMPDEST PUSH0 DUP2 MLOAD SWAP1 POP PUSH2 0x1C9 DUP2 PUSH2 0x1A5 JUMP JUMPDEST SWAP3 SWAP2 POP POP JUMP JUMPDEST PUSH0 DUP1 PUSH1 0x40 DUP4 DUP6 SUB SLT ISZERO PUSH2 0x1E5 JUMPI PUSH2 0x1E4 PUSH2 0x171 JUMP JUMPDEST JUMPDEST PUSH0 PUSH2 0x1F2 DUP6 DUP3 DUP7 ADD PUSH2 0x1BB JUMP JUMPDEST SWAP3 POP POP PUSH1 0x20 PUSH2 0x203 DUP6 DUP3 DUP7 ADD PUSH2 0x1BB JUMP JUMPDEST SWAP2 POP POP SWAP3 POP SWAP3 SWAP1 POP JUMP JUMPDEST PUSH2 0x216 DUP2 PUSH2 0x194 JUMP JUMPDEST DUP3 MSTORE POP POP JUMP JUMPDEST PUSH0 DUP2 SWAP1 POP SWAP2 SWAP1 POP JUMP JUMPDEST PUSH2 0x22E DUP2 PUSH2 0x21C JUMP JUMPDEST DUP3 MSTORE POP POP JUMP JUMPDEST PUSH0 PUSH1 0x40 DUP3 ADD SWAP1 POP PUSH2 0x247 PUSH0 DUP4 ADD DUP6 PUSH2 0x20D JUMP JUMPDEST PUSH2 0x254 PUSH1 0x20 DUP4 ADD DUP5 PUSH2 0x225 JUMP JUMPDEST SWAP4 SWAP3 POP POP POP JUMP JUMPDEST PUSH0 DUP2 ISZERO ISZERO SWAP1 POP SWAP2 SWAP1 POP JUMP JUMPDEST PUSH2 0x26F DUP2 PUSH2 0x25B JUMP JUMPDEST DUP2 EQ PUSH2 0x279 JUMPI PUSH0 DUP1 REVERT JUMPDEST POP JUMP JUMPDEST PUSH0 DUP2 MLOAD SWAP1 POP PUSH2 0x28A DUP2 PUSH2 0x266 JUMP JUMPDEST SWAP3 SWAP2 POP POP JUMP JUMPDEST PUSH0 PUSH1 0x20 DUP3 DUP5 SUB SLT ISZERO PUSH2 0x2A5 JUMPI PUSH2 0x2A4 PUSH2 0x171 JUMP JUMPDEST JUMPDEST PUSH0 PUSH2 0x2B2 DUP5 DUP3 DUP6 ADD PUSH2 0x27C JUMP JUMPDEST SWAP2 POP POP SWAP3 SWAP2 POP POP JUMP JUMPDEST PUSH2 0x3F0 DUP1 PUSH2 0x2C8 PUSH0 CODECOPY PUSH0 RETURN INVALID PUSH1 0x80 PUSH1 0x40 MSTORE CALLVALUE DUP1 ISZERO PUSH2 0xF JUMPI PUSH0 DUP1 REVERT JUMPDEST POP PUSH1 0x4 CALLDATASIZE LT PUSH2 0x34 JUMPI PUSH0 CALLDATALOAD PUSH1 0xE0 SHR DUP1 PUSH4 0x125BFB66 EQ PUSH2 0x38 JUMPI DUP1 PUSH4 0xB2BDFA7B EQ PUSH2 0x54 JUMPI JUMPDEST PUSH0 DUP1 REVERT JUMPDEST PUSH2 0x52 PUSH1 0x4 DUP1 CALLDATASIZE SUB DUP2 ADD SWAP1 PUSH2 0x4D SWAP2 SWAP1 PUSH2 0x234 JUMP JUMPDEST PUSH2 0x72 JUMP JUMPDEST STOP JUMPDEST PUSH2 0x5C PUSH2 0x180 JUMP JUMPDEST PUSH1 0x40 MLOAD PUSH2 0x69 SWAP2 SWAP1 PUSH2 0x293 JUMP JUMPDEST PUSH1 0x40 MLOAD DUP1 SWAP2 SUB SWAP1 RETURN JUMPDEST PUSH0 DUP1 SLOAD SWAP1 PUSH2 0x100 EXP SWAP1 DIV PUSH20 0xFFFFFFFFFFFFFFFFFFFFFFFFFFFFFFFFFFFFFFFF AND PUSH20 0xFFFFFFFFFFFFFFFFFFFFFFFFFFFFFFFFFFFFFFFF AND CALLER PUSH20 0xFFFFFFFFFFFFFFFFFFFFFFFFFFFFFFFFFFFFFFFF AND EQ PUSH2 0xFF JUMPI PUSH1 0x40 MLOAD PUSH32 0x8C379A000000000000000000000000000000000000000000000000000000000 DUP2 MSTORE PUSH1 0x4 ADD PUSH2 0xF6 SWAP1 PUSH2 0x306 JUMP JUMPDEST PUSH1 0x40 MLOAD DUP1 SWAP2 SUB SWAP1 REVERT JUMPDEST DUP3 PUSH20 0xFFFFFFFFFFFFFFFFFFFFFFFFFFFFFFFFFFFFFFFF AND PUSH4 0xA9059CBB DUP4 DUP4 PUSH1 0x40 MLOAD DUP4 PUSH4 0xFFFFFFFF AND PUSH1 0xE0 SHL DUP2 MSTORE PUSH1 0x4 ADD PUSH2 0x13A SWAP3 SWAP2 SWAP1 PUSH2 0x333 JUMP JUMPDEST PUSH1 0x20 PUSH1 0x40 MLOAD DUP1 DUP4 SUB DUP2 PUSH0 DUP8 GAS CALL ISZERO DUP1 ISZERO PUSH2 0x156 JUMPI RETURNDATASIZE PUSH0 DUP1 RETURNDATACOPY RETURNDATASIZE PUSH0 REVERT JUMPDEST POP POP POP POP PUSH1 0x40 MLOAD RETURNDATASIZE PUSH1 0x1F NOT PUSH1 0x1F DUP3 ADD AND DUP3 ADD DUP1 PUSH1 0x40 MSTORE POP DUP2 ADD SWAP1 PUSH2 0x17A SWAP2 SWAP1 PUSH2 0x38F JUMP JUMPDEST POP POP POP POP JUMP JUMPDEST PUSH0 DUP1 SLOAD SWAP1 PUSH2 0x100 EXP SWAP1 DIV PUSH20 0xFFFFFFFFFFFFFFFFFFFFFFFFFFFFFFFFFFFFFFFF AND DUP2 JUMP JUMPDEST PUSH0 DUP1 REVERT JUMPDEST PUSH0 PUSH20 0xFFFFFFFFFFFFFFFFFFFFFFFFFFFFFFFFFFFFFFFF DUP3 AND SWAP1 POP SWAP2 SWAP1 POP JUMP JUMPDEST PUSH0 PUSH2 0x1D0 DUP3 PUSH2 0x1A7 JUMP JUMPDEST SWAP1 POP SWAP2 SWAP1 POP JUMP JUMPDEST PUSH2 0x1E0 DUP2 PUSH2 0x1C6 JUMP JUMPDEST DUP2 EQ PUSH2 0x1EA JUMPI PUSH0 DUP1 REVERT JUMPDEST POP JUMP JUMPDEST PUSH0 DUP2 CALLDATALOAD SWAP1 POP PUSH2 0x1FB DUP2 PUSH2 0x1D7 JUMP JUMPDEST SWAP3 SWAP2 POP POP JUMP JUMPDEST PUSH0 DUP2 SWAP1 POP SWAP2 SWAP1 POP JUMP JUMPDEST PUSH2 0x213 DUP2 PUSH2 0x201 JUMP JUMPDEST DUP2 EQ PUSH2 0x21D JUMPI PUSH0 DUP1 REVERT JUMPDEST POP JUMP JUMPDEST PUSH0 DUP2 CALLDATALOAD SWAP1 POP PUSH2 0x22E DUP2 PUSH2 0x20A JUMP JUMPDEST SWAP3 SWAP2 POP POP JUMP JUMPDEST PUSH0 DUP1 PUSH0 PUSH1 0x60 DUP5 DUP7 SUB SLT ISZERO PUSH2 0x24B JUMPI PUSH2 0x24A PUSH2 0x1A3 JUMP JUMPDEST JUMPDEST PUSH0 PUSH2 0x258 DUP7 DUP3 DUP8 ADD PUSH2 0x1ED JUMP JUMPDEST SWAP4 POP POP PUSH1 0x20 PUSH2 0x269 DUP7 DUP3 DUP8 ADD PUSH2 0x1ED JUMP JUMPDEST SWAP3 POP POP PUSH1 0x40 PUSH2 0x27A DUP7 DUP3 DUP8 ADD PUSH2 0x220 JUMP JUMPDEST SWAP2 POP POP SWAP3 POP SWAP3 POP SWAP3 JUMP JUMPDEST PUSH2 0x28D DUP2 PUSH2 0x1C6 JUMP JUMPDEST DUP3 MSTORE POP POP JUMP JUMPDEST PUSH0 PUSH1 0x20 DUP3 ADD SWAP1 POP PUSH2 0x2A6 PUSH0 DUP4 ADD DUP5 PUSH2 0x284 JUMP JUMPDEST SWAP3 SWAP2 POP POP JUMP JUMPDEST PUSH0 DUP3 DUP3 MSTORE PUSH1 0x20 DUP3 ADD SWAP1 POP SWAP3 SWAP2 POP POP JUMP JUMPDEST PUSH32 0x216F000000000000000000000000000000000000000000000000000000000000 PUSH0 DUP3 ADD MSTORE POP JUMP JUMPDEST PUSH0 PUSH2 0x2F0 PUSH1 0x2 DUP4 PUSH2 0x2AC JUMP JUMPDEST SWAP2 POP PUSH2 0x2FB DUP3 PUSH2 0x2BC JUMP JUMPDEST PUSH1 0x20 DUP3 ADD SWAP1 POP SWAP2 SWAP1 POP JUMP JUMPDEST PUSH0 PUSH1 0x20 DUP3 ADD SWAP1 POP DUP2 DUP2 SUB PUSH0 DUP4 ADD MSTORE PUSH2 0x31D DUP2 PUSH2 0x2E4 JUMP JUMPDEST SWAP1 POP SWAP2 SWAP1 POP JUMP JUMPDEST PUSH2 0x32D DUP2 PUSH2 0x201 JUMP JUMPDEST DUP3 MSTORE POP POP JUMP JUMPDEST PUSH0 PUSH1 0x40 DUP3 ADD SWAP1 POP PUSH2 0x346 PUSH0 DUP4 ADD DUP6 PUSH2 0x284 JUMP JUMPDEST PUSH2 0x353 PUSH1 0x20 DUP4 ADD DUP5 PUSH2 0x324 JUMP JUMPDEST SWAP4 SWAP3 POP POP POP JUMP JUMPDEST PUSH0 DUP2 ISZERO ISZERO SWAP1 POP SWAP2 SWAP1 POP JUMP JUMPDEST PUSH2 0x36E DUP2 PUSH2 0x35A JUMP JUMPDEST DUP2 EQ PUSH2 0x378 JUMPI PUSH0 DUP1 REVERT JUMPDEST POP JUMP JUMPDEST PUSH0 DUP2 MLOAD SWAP1 POP PUSH2 0x389 DUP2 PUSH2 0x365 JUMP JUMPDEST SWAP3 SWAP2 POP POP JUMP JUMPDEST PUSH0 PUSH1 0x20 DUP3 DUP5 SUB SLT ISZERO PUSH2 0x3A4 JUMPI PUSH2 0x3A3 PUSH2 0x1A3 JUMP JUMPDEST JUMPDEST PUSH0 PUSH2 0x3B1 DUP5 DUP3 DUP6 ADD PUSH2 0x37B JUMP JUMPDEST SWAP2 POP POP SWAP3 SWAP2 POP POP JUMP INVALID LOG2 PUSH5 0x6970667358 0x22 SLT KECCAK256 0xAA MOD 0xA5 SGT CREATE2 0xB0 PUSH17 0xF48244F32D1CCEAB844D97E853D05459BD KECCAK256 NOT 0xAE 0x2E JUMPI 0xA5 0xC9 STATICCALL PUSH5 0x736F6C6343 STOP ADDMOD BYTE STOP CALLER "
		},
		"gasEstimates": {
			"creation": {
				"codeDepositCost": "7641600",
				"executionCost": "infinite",
				"totalCost": "infinite"
			},
			"external": {
				"CIRCULATION()": "394",
				"MAX_TRANSFER_LIMIT()": "481",
				"RESERVED_FOR_MINING()": "infinite",
				"TOTAL_SUPPLY()": "438",
				"_balances(address)": "2892",
				"_binders(address,uint256)": "infinite",
				"_buyDevFee()": "2537",
				"_buyFundFee()": "2493",
				"_directDownlines(address)": "2869",
				"_excludeRewards(address)": "2923",
				"_iterations()": "2603",
				"_lastLPRewardTimes(address)": "2937",
				"_lastMaybeLPAddress()": "2598",
				"_lastMaybeLPAmount()": "2492",
				"_mainPair()": "infinite",
				"_maxSwapAmount()": "2580",
				"_maybeInvitor(address,address)": "infinite",
				"_perIterate()": "2602",
				"_preLPList(address)": "2966",
				"_removeLPFee()": "2493",
				"_rewardGas()": "2536",
				"_sellDestroyFee()": "2494",
				"_sellReservePoolFee()": "2516",
				"_slippage()": "2557",
				"_startTradeTime()": "2495",
				"_swapPairList(address)": "2967",
				"_swapRouter()": "infinite",
				"_tokenDistributor()": "infinite",
				"_usdt()": "infinite",
				"allowance(address,address)": "infinite",
				"approve(address,uint256)": "infinite",
				"balanceOf(address)": "3020",
				"batchSetFeeWhiteList(address[],bool)": "infinite",
				"batchSetUserInfo(address[])": "infinite",
				"calculateRewards(address,uint256)": "infinite",
				"calculateStakingRewards(address)": "infinite",
				"checkWhiteList(address)": "2982",
				"claimBalance(uint256)": "infinite",
				"claimToken(address,uint256)": "infinite",
				"currentLPIndex()": "2515",
				"decimals()": "2541",
				"devAddress()": "2620",
				"excludeLpProvider(address)": "2924",
				"findRoot(address)": "5183",
				"fundAddress()": "2597",
				"getBinderLength(address)": "2972",
				"getLPProviderLength()": "2618",
				"getUserInfo(address)": "infinite",
				"getUserLiquidityContribution(address)": "infinite",
				"lastLpBurnTime()": "2559",
				"lastSwapTime(address)": "2980",
				"lpBurnEnabled()": "2601",
				"lpBurnFrequency()": "2538",
				"lpHoldCondition()": "2492",
				"lpProviderIndex(address)": "2979",
				"lpProviders(uint256)": "5055",
				"lpRewardTimeDebt()": "2514",
				"name()": "infinite",
				"owner()": "2606",
				"percentForLPBurn()": "2516",
				"progressLPBlock()": "2494",
				"receiveAddress()": "2684",
				"renounceOwnership()": "30384",
				"resetOneLastLPRewardTime(address,uint256)": "29553",
				"resetTime(uint256,uint256)": "infinite",
				"resetprogressLPBlock(uint256)": "29290",
				"setAutoLPBurnSettings(uint256,uint256,bool)": "infinite",
				"setBuyFee(uint256,uint256)": "infinite",
				"setExcludeLPProvider(address,bool)": "27282",
				"setExcludeReward(address,bool)": "33892",
				"setFeeWhiteList(address,bool)": "27280",
				"setFundAddress(address)": "135653",
				"setLPHoldCondition(uint256)": "24749",
				"setLPRewardTimeDebt(uint256)": "24814",
				"setPerIterate(uint256)": "29229",
				"setRemoveLPFee(uint256)": "24896",
				"setRewardGas(uint256)": "29308",
				"setSellFee(uint256,uint256)": "infinite",
				"setSlippage(uint256)": "24819",
				"setSwapPairList(address,bool)": "31756",
				"startAddLPBlock()": "2515",
				"startTrade()": "48725",
				"startTradeBlock()": "2538",
				"symbol()": "infinite",
				"today()": "infinite",
				"tokenPrice()": "infinite",
				"totalSupply()": "2501",
				"transfer(address,uint256)": "infinite",
				"transferFrom(address,address,uint256)": "infinite",
				"transferOwnership(address)": "30702",
				"updateLPAmount(address,uint256)": "31734"
			}
		},
		"methodIdentifiers": {
			"CIRCULATION()": "88d59741",
			"MAX_TRANSFER_LIMIT()": "69ffd402",
			"RESERVED_FOR_MINING()": "f059078c",
			"TOTAL_SUPPLY()": "902d55a5",
			"_balances(address)": "6ebcf607",
			"_binders(address,uint256)": "5c25c30e",
			"_buyDevFee()": "62015852",
			"_buyFundFee()": "ce0192f9",
			"_directDownlines(address)": "e7cc6c23",
			"_excludeRewards(address)": "d1bea17c",
			"_iterations()": "b8cacc2f",
			"_lastLPRewardTimes(address)": "5b231155",
			"_lastMaybeLPAddress()": "37791bfc",
			"_lastMaybeLPAmount()": "bc756d4b",
			"_mainPair()": "4188bf5a",
			"_maxSwapAmount()": "e06bd4a5",
			"_maybeInvitor(address,address)": "adc0df8f",
			"_perIterate()": "e2ba13f1",
			"_preLPList(address)": "e918dfde",
			"_removeLPFee()": "5ef01957",
			"_rewardGas()": "e84fb12d",
			"_sellDestroyFee()": "297ac6de",
			"_sellReservePoolFee()": "53b7aa1d",
			"_slippage()": "f54da1e2",
			"_startTradeTime()": "027edfd3",
			"_swapPairList(address)": "3c11100d",
			"_swapRouter()": "206c17bb",
			"_tokenDistributor()": "8718b24f",
			"_usdt()": "be3601f8",
			"allowance(address,address)": "dd62ed3e",
			"approve(address,uint256)": "095ea7b3",
			"balanceOf(address)": "70a08231",
			"batchSetFeeWhiteList(address[],bool)": "b2887bec",
			"batchSetUserInfo(address[])": "2f783b4f",
			"calculateRewards(address,uint256)": "beb8314c",
			"calculateStakingRewards(address)": "d47768de",
			"checkWhiteList(address)": "9cce37c6",
			"claimBalance(uint256)": "e9fad396",
			"claimToken(address,uint256)": "1698755f",
			"currentLPIndex()": "61b746f2",
			"decimals()": "313ce567",
			"devAddress()": "3ad10ef6",
			"excludeLpProvider(address)": "2b01fc94",
			"findRoot(address)": "dc8046e4",
			"fundAddress()": "e82bef29",
			"getBinderLength(address)": "1b967ad4",
			"getLPProviderLength()": "74d002f1",
			"getUserInfo(address)": "6386c1c7",
			"getUserLiquidityContribution(address)": "1b85fecd",
			"lastLpBurnTime()": "a4c82a00",
			"lastSwapTime(address)": "4ece7c06",
			"lpBurnEnabled()": "2e82f1a0",
			"lpBurnFrequency()": "2c3e486c",
			"lpHoldCondition()": "79353c08",
			"lpProviderIndex(address)": "ef34db69",
			"lpProviders(uint256)": "de5c02c2",
			"lpRewardTimeDebt()": "7a70873a",
			"name()": "06fdde03",
			"owner()": "8da5cb5b",
			"percentForLPBurn()": "199ffc72",
			"progressLPBlock()": "51b0d102",
			"receiveAddress()": "fffe42e9",
			"renounceOwnership()": "715018a6",
			"resetOneLastLPRewardTime(address,uint256)": "c343e9a8",
			"resetTime(uint256,uint256)": "87c91f2a",
			"resetprogressLPBlock(uint256)": "cdb6b98b",
			"setAutoLPBurnSettings(uint256,uint256,bool)": "730c1888",
			"setBuyFee(uint256,uint256)": "fb0ecfa4",
			"setExcludeLPProvider(address,bool)": "141ae566",
			"setExcludeReward(address,bool)": "da39d16a",
			"setFeeWhiteList(address,bool)": "d83d4143",
			"setFundAddress(address)": "85dc3004",
			"setLPHoldCondition(uint256)": "97dad339",
			"setLPRewardTimeDebt(uint256)": "df076bbe",
			"setPerIterate(uint256)": "aad9e9e2",
			"setRemoveLPFee(uint256)": "cd8d263d",
			"setRewardGas(uint256)": "917ceeb5",
			"setSellFee(uint256,uint256)": "6ac9a870",
			"setSlippage(uint256)": "f0fa55a9",
			"setSwapPairList(address,bool)": "a8424861",
			"startAddLPBlock()": "9bb85344",
			"startTrade()": "6c580801",
			"startTradeBlock()": "553193ca",
			"symbol()": "95d89b41",
			"today()": "b74e452b",
			"tokenPrice()": "7ff9b596",
			"totalSupply()": "18160ddd",
			"transfer(address,uint256)": "a9059cbb",
			"transferFrom(address,address,uint256)": "23b872dd",
			"transferOwnership(address)": "f2fde38b",
			"updateLPAmount(address,uint256)": "a5696d89"
		}
	},
	"abi": [
		{
			"inputs": [],
			"stateMutability": "nonpayable",
			"type": "constructor"
		},
		{
			"anonymous": false,
			"inputs": [
				{
					"indexed": true,
					"internalType": "address",
					"name": "owne2r",
					"type": "address"
				},
				{
					"indexed": true,
					"internalType": "address",
					"name": "spender",
					"type": "address"
				},
				{
					"indexed": false,
					"internalType": "uint256",
					"name": "value",
					"type": "uint256"
				}
			],
			"name": "Approval",
			"type": "event"
		},
		{
			"anonymous": false,
			"inputs": [],
			"name": "AutoNukeLP",
			"type": "event"
		},
		{
			"anonymous": false,
			"inputs": [
				{
					"indexed": true,
					"internalType": "address",
					"name": "previousOwner",
					"type": "address"
				},
				{
					"indexed": true,
					"internalType": "address",
					"name": "newOwner",
					"type": "address"
				}
			],
			"name": "OwnershipTransferred",
			"type": "event"
		},
		{
			"anonymous": false,
			"inputs": [
				{
					"indexed": true,
					"internalType": "address",
					"name": "from",
					"type": "address"
				},
				{
					"indexed": true,
					"internalType": "address",
					"name": "to",
					"type": "address"
				},
				{
					"indexed": false,
					"internalType": "uint256",
					"name": "value",
					"type": "uint256"
				}
			],
			"name": "Transfer",
			"type": "event"
		},
		{
			"inputs": [],
			"name": "CIRCULATION",
			"outputs": [
				{
					"internalType": "uint256",
					"name": "",
					"type": "uint256"
				}
			],
			"stateMutability": "view",
			"type": "function"
		},
		{
			"inputs": [],
			"name": "MAX_TRANSFER_LIMIT",
			"outputs": [
				{
					"internalType": "uint256",
					"name": "",
					"type": "uint256"
				}
			],
			"stateMutability": "view",
			"type": "function"
		},
		{
			"inputs": [],
			"name": "RESERVED_FOR_MINING",
			"outputs": [
				{
					"internalType": "uint256",
					"name": "",
					"type": "uint256"
				}
			],
			"stateMutability": "view",
			"type": "function"
		},
		{
			"inputs": [],
			"name": "TOTAL_SUPPLY",
			"outputs": [
				{
					"internalType": "uint256",
					"name": "",
					"type": "uint256"
				}
			],
			"stateMutability": "view",
			"type": "function"
		},
		{
			"inputs": [
				{
					"internalType": "address",
					"name": "",
					"type": "address"
				}
			],
			"name": "_balances",
			"outputs": [
				{
					"internalType": "uint256",
					"name": "",
					"type": "uint256"
				}
			],
			"stateMutability": "view",
			"type": "function"
		},
		{
			"inputs": [
				{
					"internalType": "address",
					"name": "",
					"type": "address"
				},
				{
					"internalType": "uint256",
					"name": "",
					"type": "uint256"
				}
			],
			"name": "_binders",
			"outputs": [
				{
					"internalType": "address",
					"name": "",
					"type": "address"
				}
			],
			"stateMutability": "view",
			"type": "function"
		},
		{
			"inputs": [],
			"name": "_buyDevFee",
			"outputs": [
				{
					"internalType": "uint256",
					"name": "",
					"type": "uint256"
				}
			],
			"stateMutability": "view",
			"type": "function"
		},
		{
			"inputs": [],
			"name": "_buyFundFee",
			"outputs": [
				{
					"internalType": "uint256",
					"name": "",
					"type": "uint256"
				}
			],
			"stateMutability": "view",
			"type": "function"
		},
		{
			"inputs": [
				{
					"internalType": "address",
					"name": "",
					"type": "address"
				}
			],
			"name": "_directDownlines",
			"outputs": [
				{
					"internalType": "uint256",
					"name": "",
					"type": "uint256"
				}
			],
			"stateMutability": "view",
			"type": "function"
		},
		{
			"inputs": [
				{
					"internalType": "address",
					"name": "",
					"type": "address"
				}
			],
			"name": "_excludeRewards",
			"outputs": [
				{
					"internalType": "bool",
					"name": "",
					"type": "bool"
				}
			],
			"stateMutability": "view",
			"type": "function"
		},
		{
			"inputs": [],
			"name": "_iterations",
			"outputs": [
				{
					"internalType": "uint256",
					"name": "",
					"type": "uint256"
				}
			],
			"stateMutability": "view",
			"type": "function"
		},
		{
			"inputs": [
				{
					"internalType": "address",
					"name": "",
					"type": "address"
				}
			],
			"name": "_lastLPRewardTimes",
			"outputs": [
				{
					"internalType": "uint256",
					"name": "",
					"type": "uint256"
				}
			],
			"stateMutability": "view",
			"type": "function"
		},
		{
			"inputs": [],
			"name": "_lastMaybeLPAddress",
			"outputs": [
				{
					"internalType": "address",
					"name": "",
					"type": "address"
				}
			],
			"stateMutability": "view",
			"type": "function"
		},
		{
			"inputs": [],
			"name": "_lastMaybeLPAmount",
			"outputs": [
				{
					"internalType": "uint256",
					"name": "",
					"type": "uint256"
				}
			],
			"stateMutability": "view",
			"type": "function"
		},
		{
			"inputs": [],
			"name": "_mainPair",
			"outputs": [
				{
					"internalType": "address",
					"name": "",
					"type": "address"
				}
			],
			"stateMutability": "view",
			"type": "function"
		},
		{
			"inputs": [],
			"name": "_maxSwapAmount",
			"outputs": [
				{
					"internalType": "uint256",
					"name": "",
					"type": "uint256"
				}
			],
			"stateMutability": "view",
			"type": "function"
		},
		{
			"inputs": [
				{
					"internalType": "address",
					"name": "",
					"type": "address"
				},
				{
					"internalType": "address",
					"name": "",
					"type": "address"
				}
			],
			"name": "_maybeInvitor",
			"outputs": [
				{
					"internalType": "bool",
					"name": "",
					"type": "bool"
				}
			],
			"stateMutability": "view",
			"type": "function"
		},
		{
			"inputs": [],
			"name": "_perIterate",
			"outputs": [
				{
					"internalType": "uint256",
					"name": "",
					"type": "uint256"
				}
			],
			"stateMutability": "view",
			"type": "function"
		},
		{
			"inputs": [
				{
					"internalType": "address",
					"name": "",
					"type": "address"
				}
			],
			"name": "_preLPList",
			"outputs": [
				{
					"internalType": "bool",
					"name": "",
					"type": "bool"
				}
			],
			"stateMutability": "view",
			"type": "function"
		},
		{
			"inputs": [],
			"name": "_removeLPFee",
			"outputs": [
				{
					"internalType": "uint256",
					"name": "",
					"type": "uint256"
				}
			],
			"stateMutability": "view",
			"type": "function"
		},
		{
			"inputs": [],
			"name": "_rewardGas",
			"outputs": [
				{
					"internalType": "uint256",
					"name": "",
					"type": "uint256"
				}
			],
			"stateMutability": "view",
			"type": "function"
		},
		{
			"inputs": [],
			"name": "_sellDestroyFee",
			"outputs": [
				{
					"internalType": "uint256",
					"name": "",
					"type": "uint256"
				}
			],
			"stateMutability": "view",
			"type": "function"
		},
		{
			"inputs": [],
			"name": "_sellReservePoolFee",
			"outputs": [
				{
					"internalType": "uint256",
					"name": "",
					"type": "uint256"
				}
			],
			"stateMutability": "view",
			"type": "function"
		},
		{
			"inputs": [],
			"name": "_slippage",
			"outputs": [
				{
					"internalType": "uint256",
					"name": "",
					"type": "uint256"
				}
			],
			"stateMutability": "view",
			"type": "function"
		},
		{
			"inputs": [],
			"name": "_startTradeTime",
			"outputs": [
				{
					"internalType": "uint256",
					"name": "",
					"type": "uint256"
				}
			],
			"stateMutability": "view",
			"type": "function"
		},
		{
			"inputs": [
				{
					"internalType": "address",
					"name": "",
					"type": "address"
				}
			],
			"name": "_swapPairList",
			"outputs": [
				{
					"internalType": "bool",
					"name": "",
					"type": "bool"
				}
			],
			"stateMutability": "view",
			"type": "function"
		},
		{
			"inputs": [],
			"name": "_swapRouter",
			"outputs": [
				{
					"internalType": "contract ISwapRouter",
					"name": "",
					"type": "address"
				}
			],
			"stateMutability": "view",
			"type": "function"
		},
		{
			"inputs": [],
			"name": "_tokenDistributor",
			"outputs": [
				{
					"internalType": "contract TokenDistributor",
					"name": "",
					"type": "address"
				}
			],
			"stateMutability": "view",
			"type": "function"
		},
		{
			"inputs": [],
			"name": "_usdt",
			"outputs": [
				{
					"internalType": "address",
					"name": "",
					"type": "address"
				}
			],
			"stateMutability": "view",
			"type": "function"
		},
		{
			"inputs": [
				{
					"internalType": "address",
					"name": "owner",
					"type": "address"
				},
				{
					"internalType": "address",
					"name": "spender",
					"type": "address"
				}
			],
			"name": "allowance",
			"outputs": [
				{
					"internalType": "uint256",
					"name": "",
					"type": "uint256"
				}
			],
			"stateMutability": "view",
			"type": "function"
		},
		{
			"inputs": [
				{
					"internalType": "address",
					"name": "spender",
					"type": "address"
				},
				{
					"internalType": "uint256",
					"name": "amount",
					"type": "uint256"
				}
			],
			"name": "approve",
			"outputs": [
				{
					"internalType": "bool",
					"name": "",
					"type": "bool"
				}
			],
			"stateMutability": "nonpayable",
			"type": "function"
		},
		{
			"inputs": [
				{
					"internalType": "address",
					"name": "account",
					"type": "address"
				}
			],
			"name": "balanceOf",
			"outputs": [
				{
					"internalType": "uint256",
					"name": "",
					"type": "uint256"
				}
			],
			"stateMutability": "view",
			"type": "function"
		},
		{
			"inputs": [
				{
					"internalType": "address[]",
					"name": "addr",
					"type": "address[]"
				},
				{
					"internalType": "bool",
					"name": "enable",
					"type": "bool"
				}
			],
			"name": "batchSetFeeWhiteList",
			"outputs": [],
			"stateMutability": "nonpayable",
			"type": "function"
		},
		{
			"inputs": [
				{
					"internalType": "address[]",
					"name": "addr",
					"type": "address[]"
				}
			],
			"name": "batchSetUserInfo",
			"outputs": [],
			"stateMutability": "nonpayable",
			"type": "function"
		},
		{
			"inputs": [
				{
					"internalType": "address",
					"name": "user",
					"type": "address"
				},
				{
					"internalType": "uint256",
					"name": "reward",
					"type": "uint256"
				}
			],
			"name": "calculateRewards",
			"outputs": [
				{
					"internalType": "uint256[10]",
					"name": "",
					"type": "uint256[10]"
				}
			],
			"stateMutability": "view",
			"type": "function"
		},
		{
			"inputs": [
				{
					"internalType": "address",
					"name": "user",
					"type": "address"
				}
			],
			"name": "calculateStakingRewards",
			"outputs": [
				{
					"internalType": "uint256",
					"name": "",
					"type": "uint256"
				}
			],
			"stateMutability": "view",
			"type": "function"
		},
		{
			"inputs": [
				{
					"internalType": "address",
					"name": "account",
					"type": "address"
				}
			],
			"name": "checkWhiteList",
			"outputs": [
				{
					"internalType": "bool",
					"name": "",
					"type": "bool"
				}
			],
			"stateMutability": "view",
			"type": "function"
		},
		{
			"inputs": [
				{
					"internalType": "uint256",
					"name": "amount",
					"type": "uint256"
				}
			],
			"name": "claimBalance",
			"outputs": [],
			"stateMutability": "nonpayable",
			"type": "function"
		},
		{
			"inputs": [
				{
					"internalType": "address",
					"name": "token",
					"type": "address"
				},
				{
					"internalType": "uint256",
					"name": "amount",
					"type": "uint256"
				}
			],
			"name": "claimToken",
			"outputs": [],
			"stateMutability": "nonpayable",
			"type": "function"
		},
		{
			"inputs": [],
			"name": "currentLPIndex",
			"outputs": [
				{
					"internalType": "uint256",
					"name": "",
					"type": "uint256"
				}
			],
			"stateMutability": "view",
			"type": "function"
		},
		{
			"inputs": [],
			"name": "decimals",
			"outputs": [
				{
					"internalType": "uint8",
					"name": "",
					"type": "uint8"
				}
			],
			"stateMutability": "view",
			"type": "function"
		},
		{
			"inputs": [],
			"name": "devAddress",
			"outputs": [
				{
					"internalType": "address",
					"name": "",
					"type": "address"
				}
			],
			"stateMutability": "view",
			"type": "function"
		},
		{
			"inputs": [
				{
					"internalType": "address",
					"name": "",
					"type": "address"
				}
			],
			"name": "excludeLpProvider",
			"outputs": [
				{
					"internalType": "bool",
					"name": "",
					"type": "bool"
				}
			],
			"stateMutability": "view",
			"type": "function"
		},
		{
			"inputs": [
				{
					"internalType": "address",
					"name": "user",
					"type": "address"
				}
			],
			"name": "findRoot",
			"outputs": [
				{
					"internalType": "bool",
					"name": "",
					"type": "bool"
				}
			],
			"stateMutability": "view",
			"type": "function"
		},
		{
			"inputs": [],
			"name": "fundAddress",
			"outputs": [
				{
					"internalType": "address",
					"name": "",
					"type": "address"
				}
			],
			"stateMutability": "view",
			"type": "function"
		},
		{
			"inputs": [
				{
					"internalType": "address",
					"name": "account",
					"type": "address"
				}
			],
			"name": "getBinderLength",
			"outputs": [
				{
					"internalType": "uint256",
					"name": "",
					"type": "uint256"
				}
			],
			"stateMutability": "view",
			"type": "function"
		},
		{
			"inputs": [],
			"name": "getLPProviderLength",
			"outputs": [
				{
					"internalType": "uint256",
					"name": "",
					"type": "uint256"
				}
			],
			"stateMutability": "view",
			"type": "function"
		},
		{
			"inputs": [
				{
					"internalType": "address",
					"name": "account",
					"type": "address"
				}
			],
			"name": "getUserInfo",
			"outputs": [
				{
					"internalType": "uint256",
					"name": "lpAmount",
					"type": "uint256"
				},
				{
					"internalType": "uint256",
					"name": "lpBalance",
					"type": "uint256"
				},
				{
					"internalType": "bool",
					"name": "excludeLP",
					"type": "bool"
				},
				{
					"internalType": "uint256",
					"name": "buyAmount",
					"type": "uint256"
				},
				{
					"internalType": "uint256",
					"name": "lastRewardTime",
					"type": "uint256"
				},
				{
					"internalType": "address",
					"name": "inviter",
					"type": "address"
				},
				{
					"internalType": "uint256",
					"name": "dailyUsdtReward",
					"type": "uint256"
				}
			],
			"stateMutability": "view",
			"type": "function"
		},
		{
			"inputs": [
				{
					"internalType": "address",
					"name": "user",
					"type": "address"
				}
			],
			"name": "getUserLiquidityContribution",
			"outputs": [
				{
					"internalType": "uint256",
					"name": "userUsdtContribution",
					"type": "uint256"
				},
				{
					"internalType": "uint256",
					"name": "userNutContribution",
					"type": "uint256"
				}
			],
			"stateMutability": "view",
			"type": "function"
		},
		{
			"inputs": [],
			"name": "lastLpBurnTime",
			"outputs": [
				{
					"internalType": "uint256",
					"name": "",
					"type": "uint256"
				}
			],
			"stateMutability": "view",
			"type": "function"
		},
		{
			"inputs": [
				{
					"internalType": "address",
					"name": "",
					"type": "address"
				}
			],
			"name": "lastSwapTime",
			"outputs": [
				{
					"internalType": "uint256",
					"name": "",
					"type": "uint256"
				}
			],
			"stateMutability": "view",
			"type": "function"
		},
		{
			"inputs": [],
			"name": "lpBurnEnabled",
			"outputs": [
				{
					"internalType": "bool",
					"name": "",
					"type": "bool"
				}
			],
			"stateMutability": "view",
			"type": "function"
		},
		{
			"inputs": [],
			"name": "lpBurnFrequency",
			"outputs": [
				{
					"internalType": "uint256",
					"name": "",
					"type": "uint256"
				}
			],
			"stateMutability": "view",
			"type": "function"
		},
		{
			"inputs": [],
			"name": "lpHoldCondition",
			"outputs": [
				{
					"internalType": "uint256",
					"name": "",
					"type": "uint256"
				}
			],
			"stateMutability": "view",
			"type": "function"
		},
		{
			"inputs": [
				{
					"internalType": "address",
					"name": "",
					"type": "address"
				}
			],
			"name": "lpProviderIndex",
			"outputs": [
				{
					"internalType": "uint256",
					"name": "",
					"type": "uint256"
				}
			],
			"stateMutability": "view",
			"type": "function"
		},
		{
			"inputs": [
				{
					"internalType": "uint256",
					"name": "",
					"type": "uint256"
				}
			],
			"name": "lpProviders",
			"outputs": [
				{
					"internalType": "address",
					"name": "",
					"type": "address"
				}
			],
			"stateMutability": "view",
			"type": "function"
		},
		{
			"inputs": [],
			"name": "lpRewardTimeDebt",
			"outputs": [
				{
					"internalType": "uint256",
					"name": "",
					"type": "uint256"
				}
			],
			"stateMutability": "view",
			"type": "function"
		},
		{
			"inputs": [],
			"name": "name",
			"outputs": [
				{
					"internalType": "string",
					"name": "",
					"type": "string"
				}
			],
			"stateMutability": "view",
			"type": "function"
		},
		{
			"inputs": [],
			"name": "owner",
			"outputs": [
				{
					"internalType": "address",
					"name": "",
					"type": "address"
				}
			],
			"stateMutability": "view",
			"type": "function"
		},
		{
			"inputs": [],
			"name": "percentForLPBurn",
			"outputs": [
				{
					"internalType": "uint256",
					"name": "",
					"type": "uint256"
				}
			],
			"stateMutability": "view",
			"type": "function"
		},
		{
			"inputs": [],
			"name": "progressLPBlock",
			"outputs": [
				{
					"internalType": "uint256",
					"name": "",
					"type": "uint256"
				}
			],
			"stateMutability": "view",
			"type": "function"
		},
		{
			"inputs": [],
			"name": "receiveAddress",
			"outputs": [
				{
					"internalType": "address",
					"name": "",
					"type": "address"
				}
			],
			"stateMutability": "view",
			"type": "function"
		},
		{
			"inputs": [],
			"name": "renounceOwnership",
			"outputs": [],
			"stateMutability": "nonpayable",
			"type": "function"
		},
		{
			"inputs": [
				{
					"internalType": "address",
					"name": "shareHolder",
					"type": "address"
				},
				{
					"internalType": "uint256",
					"name": "newRewardTime",
					"type": "uint256"
				}
			],
			"name": "resetOneLastLPRewardTime",
			"outputs": [],
			"stateMutability": "nonpayable",
			"type": "function"
		},
		{
			"inputs": [
				{
					"internalType": "uint256",
					"name": "progressLPB",
					"type": "uint256"
				},
				{
					"internalType": "uint256",
					"name": "rewardTime",
					"type": "uint256"
				}
			],
			"name": "resetTime",
			"outputs": [],
			"stateMutability": "nonpayable",
			"type": "function"
		},
		{
			"inputs": [
				{
					"internalType": "uint256",
					"name": "newRewardTime",
					"type": "uint256"
				}
			],
			"name": "resetprogressLPBlock",
			"outputs": [],
			"stateMutability": "nonpayable",
			"type": "function"
		},
		{
			"inputs": [
				{
					"internalType": "uint256",
					"name": "_frequencyInSeconds",
					"type": "uint256"
				},
				{
					"internalType": "uint256",
					"name": "_percent",
					"type": "uint256"
				},
				{
					"internalType": "bool",
					"name": "_Enabled",
					"type": "bool"
				}
			],
			"name": "setAutoLPBurnSettings",
			"outputs": [],
			"stateMutability": "nonpayable",
			"type": "function"
		},
		{
			"inputs": [
				{
					"internalType": "uint256",
					"name": "buyDevFee",
					"type": "uint256"
				},
				{
					"internalType": "uint256",
					"name": "fundFee",
					"type": "uint256"
				}
			],
			"name": "setBuyFee",
			"outputs": [],
			"stateMutability": "nonpayable",
			"type": "function"
		},
		{
			"inputs": [
				{
					"internalType": "address",
					"name": "addr",
					"type": "address"
				},
				{
					"internalType": "bool",
					"name": "enable",
					"type": "bool"
				}
			],
			"name": "setExcludeLPProvider",
			"outputs": [],
			"stateMutability": "nonpayable",
			"type": "function"
		},
		{
			"inputs": [
				{
					"internalType": "address",
					"name": "account",
					"type": "address"
				},
				{
					"internalType": "bool",
					"name": "enable",
					"type": "bool"
				}
			],
			"name": "setExcludeReward",
			"outputs": [],
			"stateMutability": "nonpayable",
			"type": "function"
		},
		{
			"inputs": [
				{
					"internalType": "address",
					"name": "addr",
					"type": "address"
				},
				{
					"internalType": "bool",
					"name": "enable",
					"type": "bool"
				}
			],
			"name": "setFeeWhiteList",
			"outputs": [],
			"stateMutability": "nonpayable",
			"type": "function"
		},
		{
			"inputs": [
				{
					"internalType": "address",
					"name": "addr",
					"type": "address"
				}
			],
			"name": "setFundAddress",
			"outputs": [],
			"stateMutability": "nonpayable",
			"type": "function"
		},
		{
			"inputs": [
				{
					"internalType": "uint256",
					"name": "amount",
					"type": "uint256"
				}
			],
			"name": "setLPHoldCondition",
			"outputs": [],
			"stateMutability": "nonpayable",
			"type": "function"
		},
		{
			"inputs": [
				{
					"internalType": "uint256",
					"name": "timeDebt",
					"type": "uint256"
				}
			],
			"name": "setLPRewardTimeDebt",
			"outputs": [],
			"stateMutability": "nonpayable",
			"type": "function"
		},
		{
			"inputs": [
				{
					"internalType": "uint256",
					"name": "perIterate",
					"type": "uint256"
				}
			],
			"name": "setPerIterate",
			"outputs": [],
			"stateMutability": "nonpayable",
			"type": "function"
		},
		{
			"inputs": [
				{
					"internalType": "uint256",
					"name": "fee",
					"type": "uint256"
				}
			],
			"name": "setRemoveLPFee",
			"outputs": [],
			"stateMutability": "nonpayable",
			"type": "function"
		},
		{
			"inputs": [
				{
					"internalType": "uint256",
					"name": "rewardGas",
					"type": "uint256"
				}
			],
			"name": "setRewardGas",
			"outputs": [],
			"stateMutability": "nonpayable",
			"type": "function"
		},
		{
			"inputs": [
				{
					"internalType": "uint256",
					"name": "destroyFee",
					"type": "uint256"
				},
				{
					"internalType": "uint256",
					"name": "sellReservePoolFee",
					"type": "uint256"
				}
			],
			"name": "setSellFee",
			"outputs": [],
			"stateMutability": "nonpayable",
			"type": "function"
		},
		{
			"inputs": [
				{
					"internalType": "uint256",
					"name": "slippage",
					"type": "uint256"
				}
			],
			"name": "setSlippage",
			"outputs": [],
			"stateMutability": "nonpayable",
			"type": "function"
		},
		{
			"inputs": [
				{
					"internalType": "address",
					"name": "addr",
					"type": "address"
				},
				{
					"internalType": "bool",
					"name": "enable",
					"type": "bool"
				}
			],
			"name": "setSwapPairList",
			"outputs": [],
			"stateMutability": "nonpayable",
			"type": "function"
		},
		{
			"inputs": [],
			"name": "startAddLPBlock",
			"outputs": [
				{
					"internalType": "uint256",
					"name": "",
					"type": "uint256"
				}
			],
			"stateMutability": "view",
			"type": "function"
		},
		{
			"inputs": [],
			"name": "startTrade",
			"outputs": [],
			"stateMutability": "nonpayable",
			"type": "function"
		},
		{
			"inputs": [],
			"name": "startTradeBlock",
			"outputs": [
				{
					"internalType": "uint256",
					"name": "",
					"type": "uint256"
				}
			],
			"stateMutability": "view",
			"type": "function"
		},
		{
			"inputs": [],
			"name": "symbol",
			"outputs": [
				{
					"internalType": "string",
					"name": "",
					"type": "string"
				}
			],
			"stateMutability": "view",
			"type": "function"
		},
		{
			"inputs": [],
			"name": "today",
			"outputs": [
				{
					"internalType": "uint256",
					"name": "",
					"type": "uint256"
				}
			],
			"stateMutability": "view",
			"type": "function"
		},
		{
			"inputs": [],
			"name": "tokenPrice",
			"outputs": [
				{
					"internalType": "uint256",
					"name": "",
					"type": "uint256"
				}
			],
			"stateMutability": "view",
			"type": "function"
		},
		{
			"inputs": [],
			"name": "totalSupply",
			"outputs": [
				{
					"internalType": "uint256",
					"name": "",
					"type": "uint256"
				}
			],
			"stateMutability": "view",
			"type": "function"
		},
		{
			"inputs": [
				{
					"internalType": "address",
					"name": "recipient",
					"type": "address"
				},
				{
					"internalType": "uint256",
					"name": "amount",
					"type": "uint256"
				}
			],
			"name": "transfer",
			"outputs": [
				{
					"internalType": "bool",
					"name": "",
					"type": "bool"
				}
			],
			"stateMutability": "nonpayable",
			"type": "function"
		},
		{
			"inputs": [
				{
					"internalType": "address",
					"name": "sender",
					"type": "address"
				},
				{
					"internalType": "address",
					"name": "recipient",
					"type": "address"
				},
				{
					"internalType": "uint256",
					"name": "amount",
					"type": "uint256"
				}
			],
			"name": "transferFrom",
			"outputs": [
				{
					"internalType": "bool",
					"name": "",
					"type": "bool"
				}
			],
			"stateMutability": "nonpayable",
			"type": "function"
		},
		{
			"inputs": [
				{
					"internalType": "address",
					"name": "newOwner",
					"type": "address"
				}
			],
			"name": "transferOwnership",
			"outputs": [],
			"stateMutability": "nonpayable",
			"type": "function"
		},
		{
			"inputs": [
				{
					"internalType": "address",
					"name": "account",
					"type": "address"
				},
				{
					"internalType": "uint256",
					"name": "lpAmount",
					"type": "uint256"
				}
			],
			"name": "updateLPAmount",
			"outputs": [],
			"stateMutability": "nonpayable",
			"type": "function"
		},
		{
			"stateMutability": "payable",
			"type": "receive"
		}
	]
}