{
	"data": {
		"bytecode": {
			"linkReferences": {},
			"object": "60a060405234801561000f575f80fd5b506040516106c03803806106c0833981810160405281019061003191906101c4565b3373ffffffffffffffffffffffffffffffffffffffff1660808173ffffffffffffffffffffffffffffffffffffffff16815250508173ffffffffffffffffffffffffffffffffffffffff1663095ea7b3335f196040518363ffffffff1660e01b81526004016100a1929190610229565b6020604051808303815f875af11580156100bd573d5f803e3d5ffd5b505050506040513d601f19601f820116820180604052508101906100e19190610285565b508173ffffffffffffffffffffffffffffffffffffffff1663095ea7b3825f196040518363ffffffff1660e01b815260040161011e929190610229565b6020604051808303815f875af115801561013a573d5f803e3d5ffd5b505050506040513d601f19601f8201168201806040525081019061015e9190610285565b5050506102b0565b5f80fd5b5f73ffffffffffffffffffffffffffffffffffffffff82169050919050565b5f6101938261016a565b9050919050565b6101a381610189565b81146101ad575f80fd5b50565b5f815190506101be8161019a565b92915050565b5f80604083850312156101da576101d9610166565b5b5f6101e7858286016101b0565b92505060206101f8858286016101b0565b9150509250929050565b61020b81610189565b82525050565b5f819050919050565b61022381610211565b82525050565b5f60408201905061023c5f830185610202565b610249602083018461021a565b9392505050565b5f8115159050919050565b61026481610250565b811461026e575f80fd5b50565b5f8151905061027f8161025b565b92915050565b5f6020828403121561029a57610299610166565b5b5f6102a784828501610271565b91505092915050565b6080516103f26102ce5f395f81816074015261018301526103f25ff3fe608060405234801561000f575f80fd5b5060043610610034575f3560e01c8063125bfb6614610038578063b2bdfa7b14610054575b5f80fd5b610052600480360381019061004d9190610236565b610072565b005b61005c610181565b6040516100699190610295565b60405180910390f35b7f000000000000000000000000000000000000000000000000000000000000000073ffffffffffffffffffffffffffffffffffffffff163373ffffffffffffffffffffffffffffffffffffffff1614610100576040517f08c379a00000000000000000000000000000000000000000000000000000000081526004016100f790610308565b60405180910390fd5b8273ffffffffffffffffffffffffffffffffffffffff1663a9059cbb83836040518363ffffffff1660e01b815260040161013b929190610335565b6020604051808303815f875af1158015610157573d5f803e3d5ffd5b505050506040513d601f19601f8201168201806040525081019061017b9190610391565b50505050565b7f000000000000000000000000000000000000000000000000000000000000000081565b5f80fd5b5f73ffffffffffffffffffffffffffffffffffffffff82169050919050565b5f6101d2826101a9565b9050919050565b6101e2816101c8565b81146101ec575f80fd5b50565b5f813590506101fd816101d9565b92915050565b5f819050919050565b61021581610203565b811461021f575f80fd5b50565b5f813590506102308161020c565b92915050565b5f805f6060848603121561024d5761024c6101a5565b5b5f61025a868287016101ef565b935050602061026b868287016101ef565b925050604061027c86828701610222565b9150509250925092565b61028f816101c8565b82525050565b5f6020820190506102a85f830184610286565b92915050565b5f82825260208201905092915050565b7f216f0000000000000000000000000000000000000000000000000000000000005f82015250565b5f6102f26002836102ae565b91506102fd826102be565b602082019050919050565b5f6020820190508181035f83015261031f816102e6565b9050919050565b61032f81610203565b82525050565b5f6040820190506103485f830185610286565b6103556020830184610326565b9392505050565b5f8115159050919050565b6103708161035c565b811461037a575f80fd5b50565b5f8151905061038b81610367565b92915050565b5f602082840312156103a6576103a56101a5565b5b5f6103b38482850161037d565b9150509291505056fea2646970667358221220357dba3d4ec1d00b4a416411f6f2ffc277c501d6cfb8a6ade16736870cdcbbc164736f6c634300081a0033",
			"opcodes": "PUSH1 0xA0 PUSH1 0x40 MSTORE CALLVALUE DUP1 ISZERO PUSH2 0xF JUMPI PUSH0 DUP1 REVERT JUMPDEST POP PUSH1 0x40 MLOAD PUSH2 0x6C0 CODESIZE SUB DUP1 PUSH2 0x6C0 DUP4 CODECOPY DUP2 DUP2 ADD PUSH1 0x40 MSTORE DUP2 ADD SWAP1 PUSH2 0x31 SWAP2 SWAP1 PUSH2 0x1C4 JUMP JUMPDEST CALLER PUSH20 0xFFFFFFFFFFFFFFFFFFFFFFFFFFFFFFFFFFFFFFFF AND PUSH1 0x80 DUP2 PUSH20 0xFFFFFFFFFFFFFFFFFFFFFFFFFFFFFFFFFFFFFFFF AND DUP2 MSTORE POP POP DUP2 PUSH20 0xFFFFFFFFFFFFFFFFFFFFFFFFFFFFFFFFFFFFFFFF AND PUSH4 0x95EA7B3 CALLER PUSH0 NOT PUSH1 0x40 MLOAD DUP4 PUSH4 0xFFFFFFFF AND PUSH1 0xE0 SHL DUP2 MSTORE PUSH1 0x4 ADD PUSH2 0xA1 SWAP3 SWAP2 SWAP1 PUSH2 0x229 JUMP JUMPDEST PUSH1 0x20 PUSH1 0x40 MLOAD DUP1 DUP4 SUB DUP2 PUSH0 DUP8 GAS CALL ISZERO DUP1 ISZERO PUSH2 0xBD JUMPI RETURNDATASIZE PUSH0 DUP1 RETURNDATACOPY RETURNDATASIZE PUSH0 REVERT JUMPDEST POP POP POP POP PUSH1 0x40 MLOAD RETURNDATASIZE PUSH1 0x1F NOT PUSH1 0x1F DUP3 ADD AND DUP3 ADD DUP1 PUSH1 0x40 MSTORE POP DUP2 ADD SWAP1 PUSH2 0xE1 SWAP2 SWAP1 PUSH2 0x285 JUMP JUMPDEST POP DUP2 PUSH20 0xFFFFFFFFFFFFFFFFFFFFFFFFFFFFFFFFFFFFFFFF AND PUSH4 0x95EA7B3 DUP3 PUSH0 NOT PUSH1 0x40 MLOAD DUP4 PUSH4 0xFFFFFFFF AND PUSH1 0xE0 SHL DUP2 MSTORE PUSH1 0x4 ADD PUSH2 0x11E SWAP3 SWAP2 SWAP1 PUSH2 0x229 JUMP JUMPDEST PUSH1 0x20 PUSH1 0x40 MLOAD DUP1 DUP4 SUB DUP2 PUSH0 DUP8 GAS CALL ISZERO DUP1 ISZERO PUSH2 0x13A JUMPI RETURNDATASIZE PUSH0 DUP1 RETURNDATACOPY RETURNDATASIZE PUSH0 REVERT JUMPDEST POP POP POP POP PUSH1 0x40 MLOAD RETURNDATASIZE PUSH1 0x1F NOT PUSH1 0x1F DUP3 ADD AND DUP3 ADD DUP1 PUSH1 0x40 MSTORE POP DUP2 ADD SWAP1 PUSH2 0x15E SWAP2 SWAP1 PUSH2 0x285 JUMP JUMPDEST POP POP POP PUSH2 0x2B0 JUMP JUMPDEST PUSH0 DUP1 REVERT JUMPDEST PUSH0 PUSH20 0xFFFFFFFFFFFFFFFFFFFFFFFFFFFFFFFFFFFFFFFF DUP3 AND SWAP1 POP SWAP2 SWAP1 POP JUMP JUMPDEST PUSH0 PUSH2 0x193 DUP3 PUSH2 0x16A JUMP JUMPDEST SWAP1 POP SWAP2 SWAP1 POP JUMP JUMPDEST PUSH2 0x1A3 DUP2 PUSH2 0x189 JUMP JUMPDEST DUP2 EQ PUSH2 0x1AD JUMPI PUSH0 DUP1 REVERT JUMPDEST POP JUMP JUMPDEST PUSH0 DUP2 MLOAD SWAP1 POP PUSH2 0x1BE DUP2 PUSH2 0x19A JUMP JUMPDEST SWAP3 SWAP2 POP POP JUMP JUMPDEST PUSH0 DUP1 PUSH1 0x40 DUP4 DUP6 SUB SLT ISZERO PUSH2 0x1DA JUMPI PUSH2 0x1D9 PUSH2 0x166 JUMP JUMPDEST JUMPDEST PUSH0 PUSH2 0x1E7 DUP6 DUP3 DUP7 ADD PUSH2 0x1B0 JUMP JUMPDEST SWAP3 POP POP PUSH1 0x20 PUSH2 0x1F8 DUP6 DUP3 DUP7 ADD PUSH2 0x1B0 JUMP JUMPDEST SWAP2 POP POP SWAP3 POP SWAP3 SWAP1 POP JUMP JUMPDEST PUSH2 0x20B DUP2 PUSH2 0x189 JUMP JUMPDEST DUP3 MSTORE POP POP JUMP JUMPDEST PUSH0 DUP2 SWAP1 POP SWAP2 SWAP1 POP JUMP JUMPDEST PUSH2 0x223 DUP2 PUSH2 0x211 JUMP JUMPDEST DUP3 MSTORE POP POP JUMP JUMPDEST PUSH0 PUSH1 0x40 DUP3 ADD SWAP1 POP PUSH2 0x23C PUSH0 DUP4 ADD DUP6 PUSH2 0x202 JUMP JUMPDEST PUSH2 0x249 PUSH1 0x20 DUP4 ADD DUP5 PUSH2 0x21A JUMP JUMPDEST SWAP4 SWAP3 POP POP POP JUMP JUMPDEST PUSH0 DUP2 ISZERO ISZERO SWAP1 POP SWAP2 SWAP1 POP JUMP JUMPDEST PUSH2 0x264 DUP2 PUSH2 0x250 JUMP JUMPDEST DUP2 EQ PUSH2 0x26E JUMPI PUSH0 DUP1 REVERT JUMPDEST POP JUMP JUMPDEST PUSH0 DUP2 MLOAD SWAP1 POP PUSH2 0x27F DUP2 PUSH2 0x25B JUMP JUMPDEST SWAP3 SWAP2 POP POP JUMP JUMPDEST PUSH0 PUSH1 0x20 DUP3 DUP5 SUB SLT ISZERO PUSH2 0x29A JUMPI PUSH2 0x299 PUSH2 0x166 JUMP JUMPDEST JUMPDEST PUSH0 PUSH2 0x2A7 DUP5 DUP3 DUP6 ADD PUSH2 0x271 JUMP JUMPDEST SWAP2 POP POP SWAP3 SWAP2 POP POP JUMP JUMPDEST PUSH1 0x80 MLOAD PUSH2 0x3F2 PUSH2 0x2CE PUSH0 CODECOPY PUSH0 DUP2 DUP2 PUSH1 0x74 ADD MSTORE PUSH2 0x183 ADD MSTORE PUSH2 0x3F2 PUSH0 RETURN INVALID PUSH1 0x80 PUSH1 0x40 MSTORE CALLVALUE DUP1 ISZERO PUSH2 0xF JUMPI PUSH0 DUP1 REVERT JUMPDEST POP PUSH1 0x4 CALLDATASIZE LT PUSH2 0x34 JUMPI PUSH0 CALLDATALOAD PUSH1 0xE0 SHR DUP1 PUSH4 0x125BFB66 EQ PUSH2 0x38 JUMPI DUP1 PUSH4 0xB2BDFA7B EQ PUSH2 0x54 JUMPI JUMPDEST PUSH0 DUP1 REVERT JUMPDEST PUSH2 0x52 PUSH1 0x4 DUP1 CALLDATASIZE SUB DUP2 ADD SWAP1 PUSH2 0x4D SWAP2 SWAP1 PUSH2 0x236 JUMP JUMPDEST PUSH2 0x72 JUMP JUMPDEST STOP JUMPDEST PUSH2 0x5C PUSH2 0x181 JUMP JUMPDEST PUSH1 0x40 MLOAD PUSH2 0x69 SWAP2 SWAP1 PUSH2 0x295 JUMP JUMPDEST PUSH1 0x40 MLOAD DUP1 SWAP2 SUB SWAP1 RETURN JUMPDEST PUSH32 0x0 PUSH20 0xFFFFFFFFFFFFFFFFFFFFFFFFFFFFFFFFFFFFFFFF AND CALLER PUSH20 0xFFFFFFFFFFFFFFFFFFFFFFFFFFFFFFFFFFFFFFFF AND EQ PUSH2 0x100 JUMPI PUSH1 0x40 MLOAD PUSH32 0x8C379A000000000000000000000000000000000000000000000000000000000 DUP2 MSTORE PUSH1 0x4 ADD PUSH2 0xF7 SWAP1 PUSH2 0x308 JUMP JUMPDEST PUSH1 0x40 MLOAD DUP1 SWAP2 SUB SWAP1 REVERT JUMPDEST DUP3 PUSH20 0xFFFFFFFFFFFFFFFFFFFFFFFFFFFFFFFFFFFFFFFF AND PUSH4 0xA9059CBB DUP4 DUP4 PUSH1 0x40 MLOAD DUP4 PUSH4 0xFFFFFFFF AND PUSH1 0xE0 SHL DUP2 MSTORE PUSH1 0x4 ADD PUSH2 0x13B SWAP3 SWAP2 SWAP1 PUSH2 0x335 JUMP JUMPDEST PUSH1 0x20 PUSH1 0x40 MLOAD DUP1 DUP4 SUB DUP2 PUSH0 DUP8 GAS CALL ISZERO DUP1 ISZERO PUSH2 0x157 JUMPI RETURNDATASIZE PUSH0 DUP1 RETURNDATACOPY RETURNDATASIZE PUSH0 REVERT JUMPDEST POP POP POP POP PUSH1 0x40 MLOAD RETURNDATASIZE PUSH1 0x1F NOT PUSH1 0x1F DUP3 ADD AND DUP3 ADD DUP1 PUSH1 0x40 MSTORE POP DUP2 ADD SWAP1 PUSH2 0x17B SWAP2 SWAP1 PUSH2 0x391 JUMP JUMPDEST POP POP POP POP JUMP JUMPDEST PUSH32 0x0 DUP2 JUMP JUMPDEST PUSH0 DUP1 REVERT JUMPDEST PUSH0 PUSH20 0xFFFFFFFFFFFFFFFFFFFFFFFFFFFFFFFFFFFFFFFF DUP3 AND SWAP1 POP SWAP2 SWAP1 POP JUMP JUMPDEST PUSH0 PUSH2 0x1D2 DUP3 PUSH2 0x1A9 JUMP JUMPDEST SWAP1 POP SWAP2 SWAP1 POP JUMP JUMPDEST PUSH2 0x1E2 DUP2 PUSH2 0x1C8 JUMP JUMPDEST DUP2 EQ PUSH2 0x1EC JUMPI PUSH0 DUP1 REVERT JUMPDEST POP JUMP JUMPDEST PUSH0 DUP2 CALLDATALOAD SWAP1 POP PUSH2 0x1FD DUP2 PUSH2 0x1D9 JUMP JUMPDEST SWAP3 SWAP2 POP POP JUMP JUMPDEST PUSH0 DUP2 SWAP1 POP SWAP2 SWAP1 POP JUMP JUMPDEST PUSH2 0x215 DUP2 PUSH2 0x203 JUMP JUMPDEST DUP2 EQ PUSH2 0x21F JUMPI PUSH0 DUP1 REVERT JUMPDEST POP JUMP JUMPDEST PUSH0 DUP2 CALLDATALOAD SWAP1 POP PUSH2 0x230 DUP2 PUSH2 0x20C JUMP JUMPDEST SWAP3 SWAP2 POP POP JUMP JUMPDEST PUSH0 DUP1 PUSH0 PUSH1 0x60 DUP5 DUP7 SUB SLT ISZERO PUSH2 0x24D JUMPI PUSH2 0x24C PUSH2 0x1A5 JUMP JUMPDEST JUMPDEST PUSH0 PUSH2 0x25A DUP7 DUP3 DUP8 ADD PUSH2 0x1EF JUMP JUMPDEST SWAP4 POP POP PUSH1 0x20 PUSH2 0x26B DUP7 DUP3 DUP8 ADD PUSH2 0x1EF JUMP JUMPDEST SWAP3 POP POP PUSH1 0x40 PUSH2 0x27C DUP7 DUP3 DUP8 ADD PUSH2 0x222 JUMP JUMPDEST SWAP2 POP POP SWAP3 POP SWAP3 POP SWAP3 JUMP JUMPDEST PUSH2 0x28F DUP2 PUSH2 0x1C8 JUMP JUMPDEST DUP3 MSTORE POP POP JUMP JUMPDEST PUSH0 PUSH1 0x20 DUP3 ADD SWAP1 POP PUSH2 0x2A8 PUSH0 DUP4 ADD DUP5 PUSH2 0x286 JUMP JUMPDEST SWAP3 SWAP2 POP POP JUMP JUMPDEST PUSH0 DUP3 DUP3 MSTORE PUSH1 0x20 DUP3 ADD SWAP1 POP SWAP3 SWAP2 POP POP JUMP JUMPDEST PUSH32 0x216F000000000000000000000000000000000000000000000000000000000000 PUSH0 DUP3 ADD MSTORE POP JUMP JUMPDEST PUSH0 PUSH2 0x2F2 PUSH1 0x2 DUP4 PUSH2 0x2AE JUMP JUMPDEST SWAP2 POP PUSH2 0x2FD DUP3 PUSH2 0x2BE JUMP JUMPDEST PUSH1 0x20 DUP3 ADD SWAP1 POP SWAP2 SWAP1 POP JUMP JUMPDEST PUSH0 PUSH1 0x20 DUP3 ADD SWAP1 POP DUP2 DUP2 SUB PUSH0 DUP4 ADD MSTORE PUSH2 0x31F DUP2 PUSH2 0x2E6 JUMP JUMPDEST SWAP1 POP SWAP2 SWAP1 POP JUMP JUMPDEST PUSH2 0x32F DUP2 PUSH2 0x203 JUMP JUMPDEST DUP3 MSTORE POP POP JUMP JUMPDEST PUSH0 PUSH1 0x40 DUP3 ADD SWAP1 POP PUSH2 0x348 PUSH0 DUP4 ADD DUP6 PUSH2 0x286 JUMP JUMPDEST PUSH2 0x355 PUSH1 0x20 DUP4 ADD DUP5 PUSH2 0x326 JUMP JUMPDEST SWAP4 SWAP3 POP POP POP JUMP JUMPDEST PUSH0 DUP2 ISZERO ISZERO SWAP1 POP SWAP2 SWAP1 POP JUMP JUMPDEST PUSH2 0x370 DUP2 PUSH2 0x35C JUMP JUMPDEST DUP2 EQ PUSH2 0x37A JUMPI PUSH0 DUP1 REVERT JUMPDEST POP JUMP JUMPDEST PUSH0 DUP2 MLOAD SWAP1 POP PUSH2 0x38B DUP2 PUSH2 0x367 JUMP JUMPDEST SWAP3 SWAP2 POP POP JUMP JUMPDEST PUSH0 PUSH1 0x20 DUP3 DUP5 SUB SLT ISZERO PUSH2 0x3A6 JUMPI PUSH2 0x3A5 PUSH2 0x1A5 JUMP JUMPDEST JUMPDEST PUSH0 PUSH2 0x3B3 DUP5 DUP3 DUP6 ADD PUSH2 0x37D JUMP JUMPDEST SWAP2 POP POP SWAP3 SWAP2 POP POP JUMP INVALID LOG2 PUSH5 0x6970667358 0x22 SLT KECCAK256 CALLDATALOAD PUSH30 0xBA3D4EC1D00B4A416411F6F2FFC277C501D6CFB8A6ADE16736870CDCBBC1 PUSH5 0x736F6C6343 STOP ADDMOD BYTE STOP CALLER "
		},
		"gasEstimates": {
			"creation": {
				"codeDepositCost": "202000",
				"executionCost": "infinite",
				"totalCost": "infinite"
			},
			"external": {
				"_owner()": "infinite",
				"claimToken(address,address,uint256)": "infinite"
			}
		},
		"methodIdentifiers": {
			"_owner()": "b2bdfa7b",
			"claimToken(address,address,uint256)": "125bfb66"
		}
	},
	"abi": [
		{
			"inputs": [
				{
					"internalType": "address",
					"name": "token",
					"type": "address"
				},
				{
					"internalType": "address",
					"name": "mainContract",
					"type": "address"
				}
			],
			"stateMutability": "nonpayable",
			"type": "constructor"
		},
		{
			"inputs": [],
			"name": "_owner",
			"outputs": [
				{
					"internalType": "address",
					"name": "",
					"type": "address"
				}
			],
			"stateMutability": "view",
			"type": "function"
		},
		{
			"inputs": [
				{
					"internalType": "address",
					"name": "token",
					"type": "address"
				},
				{
					"internalType": "address",
					"name": "to",
					"type": "address"
				},
				{
					"internalType": "uint256",
					"name": "amount",
					"type": "uint256"
				}
			],
			"name": "claimToken",
			"outputs": [],
			"stateMutability": "nonpayable",
			"type": "function"
		}
	]
}